:100000000C9481020C94B9020C94B9020C94B902BC
:100010000C94B9020C94B9020C94B9020C94B90274
:100020000C94B9020C94B9020C949F280C94732977
:100030000C94B5230C94B9020C94B9020C94B90237
:100040000C94B9020C94B9020C94B9020C94B90244
:100050000C94B9020C943C240C94B9020C94B9028F
:100060000C94B9020C94B9020C94B9020C94B90224
:100070000C94B9020C94B9020C94B9020C94B90214
:100080000C94B9020C94B9020C94B9020C94B90204
:100090000C94B9020C94B9020C94B9020C94B902F4
:1000A0000C94B9020C94B9020C94B9020401FA0040
:1000B000F000E600DC00D200C800BE000000030132
:1000C0000000FFFF0000000002010000FFFF000031
:1000D000000001010000FFFF00000000000100001F
:1000E000FFFF000000000004AAFFFFFF0000000067
:1000F000000455FFFFFF00000000000400FFFFFFA9
:100100000000000000040000FFFF00000000A90044
:10011000AA00237824784F00500025782678AC0078
:10012000A842AB00AD00AE00AF00B200B100B341D9
:100130002178207822782878407E27782E432C78E2
:1001400001000100010001000100010001000100A7
:100150000100010001000100010001000100010097
:100160000100010001001E0F0500047F3F1F6432E3
:1001700014643214783C1E1E140A052223252628F6
:10018000292A2C2D2F3032333536383A3B3D3E402C
:1001900042434547494A4C4E5051535557595A5C72
:1001A0005E6062646668696B6D6F71737577797B89
:1001B0007D7F81838587898A8C8E90929496989A88
:1001C0009C9E9FA1A3A5A7A8AAACAEAFB1B3B4B69D
:1001D000B8B9BBBCBEBFC1C2C3C5C6C7C9CACBCCF8
:1001E000CDCED0D1D2D2D3D4D5D6D7D7D8D9D9DACB
:1001F000DADBDBDBDCDCDCDCDCDDDDDDDDDCDCDC40
:10020000DCDCDBDBDBDADAD9D9D8D7D7D6D5D4D367
:10021000D2D2D1D0CECDCCCBCAC9C7C6C5C3C2C13C
:10022000BFBEBCBBB9B8B6B4B3B1AFAEACAAA8A799
:10023000A5A3A19F9E9C9A98969492908E8C8A8951
:10024000878583817F7D7B79777573716F6D6B692E
:1002500068666462605E5C5A5957555351504E4C03
:100260004A4947454342403E3D3B3A3836353332B2
:10027000302F2D2C2A292826252322FFAA7F5540FE
:100280000001010101010101010102020202020259
:10029000020202030303030303030304040404042C
:1002A00004040505050505060606060607070707F3
:1002B0000708080808090909090A0A0A0B0B0B0CA8
:1002C0000C0C0D0D0D0E0E0E0F0F0F101011111145
:1002D00012121313141415151616171718181919C6
:1002E0001A1A1B1B1C1D1D1E1E1F2020212222232B
:1002F0002424252626272829292A2B2C2D2D2E2F6C
:1003000030313232333435363738393A3B3C3D3E82
:100310003F404142434445464748494A4C4D4E4F71
:1003200050515354555658595A5B5D5E5F61626433
:10033000656668696B6C6D6F7072737577787A7BC0
:100340007D7E8082838587888A8C8E8F9193959617
:10035000989A9C9EA0A2A3A5A7A9ABADAFB1B3B537
:10036000B7BABCBEC0C2C4C6C9CBCDCFD1D4D6D813
:10037000DBDDDFE2E4E7E9EBEEF0F3F5F8FAFDFFB1
:1003800014034E006F006F0064006C0065005000A5
:100390006100640000001E03540068006500200036
:1003A0004D006100640020004E006F006F0064008B
:1003B0006C00650000000403090409023B0002010F
:1003C00000A0FA0904000001030101000921110144
:1003D000000122440007058103080001090401000F
:1003E000010300000009211101000122B6000705E8
:1003F000820320000112010002000000086C6A0262
:100400000000020102000105010902A101850209A3
:1004100001A1000509190129081500250195087594
:100420000181020501093009311581257F95027589
:1004300008810609381581257F9501750881060513
:100440000C0A38021581257F950175088106C0C008
:1004500005010980A101850319012AB700150126AC
:10046000B700950175108100C0050C0901A1018537
:100470000419012AA002150126A002950175108118
:1004800000C005010906A1018506050719E029E755
:10049000150025019508750181020507190029EF4E
:1004A0001500250195F0750181020508190129053E
:1004B000950575019102950175039101C00501092A
:1004C00006A101050719E029E71500250195087522
:1004D0000181029501750881010507190029FF15A1
:1004E0000026FF00950675088100050819012905F9
:1004F000150025019505750191029501750391017E
:10050000C00011241FBECFEFDAE0DEBFCDBF04B6BE
:1005100003FE18C08091260390912703A091280321
:10052000B09129038730904BA740B04B59F41092FB
:100530002603109227031092280310922903E0E06B
:10054000F8E3099511E0A0E0B1E0E2EDFAE502C0C0
:1005500005900D92A23EB107D9F723E0A2EEB1E0DB
:1005600001C01D92A632B207E1F70E9466130C94F7
:10057000132D0C9400008CEA90E09093C4028093B9
:10058000C3020895CF9380342EE79207C1F0C1E0F3
:1005900081349E4709F07FC0FB018581882399F053
:1005A0008091F6019091F7010E94C004843058F4C4
:1005B0008F5F843009F480E00E94EF0804C0FB01E3
:1005C0008581811102C0C0E066C0C091F80281E05F
:1005D000C827C093F802CC2329F180E00E94E708E5
:1005E000882321F061E084E00E94E51481E00E940C
:1005F000E708882321F061E085E00E94E51482E0AD
:100600000E94E708882321F061E086E00E94E5145B
:1006100083E00E94E7088823B1F261E087E00E944E
:10062000E514D1CF60E084E00E94E51460E085E04D
:100630000E94E51460E086E00E94E51460E087E037
:100640000E94E51480E00E94E708882329F068EE04
:1006500073E080E00E94361581E00E94E70888235D
:1006600029F068EE73E081E00E94361582E00E9476
:10067000E708882329F068EE73E082E00E943615CF
:1006800083E00E94E708882309F49DCF68EE73E0B9
:1006900083E00E9436158C2FCF910895CF93DF937E
:1006A000EC018091F802882321F160E0CE010E94E4
:1006B000D308682F84E00E94E51461E0CE010E9417
:1006C000D308682F85E00E94E51462E0CE010E9405
:1006D000D308682F86E00E94E51463E0CE010E94F3
:1006E000D308682F87E00E94E514CE01DF91CF91F7
:1006F0000895CE010E94C004813061F0882321F06A
:10070000823061F0833071F064EF71E080E00E942C
:100710003615EBCF64EF71E081E0F9CF64EF71E063
:1007200082E0F5CF64EF71E083E0F1CF8430B8F47C
:100730006330A8F4433098F450E093E0699F400D93
:10074000511D1124FA0199E0899FE00DF11D11243A
:10075000EE0FFF1FE25EFE4F85919491089581E0B8
:1007600090E008950E9496030895843088F4611102
:100770000FC090E0880F991FE1E0E427E80FF92F00
:10078000F11DEE0FFF1FE25FFE4F859194910895DA
:1007900081E090E008950E94B503089581E00895F6
:1007A0000E94CE03089581E008950E94C202089538
:1007B00008950E94D8030895A6E0B0E0E2EEF3E0C9
:1007C0000C94B62B49835A839E833091E901898129
:1007D0009A8131111AC03E81332399F0222389F086
:1007E0000E94D009182F682F89819A810E949D0943
:1007F00069817A81812F0E94DE102696E3E00C94B5
:10080000D22B0E94B709182FF3CF0E94D00969811B
:100810007A81F1CFFC01262F408151816281738161
:10082000848195810E94DC030895CF93DF93EC01CE
:1008300061E00E940A04BE010E94D003DF91CF91C3
:100840000895CF93DF93EC0160E00E940A04BE019B
:100850000E94D903DF91CF91089581E008950E940D
:100860002D040895CF93C82F0E9459088C2F0E9401
:100870002F042FEF84E39CE0215080409040E1F76B
:1008800000C00000CF91089581E00E9432040E94D0
:100890006024089580E00E9432040E948424089518
:1008A0000F931F93CF93DF938C0161E00E940A04A2
:1008B000EC01F801858181110E94051CB801CE016F
:1008C0000E94D503811106C080E0DF91CF911F9176
:1008D0000F910895B801CE010E9489218823A1F3C8
:1008E000B801CE010E94B31D882371F3B801CE0177
:1008F0000E94891D882341F3B801CE010E94241C67
:10090000882311F3F8018581882361F0C330FCE767
:10091000DF07E9F058F4C115ECE7DE07A9F0C130B4
:10092000DC47B9F0C8010E94D303CFCFCB358CE7A9
:10093000D807A9F0CC35ECE7DE0771F0CA35DC4703
:1009400089F70E94170EEECF0E944404BDCF0E948B
:100950001F0E0E944A04B8CF0E940D0EE3CF0E94E2
:100960001B0EE0CF0E9492230E9401050E943B1AB9
:1009700008950E9405050E943C1B0E94972308953C
:10098000292F332740E02115310511F0C90148E036
:100990009C0164E0369527956A95E1F721153105AC
:1009A00011F04C5FC9019C01369527953695279526
:1009B0002115310511F04E5FC90196958795892B58
:1009C00009F04F5F842F0895089581E008950895F8
:1009D000CF93DF93D82F0E94E504C82F882319F006
:1009E0008D2F0E94E7048C2FDF91CF9108950895F9
:1009F000CF93C82F0E94E4048C2F0E94E804CF916B
:100A0000089580E00E94F80408950E94D2210E9477
:100A1000F8040895CF930E94D221C82F8091E40159
:100A20008C1779F0C093E4010E9421246093E501C2
:100A30007093E6018093E7019093E8018C2F0E9468
:100A4000F804CF910895ADE0B0E0E9E2F5E00C9450
:100A5000B72B488759876A877B878C879D87911139
:100A60000E941D0D1F8286E0FE013896DE01119660
:100A700001900D928A95E1F78D8181110DC0298138
:100A80003A814B815C816D817E818F810E94670CF0
:100A90002D96E2E00C94D32BCE0101960E94150412
:100AA0008111EDCFF5CFFC012481213021F480812B
:100AB00091810E94020A0895662329F00E94141F62
:100AC0000E94F91F08950E94801FFACFCF93C82F6C
:100AD000882399F08CEF8C0F813A88F48C2F0E9438
:100AE0007222882329F08C2F0E9412230E94B10DBC
:100AF0008C2F0E94FB220E94B10DCF91089580E2BD
:100B00008C0F883048F4C77081E001C0880FCA9507
:100B1000EAF70E94000DEFCFEBE5EC0FE33040F475
:100B2000F0E0EC59FE4F808190E00E940622E5CF74
:100B3000E8E5EC0FEB3150F4F0E0EE0FFF1FE25D63
:100B4000FE4F808191810E942B22D7CF83E38C0FAF
:100B5000833198F661E08C2F0E945C05CECF88230C
:100B600081F19CEF980F913A28F40E9412230E9481
:100B7000B10D089590E2980F983050F4877091E08D
:100B800001C0990F8A95EAF7892F0E94060DEFCFD1
:100B90009BE5980F933028F490E080E00E940622B5
:100BA000089598E5980F9B3128F490E080E00E942A
:100BB0002B22089593E3980F933118F460E00E947C
:100BC0005C0508951F93CF93DF93182FEB010E94CC
:100BD0006605209739F4812F0E94AF05DF91CF91F0
:100BE0001F9108958FE99FE00197F1F700C0000081
:100BF0002197EFCF70E060E0893311F460E570E099
:100C00000E94E2050895882321F00E94000D0E94B1
:100C1000B10D0895882321F00E94060D0E94B10DA8
:100C20000895B0E0A0E0E7E1F6E00C94B02B6C0191
:100C3000D62FC72FFC011581068102950F700E94E7
:100C4000F60CE82E8823F9F0E12E1123E1F08C2F29
:100C5000807F803461F080E28D0F883008F18C2F26
:100C6000807E803221F4D230D8F00023C9F0809108
:100C7000FA0282FF15C082E00E94E10D0E94F60C8C
:100C800091E0E82EE926BC2EB2949FE0B922FBE069
:100C9000FB15B8F1EB2DF0E0EB5EF24D0C94702BF0
:100CA000E12CF1CF0C2F0F70C07F11F00295007F67
:100CB000112399F0002359F080E28D0F883010F055
:100CC000D11107C0802F0E94000D0E94B10D8D2F01
:100CD0005AC0802F0E94100DF8CF8D2F0E94AF05B3
:100CE000002379F080E28D0F883010F0D11104C01C
:100CF000802F0E94060D03C0802F0E94160D0E94B7
:100D0000B10DEB2DE850FF0B349720F40E94D22157
:100D10000E94F804EE2089F00E94F20C80FD0DC0C4
:100D2000F60115820E94EC0C0E94FB08C6010E948D
:100D300020080E94EC0C0E940B09CDB7DEB7E9E059
:100D40000C94CC2B2C2F2F70F22EC07FC03219F0B8
:100D5000F29480EFF822DD2341F0D130D1F111235C
:100D600009F444C00023F1F0B2CF8091FA0282FD71
:100D700015C0112359F0FF2029F08F2D0E94000D7E
:100D80000E94B10D80E00E946605BBCF80E00E940A
:100D9000AF05FF2009F4B5CF8F2DABCF112369F03C
:100DA000011104C08F2D0E940306ABCF013009F062
:100DB000A8CF8F2D0E94340DA4CF0111A2CF8F2D6B
:100DC0000E940A068F2D0E94400D8F2D0E94240D37
:100DD00098CF112321F0063008F093CFE3CF0530F0
:100DE00008F08FCF8F2D0E940A068BCF0023D1F3FE
:100DF000D93349F43FEF87EE93E031508040904083
:100E0000E1F700C000008D2F0E94AF057ACF8C2F34
:100E100086958695837069F0813009F072CF8D2FA9
:100E20009C2F9370111102C080E090E00E942B2251
:100E300068CF8D2F9C2F9370111102C080E090E03D
:100E40000E9406225ECF612F8D2F0E945C0559CF34
:100E50008C2F8370A1F5111154CF4D2F42954695DB
:100E60004770440F440F2D2F2F7030E0042E02C026
:100E7000220F331F0A94E2F790E080E0D4FF09C00C
:100E80008FE090E002C0880F991F4A95E2F78095A5
:100E90009095C695C695C370822B932BC23049F0AE
:100EA00058F4C13019F00E94B2082BCF0E94A90853
:100EB00028CF0E94BB0825CF0E94A60822CF869586
:100EC000112311F08C2F8170882309F41ACF4D2F34
:100ED000429546954770440F440F2D2F2F7030E0F8
:100EE000042E02C0220F331F0A94E2F790E080E044
:100EF000D4FF09C08FE090E002C0880F991F4A9587
:100F0000E2F780959095C695C695C370822B932B7A
:100F1000C23049F058F4C13019F00E943609F1CEC0
:100F20000E942D09EECE0E943F09EBCE0E94C70819
:100F3000E8CECF70112329F08C2F0E94FB088D2F53
:100F400032CF8D2F0E940A068C2F0E940B09D9CE1A
:100F5000D23F41F160F4D03FB9F0D13F81F011238D
:100F600009F446C00111B3CE8C2F8F711FC0D33F3F
:100F700001F1D43FA1F78091FA0282FD24C08C2FA9
:100F80008F71112311F312C0112341F0053008F0C5
:100F9000B8CE8C2F8F710E941D09B3CE063008F099
:100FA000B0CEF7CF8C2F8F711111CFCF0E94FB08DD
:100FB000A8CE112329F08C2F8F710E94EF08A1CEAB
:100FC0000E94CE089ECE112349F0CF718C2F0E9433
:100FD000FB0863E08C2F0E94C30D93CE81E00E943A
:100FE000E10D023008F48DCE82E00E94E10D89CE41
:100FF000002359F0D93309F006CFEFEFF7EE23E0E5
:10100000E150F0402040E1F7FCCE8C2F8F719DCF56
:101010000F931F93CF93DF93EC01688179818D81CA
:101020000E940D0A8C010E9448090E94A508B8017F
:10103000CE010E941106DF91CF911F910F9108956B
:10104000CF93DF93EC018C81882399F0CE010E942D
:101050005004811111C00E94F60C882351F08D813B
:10106000882339F08091FA0282FF03C082E00E9457
:10107000E10DDF91CF910895CE010E940808CE01C5
:101080000E942104F6CF90E080E00E94062290E0CA
:1010900080E00E942B220E941D0D0E94B10D0E9433
:1010A00015200E94F91F08950E9429230E944308D9
:1010B00008950E940D0D0E945408089592959F7006
:1010C000963091F058F4925F9F70923058F4803FC0
:1010D00019F030F4883E30F481E008959A5FF4CF3F
:1010E000843FD1F380E00895883EB0F3813FD1F78B
:1010F000F3CFFC012481222339F0808191810E9469
:10110000020A0E945E08089580E00895A6E0B0E01B
:10111000ECE8F8E00C94B72B2696E2E00C94D32B85
:10112000A7E0B0E0E6E9F8E00C94B72B2796E2E000
:101130000C94D32B08950E949A0808950E949B084E
:101140009093F9018093F801089508950E949E08F4
:1011500008952091F8013091F901822B932B0E9480
:101160009E0808952091F8013091F901822393237C
:101170000E949E0808952091F8013091F90182277C
:1011800093270E949E0808950E944E0308950E948E
:10119000C4089093F7018093F601089590E080E0F1
:1011A0000E94C7080895009729F481E0662371F032
:1011B00080E00CC021E030E002C0220F331F6A95AE
:1011C000E2F72823392381E0232B91F30895682F38
:1011D0008091F6019091F7010E94D308089521E0D3
:1011E00030E0A90102C0440F551F8A95E2F7CA01F9
:1011F0000E94C708089521E030E002C0220F331F8B
:101200008A95E2F78091F6019091F701822B932B5A
:101210000E94C708089521E030E002C0220F331F6A
:101220008A95E2F7209530958091F6019091F7012B
:10123000822393230E94C708089521E030E002C072
:10124000220F331F8A95E2F78091F6019091F70102
:10125000822793270E94C70808952091F6013091B4
:10126000F701822B932B0E94C70808952091F60165
:101270003091F701822393230E94C708089520919B
:10128000F6013091F701822793270E94C70808953D
:101290000895262F277091E001C0990F2A95EAF74B
:1012A00023E0769567952A95E1F7660F771F660F1D
:1012B000771FFA01E60FF71F50E040E0682F70E05B
:1012C0008191DF0111979B01042E02C0369527956D
:1012D0000A94E2F7217021952827292328272C93A7
:1012E0004F5F5F4F4430510559F70895A82FA770FD
:1012F00023E0969587952A95E1F7880F991F880F27
:10130000991FFB01E80FF91F50E040E080E02191B8
:1013100030E00A2E02C0369527950A94E2F7217034
:101320003327042E01C0220F0A94EAF7822B4F5F65
:101330005F4F4430510559F70895282F862F933079
:1013400070F4233058F4622F70E023E0929F600D18
:10135000711D11244EEE51E00E94490908959C5FD1
:101360009230E0F7622F70E04AEE51E0F5CF292F7E
:10137000933068F4833090F490E06EEE71E033E0E7
:10138000239F800D911D11240E94760908952C5FE2
:10139000223020F46AEE71E090E0F6CF80E008950C
:1013A000B0E0A0E0E6EDF9E00C94B02B7C010091F8
:1013B000F6011091F7018091F8019091F901082B45
:1013C000192BCFE0D0E0CC24C394D12CBC2EC60185
:1013D0000C2E02C0880F991F0A94E2F780239123F4
:1013E000892B49F4219790F7B12C8B2DCDB7DEB71F
:1013F000E9E00C94CC2BB7018C2F0E94F7100197D9
:1014000089F3F3CFCF93DF93EC010E94D009BE01A3
:101410000E94F710DF91CF9108951F93CF93DF9330
:10142000EB019091E901992339F0CB010E94020A66
:10143000DF91CF911F910895882369F0CB010E941D
:10144000D009182F682FCE010E949D09BE01812F5F
:101450000E94F710EDCFCB010E94B709182FF6CFED
:101460001F93CF93DF93C091FA0117E08091FB01A6
:101470008C1304C0DF91CF911F910895D0E01C9F81
:10148000F0011D9FF00D1124E450FE4F20813181A9
:10149000428153816481758186810E9490082196E2
:1014A000C770E4CF2091340230913502409136026A
:1014B00050913702609138027091390280913A025E
:1014C0000E9490080895CF93DF9380913A02807F25
:1014D00009F04DC080913902882309F448C0E09199
:1014E000FA015091FB01C0913502D0913402609114
:1014F00036027091370247E05E17C9F18E2F90E0F7
:10150000E49FF0011124E450FE4F2481222391F145
:10151000489FF001499FF00D1124DF01A450BE4FF8
:1015200011962C9111972C1325C02C912D1322C0AC
:1015300015962C91159721111DC012962D913C9155
:10154000261B370B283C3105A8F480913A028F7096
:10155000806180933A02EE5FFD4F80818F708061E1
:10156000808384E392E00E9420080E94300ADF9189
:10157000CF910895FC013196E770BECF482F20919E
:10158000FA019091FB0157E0291302C080E0089511
:1015900030E0529FF001539FF00D1124E450FE4FB4
:1015A0008181681306C08081481303C08581811141
:1015B000EECF2F5F3F4F2770E7CFA4E1B0E0E3EE1F
:1015C000FAE00C94AD2B8C0186E0F801DE011F9649
:1015D00001900D928A95E1F7F8018481E58094E30A
:1015E000A92E92E0B92E9091380291111FC0882344
:1015F000D1F0EE20A9F0C8010E947908F82E8823C6
:1016000079F087E0F801D50101900D928A95E1F714
:10161000C5010E9453050E94630A0E94520A5FC0DE
:10162000C8010E942008FF24F39459C0C080D180D3
:1016300082809380F09039022091360230913702F7
:10164000A401421B530BFF2009F4F9C0483C51058B
:1016500008F0A7C0882309F442C090913502809118
:101660003A02282F207F09F05CC09D1116C090918E
:101670003402C91212C0E1104EC08F708061809395
:101680003A020E94520A84E392E00E94200880916C
:101690003A02F8018683F12C22C0E1103CC06D2D86
:1016A0008C2D0E94BE0A6D2D8C2D0E94BE0AE82E44
:1016B0008111F1CFCF86D88A8F8598890E94020A3E
:1016C000292F22952F70243078F49F702230A8F0B3
:1016D0009923B9F0F8019681907F99F4FE2C8F2D13
:1016E0006496ECE00C94C92B2A5F2F70223068F0CE
:1016F000C8010E942008EF2CF1CF992311F0882314
:1017000069F3805E883050F3F3CF803F38F3815F18
:10171000833070F7E3CF80913A02816080933A0280
:10172000BACF9D1113C090913402C9120FC0E110BD
:101730000DC08683C8010E94200887E0F801A4E359
:10174000B2E001900D928A95E1F767CFC8010E943F
:101750007908882309F464CFEE2009F461CF8091E1
:101760003A02803288F02091340230913502398774
:1017700028879B868A86909138029C871D868E8753
:10178000CE0108960E94200887E0F801A4E3B2E0A9
:1017900001900D928A95E1F70E94630A0E94520A15
:1017A00042CF90913A02292F207FA1F4682D9A8A86
:1017B000898AA6017A899E2D0E94860884E392E098
:1017C0000E94200887E0F50111928A95E9F70E94AE
:1017D000520A61CF882309F482CF809135028D119E
:1017E00010C080913402C8120CC0E1100AC0968368
:1017F000C8010E94200887E0F50111928A95E9F757
:101800006ECFC8010E947908882309F409CFEE2021
:1018100009F406CF80913A02803208F4B5CF2091C6
:101820003402309135023A8329839C828B829091D5
:1018300038029D831E828F83CE010196A3CF483C40
:101840005105B8F5882309F4EECEFE2CEE2009F4FC
:10185000E7CE809135028D111EC080913402C812EE
:101860001AC080913A0280FD0DC0982F907F51F0F0
:101870008683903F09F45ECF982F907F905F8F70A2
:10188000892B57CF87E0F801A4E3B2E001900D92D5
:101890008A95E1F724CFC8010E947908811174CF9D
:1018A00080913A02816080933A02C8010E94200828
:1018B00016CF682D9A8A898AA6017A899E2D0E9460
:1018C000860887E0F50111928A95E9F7A6CEAEE089
:1018D000B0E0EDE6FCE00C94B62B288739874A8708
:1018E0005B876C877D878E87CE0108960E94DD0A14
:1018F0008823B1F06C85662341F0288539854A85B7
:101900005B857D858E850E94900817E08091FA01A5
:101910009091FB0189133DC02E96E3E00C94D22BED
:1019200087E0FE013896DE01119601900D928A95AE
:10193000E1F78C85882349F32091FB0130E0C90150
:101940000196877099274091FA014817190699F076
:1019500097E0929FD001939FB00D1124A450BE4FE9
:10196000FE01319601900D929A95E1F78093FB016B
:101970000E94300ACACF0E9459081092FB011092AF
:10198000FA0187E0E4E3F2E0DF011D928A95E9F7CE
:10199000BCCF819FC001112484509E4F0E94DD0A5C
:1019A000882309F4B9CFE091FA011E9FF0011124B8
:1019B000E450FE4F208131814281538164817581E1
:1019C00086810E9490088091FA0190E001968770CC
:1019D00099278093FA019ACF809163028695869524
:1019E00086950895809163028770089590916302AF
:1019F000977081E009F480E0089580918F02089546
:101A000090918F02892B80938F02089580959091F9
:101A10008F02982390938F02089510928F02089559
:101A200090918E02892B80938E02089580959091DB
:101A30008E02982390938E02089510928E0208953C
:101A400008950E94200D089590916402292F282363
:101A500031F080958923809364020E94210D0895BE
:101A600008950E94300D089590916502292F282332
:101A7000281729F0982B909365020E94310D089544
:101A800090916502292F282331F080958923809336
:101A900065020E94310D089580916502882329F026
:101AA0001092650280E00E94310D0895CF93C0919D
:101AB0008F0280918E02C82B80916502882331F0BD
:101AC000C82B0E94502281110E944C0D8C2FCF9167
:101AD0000895CF93DF93C0910601D09107010E9432
:101AE000560D8883C0910601D091070148E050E06F
:101AF0006BE572E0CE010E94862C892B59F088E0BC
:101B0000FE01ABE5B2E001900D928A95E1F7CE01BE
:101B10000E94DF21DF91CF910895CF93DF93C09191
:101B20000401D09105010E94560D8983C0910401E2
:101B3000D091050140E250E06BE372E0CE010E94DB
:101B4000862C892B59F080E2FE01ABE3B2E00190D4
:101B50000D928A95E1F7CE010E94EA21DF91CF91A3
:101B6000089580912D01882339F08091F90287FF33
:101B700003C00E948D0D08950E94690D0895089577
:101B80000E94BF0D08959091FA0292FF11C098E053
:101B9000899F90011124622B609363020E94FB08CD
:101BA000809163028695869586950E94C00D089562
:101BB0000E94FB0808951092630280E00E94C00D0D
:101BC0000895909163028095892380936302282F62
:101BD000277069F4891759F09091FA0292FF07C0B3
:101BE0008695869586950E940B090E94DB0D0895C7
:101BF0009091FA0292FB222720F9281769F080FBC6
:101C000092F99093FA028091F9029091FA020E945F
:101C1000400E82E00E94E10D08958091FA0282FB5D
:101C2000882780F991E089270E94F80D089581E0C6
:101C30000E94F80D089580E00E94F80D08956FEF5E
:101C40007FEF90E080E00E94DE2C089590E080E03D
:101C50000E94AA2C21E0863E9E4F09F020E0822FB0
:101C6000089582E090E00E949C2C089583E090E02B
:101C70000E949C2C089584E090E00E94AA2C089574
:101C8000BC0184E090E00E94DE2C0895AB01BC0111
:101C90008FE090E00E94D22C0895AB01BC0183E15B
:101CA00090E00E94D22C089560E070E0CB010E9489
:101CB0004D0E089560E070E0CB010E94460E0E9438
:101CC000540E0895A8E0B0E0E8E6FEE00C94B72BCF
:101CD00066EE7EEF90E080E00E94DE2C60E082E025
:101CE00090E00E94C02C81E090E09093F9018093F5
:101CF000F80161E083E090E00E94C02C60E074E1B4
:101D000084E090E00E94DE2C60E086E090E00E949B
:101D1000C02C6FEF87E090E00E94C02C40E050E0C4
:101D2000BA0188E090E00E94D22C60E084E290E06A
:101D30000E94C02C60E087E190E00E94C02C60E02F
:101D40008CE090E00E94C02C60E08DE090E00E946A
:101D5000C02C19821A821B821C821D821E821F8245
:101D6000188648E050E068E170E0CE0101960E94DC
:101D7000B02C40E050E0BA0180E290E00E94D22C0A
:101D80000E945A0E2896E2E00C94D32B0E94620E19
:101D90000895682F8EE090E00E94C02C0895A6E080
:101DA000B0E0E5EDFEE00C94B52B0E9415248C010B
:101DB00080919002909191028017910781F0198291
:101DC0001A820E941524682F49815A81792F80E058
:101DD00090E00E94230510939102009390022696B2
:101DE000E4E00C94D12B0E94212460939D02709317
:101DF0009E0280939F029093A00260939902709339
:101E00009A0280939B0290939C0208950E94212441
:101E100060939D0270939E0280939F029093A00214
:101E20006093950270939602809397029093980224
:101E30000895089508950E94190F08950E94BB0205
:101E400008958DEE91E10E9473130E941A0F0E9473
:101E50001B0F089581E008950E942A0F08950E94A3
:101E60002A0F0895089508950E94320F0E94330F9B
:101E700008950E940C120E94F70408950E940C24F9
:101E80000E949D1C0E94CC120E94390F0E94EE1AE3
:101E90000E941E0F0895A6E0B0E0E1E5FFE00C947B
:101EA000AE2B0E942C0F811111C00E94CF0E0E94F8
:101EB000061C0E94BA1C81110E94060F0E94372046
:101EC0000E940A052696EBE00C94CA2B0E94E212AF
:101ED0001091920280E00E94321218130EC01091ED
:101EE000930281E00E943212811307C01091940284
:101EF00082E00E9432121817C1F28091A10281FD86
:101F00000E9438120E942F0FC82E82E9A82E82E06C
:101F1000B82E10E099249394812F0E943212082F3A
:101F2000F50181915F01081729F1D02ED826F12CF7
:101F3000EE24E3948D2D8E21A9F0CC2099F0F98226
:101F40001A830E9415249C838B839D8291E0802FAD
:101F50008E2109F490E049815A816B817C818D81C9
:101F60000E942305F394EE0CF3E0FF12E3CFF5019A
:101F7000319700831F5F133079F60E94F30E97CFDD
:101F80001F93CF93DF930E94FC10EC01C11580E5F5
:101F9000D807F0F5C11580E4D80708F09CC0C03E12
:101FA000D10520F5CD3CD10508F082C0C83AD10555
:101FB00078F4C53AD10508F073C0C130D10519F1E4
:101FC000209709F1C430D105F0F4D0E0C0E01BC087
:101FD000C33CD105D0F7C85AD0E0CC0FDD1FC9599A
:101FE000DE4F0990D881C02DD4640DC0C11580E2A8
:101FF000D80708F0D1C0C11581E0D80708F05AC051
:10200000C83ED10510F7CE01DF91CF911F91089501
:10201000C03682E5D80718F5C03482E5D80708F045
:102020006BC0C03282E5D80708F05FC0C11582E5F9
:10203000D80708F497C02C2F2695269580E2289F74
:10204000900111248C2F8370C1E0D0E002C0CC0F2E
:10205000DD1F8A95E2F7C22BD32BDD68D4CFC03ABF
:1020600082E5D80760F4C03882E5D80708F459C083
:10207000CF71D0E0DC2FCC27C46FD06AC4CFC03C76
:1020800082E5D80708F462C0C03E82E5D80708F0B0
:102090009CCFDC2FCC27CC27DF71C06FD06AB3CFA9
:1020A000C55AD0E0C356DE4FC881D0E0D064ABCF74
:1020B000D065A9CF8D2F0E949E11182FCE01992790
:1020C0000E94FC10C12FD0E0DC2FCC27CC27DF7181
:1020D000C82BD92B98CFCE0199270E94FC10CC2772
:1020E000DF70C82BD92BD06A8ECFCF71D0E0DC2F18
:1020F000CC27C16FD06A87CF2C2F269526952770C5
:1021000080E2289F900111248C2F8370C1E0D0E0E1
:1021100002C0CC0FDD1F8A95E2F7C22BD32BDC68FF
:1021200072CF2C2F26952695277080E2289F90014C
:1021300011248C2F8370C1E0D0E002C0CC0FDD1FD2
:102140008A95E2F7C22BD32BDA685DCF8C2F8F7183
:102150000E949E11C82FD0E0DC2FCC27CC27DF7146
:10216000D06251CF8C2F8F710E949E1155E0D69571
:10217000C7955A95E1F7CF70D0E0DC2FCC27282FF8
:1021800030E084FF05C044E0220F331F4A95E1F799
:10219000C22BD32BD06937CF8D2F8F710E949E1108
:1021A000182FCE0199270E94FC10C12FD0E0DC2F00
:1021B000CC27CC27DF71C82BD92BD2CF462F672F46
:1021C000733028F4433080F40E94B20308957D3FB9
:1021D00039F4411109C041E060E00E94CB03089549
:1021E0007C3F11F44423C1F390E080E008950E9405
:1021F000DE100E94C00F089582389105B9F1B0F445
:102200008133910509F47DC048F48932910509F4C0
:102210006DC08A32910509F47BC00895853391051C
:1022200009F45FC08933910509F10895833E910552
:10223000D9F138F4803E910529F1823E910579F17A
:102240000895863E9105D9F1873E910509F43EC077
:10225000843E910541F52091FA0221FF24C080912E
:10226000F90284FD19C087EE90E008952091F902EB
:10227000237009F05AC02091FA0223FF14C089E2AA
:1022800090E008952091F90220FD38C03091FA02C3
:1022900030FF09C024FF43C090E080E00895209102
:1022A000F90222FDF7CF08952091F90222FD3AC0EC
:1022B0003091FA0230FD39C024FFF5CFEDCF2091E7
:1022C000F90223FFF0CF24FDE7CFCDCF2091F90213
:1022D00023FD2EC03091FA0231FFEECF84EE90E064
:1022E00008952091F90225FFDECFC9CF2091F90290
:1022F00025FD21C02091FA0223FFD5CF89E390E08C
:10230000D2CF2091F90226FFCECF8AE290E0089545
:102310002091F90226FFC7CF81E390E0089583EE74
:1023200090E0089582EE90E0089580EE90E00895A8
:1023300086EE90E0089585E390E008959091F9028B
:1023400092FF10C041E0282F2471243009F040E0B2
:1023500031E0282F2871283009F030E0431711F0C0
:102360002CE0822793FF10C041E0282F24712431F4
:1023700009F040E031E0282F2871283109F030E0E1
:10238000431711F02CE082273091FA0230FF10C081
:1023900051E0282F2171213009F050E041E0282F31
:1023A0002871283009F040E0541711F029E0822705
:1023B00031FF10C041E0282F2171213109F040E0A8
:1023C00031E0282F2871283109F030E0431711F04F
:1023D00029E0822794FD877E089580E008950E9479
:1023E0001F0E08950E94E2122FEF86E791E0215020
:1023F00080409040E1F700C000000E94E21280E0BF
:102400000E94321280FF04C00E94EF110E946024DB
:1024100008950E94F21108950E94260E811102C0B3
:102420000E94C60E0E94310E8093A1020E943B0EB4
:102430009093FA028093F9020E9409120E94360ECC
:1024400090E00E94A6088091F6019091F7010E9409
:10245000C408089508950E942A12089508950E94BC
:102460002E120895E82FF0E0E250FD4F808108958C
:10247000089580EA8A95F1F7089500C008950E94B2
:1024800039120895F894E82FE295EF70F0E031A149
:10249000282F2F7081E090E001C0880F2A95EAF77D
:1024A000982F9095932391A392A1892B82A378943E
:1024B000089580EF0E94421285E30E94421286E353
:1024C0000E94421281EF0E94421286E90E9442124B
:1024D00087E90E9442120895B0E0A0E0E2E7F2E14D
:1024E0000C94B12B7C01162F042FC62FD0E0CE0107
:1024F00080569E4F6C01EC0128812F3F09F444C0A7
:10250000F894E22FE295EF70F0E031A12F7081E0B6
:1025100090E001C0880F2A95EAF7932F982B91A39A
:1025200092A18095892382A378940E943D12A3EA08
:10253000B1E0F70146EA51E0F12C602F60959D91E2
:1025400080819F3F31F1292F22952F7030E0E901E2
:1025500028A130E09F7002C0359527959A95E2F743
:1025600020FD17C0802B8083FF24F39431964A17F7
:102570005B0729F7F60180818F3F11F00E9442121C
:102580006F2D812F0E943F12CDB7DEB7E8E00C948B
:10259000CD2B86238083EACF0E94591283E0EEEF91
:1025A000F2E0DF01982F1D929A95E9F7EBEFF2E048
:1025B000DF011D928A95E9F783E00E941E130E94B5
:1025C0002B120895A3E0B0E0E8EEF2E10C94B52BF5
:1025D00019821A821B8210E001E0402F612FCE0188
:1025E00001960E946C121F5F000F1330B1F743E099
:1025F00050E0BE016F5F7F4F8BEF92E00E94862C10
:1026000021E0009709F420E0892B49F089819A8123
:10261000AB818093FB029093FC02A093FD0243E008
:102620006EEF72E08BEF92E00E941F13182F0E9452
:102630002F12812F2396E4E00C94D12B0895B0E063
:10264000A0E0E5E2F3E10C94B12B6C017B01042FD7
:10265000C22F222379F081E08093A4020E941524E6
:102660009093A3028093A20280E0CDB7DEB7E8E0AA
:102670000C94CD2BD091A402DD23B1F38091A20262
:102680009091A3020E942D24059770F310E0A801F9
:10269000B601C7010E94862C892B31F0A801B60132
:1026A000C7010E94932CCD2F1092A4028C2FDDCF56
:1026B0000E94F0250E943E0F0E94FD2508950E9471
:1026C00002260E944B0F0E941C2608950E94AE23F2
:1026D0000E94D6250E94210F0E9458130E945F136A
:1026E0000E94340FFBCF9093E3018093E2010895A1
:1026F000EF92FF920F931F93CF93DF93EB01E82F9D
:10270000D1110EC0442321F0F0E0E058FD4FE491D8
:102710006E2F7E2F8E2FCDB7DEB7E6E00C94CF2B39
:102720000D2F10E0282F30E0442329F020583D4F92
:10273000F901249130E0F6E0CF9FC0011124EFEFC2
:10274000F0E0BF010E94262BAB018C2F90E0880F98
:10275000991FA5E5A49FB001A59F700D1124861BAC
:10276000970B982F990F980FBF01601B710B629FF9
:10277000D001639FB00D729FB00D11248B2F9D9FD0
:10278000B0011124672F7727EF01C61BD70BBE01BD
:10279000629FE001639FD00D729FD00D11247F01D5
:1027A000E91AF108E09EB001E19E700DF09E700DF7
:1027B0001124672F7727E61BF70BE29F8001E39F29
:1027C000100DF29F100D1124E12F722F4230510590
:1027D00099F048F44115510569F04130510581F0F7
:1027E000EB2F8D2F07C04430510569F080F0463043
:1027F0005105B1F76E2F8FCFE22F7B2F812FFACFAC
:10280000E22F7D2FF7CFEB2F822F712FF3CF7B2F6E
:10281000822FED2FEFCF41E00E94781308950895A5
:102820000E940B140895CF93DF93762FE901682F50
:10283000842F0E941014798368838A83DF91CF915B
:10284000089580910103982F9C7F29F48370846000
:102850008093010308958C3AE8F38370886AF8CF77
:10286000B0E0A0E0E6E3F4E10C94B12B88E090E066
:102870000E94A42C6B017C0184E290E00E949C2CBD
:10288000282F30E040E050E060E070E080E090E031
:1028900000E20E94DE2BB22FA32FF42FE52FD62FBC
:1028A000C72F97018601BC29A12BFE295E2F532B30
:1028B0002B2F3A2F4F2F6D2F7C2FCDB7DEB7E8E0AF
:1028C0000C94CD2BB0E0A0E0E8E6F4E10C94AD2B45
:1028D00049015A016B017C010E9421148401A40169
:1028E0006A2D7B2D88E090E00E94D22C94014A2D25
:1028F0005B2DB601C70100E20E94F92B622F84E232
:1029000090E00E94C02CCDB7DEB7ECE00C94C92B50
:10291000E1E0F3E089E3808311828FEF8283838398
:102920001482758129E330E04FEF5FEF60E086812C
:1029300097810E94621408958091010380FF03C073
:1029400086958695089580E00895909105039330CB
:1029500018F49F5F90930503882391F02091010361
:1029600030910203409103035091040360910503E9
:102970007091060380910703909108030E946214EE
:10298000089581E00E94A51408959091050399236C
:1029900019F0915090930503882391F02091010341
:1029A00030910203409103035091040360910503A9
:1029B0007091060380910703909108030E946214AE
:1029C000089581E00E94C514089521E030E0A90136
:1029D00002C0440F551F8A95E2F7CA012091D00228
:1029E000662339F0822B8093D00281E08093C2026B
:1029F000089580958223F7CF21E030E001C0220FB7
:102A00008A95EAF79091D002922381E009F480E060
:102A100008950F931F93CF93DF93D82F8B01C42F6B
:102A200047FDCFE71093BD020093BC0261E08D2FFC
:102A30000E94E514CC0FC150C093BE0221E030E0EB
:102A400001C0220FDA95EAF78091C102822B8093B0
:102A5000C1020E941524800F911F9093C0028093A1
:102A6000BF02DF91CF911F910F91089541E00E9425
:102A7000091508951F93CF93DF938091C102882396
:102A800059F10E9415242091BF023091C002821B8F
:102A9000930B8F3F9F4700F5D0E0C0E01091BE023E
:102AA0008091C10290E00C2E02C0959587950A9402
:102AB000E2F780FF06C060E08C2F10FF61E00E940B
:102AC000E5142196C830D10549F711501093BE0284
:102AD000111106C01092C102DF91CF911F9108958C
:102AE0000E9415242091BC023091BD02820F931FD9
:102AF0009093C0028093BF02EFCF70E00E945D1DF3
:102B00000895A5E0B0E0E7E8F5E10C94AB2B7090F8
:102B10000C018091010380FF16C0C090C302D090C9
:102B2000C402C114D10409F580910B0133E0839FE5
:102B3000C0011124672D875F9C4F0E947D1525964B
:102B4000EEE00C94C72B80910D0190910E0123E0D3
:102B5000829FF0011124E75FFC4F8917F0F6118284
:102B6000108212828F5F3396F8CF8091CC02811150
:102B7000DBCFF12CE12C43E0642E8E2D0E94FC145F
:102B8000882309F43BC0F701EE0FFF1FEC0DFD1D7C
:102B9000A590B490A114B10439F245E050E0B5011C
:102BA000CE0101960E94702C09810F3F39F18A8174
:102BB000800F9927991F8530910514F084E090E0EB
:102BC0004C01880C991C880D991D9C01275F3C4F76
:102BD0004901069D80011124075F1C4F0815190546
:102BE00020F035E0A30EB11CD8CF98014D816C8147
:102BF0008B810E9413140D5F1F4FF0CF8FEFE81AE7
:102C0000F80A28E0E216F10409F0B7CF8DCF9091D1
:102C1000010390FF0EC090910D0120910E0133E051
:102C2000939FF0011124E75FFC4F921718F00E9468
:102C3000811508958183608342839F5F3396F5CF2A
:102C4000A3E0B0E0E6E2F6E10C94B72B909101032B
:102C500090FF0AC09E012F5F3F4F0E9413144B81CB
:102C600069818A810E9407162396E2E00C94D32B97
:102C7000CF93DF93EC01EC81F0E0E558FE4F4491F7
:102C8000E1E0F3E0628181810E9420168C818F5FF8
:102C90008C83DF91CF910895CF93DF93EC01E1E036
:102CA000F3E0438162818C810E9420168C818F5FCA
:102CB0008C83DF91CF910895A3E0B0E0E2E6F6E1E6
:102CC0000C94B52B8C018091A50281110AC09E0144
:102CD0002F5F3F4F4FEF6FEF0E9413148A81809355
:102CE000A502F8016481613069F08091A50240E09D
:102CF000662361F040E0623011F44091A50280E06B
:102D000060E004C06091A50240E080E00E940716E8
:102D1000F801848190E0019663E070E00E943A2B14
:102D200084832396E4E00C94D12BA3E0B0E0EBE99C
:102D3000F6E10C94B02B082FD62EF42EC22E9091D3
:102D4000010390FF2FC0E92FE695E695AE2FB0E086
:102D5000AA55BE4F8C918093CE029C7F943031F562
:102D60009E012F5F3F4F802F0E9413144B8169817A
:102D70008A810E94071600930203D0920303F09207
:102D80000403CC2079F02091010360910503709138
:102D90000603302F4D2D5F2D80910703909108037E
:102DA0000E9462142396E9E00C94CC2B823019F433
:102DB000F0900403E0CF863019F400910203DBCFDA
:102DC0008930D9F38931B9F6E9516E2F6170B62E89
:102DD000E695F0E0E558FD4F1491E12C60910F016C
:102DE000E61618F00E948115C6CFE19EC00111249D
:102DF00070E00E94262B802FB11014C0860F209106
:102E00000D01622F6E0D7727771F9B01220F331F55
:102E1000260F371F275F3C4F4F2D6D2D0E94131437
:102E2000E394DCCF861BEBCFE1E0F3E09181282F28
:102E3000438162818AE0890F0E949516089581E09E
:102E40000E9414170895E1E0F3E09181282F438157
:102E5000628186EF890F0E949516089581E00E9495
:102E600023170895E1E0F3E0628121E1620F08F4A5
:102E70006FEF282F438181810E949516089581E08C
:102E80000E9432170895E1E0F3E0628121E1621BC4
:102E900008F460E0282F438181810E9495160895EF
:102EA00081E00E9443170895E1E0F3E0438121E1CE
:102EB000420F08F44FEF282F628181810E949516FE
:102EC000089581E00E9454170895E1E0F3E0438102
:102ED00021E1421B08F440E0282F628181810E9499
:102EE0009516089581E00E946517089520E00E94DC
:102EF00095160895EF92FF921F93CF93DF93EC0105
:102F000010E0EE24EA94F12C60910F01161770F096
:102F10000E9481159A818C8190FF27C08F5F8C83DE
:102F2000DF91CF911F91FF90EF90089520910D01B7
:102F3000422F410F5527551FCA019A01220F331FF7
:102F4000280F391F275F3C4F70E0C7010E943A2BC2
:102F5000962F8C814091040360910303199F800D8B
:102F600011240E9413141F5FCFCF8150D8CFB0E03F
:102F7000A0E0EDEBF7E10C94B02BFC0182810FEFA8
:102F800080FF01E010E080910F01181798F00E9477
:102F900081158091A702013009F04CC0811102C057
:102FA00080910F0181508093A702CDB7DEB7E9E091
:102FB0000C94CC2BC0910D01C12ED12CCC0DDD2D4C
:102FC000D11DCE01880F991FC80FD91FC75FDC4FD5
:102FD000198218821A8234E0E32EF12CB12C8091F0
:102FE000A7028B0D853004F18370082E000C990B1D
:102FF000C816D90691F4809104038E9DA0018F9D7F
:10300000500D112455954795559547959E01609112
:103010000303809102030E941314B00EF1E0EF1A33
:10302000F108E9F61F5FAFCF87FFDFCF90910F0167
:10303000890FDBCF90E0019660910F0170E00E9454
:103040003A2BB1CF0F931F93CF93DF9380910D0154
:1030500090910E0123E0829FF0011124E75FFC4F65
:10306000891740F1C0E0D3E060910F01C61740F12D
:103070000E948115209109018091A602820F809300
:10308000A60290910A01920F90930A01191654F426
:10309000082E000C990B40910F014150550B8417DD
:1030A00095071CF0219520930901DF91CF911F9185
:1030B0000F9108951182108212828F5F3396D0CFC4
:1030C0000C2F10E070E0C8010E943A2B20910D01F6
:1030D000820F482F50E02091A602022E000C330BE5
:1030E00002171307BCF020910A01022E000C330BCB
:1030F000201731077CF08D9F90011124275F3C4FF2
:103100004091040360910303809102030E94131411
:10311000CF5FAACFFA01EE0FFF1FE40FF51FE75FA5
:10312000FC4F118210821282F3CFB0E0A0E0EBE9F5
:10313000F8E10C94AD2BEC014C81042F10E09801C8
:10314000D8010E947E2B9B01AC010E94942B4B0165
:103150005C01E0E2F0E0E01BF10BA5E5B0E0AC01C2
:103160009B010E94942B6B017C019F01DF010E9457
:10317000762B9B01AC010E949F2B9B01AC01280D7B
:10318000391D4A1D5B1DC701B6010E944E2BF22E50
:10319000822F90E039E23F1520F143E0249F900117
:1031A000112435952795122F109500E085E5E82E1E
:1031B000EF1880910F01081718F10E9481159C816A
:1031C00081E0992319F0903219F48FEF8093080170
:1031D00080910801890F8C83CDB7DEB7ECE00C94A9
:1031E000C92B25E530E0B901681B790B9B01220F43
:1031F000331F260F371F37FFD4CF2F5F3F4FD1CF5D
:103200008E2D01FD8F2D20910D01622F600F7727EC
:10321000771F9B01220F331F260F371F275F3C4F5D
:10322000412F609103030E9413140F5FC2CF0F93CD
:103230001F93CF93DF93EC0110E000E090910F011A
:103240009017110609F06CF40E9481158C8190E0B2
:103250000196817099278C83DF91CF911F910F91F7
:10326000089520910D01A801420F511D9A01220FCE
:10327000331F240F351F275F3C4F4C8160910303A0
:103280008091020396959017110651F04CF044235B
:1032900049F0409104030E9413140F5F1F4FCECFDB
:1032A0004423B9F340E0F7CFB0E0A0E0EAE5F9E16C
:1032B0000C94A92BFC016280448081E08483EBE7BD
:1032C000F1E07490EAEFF1E0E491C0910403C69557
:1032D000C158D0E0CC0FDD1FCD2FDD27812C75E04C
:1032E000972EAA24AA94B12C55245A94E719EE2EAD
:1032F000F12C80910F01881638F00E948115CDB70E
:10330000DEB7E0E10C94C52BC82CD12C82E08615E9
:1033100068F09C9CF0019D9CF00D1124E855FD4F38
:10332000809102038083809103038183411023C035
:103330009C9CF0019D9CF00D1124E855FD4F1382DB
:10334000128220910D01C601820F911D9C01220F56
:10335000331F280F391F275F3C4F9C9CF0019D9C19
:10336000F00D1124E855FD4F4281618180810E945A
:1033700013148394BECF9C9C80019D9C100D11243E
:1033800008551D4FF80183818823F1F08150838314
:10339000859DC0011124648170E00E94262BFB01F1
:1033A000FF27E558FE4F8491E82FE719E59DC001FE
:1033B0001124B7010E94262B80910403689FB0015D
:1033C0001124F8017283BDCF0E94602CB5010E94C8
:1033D0003A2B8C179D070CF0B4CFF2E0F61598F459
:1033E0000E94602CB5010E943A2BF80180830E9454
:1033F000602C209103032695622F70E00E943A2BE7
:10340000280FF80121839C9CF0019D9CF00D112454
:10341000E855FD4F128280910403893C58F088ECF6
:103420009C9CF0019D9CF00D1124E855FD4F848378
:10343000838387CF8431A0F784E1F2CFE1E0F3E02A
:1034400020812E7F20833181428153816481758167
:10345000868197810E9462141092CF020E9481158A
:103460000895E1E0F3E080818E7F80831092CF02A7
:103470000E94811508951092CF028091CC02811193
:1034800014C081E08093CC0280910103817080930D
:10349000CB028091C10280959091D00289238093C4
:1034A000D0021092C1020E94311A08956091010366
:1034B0006695669570E04BE050E080E191E00E94F7
:1034C000792C892B19F481E08093CF020E94152476
:1034D0009093C6028093C50208959091010390FFD6
:1034E00034C09370811132C09460909301036623BD
:1034F00091F0209101033091020340910303509118
:103500000403609105037091060380910703909175
:1035100008030E946214609101036695669570E04D
:103520004BE050E080E191E00E94792C892BB1F0D2
:103530001092CF0281E08093C80240910403609111
:103540000303809102030E94761708958B3210F0D6
:10355000986ACBCF880F880F982BC7CF0E94561A36
:10356000E9CF682F909101039695969581E0890F98
:103570008B3208F081E00E946D1A089581E00E946C
:10358000B11A0895682F90910103969596958FEF43
:10359000890F09F48AE20E946D1A089581E00E9461
:1035A000C21A089561E00E946D1A0895E1E0F3E007
:1035B000808181608083869586950E94D21A0895C5
:1035C0008091010380FF03C00E941E1A08950E948B
:1035D000D61A089560E00E946D1A08958091CD0278
:1035E00081113FC00E94260E811104C00E94C60EA8
:1035F0000E9488140E943014209301033093020328
:1036000040930303509304036093050370930603F0
:1036100080930703909308032C7FA1F40E948814E1
:103620000E9430142093010330930203409303035C
:10363000509304036093050370930603809307037C
:10364000909308030E9421141092CF0280910103ED
:1036500080FF04C0869586950E94EA1A81E08093D7
:10366000CD020895E1E0F3E080818160808386955A
:1036700086950E94EA1A08951092CC028091CB029E
:10368000882329F00E94321B0E94561A08958091C7
:10369000D0028823C9F30E948115F6CF0F931F93A0
:1036A000CF93DF938091CF028823C9F18091CE021E
:1036B000E0910103E695E695E81BE093C7028230AE
:1036C00009F049C0F0E0E958FE4FE491CE2FD0E078
:1036D00008E316E18091C802882361F01092C802C5
:1036E0000E9415249093C6028093C5021092CA02CC
:1036F0001092C9020E941524E091C502F091C60201
:103700008E1B9F0B8F3F9F4750F4EC0FFD1FF093D4
:10371000C602E093C50285EC92E0F80109950E948B
:103720003A158091C202882389F01092C2028091DA
:10373000CF02811106C080910103869586950E9473
:10374000EA1A8091010380FF0E948115DF91CF91D9
:103750001F910F910895863049F4F0E0EC58FE4F28
:10376000E491CE2FD0E00CE416E1B4CF893051F4CF
:10377000E695F0E0EF58FE4FE491CE2FD0E00AE757
:1037800017E1A8CF8F3051F4E695F0E0E259FE4FF3
:10379000E491CE2FD0E007EB17E19CCF853149F4BF
:1037A000F0E0E559FE4FE491CE2FD0E002E218E1BF
:1037B00091CFC8E2D0E005E918E1883109F48ACF59
:1037C000833239F4E9E6F1E0C591D4910CE516E1D4
:1037D00081CFC4EFD1E007E119E1843209F47ACF57
:1037E000C0EDD7E00FE014E1853209F073CF8E2FE2
:1037F00063E00E941A2BE92FF0E0EA59FE4FE491B2
:10380000CE2FD0E004E519E165CF08950E944E1B4C
:103810000895FA01811101C0FB0109950895CF9324
:10382000DF93C82FD62F0E949C148C1748F00E945B
:103830009C148D1728F40E94BE1ADF91CF91089531
:103840008C2F0E94D21AF9CF1F93CF93DF93EC01F4
:10385000FB011581111110C00E94FD0C8272FE0146
:10386000E052F847E531F10508F05EC0EF5DF24D3A
:103870000C94702B0E94E01A812FDF91CF911F9141
:1038800008954EEC5AE16EEB7AE10E94091CF4CFE8
:103890004EEB5AE16EEC7AE1F8CF4EE257E16FE180
:1038A00077E1F3CF4FE157E16EE277E1EECF40E50C
:1038B00057E16FE377E1E9CF4FE357E160E577E167
:1038C000E4CF42E757E161E677E1DFCF41E657E138
:1038D00062E777E1DACF41EE54E161EC74E1D5CFF4
:1038E00041EC54E161EE74E1D0CF81E00E94D21A44
:1038F000C3CF65E082E00E940F1CBECF68E086E087
:10390000FACF6EE089E0F7CF64E18FE0F4CF67E1B2
:1039100085E1F1CF88E1EACF62E289E1ECCF83E291
:10392000E5CF6AE285E2E7CF11E0A6CF8FE891E02C
:103930000197F1F700C00000089581E08093D20262
:103940005098589A5198599A0E94961C2091D202E8
:1039500044ED52E0FA018E2F841B821708F008957F
:1039600089B18170499904C090E0892B8193F3CF8C
:1039700092E0FBCFA8E1B0E0E0ECFCE10C94AA2BD4
:1039800010E000E082E0982E94E0A92EB12C2DEFFB
:10399000822E772473943CEF632E43E0542E809163
:1039A000D202181728F0802F6896EFE00C94C62BEF
:1039B000E12EF12CE9B1E17049997DC080E08E2BB8
:1039C000D701AC52BD4FEC919E2F9370981709F41C
:1039D00070C0EE0FEE0FE82BEC93EF70F0E0EF52BB
:1039E000FE4FC7018D529D4F6C018081F601908181
:1039F000890F808320E084303CF1F701EF52FD4FC6
:103A000080818F5F80830E9415241D876E86682FBA
:103A10008F87988B598A7A8A412F5CEF792F83E0C0
:103A200091E00E9423050E9415241B8B6C8A682F4D
:103A30008D8B9E8B5F8A188E412F5CEF792F83E0F0
:103A400090E00E94230521E0F60180818D3F3CF546
:103A5000F701EF52FD4F8081815080830E94152431
:103A600019838A82682F8B839C839D827E82412F5B
:103A70005DEF792F82E091E00E9423050E941524DA
:103A80001F838886682F89879A879B861C86412F8B
:103A90005DEF792F82E090E00E94230521E0F6019E
:103AA0008081082E000C990BB5010E943A2B80836F
:103AB000022B1F5F74CF82E082CF279A45B14F77E8
:103AC00055B15068EFB7F8949B01220F331F260FB2
:103AD000371F280F391F2817390741F4EFBF8FE52B
:103AE00094E00197F1F700C000000895DC016D91AA
:103AF000CD0178E055B9000000C067FF45B9660FF9
:103B0000000000C000C000C045B900C07A9591F720
:103B1000E2CFCF93DF93EB0186319C4711F50E94F2
:103B2000FD0C9D81992399F08A7A91E009F490E047
:103B30009093D502811109C089E20E94FB220E9464
:103B4000B10D80E0DF91CF91089585E3F6CF8091AC
:103B5000D502811104C089E20E941223F0CF85E3CF
:103B6000FBCF81E0EFCFCF93DF93EC01FB018581A9
:103B7000882309F4D2C09E0130572332310508F062
:103B8000B2C00E943B0E9093FA028093F902FE01AC
:103B9000E150F047E232F10520F4EA5CF24D0C947A
:103BA000702B8091F90281608093F90293C080911B
:103BB000FA0288608093FA028DC08091F9028260D7
:103BC000F3CF8091F9028460EFCF8091F902886091
:103BD000EBCF8091FA028160EDCF8091FA02826092
:103BE000E9CF8091F9028061DFCF8091F902806294
:103BF000DBCF8091F9028064D7CF0E945908809171
:103C0000F9028068D1CF8091F9028C60CDCF80918C
:103C1000FA028360CFCF8091F9028E7FC5CF809169
:103C2000FA02877FC7CF8091F9028D7FBDCF809147
:103C3000F9028B7FB9CF8091F902877FB5CF809150
:103C4000FA028E7FB7CF8091FA028D7FB3CF809139
:103C5000F9028F7EA9CF8091F9028F7DA5CF809147
:103C6000F9028F7BA1CF0E9459088091F9028F77CA
:103C70009BCF8091F902837F97CF8091FA028C7F4E
:103C800099CF8091F90282FB992790F921E0922740
:103C900090FB82F990FB83F987CF8091FA02982FED
:103CA000909591708E7F892B90FB81F983CF9091B5
:103CB000F902892F8F7B96FF806476CF0E94590886
:103CC0009091F902892F97FB87F980586DCF81E099
:103CD0000E94C90E8091F9029091FA020E94400E52
:103CE0000E94590880E0DF91CF91089580E0F0CFE5
:103CF0009091F902892F8F7E94FF806155CF90912A
:103D0000F902892F8E7F90FF81604ECF9091FA0249
:103D1000892F877F93FF88604DCF81E0E4CF282FE4
:103D200035EB2303C001112497FF04C0805891098B
:103D3000892F089580589F4FFBCF8091DC0280FF30
:103D40000DC06091200170E0660F771F603871052B
:103D500070F56115710569F1862F089581FF07C01F
:103D60006091200184E0689FB0011124EFCF609141
:103D7000200182FD0AC08091DB028823A9F02091F6
:103D80001F0160912001821710F088E0ECCF869F20
:103D9000C001112433E0880F991F3A95E1F7622F93
:103DA00070E00E943A2BD2CF68E070E0D5CF8FE769
:103DB000089581E008958091DC0280FF0CC060913D
:103DC0001C0170E07595679575956795611571058E
:103DD00049F1862F089581FF06C060911C0170E0B3
:103DE00075956795F3CF60911C0182FD0BC0909192
:103DF000DA029923A1F060911B0180911C019617B2
:103E000038F0682F70E06038710500F38FE708958F
:103E1000899FC001112470E00E943A2BF4CF61E029
:103E200070E0D7CF81E008959091DF022091E00209
:103E3000922B2091E202922B2091E102922B31F001
:103E400098E09093DB0291E09093DA028D3C31F49C
:103E50000E949D1E81958093E00208958E3C19F486
:103E60000E949D1EF8CF8F3C31F40E949D1E8195CB
:103E70008093DF020895803D19F40E949D1EF8CFC3
:103E8000893D29F40E94DB1E8093E10208958A3D5A
:103E900021F40E94DB1E8195F7CF8B3D31F40E9407
:103EA000DB1E81958093E20208958C3D19F40E94F7
:103EB000DB1EF8CF9FE2980F983070F4815D990B6C
:103EC00021E030E001C0220F8A95EAF78091DE02FE
:103ED000822B8093DE0208958D3D31F48091DC02C7
:103EE00081608093DC0208958E3D21F48091DC0294
:103EF0008260F7CF8F3DB9F78091DC028460F1CF0B
:103F00004091DF028D3C59F48091E00287FF0DC0A3
:103F10001092E00241110BC01092DB0208C08E3CEF
:103F200081F48091E00218169CF3442381F0809183
:103F3000E1029091E202892B09F05AC01092DA0254
:103F400008958F3C49F447FFF0CF1092DF02809133
:103F5000E0028111ECCFE0CF803D19F41416ACF3F0
:103F6000E4CF9091E102893D29F41916F4F61092FC
:103F7000E102DBCF8A3D19F497FFD7CFF8CF9091BC
:103F8000E2028B3D29F497FFD0CF1092E202CDCF11
:103F90008C3D19F41916CCF3C8CF9FE2980F9830D6
:103FA00090F4815D990B21E030E0B90102C0660F09
:103FB000771F8A95E2F7CB0180959091DE028923E5
:103FC0008093DE02B2CF8D3D31F48091DC028E7F92
:103FD0008093DC02AACF8E3D21F48091DC028D7F9C
:103FE000F7CF8F3D09F0A1CF8091DC028B7FF0CF1E
:103FF00008950E9415249C019091DF028091E002B7
:10400000982B21F03093D9022093D8029091E102AD
:104010008091E202982B21F03093D7022093D602B0
:104020008DED92E00E94F821089586E0EDEDF2E03A
:10403000DF011D928A95E9F71092DB021092DA02F5
:104040001092DC020895FC01828181110EC08381EF
:1040500081110BC08481811108C091E0858181119B
:1040600001C090E0892F8170089581E0FCCFA6E027
:10407000B0E0EDE3F0E20C94B62B86E0EDEDF2E07B
:10408000DE01119601900D928A95E1F71092DF0200
:104090001092E0021092E1021092E2028B819C8168
:1040A000892B89F08091D8029091D9020E942D2409
:1040B000AC019091DB029923C9F180912101841711
:1040C000150608F440C08D819E81892B91F0809166
:1040D000D6029091D7020E942D24AC019091DA0271
:1040E000992309F46AC080911D018417150608F40C
:1040F00072C0BE016F5F7F4F8DED92E00E9443233F
:10410000811105C08DED92E00E94232081110E9453
:10411000F91F86E0FE013196ADEDB2E001900D92FF
:104120008A95E1F72696E3E00C94D22B20912201A8
:104130008AE0289F900111242417350720F69F5FFD
:104140009093DB0202C09F3FD1F71B81112359F0EE
:104150000E949D1E9FEF11160CF491E0899F802D07
:1041600011248093DF021C81112359F00E949D1EAF
:104170009FEF11160CF491E0899F802D11248093FC
:10418000E0028091DF02882309F49DCF1091E002C4
:10419000112309F498CF0E948F1E882351F0809339
:1041A000DF02812F0E948F1E882329F08093E00276
:1041B0008ACF81E0F4CF81E0F9CF20911E018AE01F
:1041C000289F900111242417350708F092CF9F5F94
:1041D0009093DA0202C09F3FD1F71D81112359F05D
:1041E0000E94DB1E9FEF11160CF491E0899F802D39
:1041F00011248093E1021E81112359F00E94DB1EDD
:104200009FEF11160CF491E0899F802D112480936B
:10421000E2028091E102882309F46BCF1091E2025F
:10422000112309F466CF0E948F1E882351F08093DA
:10423000E102812F0E948F1E882329F08093E202E1
:1042400058CF81E0F4CF81E0F9CF0F931F93CF9344
:10425000DF93C42FD22FFC0185818823C9F04093BE
:10426000E5020E9415249093E4028093E30280E229
:104270008C0F883040F4C77081E001C0880FCA9568
:10428000EAF70E940306DF91CF911F910F910895E5
:104290001091E502141332C08091E3029091E40280
:1042A0000E942D24883C910548F5C0E2CD0F1D17D2
:1042B000B9F080E2810F883040F4177081E001C0CE
:1042C000880F1A95EAF70E940A06C83048F481E080
:1042D0009D2F977001C0880F9A95EAF70E940306F8
:1042E000802F0E94FA05C83070F6D77081E001C0B7
:1042F000880FDA95EAF70E940A06C5CF80E28C0F94
:10430000883008F6C77081E001C0880FCA95EAF7C7
:10431000F2CF0F93DB0188519C4787309105A0F5C0
:10432000FC01E85AF24D0C94702B06E221EE41EEAE
:104330006AE17CE7CD010E94252180E00F9108957C
:1043400007E225EE45EE6BE17CE7F4CF06E221EED5
:1043500040EE68E17CE7EECF07E225EE44EE69E14E
:104360007CE7E8CF06E221EE42EE6CE17CE7E2CFAB
:1043700007E225EE46EE6DE17CE7DCCF08E221E0C6
:1043800045EE6EE17CE7D6CF15968C91882319F027
:104390001092E502D3CF81E0D1CF9093EB028093CE
:1043A000EA020895E091EA02F091EB02309729F0D9
:1043B0000190F081E02D0995089580E00895E09145
:1043C000EA02F091EB02309721F00280F381E02DB8
:1043D00009950895E091EA02F091EB02309739F0E7
:1043E00026E0DC012C930480F581E02D09950895E9
:1043F000E091EA02F091EB02309739F022E0DC0123
:104400002C930680F781E02D09950895A3E0B0E094
:10441000ECE0F2E20C94B72B2091E8023091E90233
:1044200028173907A1F09093E9028093E802E09100
:10443000EA02F091EB02309751F023E029839B834D
:104440008A830084F185E02DCE010196099523969B
:10445000E2E00C94D32BA3E0B0E0E1E3F2E20C94B1
:10446000B72B2091E6023091E70228173907A1F017
:104470009093E7028093E602E091EA02F091EB026A
:10448000309751F024E029839B838A830084F1854F
:10449000E02DCE01019609952396E2E00C94D32BF2
:1044A00020910601309107012E5F3F4F80912D0131
:1044B000882379F08091F90287FF0BC020910401D5
:1044C000309105012E5F3F4F9EE180E0915018F43E
:1044D000089596E0FACFF90141919F014423B1F389
:1044E0008F5FF4CF882321F190912D01992311F151
:1044F0009091F90297FF1EC0E82FE695E695E695A4
:10450000EE31B0F42091040130910501E20FF32F58
:10451000F11D228130E0877041E050E002C0440F7D
:10452000551F8A95E2F72423352381E0232B91F44C
:1045300080E008952091060130910701F90132963B
:10454000285F3F4F9191981721F0E217F307D1F7B9
:10455000EFCF81E008959C01FC0132969FEF80E04F
:104560004191461751F09F3F19F4411101C0982F16
:104570008F5F8630A9F79F3F09F40895290F311DF9
:1045800097FD3A95F90162830895FC0132960896E9
:104590002191261303C0DF0111971C92E817F90738
:1045A000B9F70895E62FE695E695E695EE3168F4BD
:1045B000E80FF92FF11D677021E030E001C0220FF4
:1045C0006A95EAF78281822B82830895E62FE69529
:1045D000E695E695EE3170F4E80FF92FF11D67705E
:1045E00021E030E001C0220F6A95EAF72095828130
:1045F000282322830895682F80912D01882359F064
:104600008091F90287FF07C0809104019091050114
:104610000E94D222089580910601909107010E9484
:10462000AB220895682F80912D01882359F0809145
:10463000F90287FF07C080910401909105010E9453
:10464000E622089580910601909107010E94C522FB
:10465000089580912D01882379F08091F90287FFD8
:104660000BC0E0910401F091050132968EE1DF016B
:104670001D928A95E9F70895E0910601F0910701EE
:10468000329686E0F4CFDC01FB0111969C911197E4
:104690008181981322C012968C911297882319F069
:1046A000928189131AC013968C911397882319F05D
:1046B0009381891312C015968C911597882319F050
:1046C000958189130AC014969C91992321F081E069
:1046D0002481291303C080E001C081E08170089526
:1046E00008950E9470230895811106C081E080938F
:1046F000EC020E947123089582E0F9CF83E0809359
:10470000EC020E94712308950E947423089581E0B1
:104710008093EC020E94712308950E9487230895DC
:10472000089508950E9491230895089508950E9480
:1047300090230895CF930E9495230E94E2120E9435
:104740009623C0E08C2F0E943212811105C0CF5FEA
:10475000C330C1F7CF91089581E0FCCF85B7806861
:1047600085BF85B7806885BF08951F921FB61F92C9
:1047700011248F939F93AF93BF938091ED0281118A
:1047800013C08091150390911603A0911703B09167
:1047900018034196A11DB11D809315039093160334
:1047A000A0931703B0931803BF91AF919F918F917E
:1047B0001F901FBE1F90189580911D03843031F10A
:1047C0000E94B2041092ED0288E190E020E40FB65E
:1047D000F894A895809360000FBE2093600083B783
:1047E000817F846083BF83B7816083BF789488951D
:1047F00083B78E7F83BF0FB6F894A8958091600031
:10480000886180936000109260000FBE08950E943E
:1048100059080E94B904089582E084BD93E095BDD3
:104820009AEF97BD80936E0008952FB7F89480910A
:10483000150390911603A0911703B09118032FBF91
:1048400008952FB7F8946091150370911603809125
:104850001703909118032FBF08959C014FB7F89448
:104860008091150390911603A0911703B09118033E
:104870004FBF821B930B089578941F921FB61F920F
:1048800011248F939F93AF93BF93809115039091C1
:104890001603A0911703B09118030196A11DB11D35
:1048A0008093150390931603A0931703B0931803F6
:1048B000BF91AF919F918F911F901FBE1F90189530
:1048C00081E08093E00080E28093D8001092C900DC
:1048D0008FE19EE40197F1F700C0000087E090EBC4
:1048E000DC018093260390932703A0932803B093C1
:1048F000290388E19CE00FB6F894A89580936000A6
:104900000FBE90936000FFCF88E19CE00FB6F89453
:10491000A895809360000FBE90936000FFCF8091B8
:10492000F60208959B01BA0190911D039430E9F4B9
:104930008F708093E9009FEF8091E800915085FD92
:1049400006C085ED8A95F1F700009111F5CF8091B1
:10495000E80085FF0AC050E040E0C9010E949326AC
:104960008091E8008E778093E800089543E050E05E
:10497000BC0182E00E949224089546E050E0BC0110
:1049800082E00E949224089540E250E0BC0182E05F
:104990000E9492240895CF93DF93EC0148E050E009
:1049A000BC0181E00E94922488E0FE01AEEEB2E0FC
:1049B00001900D928A95E1F7DF91CF910895809152
:1049C0001C03811109C00E9423280E948028809125
:1049D000E20084608093E200089510921C03089521
:1049E0000E94872308956091190381E0611101C03D
:1049F00080E00E947E23089590911D0381E0943011
:104A000009F080E0609119030E948423089542E038
:104A100061EC81E00E949F2742E261EC82E00E940B
:104A20009F2790911D0381E0943009F080E0609110
:104A300019030E947423089580911F03833009F4A1
:104A400061C030F48130D1F1823009F49EC0089504
:104A50008A3009F48AC08B3009F46FC0893009F0BC
:104A600050C080911E03813209F04BC08091220317
:104A700090912303029708F044C08091E800877F5B
:104A80008093E8008091E80082FF37C09091F300A6
:104A90008091F200029731F48091F100813011F0A1
:104AA000863021F48091F1008093F6028091E80035
:104AB0008B778093E8000E94D32723C080911E0348
:104AC000813AF9F48091E800877F8093E800809133
:104AD000220390912303892B61F468E08EEE92E02B
:104AE00070E00E94E2268091E8008B778093E800D6
:104AF000089560E090E080E0F3CF80911D03811184
:104B0000C1CF089580911E03813AD9F78091220385
:104B100090912303892BA9F78091E800877F8093E8
:104B2000E8008091E80080FFFCCF80912D01809308
:104B3000F1008091E8008E77BCCF80911E03813216
:104B400001F78091220390912303892BD1F6809164
:104B5000E800877F8093E8000E94D327809120039C
:104B600080932D010E945908089580911E0381327F
:104B700041F68091E800877F8093E8000E94D32768
:104B8000809121038093F702089580911E03813A5A
:104B900009F0B7CF8091E800877F8093E80080918B
:104BA000E80080FFFCCF8091F702C1CF84B7877FF8
:104BB00084BF0FB6F894A8958091600088618093B7
:104BC0006000109260000FBE80E890E00FB6F8948D
:104BD00080936100909361000FBE0E948D23089521
:104BE0000E9423280E948028E2EEF0E08081846009
:104BF000808378940E94FF2A089583E291E00E94C6
:104C0000CD21089580911D03853031F480911D03DD
:104C1000853019F00E94072408950E94DC238091BA
:104C20001B03882399F30E949A23882379F30E9417
:104C30007D260E945908EACF08959A0140912403E5
:104C4000509125030E9425260895492F552743306A
:104C5000510519F168F44130510509F444C042305E
:104C6000510509F445C090E080E050E040E025C0E7
:104C70004132510549F142325105A9F784E490E0EF
:104C80004DEB54E061157105C1F086EB90E047E013
:104C900054E06130710589F0E6CF992781309105A4
:104CA00081F0009729F00297F1F6E0E8F3E002C006
:104CB000E6EBF3E0849190E0AF01F901518340838A
:104CC0000895E6E9F3E0F6CF89E090E04CEC53E09C
:104CD0006115710591F389E090E045EE53E0613094
:104CE000710559F3C0CF82E190E045EF53E0E5CF85
:104CF0008BE390E04AEB53E0E0CF80E189BD82E1B5
:104D000089BD09B400FEFDCF8091D8008F7D8093CE
:104D1000D8008091E00082608093E0008091E00004
:104D200081FDFCCF0895AF92BF92CF92DF92FF92A8
:104D30000F931F93CF93DF936C01EB018A010E94C5
:104D4000F227F82E811123C00115110539F0F80161
:104D500080819181C81BD90BC80ED91EB12CA12C02
:104D60002097A9F08091E80085FD22C08091E8009D
:104D70008E778093E80001151105A1F0F80180817C
:104D80009181A80EB91EB182A08285E0F82E8F2DE8
:104D9000DF91CF911F910F91FF90DF90CF90BF9047
:104DA000AF9008950E94F2278823D1F2F82EEFCF1A
:104DB000F60181916F018093F1002197FFEFAF1A07
:104DC000BF0ACECFFC018091240390912503861762
:104DD0009707A0F06115710529F49091E8009E777E
:104DE0009093E80090E06115710551F4911108C0AD
:104DF0008091E80082FF34C080E00895BC01F2CFCA
:104E000080911D038823C1F18530C1F18091E800B4
:104E100083FD30C08091E80082FDEACF8091E800F8
:104E200080FFE1CF8091F3002091F200382F6115CF
:104E3000710519F02830310558F091E0283031051E
:104E400009F090E02091E8002E772093E800CBCF86
:104E500081918093F100615071092F5F3F4FE7CF3F
:104E600080911D03882341F0853041F08091E80056
:104E700083FFBECF81E0089582E0089583E0089526
:104E8000FC01809124039091250386179707A0F0D9
:104E90006115710529F48091E8008E778093E80010
:104EA00090E06115710551F4911108C08091E800FE
:104EB00082FF35C080E00895BC01F2CF80911D03D0
:104EC0008823C9F18530C9F18091E80083FD31C0A4
:104ED0008091E80082FDEACF8091E80080FFE1CF79
:104EE0008091F3002091F200382F6115710519F0BF
:104EF0002830310558F091E02830310509F090E074
:104F00008091E8008E778093E800CBCF84918093E6
:104F1000F1003196615071092F5F3F4FE6CF8091CC
:104F20001D03882341F0853041F08091E80083FF24
:104F3000BDCF81E0089582E0089583E00895982F21
:104F4000973028F08F708093E90081E00895909366
:104F5000E900242F762F50E0981731F07091EC0083
:104F60002091ED005091F00021FD02C09F5FE8CF3D
:104F70003091EB003E7F3093EB003091ED003D7FB0
:104F80003093ED003091EB0031603093EB00709383
:104F9000EC002093ED005093F0002091EE0027FDEF
:104FA000E5CF80E0089580911E0387FF13C08091B4
:104FB000E80082FF06C08091E8008B778093E800CC
:104FC00004C080911D038111F2CF089580911D03CB
:104FD0008823D9F38091E80080FFF8CF8091E80022
:104FE0008E77ECCF2091E4003091E50095E6A901A1
:104FF0002091EC00822F817020FF06C08091E80094
:1050000080FF06C080E008952091E80022FD1AC0CC
:1050100080911D03882389F0853089F08091EB0011
:1050200085FD0FC02091E4003091E5004217530741
:10503000F9F29150E1F684E0089582E0089583E06A
:10504000089581E008950E9492280E949A28E0EE37
:10505000F0E0808181608083E8EDF0E080818F77EF
:10506000808319BCA7EDB0E08C918E7F8C938081FA
:105070008F7E808310921C0308950F931F93CF930C
:10508000DF930E9492280E949A28C8EDD0E0888180
:105090008F77888388818068888388818F7D8883E3
:1050A00019BC10921D031092190310921B03109249
:1050B0001A0300EE10E0F80180818B7F80838881E5
:1050C0008160888342E060E080E00E949F27E1EEFB
:1050D000F0E080818E7F8083E2EEF0E0808181606D
:1050E0008083808188608083F80180818E7F8083C7
:1050F000888180618883DF91CF911F910F910895FE
:10510000E8EDF0E080818F7E8083E7EDF0E0808144
:105110008160808384E082BF81E080931C030E94D1
:105120003D280895E8EDF0E080818E7F8083109225
:10513000E20008951092DA001092E10008951F92A3
:105140000F920FB60F9211242F933F934F935F93BB
:105150006F937F938F939F93AF93BF93EF93FF933F
:105160008091E10082FF0BC08091E20082FF07C0C6
:105170008091E1008B7F8093E1000E94FE2A809164
:10518000DA0080FF19C08091D80080FF15C080919F
:10519000DA008E7F8093DA008091D90080FF96C07C
:1051A00080E189BD82E189BD09B400FEFDCF81E0C7
:1051B00080931D030E94DF248091E10080FF19C0CD
:1051C0008091E20080FF15C08091E2008E7F809385
:1051D000E2008091E20080618093E2008091D8003B
:1051E00080628093D80019BC85E080931D030E94E3
:1051F000F3248091E10084FF2BC08091E20084FFC2
:1052000027C080E189BD82E189BD89B5982F917061
:1052100080FFFBCF8091D8008F7D8093D800809154
:10522000E1008F7E8093E1008091E2008F7E809389
:10523000E2008091E20081608093E2008091190396
:10524000882309F449C084E080931D030E94FC2454
:105250008091E10083FF29C08091E20083FF25C097
:105260008091E100877F8093E10082E080931D03BD
:10527000109219038091E1008E7F8093E10080916C
:10528000E2008E7F8093E2008091E2008061809353
:10529000E20042E060E080E00E949F278091F00001
:1052A00088608093F0000E94F024FF91EF91BF91FD
:1052B000AF919F918F917F916F915F914F913F91AE
:1052C0002F910F900FBE0F901F90189519BC109240
:1052D0001D030E94ED2470CF8091E30087FD93E0D1
:1052E00090931D03B3CF1F920F920FB60F9211240C
:1052F0002F933F934F935F936F937F938F939F93DE
:10530000AF93BF93CF93DF93EF93FF93D091E900D7
:10531000DF708091EC00C82FC17080FDC0E8109252
:10532000E9008091F000877F8093F00078940E94DC
:10533000B7291092E9008091F00088608093F00016
:10534000CD2BCF70C093E900FF91EF91DF91CF910A
:10535000BF91AF919F918F917F916F915F914F918D
:105360003F912F910F900FBE0F901F901895AAE2BA
:10537000B0E0EDEBF9E20C94B62B8EE193E02091D6
:10538000F100FC012193CF01F3E086329F07B9F7CA
:105390000E941C258091E80083FF1EC180911E039E
:1053A00090911F039A3008F017C1E92FF0E0E15AFD
:1053B000F24D0C94702B803899F0823809F00CC1B2
:1053C000809122038F70873008F006C18093E90036
:1053D0008091EB0085FB882780F91092E90006C0D8
:1053E00080911A0390911B03911182609091E800C3
:1053F000977F9093E8008093F1001092F1008091E4
:10540000E8008E77E5C0882309F4D3C0823009F024
:10541000E3C0809120038111D6C0809122038F7058
:105420002FEF280F263008F0D7C08093E900209195
:10543000EB0020FFC8C0933031F48091EB00806214
:105440008093EB00C0C09091EB0090619093EB00D3
:1054500021E030E001C0220F8A95EAF72093EA00AC
:105460001092EA008091EB008860EACF8111B4C00D
:10547000109120031F778091E3008078812B809327
:10548000E3008091E800877F8093E8000E94D327A3
:105490008091E80080FFFCCF8091E30080688093DA
:1054A000E30082E0111183E080931D0395C08058D2
:1054B000823008F091C080912003909121038C3DAF
:1054C00023E09207A1F583E08A838AE289834FB7BC
:1054D000F894DE01139620E03EE051E2E32FF0E085
:1054E00050935700E49120FF03C0E295EF703F5FB7
:1054F000EF708E2F90E0EA30C0F0C7968D939D93A9
:105500002F5F243159F74FBF8091E800877F809348
:10551000E8006AE270E0CE0101960E94E2268091E6
:10552000E8008B778093E80057C0C096E7CF609182
:10553000220370912303AE014F5F5F4F0E941D262F
:10554000BC01892B09F448C09091E800977F9093A3
:10555000E80089819A810E944027E1CF8038E1F5F7
:105560008091E800877F8093E80080911903809301
:10557000F10045CF811130C090912003923060F549
:105580008091E800877F8093E800909319030E9440
:10559000D32780911903882311F084E005C08091FE
:1055A000E30087FDFACF81E080931D030E94072569
:1055B00013C080912003813079F481E0933009F0A9
:1055C00080E080931B031092E9008091E800877FC0
:1055D0008093E8000E94D3278091E80083FF0AC0EF
:1055E0008091E800877F8093E8008091EB008062E3
:1055F0008093EB00AA96E3E00C94D22B0895CF930E
:1056000080911D038823A1F0C091E900CF70909193
:10561000EC00892F817090FD80E8C82B1092E90082
:105620008091E80083FD0E94B729CF70C093E90004
:10563000CF910895991B79E004C0991F961708F03F
:10564000961B881F7A95C9F780950895AA1BBB1BE6
:1056500051E107C0AA1FBB1FA617B70710F0A61B72
:10566000B70B881F991F5A95A9F780959095BC0193
:10567000CD01089597FB072E16F4009407D077FD0F
:1056800009D00E94262B07FC05D03EF49095819509
:105690009F4F0895709561957F4F0895A1E21A2E4E
:1056A000AA1BBB1BFD010DC0AA1FBB1FEE1FFF1FC6
:1056B000A217B307E407F50720F0A21BB30BE40B16
:1056C000F50B661F771F881F991F1A9469F760955D
:1056D0007095809590959B01AC01BD01CF01089517
:1056E000EE0FFF1F0590F491E02D09940E947E2B90
:1056F000332312F48A1B9B0B0C948F2BA29FB001B7
:10570000B39FC001A39F700D811D1124911DB29FF5
:10571000700D811D1124911D08950E947E2BB7FFED
:105720000895821B930B08950E947E2BA59F900DD8
:10573000B49F900DA49F800D911D11240895B7FF73
:105740000C94942B0E94942B821B930B08952F9200
:105750003F924F925F926F927F928F929F92AF9201
:10576000BF92CF92DF92EF92FF920F931F93CF934E
:10577000DF93CDB7DEB7CA1BDB0B0FB6F894DEBFE5
:105780000FBECDBF09942A88398848885F846E840B
:105790007D848C849B84AA84B984C884DF80EE8055
:1057A000FD800C811B81AA81B981CE0FD11D0FB65E
:1057B000F894DEBF0FBECDBFED010895002E083076
:1057C00090F0982F872F762F652F542F432F322F4D
:1057D00022270850F4CF220F331F441F551F661F86
:1057E000771F881F991F0A95B2F7002D089597FD1E
:1057F0001094002E083098F00850232F342F452F96
:10580000562F672F782F892F912DF4CF15949795C8
:1058100087957795679557954795379527950A9575
:10582000AAF71124002D08958F929F92AF92BF92F4
:10583000CF92DF92EF92FF92CF93DF93EC016881DA
:1058400079818A819B81611571058105910521F41A
:1058500064E279ED8BE597E02DE133EF41E050E034
:105860000E94F42C49015A019B01AC01A7EAB1E462
:105870000E94942B6B017C01ACEEB4EFA501940166
:105880000E94A22BDC01CB018C0D9D1DAE1DBF1D06
:10589000B7FF03C00197A109B04888839983AA8301
:1058A000BB839F77DF91CF91FF90EF90DF90CF90F8
:1058B000BF90AF909F908F9008950E94142C0895F0
:1058C00080E091E00E94142C0895B0E0A0E0809365
:1058D000000190930101A0930201B0930301089588
:1058E000FB01DC0102C005900D9241505040D8F7F9
:1058F0000895FC014150504030F001900616D1F758
:105900003197CF010895882799270895FB01DC017D
:1059100004C08D910190801921F441505040C8F786
:10592000881B990B0895FB01DC0102C001900D92C8
:1059300041505040D8F70895F999FECF92BD81BDEE
:10594000F89A992780B50895A6E1B0E044E050E0C8
:105950000C94E62CA8E1B0E042E050E00C94E62C78
:10596000DC01A40FB51F4150504048F0CB01840F1B
:10597000951F2E910E94C12C41505040D0F70895A0
:10598000262FF999FECF92BD81BDF89A019700B4F8
:10599000021639F01FBA20BD0FB6F894FA9AF99A98
:1059A0000FBE08950396272F0E94C12C0E94C02C81
:1059B000252F0E94C12C242F0C94C12C0196272F37
:1059C0000E94C12C0C94C02CDC01CB01FC01F99984
:1059D000FECF06C0F2BDE1BDF89A319600B40D923B
:1059E00041505040B8F70895052E97FB1EF40094DF
:1059F0000E940B2D57FD07D00E944E2B07FC03D0B1
:105A00004EF40C940B2D50954095309521953F4FB9
:105A10004F4F5F4F089590958095709561957F4F9A
:105A20008F4F9F4F0895F894FFCF52065206A2065B
:105A3000A206070723078106810628079907A807FA
:105A4000A8073A1C411C481C4D1C521C571C5C1CCE
:105A5000611C661C6B1C701C751C791C7E1C811CD7
:105A6000841C871C8A1C8C1C8F1C911C0B1E7F1E87
:105A7000131EDD1DE11D171EE51D1B1E271EF11D3A
:105A8000781EF51D2B1EF91D2F1E571EFD1D331EE2
:105A90005E1E031E391E411EE91D1F1EED1D231E25
:105AA000071E3D1E4D1E671E761ED71D0F1E861E2D
:105AB000A621AC219521A021B221B821BE21DB294C
:105AC000032AEC2A032AEC2A362A572AEC2AAE2A81
:025AD000BA2AF0
:105AD20001000000660286020101020004000404C3
