:100000000C9455020C948D020C948D020C948D026C
:100010000C948D020C948D020C948D020C948D0224
:100020000C948D020C948D020C943A260C940E279D
:100030000C9450210C948D020C948D020C948D0222
:100040000C948D020C948D020C948D020C948D02F4
:100050000C948D020C94D7210C948D020C948D027B
:100060000C948D020C948D020C948D020C948D02D4
:100070000C948D020C948D020C948D020C948D02C4
:100080000C948D020C948D020C948D020C948D02B4
:100090000C948D020C948D020C948D020C948D02A4
:1000A0000C948D020C948D020C948D02A900AA0070
:1000B000237824784F00500025782678AC00A84299
:1000C000AB00AD00AE00AF00B200B100B34121788B
:1000D0002078227828782B7827782E432C780100F6
:1000E0000100010001000100010001000100010008
:1000F00001000100010001000100010001000100F8
:10010000010001001E0F0500047F3F1F64321464CC
:100110003214783C1E1E140A052223252628292A7B
:100120002C2D2F3032333536383A3B3D3E4042435A
:100130004547494A4C4E5051535557595A5C5E6099
:1001400062646668696B6D6F71737577797B7D7FAB
:1001500081838587898A8C8E90929496989A9C9EAA
:100160009FA1A3A5A7A8AAACAEAFB1B3B4B6B8B9C6
:10017000BBBCBEBFC1C2C3C5C6C7C9CACBCCCDCE2E
:10018000D0D1D2D2D3D4D5D6D7D7D8D9D9DADADB11
:10019000DBDBDCDCDCDCDCDDDDDDDDDCDCDCDCDC9D
:1001A000DBDBDBDADAD9D9D8D7D7D6D5D4D3D2D2DC
:1001B000D1D0CECDCCCBCAC9C7C6C5C3C2C1BFBEC4
:1001C000BCBBB9B8B6B4B3B1AFAEACAAA8A7A5A32F
:1001D000A19F9E9C9A98969492908E8C8A898785EE
:1001E00083817F7D7B79777573716F6D6B696866CD
:1001F0006462605E5C5A5957555351504E4C4A499F
:1002000047454342403E3D3B3A3836353332302F46
:100210002D2C2A292826252322FFAA7F55400001BC
:1002200001010101010101010202020202020202B6
:100230000203030303030303030404040404040488
:10024000050505050506060606060707070707084C
:10025000080808090909090A0A0A0B0B0B0C0C0CFF
:100260000D0D0D0E0E0E0F0F0F1010111111121299
:1002700013131414151516161717181819191A1A16
:100280001B1B1C1D1D1E1E1F202021222223242477
:10029000252626272829292A2B2C2D2D2E2F3031B3
:1002A0003232333435363738393A3B3C3D3E3F40C5
:1002B0004142434445464748494A4C4D4E4F5051B0
:1002C0005354555658595A5B5D5E5F61626465666A
:1002D00068696B6C6D6F7072737577787A7B7D7EF1
:1002E0008082838587888A8C8E8F91939596989A41
:1002F0009C9EA0A2A3A5A7A9ABADAFB1B3B5B7BA59
:10030000BCBEC0C2C4C6C9CBCDCFD1D4D6D8DBDD2C
:10031000DFE2E4E7E9EBEEF0F3F5F8FAFDFF1E03A8
:100320004E00430043002D00310037003000310003
:100330002D004B00420020007600320000001E031A
:1003400054006800650020004D006100640020003A
:100350004E006F006F0064006C0065000000040335
:10036000090409023B00020100A0FA09040000018F
:100370000301010009211101000122440007058148
:100380000308000109040100010300000009211114
:1003900001000122B60007058203200001120100BE
:1003A00002000000086C6A21000002010200010541
:1003B000010902A10185020901A10005091901290C
:1003C000081500250195087501810205010930090C
:1003D000311581257F95027508810609381581251B
:1003E0007F950175088106050C0A38021581257F65
:1003F000950175088106C0C005010980A10185032A
:1004000019012AB700150126B70095017510810062
:10041000C0050C0901A101850419012AA0021501DA
:1004200026A002950175108100C005010906A101F1
:100430008506050719E029E71500250195087501CE
:1004400081020507190029EF1500250195F07501B6
:10045000810205081901290595057501910295018B
:1004600075039101C005010906A101050719E029DD
:10047000E715002501950875018102950175088130
:10048000010507190029FF150026FF0095067508CC
:10049000810005081901290515002501950575013B
:1004A0009102950175039101C00011241FBECFEF89
:1004B000DAE0DEBFCDBF04B603FE18C080911B0397
:1004C00090911C03A0911D03B0911E038730904BA7
:1004D000A740B04B59F410921B0310921C031092CA
:1004E0001D0310921E03E0E0F8E3099511E0A0E07F
:1004F000B1E0E6EFF5E502C005900D92A23EB1072E
:10050000D9F723E0A2EEB1E001C01D92AB31B207F2
:10051000E1F70E9426120C94A52A0C940000843066
:10052000B8F46330A8F4433098F450E093E0699F46
:10053000400D511D1124FA0199E0899FE00DF11D34
:100540001124EE0FFF1FE454FF4F859194910895FD
:1005500081E090E008950E948F020895843088F42D
:1005600061110FC090E0880F991FE1E0E427E80FC8
:10057000F92FF11DEE0FFF1FE455FF4F8591949168
:10058000089581E090E008950E94AE02089581E010
:1005900008950E94C702089581E008950E94C7024D
:1005A00008950E94CE02089508950E94D4020895ED
:1005B000A6E0B0E0EEEDF2E00C94512949835A83B5
:1005C0009E833091E90189819A8131111AC03E815F
:1005D000332399F0222389F00E948F08182F682F67
:1005E00089819A810E945C0869817A81812F0E94A9
:1005F0009E0F2696E3E00C946D290E947608182F32
:10060000F3CF0E948F0869817A81F1CFFC01262FF8
:100610004081518162817381848195810E94D802D9
:100620000895CF93DF93EC0161E00E940603BE01C1
:100630000E94C902DF91CF910895CF93DF93EC011F
:1006400060E00E940603BE010E94D502DF91CF91B7
:10065000089581E008950E9429030895CF93C82F3B
:100660000E9431078C2F0E942B032FEF84E39CE024
:10067000215080409040E1F700C00000CF910895E4
:1006800081E00E942E030E94FB21089580E00E94D9
:100690002E030E941F2208950F931F93CF93DF9381
:1006A0008C0161E00E940603EC01F8018581811153
:1006B0000E94A019B801CE010E94D102811106C08A
:1006C00080E0DF91CF911F910F910895B801CE0185
:1006D0000E94241F8823A1F3B801CE010E944E1B63
:1006E000882371F3B801CE010E94241B882341F3B3
:1006F000B801CE010E94BF19882311F3F80185814A
:10070000882361F0C330FCE7DF07E9F058F4C11536
:10071000ECE7DE07A9F0C130DC47B9F0C8010E9460
:10072000CC02CFCFCB358CE7D807A9F0CC35ECE79E
:10073000DE0771F0CA35DC4789F70E94D60CEECF90
:100740000E944003BDCF0E94DE0C0E944603B8CF3A
:100750000E94CC0CE3CF0E94DA0CE0CF0E942D2146
:100760000E94D9030E94001808950E94DD030E9490
:10077000F7180E9432210895089581E008950895A0
:10078000CF93DF93D82F0E94BD03C82F882319F081
:100790008D2F0E94BF038C2FDF91CF910895089574
:1007A000CF93C82F0E94BC038C2F0E94C003CF910F
:1007B000089580E00E94D00308950E946D1F0E945A
:1007C000D0030895CF930E946D1FC82F8091E4013C
:1007D0008C1779F0C093E4010E94BC216093E5017D
:1007E0007093E6018093E7019093E8018C2F0E94BB
:1007F000D003CF910895ADE0B0E0E1E0F4E00C94D7
:100800005229488759876A877B878C879D879111F2
:100810000E94DC0B1F8286E0FE013896DE011196F5
:1008200001900D928A95E1F78D8181110DC029818A
:100830003A814B815C816D817E818F810E94260B84
:100840002D96E2E00C946E29CE0101960E941103D0
:100850008111EDCFF5CFFC012481213021F480817D
:1008600091810E94C1080895662329F00E94AF1C5F
:100870000E94941D08950E941B1DFACFCF93C82F8C
:10088000882399F08CEF8C0F813A88F48C2F0E948A
:100890000D20882329F08C2F0E94AD200E94700C1F
:1008A0008C2F0E9496200E94700CCF91089580E2B8
:1008B0008C0F883048F4C77081E001C0880FCA955A
:1008C000EAF70E94BF0BEFCFEBE5EC0FE33040F40B
:1008D000F0E0EC59FE4F808190E00E94A11FE5CF2F
:1008E000E8E5EC0FEB3150F4F0E0EE0FFF1FE25DB6
:1008F000FE4F808191810E94C61FD7CF83E38C0F6A
:10090000833198F661E08C2F0E943404CECF882387
:1009100081F19CEF980F913A28F40E94AD200E943B
:10092000700C089590E2980F983050F4877091E021
:1009300001C0990F8A95EAF7892F0E94C50BEFCF66
:100940009BE5980F933028F490E080E00E94A11F6F
:10095000089598E5980F9B3128F490E080E00E947C
:10096000C61F089593E3980F933118F460E00E9436
:10097000340408951F93CF93DF93182FEB010E9447
:100980003E04209739F4812F0E948704DF91CF9194
:100990001F9108958FE99FE00197F1F700C00000D3
:1009A0002197EFCF70E060E0893311F460E570E0EB
:1009B0000E94BA040895882321F00E94BF0B0E9470
:1009C000700C0895882321F00E94C50B0E94700CC2
:1009D0000895B0E0A0E0EFEEF4E00C944B296C0138
:1009E000D62FC72FFC011581068102950F700E943A
:1009F000B50BE82E8823F9F0E12E1123E1F08C2FBE
:100A0000807F803461F080E28D0F883008F18C2F78
:100A1000807E803221F4D230D8F00023C9F080915A
:100A2000EF0282FF15C082E00E94A00C0E94B50B6D
:100A300091E0E82EE926BC2EB2949FE0B922FBE0BB
:100A4000FB15B8F1EB2DF0E0E955F54D0C940B29B1
:100A5000E12CF1CF0C2F0F70C07F11F00295007FB9
:100A6000112399F0002359F080E28D0F883010F0A7
:100A7000D11107C0802F0E94BF0B0E94700C8D2FD8
:100A80005AC0802F0E94CF0BF8CF8D2F0E94870471
:100A9000002379F080E28D0F883010F0D11104C06E
:100AA000802F0E94C50B03C0802F0E94D50B0E948F
:100AB000700CEB2DE850FF0B349720F40E946D1F53
:100AC0000E94D003EE2089F00E94B10B80FD0DC082
:100AD000F60115820E94AB0B0E94BA07C6010E9464
:100AE000F8060E94AB0B0E94CA07CDB7DEB7E9E05B
:100AF0000C9467292C2F2F70F22EC07FC03219F072
:100B0000F29480EFF822DD2341F0D130D1F11123AE
:100B100009F444C00023F1F0B2CF8091EF0282FDCE
:100B200015C0112359F0FF2029F08F2D0E94BF0B13
:100B30000E94700C80E00E943E04BBCF80E00E94C7
:100B40008704FF2009F4B5CF8F2DABCF112369F0B7
:100B5000011104C08F2D0E94DB04ABCF013009F0DE
:100B6000A8CF8F2D0E94F30BA4CF0111A2CF8F2D00
:100B70000E94E2048F2D0E94FF0B8F2D0E94E30B39
:100B800098CF112321F0063008F093CFE3CF053042
:100B900008F08FCF8F2D0E94E2048BCF0023D1F37A
:100BA000D93349F43FEF87EE93E0315080409040D5
:100BB000E1F700C000008D2F0E9487047ACF8C2FB0
:100BC00086958695837069F0813009F072CF8D2FFC
:100BD0009C2F9370111102C080E090E00E94C61F0C
:100BE00068CF8D2F9C2F9370111102C080E090E090
:100BF0000E94A11F5ECF612F8D2F0E94340459CF18
:100C00008C2F8370A1F5111154CF4D2F429546952D
:100C10004770440F440F2D2F2F7030E0042E02C078
:100C2000220F331F0A94E2F790E080E0D4FF09C05E
:100C30008FE090E002C0880F991F4A95E2F78095F7
:100C40009095C695C695C370822B932BC23049F000
:100C500058F4C13019F00E948A072BCF0E948107F7
:100C600028CF0E94930725CF0E947E0722CF86952A
:100C7000112311F08C2F8170882309F41ACF4D2F86
:100C8000429546954770440F440F2D2F2F7030E04A
:100C9000042E02C0220F331F0A94E2F790E080E096
:100CA000D4FF09C08FE090E002C0880F991F4A95D9
:100CB000E2F780959095C695C695C370822B932BCD
:100CC000C23049F058F4C13019F00E94F507F1CE56
:100CD0000E94EC07EECE0E94FE07EBCE0E94A20718
:100CE000E8CECF70112329F08C2F0E94BA078D2FE8
:100CF00032CF8D2F0E94E2048C2F0E94CA07D9CEDA
:100D0000D23F41F160F4D03FB9F0D13F81F01123DF
:100D100009F446C00111B3CE8C2F8F711FC0D33F91
:100D200001F1D43FA1F78091EF0282FD24C08C2F06
:100D30008F71112311F312C0112341F0053008F017
:100D4000B8CE8C2F8F710E94DC07B3CE063008F02E
:100D5000B0CEF7CF8C2F8F711111CFCF0E94BA0771
:100D6000A8CE112329F08C2F8F710E94AE07A1CE3F
:100D70000E94A9079ECE112349F0CF718C2F0E94AB
:100D8000BA0763E08C2F0E94820C93CE81E00E9410
:100D9000A00C023008F48DCE82E00E94A00C89CE17
:100DA000002359F0D93309F006CFEFEFF7EE23E037
:100DB000E150F0402040E1F7FCCE8C2F8F719DCFA9
:100DC0000F931F93CF93DF93EC01688179818D811D
:100DD0000E94CC088C010E9407080E947D07B80180
:100DE000CE010E94E904DF91CF911F910F910895E8
:100DF000CF93DF93EC018C81882399F0CE010E9480
:100E00004C03811111C00E94B50B882351F08D81D4
:100E1000882339F08091EF0282FF03C082E00E94B4
:100E2000A00CDF91CF910895CE010E94E006CE0183
:100E30000E941D03F6CF90E080E00E94A11F90E089
:100E400080E00E94C61F0E94DC0B0E94700C0E9472
:100E5000B01D0E94941D08950E94C4200E941B078B
:100E600008950E94CC0B0E942C07089592959F70C4
:100E7000963091F058F4925F9F70923058F4803F12
:100E800019F030F4883E30F481E008959A5FF4CF91
:100E9000843FD1F380E00895883EB0F3813FD1F7DD
:100EA000F3CFFC012481222339F0808191810E94BB
:100EB000C1080E943607089580E00895A6E0B0E0DA
:100EC000E4E6F7E00C9452292696E2E00C946E29B1
:100ED000A7E0B0E0EEE6F7E00C9452292796E2E0B6
:100EE0000C946E2908950E94720708950E9473075A
:100EF0009093F9018093F801089508950E94760770
:100F000008952091F8013091F901822B932B0E94D2
:100F1000760708952091F8013091F90182239323F7
:100F20000E94760708952091F8013091F9018227F7
:100F300093270E94760708950E94720708950E94E1
:100F40009C0708950E949F079093F7018093F601F4
:100F5000089590E080E00E94A207089521E030E02B
:100F6000A90102C0440F551F8A95E2F7CA010E94E9
:100F7000A207089521E030E002C0220F331F8A95B6
:100F8000E2F78091F6019091F701822B932B0E945A
:100F9000A207089521E030E002C0220F331F8A9596
:100FA000E2F7209530958091F6019091F701822328
:100FB00093230E94A207089521E030E002C0220F8F
:100FC000331F8A95E2F78091F6019091F70182270D
:100FD00093270E94A20708952091F6013091F7010E
:100FE000822B932B0E94A20708952091F601309145
:100FF000F701822393230E94A20708952091F6010E
:101000003091F701822793270E94A207089508953F
:10101000262F277091E001C0990F2A95EAF723E067
:10102000769567952A95E1F7660F771F660F771F0C
:10103000FA01E60FF71F50E040E0682F70E0819161
:10104000DF0111979B01042E02C0369527950A9463
:10105000E2F7217021952827292328272C934F5F19
:101060005F4F4430510559F70895A82FA77023E02A
:10107000969587952A95E1F7880F991F880F991FF4
:10108000FB01E80FF91F50E040E080E0219130E0E3
:101090000A2E02C0369527950A94E2F7217033276D
:1010A000042E01C0220F0A94EAF7822B4F5F5F4F94
:1010B0004430510559F70895282F862F933070F446
:1010C000233058F4622F70E023E0929F600D711D71
:1010D00011244EEE51E00E94080808959C5F923062
:1010E000E0F7622F70E04AEE51E0F5CF292F933000
:1010F00068F4833090F490E06EEE71E033E0239F6B
:10110000800D911D11240E94350808952C5F223016
:1011100020F46AEE71E090E0F6CF80E00895B0E050
:10112000A0E0E5E9F8E00C944B297C010091F60180
:101130001091F7018091F8019091F901082B192B7A
:10114000CFE0D0E0CC24C394D12CBC2EC6010C2E11
:1011500002C0880F991F0A94E2F780239123892BFC
:1011600049F4219790F7B12C8B2DCDB7DEB7E9E08C
:101170000C946729B7018C2F0E94B70F019789F350
:10118000F3CFCF93DF93EC010E948F08BE010E9442
:10119000B70FDF91CF9108951F93CF93DF93EB01AA
:1011A0009091E901992339F0CB010E94C108DF91A8
:1011B000CF911F910895882369F0CB010E948F0879
:1011C000182F682FCE010E945C08BE01812F0E945B
:1011D000B70FEDCFCB010E947608182FF6CF1F93E3
:1011E000CF93DF93C091FA0117E08091FB018C133C
:1011F00004C0DF91CF911F910895D0E01C9FF001B2
:101200001D9FF00D1124E450FE4F20813181428159
:1012100053816481758186810E9468072196C77019
:10122000E4CF209134023091350240913602509142
:101230003702609138027091390280913A020E941F
:1012400068070895CF93DF9380913A02807F09F079
:101250004DC080913902882309F448C0E091FA0119
:101260005091FB01C0913502D09134026091360259
:101270007091370247E05E17C9F18E2F90E0E49F2E
:10128000F0011124E450FE4F2481222391F1489F64
:10129000F001499FF00D1124DF01A450BE4F1196BB
:1012A0002C9111972C1325C02C912D1322C015962B
:1012B0002C91159721111DC012962D913C91261B42
:1012C000370B283C3105A8F480913A028F70806179
:1012D00080933A02EE5FFD4F80818F708061808342
:1012E00084E392E00E94F8060E94EF08DF91CF911C
:1012F0000895FC013196E770BECF482F2091FA0186
:101300009091FB0157E0291302C080E0089530E07E
:10131000529FF001539FF00D1124E450FE4F818144
:10132000681306C08081481303C085818111EECF08
:101330002F5F3F4F2770E7CFA4E1B0E0E2EAF9E08A
:101340000C9448298C0186E0F801DE011F9601907B
:101350000D928A95E1F7F8018481E58094E3A92E46
:1013600092E0B92E9091380291111FC08823D1F0DC
:10137000EE20A9F0C8010E945107F82E882379F0C9
:1013800087E0F801D50101900D928A95E1F7C5013A
:101390000E942B040E9422090E9411095FC0C8010B
:1013A0000E94F806FF24F39459C0C080D180828047
:1013B0009380F09039022091360230913702A401D7
:1013C000421B530BFF2009F4F9C0483C510508F0BB
:1013D000A7C0882309F442C09091350280913A0257
:1013E000282F207F09F05CC09D1116C09091340217
:1013F000C91212C0E1104EC08F70806180933A0212
:101400000E94110984E392E00E94F80680913A025A
:10141000F8018683F12C22C0E1103CC06D2D8C2D8B
:101420000E947D096D2D8C2D0E947D09E82E811171
:10143000F1CFCF86D88A8F8598890E94C108292F3D
:1014400022952F70243078F49F702230A8F09923D1
:10145000B9F0F8019681907F99F4FE2C8F2D649657
:10146000ECE00C9464292A5F2F70223068F0C801E8
:101470000E94F806EF2CF1CF992311F0882369F32D
:10148000805E883050F3F3CF803F38F3815F833044
:1014900070F7E3CF80913A02816080933A02BACF2D
:1014A0009D1113C090913402C9120FC0E1100DC0FC
:1014B0008683C8010E94F80687E0F801A4E3B2E041
:1014C00001900D928A95E1F767CFC8010E945107FC
:1014D000882309F464CFEE2009F461CF80913A02A9
:1014E000803288F020913402309135023987288784
:1014F0009B868A86909138029C871D868E87CE01B6
:1015000008960E94F80687E0F801A4E3B2E0019093
:101510000D928A95E1F70E9422090E94110942CF9B
:1015200090913A02292F207FA1F4682D9A8A898A06
:10153000A6017A899E2D0E945E0784E392E00E94B4
:10154000F80687E0F50111928A95E9F70E941109E2
:1015500061CF882309F482CF809135028D1110C0AC
:1015600080913402C8120CC0E1100AC09683C801F1
:101570000E94F80687E0F50111928A95E9F76ECF8F
:10158000C8010E945107882309F409CFEE2009F40D
:1015900006CF80913A02803208F4B5CF2091340210
:1015A000309135023A8329839C828B829091380254
:1015B0009D831E828F83CE010196A3CF483C5105A7
:1015C000B8F5882309F4EECEFE2CEE2009F4E7CE20
:1015D000809135028D111EC080913402C8121AC04C
:1015E00080913A0280FD0DC0982F907F51F0868344
:1015F000903F09F45ECF982F907F905F8F70892B7A
:1016000057CF87E0F801A4E3B2E001900D928A95EC
:10161000E1F724CFC8010E945107811174CF809156
:101620003A02816080933A02C8010E94F80616CF00
:10163000682D9A8A898AA6017A899E2D0E945E0762
:1016400087E0F50111928A95E9F7A6CEAEE0B0E009
:10165000ECE2FBE00C945129288739874A875B87A5
:101660006C877D878E87CE0108960E949C0988230F
:10167000B1F06C85662341F0288539854A855B8504
:101680007D858E850E94680717E08091FA01909110
:10169000FB0189133DC02E96E3E00C946D2987E091
:1016A000FE013896DE01119601900D928A95E1F7C0
:1016B0008C85882349F32091FB0130E0C901019614
:1016C000877099274091FA014817190699F097E019
:1016D000929FD001939FB00D1124A450BE4FFE01E4
:1016E000319601900D929A95E1F78093FB010E944B
:1016F000EF08CACF0E9431071092FB011092FA0145
:1017000087E0E4E3F2E0DF011D928A95E9F7BCCFC0
:10171000819FC001112484509E4F0E949C09882300
:1017200009F4B9CFE091FA011E9FF0011124E450B1
:10173000FE4F208131814281538164817581868190
:101740000E9468078091FA0190E0019687709927BE
:101750008093FA019ACF809163028695869586954B
:101760000895809163028770089590916302977045
:1017700081E009F480E0089580918F0208959091AE
:101780008F02892B80938F020895809590918F020C
:10179000982390938F02089510928F02089590914C
:1017A0008E02892B80938E020895809590918E02EF
:1017B000982390938E02089510928E0208950895B2
:1017C0000E94DF0B089590916402292F282331F0A5
:1017D00080958923809364020E94E00B0895089508
:1017E0000E94EF0B089590916502292F2823281756
:1017F00029F0982B909365020E94F00B0895909128
:101800006502292F282331F0809589238093650272
:101810000E94F00B089580916502882329F01092B0
:10182000650280E00E94F00B0895CF93C0918F0273
:1018300080918E02C82B80916502882331F0C82BDD
:101840000E94EB1F81110E940B0C8C2FCF910895E9
:10185000CF93DF93C0910601D09107010E94150C30
:101860008883C0910601D091070148E050E06BE504
:1018700072E0CE010E94182A892B59F088E0FE01FF
:10188000ABE5B2E001900D928A95E1F7CE010E949E
:101890007A1FDF91CF910895CF93DF93C091040118
:1018A000D09105010E94150C8983C0910401D0914B
:1018B000050140E250E06BE372E0CE010E94182A7D
:1018C000892B59F080E2FE01ABE3B2E001900D926A
:1018D0008A95E1F7CE010E94851FDF91CF9108958F
:1018E00080912D01882339F08091EE0287FF03C09B
:1018F0000E944C0C08950E94280C089508950E949F
:101900007E0C08959091EF0292FF11C098E0899F9C
:1019100090011124622B609363020E94BA078091A8
:1019200063028695869586950E947F0C08950E9495
:10193000BA0708951092630280E00E947F0C089518
:10194000909163028095892380936302282F2770EA
:1019500069F4891759F09091EF0292FF07C08695BC
:10196000869586950E94CA070E949A0C08959091C8
:10197000EF0292FB222720F9281769F080FB92F9E9
:101980009093EF028091EE029091EF020E94FF0C83
:1019900082E00E94A00C08958091EF0282FB8827CC
:1019A00080F991E089270E94B70C089581E00E9498
:1019B000B70C089580E00E94B70C08956FEF7FEF99
:1019C00090E080E00E94702A089590E080E00E94FC
:1019D0003C2A21E0863E9E4F09F020E0822F0895A8
:1019E00082E090E00E942E2A089583E090E00E9419
:1019F0002E2A089584E090E00E943C2A0895BC01BC
:101A000084E090E00E94702A0895AB01BC018FE051
:101A100090E00E94642A0895AB01BC0183E190E04C
:101A20000E94642A089560E070E0CB010E940C0DD2
:101A3000089560E070E0CB010E94050D0E94130D37
:101A40000895A8E0B0E0E7E2FDE00C94522966EECC
:101A50007EEF90E080E00E94702A60E082E090E0FB
:101A60000E94522A81E090E09093F9018093F8015E
:101A700061E083E090E00E94522A60E074E184E03B
:101A800090E00E94702A60E086E090E00E94522A76
:101A90006FEF87E090E00E94522A40E050E0BA01E8
:101AA00088E090E00E94642A60E084E290E00E9476
:101AB000522A60E087E190E00E94522A60E08CE0C8
:101AC00090E00E94522A60E08DE090E00E94522A4D
:101AD00019821A821B821C821D821E821F82188616
:101AE00048E050E068E170E0CE0101960E94422A91
:101AF00040E050E0BA0180E290E00E94642A0E9437
:101B0000190D2896E2E00C946E290E94210D08958B
:101B1000682F8EE090E00E94522A0895A6E0B0E07F
:101B2000E4E9FDE00C9450290E94B0218C018091E1
:101B30009002909191028017910781F019821A8288
:101B40000E94B021682F49815A81792F80E090E06E
:101B50000E94FB0310939102009390022696E4E00A
:101B60000C946C290E94BC2160939D0270939E028C
:101B700080939F029093A0026093990270939A02BF
:101B800080939B0290939C0208950E94BC216093D5
:101B90009D0270939E0280939F029093A002609397
:101BA00095027093960280939702909398020895FD
:101BB000089508950E94D80D089508950E94DD0D9E
:101BC00008958DEA90E10E9433120E94D90D0E947F
:101BD000DA0D089581E008950E94EA0D08950E94AB
:101BE000EA0D0895089508950E94F20D0E94F30DE4
:101BF00008950E94CC100E94CF0308950E94A7214F
:101C00000E94381A0E948C110E94F90D0E94A91896
:101C10000E94DE0D0895A6E0B0E0E1E1FEE00C9444
:101C200049290E94EC0D811111C00E948E0D0E9465
:101C3000A1190E94551A81110E94C50D0E94D21D42
:101C40000E94E2032696EBE00C9465290E94A21103
:101C50001091920280E00E94F21018130EC01091B1
:101C6000930281E00E94F210811307C01091940248
:101C700082E00E94F2101817C1F28091A10281FD4A
:101C80000E94F8100E94EF0DC82E82E9A82E82E073
:101C9000B82E10E099249394812F0E94F210082FFF
:101CA000F50181915F01081729F1D02ED826F12C7A
:101CB000EE24E3948D2D8E21A9F0CC2099F0F982A9
:101CC0001A830E94B0219C838B839D8291E0802F98
:101CD0008E2109F490E049815A816B817C818D814C
:101CE0000E94FB03F394EE0CF3E0FF12E3CFF50147
:101CF000319700831F5F133079F60E94B20D97CFA2
:101D00001F93CF93DF930E94BC0FEC01C11580E5B8
:101D1000D807F0F5C11580E4D80708F09CC0C03E94
:101D2000D10520F5CD3CD10508F082C0C83AD105D7
:101D300078F4C53AD10508F073C0C130D10519F166
:101D4000209709F1C430D105F0F4D0E0C0E01BC009
:101D5000C33CD105D0F7C85AD0E0CC0FDD1FC9591C
:101D6000DE4F0990D881C02DD4640DC0C11580E22A
:101D7000D80708F0D1C0C11581E0D80708F05AC0D3
:101D8000C83ED10510F7CE01DF91CF911F91089584
:101D9000C03682E5D80718F5C03482E5D80708F0C8
:101DA0006BC0C03282E5D80708F05FC0C11582E57C
:101DB000D80708F497C02C2F2695269580E2289FF7
:101DC000900111248C2F8370C1E0D0E002C0CC0FB1
:101DD000DD1F8A95E2F7C22BD32BDD68D4CFC03A42
:101DE00082E5D80760F4C03882E5D80708F459C006
:101DF000CF71D0E0DC2FCC27C46FD06AC4CFC03CF9
:101E000082E5D80708F462C0C03E82E5D80708F032
:101E10009CCFDC2FCC27CC27DF71C06FD06AB3CF2B
:101E2000C55AD0E0C356DE4FC881D0E0D064ABCFF6
:101E3000D065A9CF8D2F0E945E10182FCE01992753
:101E40000E94BC0FC12FD0E0DC2FCC27CC27DF7144
:101E5000C82BD92B98CFCE0199270E94BC0FCC2735
:101E6000DF70C82BD92BD06A8ECFCF71D0E0DC2F9A
:101E7000CC27C16FD06A87CF2C2F26952695277047
:101E800080E2289F900111248C2F8370C1E0D0E064
:101E900002C0CC0FDD1F8A95E2F7C22BD32BDC6882
:101EA00072CF2C2F26952695277080E2289F9001CF
:101EB00011248C2F8370C1E0D0E002C0CC0FDD1F55
:101EC0008A95E2F7C22BD32BDA685DCF8C2F8F7106
:101ED0000E945E10C82FD0E0DC2FCC27CC27DF710A
:101EE000D06251CF8C2F8F710E945E1055E0D69535
:101EF000C7955A95E1F7CF70D0E0DC2FCC27282F7B
:101F000030E084FF05C044E0220F331F4A95E1F71B
:101F1000C22BD32BD06937CF8D2F8F710E945E10CB
:101F2000182FCE0199270E94BC0FC12FD0E0DC2FC3
:101F3000CC27CC27DF71C82BD92BD2CF462F672FC8
:101F4000733028F4433080F40E94AB0208957D3F43
:101F500039F4411109C041E060E00E94C4020895D3
:101F60007C3F11F44423C1F390E080E008950E9487
:101F70009E0F0E94800E089582389105B9F1B0F449
:101F80008133910509F47DC048F48932910509F443
:101F90006DC08A32910509F47BC00895853391059F
:101FA00009F45FC08933910509F10895833E9105D5
:101FB000D9F138F4803E910529F1823E910579F1FD
:101FC0000895863E9105D9F1873E910509F43EC0FA
:101FD000843E910541F52091EF0221FF24C08091BC
:101FE000EE0284FD19C087EE90E008952091EE0284
:101FF000237009F05AC02091EF0223FF14C089E238
:1020000090E008952091EE0220FD38C03091EF025B
:1020100030FF09C024FF43C090E080E00895209184
:10202000EE0222FDF7CF08952091EE0222FD3AC084
:102030003091EF0230FD39C024FFF5CFEDCF209174
:10204000EE0223FFF0CF24FDE7CFCDCF2091EE02AB
:1020500023FD2EC03091EF0231FFEECF84EE90E0F1
:1020600008952091EE0225FFDECFC9CF2091EE0228
:1020700025FD21C02091EF0223FFD5CF89E390E019
:10208000D2CF2091EE0226FFCECF8AE290E00895D3
:102090002091EE0226FFC7CF81E390E0089583EE02
:1020A00090E0089582EE90E0089580EE90E008952B
:1020B00086EE90E0089585E390E008959091EE0219
:1020C00092FF10C041E0282F2471243009F040E035
:1020D00031E0282F2871283009F030E0431711F043
:1020E0002CE0822793FF10C041E0282F2471243177
:1020F00009F040E031E0282F2871283109F030E064
:10210000431711F02CE082273091EF0230FF10C00E
:1021100051E0282F2171213009F050E041E0282FB3
:102120002871283009F040E0541711F029E0822787
:1021300031FF10C041E0282F2171213109F040E02A
:1021400031E0282F2871283109F030E0431711F0D1
:1021500029E0822794FD877E089580E008950E94FB
:10216000DE0C08950E94A2112FEF86E791E0215026
:1021700080409040E1F700C000000E94A21180E082
:102180000E94F21080FF04C00E94AF100E94FB2149
:1021900008950E94B21008950E94E50C811102C0BA
:1021A0000E94850D0E94F00C8093A1020E94FA0CFF
:1021B0009093EF028093EE020E94C9100E94F50CEA
:1021C00090E00E947E078091F6019091F7010E94B5
:1021D0009F07089508950E94EA10089508950E94A7
:1021E000EE100895E82FF0E0ED50FD4F8081089546
:1021F000089580EA8A95F1F7089500C008950E9435
:10220000F9100895F894E82FE295EF70F0E031A10D
:10221000282F2F7081E090E001C0880F2A95EAF7FF
:10222000982F9095932391A392A1892B82A37894C0
:10223000089584E30E94021185E30E94021186E35F
:102240000E94021184E90E94021186E90E94021193
:1022500087E90E9402110895B0E0A0E0E2E3F1E115
:102260000C944C297C01162F042FC62FD0E0CE01F0
:1022700080569E4F6C01EC0128812F3F09F444C029
:10228000F894E22FE295EF70F0E031A12F7081E039
:1022900090E001C0880F2A95EAF7932F982B91A31D
:1022A00092A18095892382A378940E94FD10A3EACD
:1022B000B1E0F70146EA51E0F12C602F60959D9165
:1022C00080819F3F31F1292F22952F7030E0E90165
:1022D00028A130E09F7002C0359527959A95E2F7C6
:1022E00020FD17C0802B8083FF24F39431964A177A
:1022F0005B0729F7F60180818F3F11F00E940211E0
:102300006F2D812F0E94FF10CDB7DEB7E8E00C944F
:10231000682986238083EACF0E94191183E0E3EFC6
:10232000F2E0DF01982F1D929A95E9F7E0EFF2E0D5
:10233000DF011D928A95E9F783E00E94DE110E9479
:10234000EB100895A3E0B0E0E8EAF1E10C94502925
:1023500019821A821B8210E001E0402F612FCE010A
:1023600001960E942C111F5F000F1330B1F743E05C
:1023700050E0BE016F5F7F4F80EF92E00E94182A0D
:1023800021E0009709F420E0892B49F089819A81A6
:10239000AB818093F0029093F102A093F20243E0AC
:1023A00063EF72E080EF92E00E94DF11182F0E942D
:1023B000EF10812F2396E4E00C946C290895B0E08F
:1023C000A0E0E5EEF1E10C944C296C017B01042FB7
:1023D000C22F222379F081E08093A4020E94B021D1
:1023E0009093A3028093A20280E0CDB7DEB7E8E02D
:1023F0000C946829D091A402DD23B1F38091A2024C
:102400009091A3020E94C821059770F310E0A801E3
:10241000B601C7010E94182A892B31F0A801B60124
:10242000C7010E94252ACD2F1092A4028C2FDDCF48
:102430000E948B230E94FE0D0E94982308950E9403
:102440009D230E940B0E0E94B72308950E944921EC
:102450000E9471230E94E10D0E9418120E941F1217
:102460000E94F40DFBCF9093E3018093E201089565
:10247000EF92FF920F931F93CF93DF93EB01E82F1F
:10248000D1110EC0442321F0F0E0E25EFD4FE49153
:102490006E2F7E2F8E2FCDB7DEB7E6E00C946A2923
:1024A0000D2F10E0282F30E0442329F0225E3D4F0D
:1024B000F901249130E0F6E0CF9FC0011124EFEF45
:1024C000F0E0BF010E94C128AB018C2F90E0880F83
:1024D000991FA5E5A49FB001A59F700D1124861B2F
:1024E000970B982F990F980FBF01601B710B629F7C
:1024F000D001639FB00D729FB00D11248B2F9D9F53
:10250000B0011124672F7727EF01C61BD70BBE013F
:10251000629FE001639FD00D729FD00D11247F0157
:10252000E91AF108E09EB001E19E700DF09E700D79
:102530001124672F7727E61BF70BE29F8001E39FAB
:10254000100DF29F100D1124E12F722F4230510512
:1025500099F048F44115510569F04130510581F079
:10256000EB2F8D2F07C04430510569F080F04630C5
:102570005105B1F76E2F8FCFE22F7B2F812FFACF2E
:10258000E22F7D2FF7CFEB2F822F712FF3CF7B2FF1
:10259000822FED2FEFCF41E00E9438120895089569
:1025A0000E94CB120895CF93DF93762FE901682F15
:1025B000842F0E94D012798368838A83DF91CF9120
:1025C00008958091F602982F9C7F29F4837084608F
:1025D0008093F60208958C3AE8F38370886AF8CF06
:1025E000B0E0A0E0E6EFF2E10C944C2988E090E046
:1025F0000E94362A6B017C0184E290E00E942E2A20
:10260000282F30E040E050E060E070E080E090E0B3
:1026100000E20E947929B22FA32FF42FE52FD62FA5
:10262000C72F97018601BC29A12BFE295E2F532BB2
:102630002B2F3A2F4F2F6D2F7C2FCDB7DEB7E8E031
:102640000C946829B0E0A0E0E8E2F3E10C9448299A
:1026500049015A016B017C010E94E1128401A4012D
:102660006A2D7B2D88E090E00E94642A94014A2D17
:102670005B2DB601C70100E20E949429622F84E21B
:1026800090E00E94522ACDB7DEB7ECE00C946429AA
:10269000E6EFF2E089E3808311828FEF8283838308
:1026A0001482758129E330E04FEF5FEF60E08681AF
:1026B00097810E94221308958091F60280FF03C043
:1026C00086958695089580E008959091FA0293305A
:1026D00018F49F5F9093FA02882391F02091F602FC
:1026E0003091F7024091F8025091F9026091FA029C
:1026F0007091FB028091FC029091FD020E942213D6
:10270000089581E00E94651308959091FA0299233B
:1027100019F091509093FA02882391F02091F602DB
:102720003091F7024091F8025091F9026091FA025B
:102730007091FB028091FC029091FD020E94221395
:10274000089581E00E948513089570E00E94F81AB0
:10275000089560910C018091F60280FF0BC080917A
:102760000B0123E0829FC001112482509D4F0E94E3
:10277000A513089580910D0190910E0123E0829F91
:10278000F0011124E250FD4F891748F711821082A1
:1027900012828F5F3396F8CF9091F60290FF0EC0B1
:1027A00090910D0120910E0133E0939FF0011124CF
:1027B000E250FD4F921718F00E94A91308958183EB
:1027C000608342839F5F3396F5CFA3E0B0E0EBEEEA
:1027D000F3E10C9452299091F60290FF0AC09E01F9
:1027E0002F5F3F4F0E94D3124B8169818A810E94E3
:1027F000CC132396E2E00C946E29CF93DF93EC0187
:10280000EC81F0E0E75EFE4F4491E6EFF2E062819A
:1028100081810E94E5138C818F5F8C83DF91CF9142
:102820000895CF93DF93EC01E6EFF2E043816281FC
:102830008C810E94E5138C818F5F8C83DF91CF9117
:102840000895A3E0B0E0E7E2F4E10C9450298C0194
:102850008091A50281110AC09E012F5F3F4F4FEF6B
:102860006FEF0E94D3128A818093A502F8016481E0
:10287000613069F08091A50240E0662361F040E09C
:10288000623011F44091A50280E060E004C06091E4
:10289000A50240E080E00E94CC13F801848190E022
:1028A000019663E070E00E94D52884832396E4E0DB
:1028B0000C946C29A3E0B0E0E0E6F4E10C944B2921
:1028C000082FD62EF42EC22E9091F60290FF2FC024
:1028D000E92FE695E695AE2FB0E0AA55BE4F8C9154
:1028E0008093C5029C7F943031F59E012F5F3F4F4E
:1028F000802F0E94D3124B8169818A810E94CC1360
:102900000093F702D092F802F092F902CC2079F00D
:102910002091F6026091FA027091FB02302F4D2D4A
:102920005F2D8091FC029091FD020E94221323965C
:10293000E9E00C946729823019F4F090F902E0CFB5
:10294000863019F40091F702DBCF8930D9F3893151
:10295000B9F6E9516E2F6170B62EE695F0E0E75EAC
:10296000FD4F1491E12C60910F01E61618F00E94C2
:10297000A913C6CFE19EC001112470E00E94C128B6
:10298000802FB11014C0860F20910D01622F6E0DA3
:102990007727771F9B01220F331F260F371F2250E7
:1029A0003D4F4F2D6D2D0E94D312E394DCCF861B3B
:1029B000EBCFE6EFF2E09181282F438162818AE03C
:1029C000890F0E945A14089581E00E94D914089535
:1029D000E6EFF2E09181282F4381628186EF890F33
:1029E0000E945A14089581E00E94E8140895E6EFC9
:1029F000F2E0628121E1620F08F46FEF282F43813A
:102A000081810E945A14089581E00E94F71408956C
:102A1000E6EFF2E0628121E1621B08F460E0282F1A
:102A2000438181810E945A14089581E00E94081513
:102A30000895E6EFF2E0438121E1420F08F44FEF01
:102A4000282F628181810E945A14089581E00E949A
:102A500019150895E6EFF2E0438121E1421B08F4E5
:102A600040E0282F628181810E945A14089581E0FC
:102A70000E942A15089520E00E945A140895EF92AA
:102A8000FF921F93CF93DF93EC0110E0EE24EA94C2
:102A9000F12C60910F01161770F00E94A9139A8112
:102AA0008C8190FF27C08F5F8C83DF91CF911F9126
:102AB000FF90EF90089520910D01422F410F55276F
:102AC000551FCA019A01220F331F280F391F2250A8
:102AD0003D4F70E0C7010E94D528962F8C81409110
:102AE000F9026091F802199F800D11240E94D312FF
:102AF0001F5FCFCF8150D8CFB0E0A0E0E2E8F5E192
:102B00000C944B29FC0182810FEF80FF01E010E063
:102B100080910F01181798F00E94A9138091A702C5
:102B2000013009F04CC0811102C080910F01815029
:102B30008093A702CDB7DEB7E9E00C946729C09176
:102B40000D01C12ED12CCC0DDD2DD11DCE01880F54
:102B5000991FC80FD91FC250DD4F198218821A82DF
:102B600034E0E32EF12CB12C8091A7028B0D85303F
:102B700004F18370082E000C990BC816D90691F445
:102B80008091F9028E9DA0018F9D500D11245595C5
:102B90004795559547959E016091F8028091F702FF
:102BA0000E94D312B00EF1E0EF1AF108E9F61F5FB0
:102BB000AFCF87FFDFCF90910F01890FDBCF90E080
:102BC000019660910F0170E00E94D528B1CF0F935C
:102BD0001F93CF93DF9380910D0190910E0123E01D
:102BE000829FF0011124E250FD4F891740F1C0E0AF
:102BF000D3E060910F01C61740F10E94A913209104
:102C000009018091A602820F8093A60290910A0189
:102C1000920F90930A01191654F4082E000C990B88
:102C200040910F014150550B841795071CF02195D9
:102C300020930901DF91CF911F910F910895118287
:102C4000108212828F5F3396D0CF0C2F10E070E08D
:102C5000C8010E94D52820910D01820F482F50E015
:102C60002091A602022E000C330B02171307BCF0B2
:102C700020910A01022E000C330B201731077CF043
:102C80008D9F9001112422503D4F4091F902609197
:102C9000F8028091F7020E94D312CF5FAACFFA0107
:102CA000EE0FFF1FE40FF51FE250FD4F118210825F
:102CB0001282F3CFB0E0A0E0E0E6F6E10C94482900
:102CC000EC014C81042F10E09801D8010E941929D1
:102CD0009B01AC010E942F294B015C01E0E2F0E076
:102CE000E01BF10BA5E5B0E0AC019B010E942F2990
:102CF0006B017C019F01DF010E9411299B01AC0146
:102D00000E943A299B01AC01280D391D4A1D5B1D0B
:102D1000C701B6010E94E928F22E822F90E039E225
:102D20003F1520F143E0249F90011124359527950C
:102D3000122F109500E085E5E82EEF1880910F0125
:102D4000081718F10E94A9139C8181E0992319F0BA
:102D5000903219F48FEF8093080180910801890F58
:102D60008C83CDB7DEB7ECE00C94642925E530E028
:102D7000B901681B790B9B01220F331F260F371FE8
:102D800037FFD4CF2F5F3F4FD1CF8E2D01FD8F2D39
:102D900020910D01622F600F7727771F9B01220F73
:102DA000331F260F371F22503D4F412F6091F802ED
:102DB0000E94D3120F5FC2CF0F931F93CF93DF9365
:102DC000EC0110E000E090910F019017110609F05E
:102DD0006CF40E94A9138C8190E001968170992770
:102DE0008C83DF91CF911F910F91089520910D0158
:102DF000A801420F511D9A01220F331F240F351FC6
:102E000022503D4F4C816091F8028091F7029695D7
:102E10009017110651F04CF0442349F04091F9020B
:102E20000E94D3120F5F1F4FCECF4423B9F340E06F
:102E3000F7CFB0E0A0E0EFE1F7E10C944429FC010A
:102E40006280448081E08483E9E1F1E07490E8E904
:102E5000F1E0E491C091F902C695C158D0E0CC0FE1
:102E6000DD1FCD2FDD27812C75E0972EAA24AA9493
:102E7000B12C55245A94E719EE2EF12C80910F01B4
:102E8000881638F00E94A913CDB7DEB7E0E10C94A4
:102E90006029C82CD12C82E0861568F09C9CF0013A
:102EA0009D9CF00D1124E855FD4F8091F702808321
:102EB0008091F8028183411023C09C9CF0019D9C6D
:102EC000F00D1124E855FD4F1382128220910D015F
:102ED000C601820F911D9C01220F331F280F391F3D
:102EE00022503D4F9C9CF0019D9CF00D1124E85513
:102EF000FD4F4281618180810E94D3128394BECFB5
:102F00009C9C80019D9C100D112408551D4FF801BB
:102F100083818823F1F081508383859DC001112432
:102F2000648170E00E94C128FB01FF27E75EFE4F2D
:102F30008491E82FE719E59DC0011124B7010E9493
:102F4000C1288091F902689FB0011124F8017283B1
:102F5000BDCF0E94FB29B5010E94D5288C179D0783
:102F60000CF0B4CFF2E0F61598F40E94FB29B501FD
:102F70000E94D528F80180830E94FB292091F80245
:102F80002695622F70E00E94D528280FF801218332
:102F90009C9CF0019D9CF00D1124E855FD4F128280
:102FA0008091F902893C58F088EC9C9CF0019D9C32
:102FB000F00D1124E855FD4F8483838387CF84313E
:102FC000A0F784E1F2CFE6EFF2E020812E7F2083AC
:102FD00031814281538164817581868197810E940C
:102FE00022131092C6020E94A9130895E6EFF2E0A0
:102FF00080818E7F80831092C6020E94A91308955B
:103000001092C6028091C30281110AC081E08093B0
:10301000C3028091F60281708093C2020E94F6176B
:1030200008956091F6026695669570E04BE050E079
:1030300080E191E00E940B2A892B19F481E08093B2
:10304000C6020E94B0219093BD028093BC020895F5
:103050009091F60290FF34C09370811132C0946059
:103060009093F602662391F02091F6023091F702D8
:103070004091F8025091F9026091FA027091FB02BE
:103080008091FC029091FD020E9422136091F60251
:103090006695669570E04BE050E080E191E00E941B
:1030A0000B2A892BB1F01092C60281E08093BF02F7
:1030B0004091F9026091F8028091F7020E943B155D
:1030C00008958B3210F0986ACBCF880F880F982B19
:1030D000C7CF0E941118E9CF682F9091F6029695FC
:1030E000969581E0890F8B3208F081E00E942818C4
:1030F000089581E00E946C180895682F9091F6025F
:10310000969596958FEF890F09F48AE20E94281808
:10311000089581E00E947D18089561E00E942818BA
:103120000895E6EFF2E08081816080838695869540
:103130000E948D1808958091F60280FF03C00E94BE
:10314000E31708950E949118089560E00E942818DE
:1031500008958091C40281113FC00E94E50C811145
:1031600004C00E94850D0E9448130E94F012209313
:10317000F6023093F7024093F8025093F9026093FD
:10318000FA027093FB028093FC029093FD022C7F65
:10319000A1F40E9448130E94F0122093F60230938B
:1031A000F7024093F8025093F9026093FA02709389
:1031B000FB028093FC029093FD020E94E1121092A8
:1031C000C6028091F60280FF04C0869586950E9413
:1031D000A51881E08093C4020895E6EFF2E08081B3
:1031E00081608083869586950E94A5180895109227
:1031F000C3028091C20281110E94ED180E94111831
:1032000008950F931F93CF93DF938091C602882375
:10321000C1F18091C502E091F602E695E695E81BC2
:10322000E093BE02823091F5F0E0EB5EFE4FE49158
:10323000CE2FD0E00DEF13E18091BF02882361F023
:103240001092BF020E94B0219093BD028093BC02F5
:103250001092C1021092C0020E94B021E091BC0203
:10326000F091BD028E1B9F0B8F3F9F4750F4EC0FD8
:10327000FD1FF093BD02E093BC028CEB92E0F801DD
:103280000995DF91CF911F910F910895863049F4F0
:10329000F0E0EE5EFE4FE491CE2FD0E001E114E1CC
:1032A000CBCF893051F4E695F0E0E15FFE4FE49139
:1032B000CE2FD0E00FE315E1BFCF8F3051F4E6956C
:1032C000F0E0E45FFE4FE491CE2FD0E00CE715E193
:1032D000B3CF853149F4F0E0E75FFE4FE491CE2FA4
:1032E000D0E007EE15E1A8CFC8E2D0E00AE516E18C
:1032F000883109F4A1CF833239F4E7E0F1E0C591D8
:10330000D49101E214E198CFC4EFD1E00CED16E1C5
:10331000843209F491CFC0EDD7E00FEC12E1853291
:1033200009F08ACF8E2F63E00E94B528E92FF0E0E4
:10333000EC5FFE4FE491CE2FD0E009E117E17CCFA6
:1033400008950E9401190895FA01811101C0FB013D
:1033500009950895CF93DF93C82FD62F0E945C1351
:103360008C1748F00E945C138D1728F40E9479187E
:10337000DF91CF9108958C2F0E948D18F9CF1F9364
:10338000CF93DF93EC01FB011581111110C00E9456
:10339000BC0B8272FE01E052F847E531F10508F0FE
:1033A0005EC0ED54F54D0C940B290E949B18812FA3
:1033B000DF91CF911F91089549E858E169E778E1DD
:1033C0000E94A419F4CF49E758E169E878E1F8CF01
:1033D00043EF54E164EE74E1F3CF44EE54E163EF64
:1033E00074E1EECF45E155E164E075E1E9CF44E0F9
:1033F00055E165E175E1E4CF47E355E166E275E14A
:10340000DFCF46E255E167E375E1DACF41EA53E108
:1034100061E873E1D5CF41E853E161EA73E1D0CFD0
:1034200081E00E948D18C3CF65E082E00E94AA1956
:10343000BECF68E086E0FACF6EE089E0F7CF64E1C6
:103440008FE0F4CF67E185E1F1CF88E1EACF62E276
:1034500089E1ECCF83E2E5CF6AE285E2E7CF11E0D4
:10346000A6CF8FE891E00197F1F700C00000089522
:1034700081E08093C8025098589A5198599A0E94B6
:10348000311A2091C8024AEC52E0FA018E2F841BB7
:10349000821708F0089589B18170499904C090E0BD
:1034A000892B8193F3CF92E0FBCFA8E1B0E0EBE56D
:1034B000FAE10C94452910E000E082E0982E94E0B7
:1034C000A92EB12C2DEF822E772473943CEF632E1E
:1034D00043E0542E8091C802181728F0802F689678
:1034E000EFE00C946129E12EF12CE9B1E1704999EA
:1034F0007DC080E08E2BD701A653BD4FEC919E2F4F
:103500009370981709F470C0EE0FEE0FE82BEC9350
:10351000EF70F0E0EF52FE4FC70187539D4F6C01F3
:103520008081F6019081890F808320E084303CF116
:10353000F701E953FD4F80818F5F80830E94B021A6
:103540001D876E86682F8F87988B598A7A8A412FBC
:103550005CEF792F83E091E00E94FB030E94B02191
:103560001B8B6C8A682F8D8B9E8B5F8A188E412FE8
:103570005CEF792F83E090E00E94FB0321E0F601ED
:1035800080818D3F3CF5F701E953FD4F80818150EB
:1035900080830E94B02119838A82682F8B839C8349
:1035A0009D827E82412F5DEF792F82E091E00E9423
:1035B000FB030E94B0211F838886682F89879A8722
:1035C0009B861C86412F5DEF792F82E090E00E9460
:1035D000FB0321E0F6018081082E000C990BB50158
:1035E0000E94D5288083022B1F5F74CF82E082CF98
:1035F000279A45B14F7755B15068EFB7F8949B01C2
:10360000220F331F260F371F280F391F281739079E
:1036100041F4EFBF8FE594E00197F1F700C000009F
:103620000895DC016D91CD0178E055B9000000C02E
:1036300067FF45B9660F000000C000C000C045B973
:1036400000C07A9591F7E2CFCF93DF93EB018631FB
:103650009C4711F50E94BC0B9D81992399F08A7AB1
:1036600091E009F490E09093CB02811109C089E2C6
:103670000E9496200E94700C80E0DF91CF91089507
:1036800085E3F6CF8091CB02811104C089E20E94CC
:10369000AD20F0CF85E3FBCF81E0EFCFCF93DF9379
:1036A000EC01FB018581882309F4D2C09E013057CB
:1036B0002332310508F0B2C00E94FA0C9093EF0259
:1036C0008093EE02FE01E150F047E232F10520F472
:1036D000E853F54D0C940B298091EE0281608093A4
:1036E000EE0293C08091EF0288608093EF028DC05C
:1036F0008091EE028260F3CF8091EE028460EFCF82
:103700008091EE028860EBCF8091EF028160EDCF77
:103710008091EF028260E9CF8091EE028061DFCF7D
:103720008091EE028062DBCF8091EE028064D7CF81
:103730000E9431078091EE028068D1CF8091EE0225
:103740008C60CDCF8091EF028360CFCF8091EE026D
:103750008E7FC5CF8091EF02877FC7CF8091EE0229
:103760008D7FBDCF8091EE028B7FB9CF8091EE022D
:10377000877FB5CF8091EF028E7FB7CF8091EF0228
:103780008D7FB3CF8091EE028F7EA9CF8091EE0224
:103790008F7DA5CF8091EE028F7BA1CF0E94310754
:1037A0008091EE028F779BCF8091EE02837F97CF3F
:1037B0008091EF028C7F99CF8091EE0282FB992756
:1037C00090F921E0922790FB82F990FB83F987CF53
:1037D0008091EF02982F909591708E7F892B90FBAE
:1037E00081F983CF9091EE02892F8F7B96FF8064C1
:1037F00076CF0E9431079091EE02892F97FB87F9CF
:1038000080586DCF81E00E94880D8091EE029091EA
:10381000EF020E94FF0C0E94310780E0DF91CF9100
:10382000089580E0F0CF9091EE02892F8F7E94FF73
:10383000806155CF9091EE02892F8E7F90FF81603D
:103840004ECF9091EF02892F877F93FF88604DCFF5
:1038500081E0E4CF282F35EB2303C001112497FF2B
:1038600004C080589109892F089580589F4FFBCF3D
:103870008091D20280FF0DC06091200170E0660F40
:10388000771F6038710570F56115710569F1862F34
:10389000089581FF07C06091200184E0689FB00116
:1038A0001124EFCF6091200182FD0AC08091D102E6
:1038B0008823A9F020911F0160912001821710F048
:1038C00088E0ECCF869FC001112433E0880F991F58
:1038D0003A95E1F7622F70E00E94D528D2CF68E0D8
:1038E00070E0D5CF8FE7089581E008958091D202EE
:1038F00080FF0CC060911C0170E07595679575950F
:1039000067956115710549F1862F089581FF06C0FD
:1039100060911C0170E075956795F3CF60911C0173
:1039200082FD0BC09091D0029923A1F060911B0100
:1039300080911C01961738F0682F70E0603871058F
:1039400000F38FE70895899FC001112470E00E9461
:10395000D528F4CF61E070E0D7CF81E00895909151
:10396000D5022091D602922B2091D802922B209141
:10397000D702922B31F098E09093D10291E090938E
:10398000D0028D3C31F40E94381C81958093D60280
:1039900008958E3C19F40E94381CF8CF8F3C31F406
:1039A0000E94381C81958093D5020895803D19F4BA
:1039B0000E94381CF8CF893D29F40E94761C809320
:1039C000D70208958A3D21F40E94761C8195F7CF95
:1039D0008B3D31F40E94761C81958093D802089526
:1039E0008C3D19F40E94761CF8CF9FE2980F983016
:1039F00070F4815D990B21E030E001C0220F8A95BF
:103A0000EAF78091D402822B8093D40208958D3DF1
:103A100031F48091D20281608093D20208958E3D6C
:103A200021F48091D2028260F7CF8F3DB9F7809167
:103A3000D2028460F1CF4091D5028D3C59F480913F
:103A4000D60287FF0DC01092D60241110BC0109212
:103A5000D10208C08E3C81F48091D60218169CF3E6
:103A6000442381F08091D7029091D802892B09F0EC
:103A70005AC01092D00208958F3C49F447FFF0CF0E
:103A80001092D5028091D6028111ECCFE0CF803D1B
:103A900019F41416ACF3E4CF9091D702893D29F4C0
:103AA0001916F4F61092D702DBCF8A3D19F497FF6E
:103AB000D7CFF8CF9091D8028B3D29F497FFD0CF84
:103AC0001092D802CDCF8C3D19F41916CCF3C8CF83
:103AD0009FE2980F983090F4815D990B21E030E0DF
:103AE000B90102C0660F771F8A95E2F7CB01809576
:103AF0009091D40289238093D402B2CF8D3D31F4CA
:103B00008091D2028E7F8093D202AACF8E3D21F483
:103B10008091D2028D7FF7CF8F3D09F0A1CF8091A8
:103B2000D2028B7FF0CF08950E94B0219C0190912A
:103B3000D5028091D602982B21F03093CF022093AA
:103B4000CE029091D7028091D802982B21F0309329
:103B5000CD022093CC0283ED92E00E94931F089542
:103B600086E0E3EDF2E0DF011D928A95E9F710921D
:103B7000D1021092D0021092D2020895FC018281EB
:103B800081110EC0838181110BC08481811108C015
:103B900091E08581811101C090E0892F81700895A5
:103BA00081E0FCCFA6E0B0E0E8EDFDE10C94512906
:103BB00086E0E3EDF2E0DE01119601900D928A9528
:103BC000E1F71092D5021092D6021092D70210920D
:103BD000D8028B819C81892B89F08091CE029091B3
:103BE000CF020E94C821AC019091D1029923C9F162
:103BF000809121018417150608F440C08D819E81B3
:103C0000892B91F08091CC029091CD020E94C82125
:103C1000AC019091D002992309F46AC080911D01F2
:103C20008417150608F472C0BE016F5F7F4F83EDE5
:103C300092E00E94DE20811105C083ED92E00E9497
:103C4000BE1D81110E94941D86E0FE013196A3EDF8
:103C5000B2E001900D928A95E1F72696E3E00C948C
:103C60006D29209122018AE0289F900111242417B8
:103C7000350720F69F5F9093D10202C09F3FD1F796
:103C80001B81112359F00E94381C9FEF11160CF470
:103C900091E0899F802D11248093D5021C811123EE
:103CA00059F00E94381C9FEF11160CF491E0899F87
:103CB000802D11248093D6028091D502882309F4A7
:103CC0009DCF1091D602112309F498CF0E942A1C8F
:103CD000882351F08093D502812F0E942A1C8823CB
:103CE00029F08093D6028ACF81E0F4CF81E0F9CF2A
:103CF00020911E018AE0289F900111242417350786
:103D000008F092CF9F5F9093D00202C09F3FD1F7FF
:103D10001D81112359F00E94761C9FEF11160CF49F
:103D200091E0899F802D11248093D7021E81112359
:103D300059F00E94761C9FEF11160CF491E0899FB8
:103D4000802D11248093D8028091D702882309F412
:103D50006BCF1091D802112309F466CF0E942A1C60
:103D6000882351F08093D702812F0E942A1C882338
:103D700029F08093D80258CF81E0F4CF81E0F9CFC9
:103D80000F931F93CF93DF93C42FD22FFC01858114
:103D90008823C9F04093DB020E94B0219093DA029D
:103DA0008093D90280E28C0F883040F4C77081E0A4
:103DB00001C0880FCA95EAF70E94DB04DF91CF911A
:103DC0001F910F9108951091DB02141332C080915E
:103DD000D9029091DA020E94C821883C910548F5E9
:103DE000C0E2CD0F1D17B9F080E2810F883040F49A
:103DF000177081E001C0880F1A95EAF70E94E2046B
:103E0000C83048F481E09D2F977001C0880F9A95C3
:103E1000EAF70E94DB04802F0E94D204C83070F6BB
:103E2000D77081E001C0880FDA95EAF70E94E204BA
:103E3000C5CF80E28C0F883008F6C77081E001C0E2
:103E4000880FCA95EAF7F2CF0F93DB0188519C47A0
:103E500087309105A0F5FC01E651F54D0C940B2936
:103E600006E221EE41EE6AE17CE7CD010E94C01E30
:103E700080E00F91089507E225EE45EE6BE17CE7C7
:103E8000F4CF06E221EE40EE68E17CE7EECF07E2F8
:103E900025EE44EE69E17CE7E8CF06E221EE42EE52
:103EA0006CE17CE7E2CF07E225EE46EE6DE17CE7D0
:103EB000DCCF08E221E045EE6EE17CE7D6CF159637
:103EC0008C91882319F01092DB02D3CF81E0D1CFFF
:103ED0009093E1028093E0020895E091E002F09176
:103EE000E102309729F00190F081E02D09950895C5
:103EF00080E00895E091E002F091E102309721F036
:103F00000280F381E02D09950895E091E002F0919F
:103F1000E102309739F026E0DC012C930480F58132
:103F2000E02D09950895E091E002F091E1023097CB
:103F300039F022E0DC012C930680F781E02D099511
:103F40000895A3E0B0E0E7EAFFE10C945229209144
:103F5000DE023091DF0228173907A1F09093DF02CB
:103F60008093DE02E091E002F091E102309751F09F
:103F700023E029839B838A830084F185E02DCE0191
:103F8000019609952396E2E00C946E29A3E0B0E037
:103F9000ECECFFE10C9452292091DC023091DD021F
:103FA00028173907A1F09093DD028093DC02E0919D
:103FB000E002F091E102309751F024E029839B83E5
:103FC0008A830084F185E02DCE0101960995239620
:103FD000E2E00C946E2920910601309107012E5FDA
:103FE0003F4F80912D01882379F08091EE0287FF69
:103FF0000BC020910401309105012E5F3F4F9EE1DF
:1040000080E0915018F4089596E0FACFF9014191BB
:104010009F014423B1F38F5FF4CF882321F1909166
:104020002D01992311F19091EE0297FF1EC0E82F08
:10403000E695E695E695EE31B0F4209104013091D5
:104040000501E20FF32FF11D228130E0877041E07E
:1040500050E002C0440F551F8A95E2F72423352310
:1040600081E0232B91F480E00895209106013091A6
:104070000701F9013296285F3F4F9191981721F07F
:10408000E217F307D1F7EFCF81E008959C01FC011F
:1040900032969FEF80E04191461751F09F3F19F40F
:1040A000411101C0982F8F5F8630A9F79F3F09F417
:1040B0000895290F311D97FD3A95F90162830895FE
:1040C000FC01329608962191261303C0DF01119757
:1040D0001C92E817F907B9F70895E62FE695E695DB
:1040E000E695EE3168F4E80FF92FF11D677021E0D5
:1040F00030E001C0220F6A95EAF78281822B828329
:104100000895E62FE695E695E695EE3170F4E80F12
:10411000F92FF11D677021E030E001C0220F6A9590
:10412000EAF720958281282322830895682F8091C1
:104130002D01882359F08091EE0287FF07C08091FE
:104140000401909105010E946D200895809106015F
:10415000909107010E9446200895682F80912D01BB
:10416000882359F08091EE0287FF07C080910401F7
:10417000909105010E9481200895809106019091FF
:1041800007010E946020089580912D01882379F015
:104190008091EE0287FF0BC0E0910401F0910501D0
:1041A00032968EE1DF011D928A95E9F70895E0913C
:1041B0000601F0910701329686E0F4CFDC01FB01A5
:1041C00011969C9111978181981322C012968C911F
:1041D0001297882319F0928189131AC013968C9133
:1041E0001397882319F09381891312C015968C9127
:1041F0001597882319F0958189130AC014969C910C
:10420000992321F081E02481291303C080E001C0BB
:1042100081E08170089508950E940B210895811115
:1042200006C081E08093E2020E940C21089582E0A2
:10423000F9CF83E08093E2020E940C2108950E944E
:104240000F21089581E08093E2020E940C210895DD
:104250000E9422210895089508950E942C21089516
:10426000089508950E942B210895CF930E94302134
:104270000E94A2110E943121C0E08C2F0E94F210F6
:10428000811105C0CF5FC330C1F7CF91089581E0A0
:10429000FCCF85B7806885BF85B7806885BF0895E6
:1042A0001F921FB61F9211248F939F93AF93BF93BA
:1042B0008091E302811113C080910A0390910B0356
:1042C000A0910C03B0910D034196A11DB11D8093E7
:1042D0000A0390930B03A0930C03B0930D03BF91BB
:1042E000AF919F918F911F901FBE1F901895809145
:1042F0001203843031F10E94AE031092E30288E190
:1043000090E020E40FB6F894A895809360000FBE6B
:104310002093600083B7817F846083BF83B781600F
:1043200083BF7894889583B78E7F83BF0FB6F89448
:10433000A895809160008861809360001092600071
:104340000FBE08950E9431070E94B503089582E0D0
:1043500084BD93E095BD9AEF97BD80936E0008955C
:104360002FB7F89480910A0390910B03A0910C034E
:10437000B0910D032FBF08952FB7F89460910A03F1
:1043800070910B0380910C0390910D032FBF089542
:104390009C014FB7F89480910A0390910B03A09170
:1043A0000C03B0910D034FBF821B930B08957894BB
:1043B0001F921FB61F9211248F939F93AF93BF93A9
:1043C00080910A0390910B03A0910C03B0910D030F
:1043D0000196A11DB11D80930A0390930B03A09336
:1043E0000C03B0930D03BF91AF919F918F911F90DC
:1043F0001FBE1F90189581E08093E00080E28093BB
:10440000D8001092C9008FE19EE40197F1F700C037
:10441000000087E090EBDC0180931B0390931C036A
:10442000A0931D03B0931E0388E19CE00FB6F8949F
:10443000A895809360000FBE90936000FFCF88E145
:104440009CE00FB6F894A895809360000FBE9093FF
:104450006000FFCF8091EC0208959B01BA0190911A
:1044600012039430E9F48F708093E9009FEF8091FC
:10447000E800915085FD06C085ED8A95F1F70000B2
:104480009111F5CF8091E80085FF0AC050E040E02F
:10449000C9010E942E248091E8008E778093E80065
:1044A000089543E050E0BC0182E00E942D2208956F
:1044B00046E050E0BC0182E00E942D22089540E2D7
:1044C00050E0BC0182E00E942D220895CF93DF933B
:1044D000EC0148E050E0BC0181E00E942D2288E020
:1044E000FE01A4EEB2E001900D928A95E1F7DF9112
:1044F000CF91089580911103811109C00E94BE25BA
:104500000E941B268091E20084608093E20008955F
:104510001092110308950E942221089560910E03C4
:1045200081E0611101C080E00E94192108959091FD
:10453000120381E0943009F080E060910E030E9444
:104540001F21089542E061EC81E00E943A2542E299
:1045500061EC82E00E943A259091120381E0943050
:1045600009F080E060910E030E940F210895809170
:104570001403833009F461C030F48130D1F182300A
:1045800009F49EC008958A3009F48AC08B3009F47A
:104590006FC0893009F050C080911303813209F057
:1045A0004BC08091170390911803029708F044C004
:1045B0008091E800877F8093E8008091E80082FF87
:1045C00037C09091F3008091F200029731F480910E
:1045D000F100813011F0863021F48091F100809358
:1045E000EC028091E8008B778093E8000E946E25B2
:1045F00023C080911303813AF9F48091E800877F0A
:104600008093E8008091170390911803892B61F43F
:1046100068E084EE92E070E00E947D248091E800E2
:104620008B778093E800089560E090E080E0F3CF1E
:10463000809112038111C1CF089580911303813AB3
:10464000D9F78091170390911803892BA9F78091CE
:10465000E800877F8093E8008091E80080FFFCCF2E
:1046600080912D018093F1008091E8008E77BCCF7E
:1046700080911303813201F7809117039091180301
:10468000892BD1F68091E800877F8093E8000E9413
:104690006E258091150380932D010E9431070895A6
:1046A00080911303813241F68091E800877F8093E7
:1046B000E8000E946E25809116038093ED02089514
:1046C00080911303813A09F0B7CF8091E800877F8A
:1046D0008093E8008091E80080FFFCCF8091ED029C
:1046E000C1CF84B7877F84BF0FB6F894A895809117
:1046F0006000886180936000109260000FBE80E8C7
:1047000090E00FB6F89480936100909361000FBE23
:104710000E94282108950E94BE250E941B26E2EED9
:10472000F0E080818460808378940E949A280895C4
:1047300083E291E00E94681F089580911203853002
:1047400031F480911203853019F00E94A22108955E
:104750000E94772180911003882399F30E943521CC
:10476000882379F30E9418240E943107EACF089524
:104770009A014091190350911A030E94C023089591
:10478000492F55274330510519F168F4413051053F
:1047900009F444C04230510509F445C090E080E07E
:1047A00050E040E025C04132510549F14232510507
:1047B000A9F784E490E045E654E061157105C1F085
:1047C00086EB90E04FEA53E06130710589F0E6CF67
:1047D00099278130910581F0009729F00297F1F631
:1047E000EEE1F3E002C0EEE5F3E0849190E0AF018A
:1047F000F901518340830895EEE3F3E0F6CF89E0B9
:1048000090E044E753E06115710591F389E090E091
:104810004DE853E06130710559F3C0CF82E190E07B
:104820004DE953E0E5CF8BE390E042E653E0E0CF83
:1048300080E189BD82E189BD09B400FEFDCF809190
:10484000D8008F7D8093D8008091E00082608093B3
:10485000E0008091E00081FDFCCF0895AF92BF920F
:10486000CF92DF92FF920F931F93CF93DF936C0150
:10487000EB018A010E948D25F82E811123C00115BC
:10488000110539F0F80180819181C81BD90BC80E40
:10489000D91EB12CA12C2097A9F08091E80085FDAC
:1048A00022C08091E8008E778093E8000115110501
:1048B000A1F0F80180819181A80EB91EB182A08279
:1048C00085E0F82E8F2DDF91CF911F910F91FF90F2
:1048D000DF90CF90BF90AF9008950E948D258823E0
:1048E000D1F2F82EEFCFF60181916F018093F100A4
:1048F0002197FFEFAF1ABF0ACECFFC0180911903B9
:1049000090911A0386179707A0F06115710529F495
:104910009091E8009E779093E80090E06115710512
:1049200051F4911108C08091E80082FF34C080E00A
:104930000895BC01F2CF809112038823C1F1853024
:10494000C1F18091E80083FD30C08091E80082FDD4
:10495000EACF8091E80080FFE1CF8091F3002091C1
:10496000F200382F6115710519F02830310558F023
:1049700091E02830310509F090E02091E8002E7791
:104980002093E800CBCF81918093F10061507109B1
:104990002F5F3F4FE7CF80911203882341F085308E
:1049A00041F08091E80083FFBECF81E0089582E06E
:1049B000089583E00895FC018091190390911A03F2
:1049C00086179707A0F06115710529F48091E8001A
:1049D0008E778093E80090E06115710551F4911194
:1049E00008C08091E80082FF35C080E00895BC01D6
:1049F000F2CF809112038823C9F18530C9F18091EB
:104A0000E80083FD31C08091E80082FDEACF80910B
:104A1000E80080FFE1CF8091F3002091F200382F71
:104A20006115710519F02830310558F091E02830F2
:104A3000310509F090E08091E8008E778093E800DE
:104A4000CBCF84918093F1003196615071092F5F33
:104A50003F4FE6CF80911203882341F0853041F02B
:104A60008091E80083FFBDCF81E0089582E0089542
:104A700083E00895982F973028F08F708093E90095
:104A800081E008959093E900242F762F50E0981745
:104A900031F07091EC002091ED005091F00021FD7B
:104AA00002C09F5FE8CF3091EB003E7F3093EB0078
:104AB0003091ED003D7F3093ED003091EB0031609F
:104AC0003093EB007093EC002093ED005093F000D6
:104AD0002091EE0027FDE5CF80E00895809113033B
:104AE00087FF13C08091E80082FF06C08091E80034
:104AF0008B778093E80004C0809112038111F2CF7C
:104B00000895809112038823D9F38091E80080FFF3
:104B1000F8CF8091E8008E77ECCF2091E4003091BF
:104B2000E50095E6A9012091EC00822F817020FF1D
:104B300006C08091E80080FF06C080E008952091C3
:104B4000E80022FD1AC080911203882389F0853085
:104B500089F08091EB0085FD0FC02091E400309139
:104B6000E50042175307F9F29150E1F684E0089509
:104B700082E0089583E0089581E008950E942D2643
:104B80000E943526E0EEF0E0808181608083E8EDD0
:104B9000F0E080818F77808319BCA7EDB0E08C9125
:104BA0008E7F8C9380818F7E808310921103089575
:104BB0000F931F93CF93DF930E942D260E943526DB
:104BC000C8EDD0E088818F7788838881806888836A
:104BD00088818F7D888319BC1092120310920E0376
:104BE0001092100310920F0300EE10E0F801808184
:104BF0008B7F808388818160888342E060E080E0F1
:104C00000E943A25E1EEF0E080818E7F8083E2EE23
:104C1000F0E0808181608083808188608083F801FA
:104C200080818E7F8083888180618883DF91CF91AE
:104C30001F910F910895E8EDF0E080818F7E8083D1
:104C4000E7EDF0E080818160808384E082BF81E0D5
:104C5000809311030E94D8250895E8EDF0E080814B
:104C60008E7F80831092E20008951092DA001092F5
:104C7000E10008951F920F920FB60F9211242F9307
:104C80003F934F935F936F937F938F939F93AF93D4
:104C9000BF93EF93FF938091E10082FF0BC080915F
:104CA000E20082FF07C08091E1008B7F8093E100EA
:104CB0000E9499288091DA0080FF19C08091D80065
:104CC00080FF15C08091DA008E7F8093DA0080919A
:104CD000D90080FF96C080E189BD82E189BD09B419
:104CE00000FEFDCF81E0809312030E947A22809122
:104CF000E10080FF19C08091E20080FF15C0809123
:104D0000E2008E7F8093E2008091E20080618093D8
:104D1000E2008091D80080628093D80019BC85E0C1
:104D2000809312030E948E228091E10084FF2BC0A9
:104D30008091E20084FF27C080E189BD82E189BDC6
:104D400089B5982F917080FFFBCF8091D8008F7D1F
:104D50008093D8008091E1008F7E8093E100809164
:104D6000E2008F7E8093E2008091E2008160809378
:104D7000E20080910E03882309F449C084E0809307
:104D800012030E9497228091E10083FF29C0809145
:104D9000E20083FF25C08091E100877F8093E100DE
:104DA00082E08093120310920E038091E1008E7FC7
:104DB0008093E1008091E2008E7F8093E2008091F9
:104DC000E20080618093E20042E060E080E00E94C7
:104DD0003A258091F00088608093F0000E948B2239
:104DE000FF91EF91BF91AF919F918F917F916F91C3
:104DF0005F914F913F912F910F900FBE0F901F9099
:104E0000189519BC109212030E94882270CF8091CD
:104E1000E30087FD93E090931203B3CF1F920F92AC
:104E20000FB60F9211242F933F934F935F936F937D
:104E30007F938F939F93AF93BF93CF93DF93EF9322
:104E4000FF93D091E900DF708091EC00C82FC17012
:104E500080FDC0E81092E9008091F000877F809388
:104E6000F00078940E9452271092E9008091F0009F
:104E700088608093F000CD2BCF70C093E900FF9144
:104E8000EF91DF91CF91BF91AF919F918F917F91E2
:104E90006F915F914F913F912F910F900FBE0F90A7
:104EA0001F901895AAE2B0E0E8E5F7E20C945129CA
:104EB00083E193E02091F100FC012193CF01F3E025
:104EC0008B319F07B9F70E94B7228091E80083FFDA
:104ED0001EC180911303909114039A3008F017C1FA
:104EE000E92FF0E0EF50F54D0C940B29803899F044
:104EF000823809F00CC1809117038F70873008F059
:104F000006C18093E9008091EB0085FB882780F93A
:104F10001092E90006C080910F0390911003911147
:104F200082609091E800977F9093E8008093F10071
:104F30001092F1008091E8008E77E5C0882309F493
:104F4000D3C0823009F0E3C0809115038111D6C02F
:104F5000809117038F702FEF280F263008F0D7C0ED
:104F60008093E9002091EB0020FFC8C0933031F41A
:104F70008091EB0080628093EB00C0C09091EB00C9
:104F800090619093EB0021E030E001C0220F8A9500
:104F9000EAF72093EA001092EA008091EB00886023
:104FA000EACF8111B4C0109115031F778091E300FF
:104FB0008078812B8093E3008091E800877F809345
:104FC000E8000E946E258091E80080FFFCCF809170
:104FD000E30080688093E30082E0111183E0809316
:104FE000120395C08058823008F091C0809115035B
:104FF000909116038C3D23E09207A1F583E08A830C
:105000008AE289834FB7F894DE01139620E03EE0F0
:1050100051E2E32FF0E050935700E49120FF03C0EA
:10502000E295EF703F5FEF708E2F90E0EA30C0F0B6
:10503000C7968D939D932F5F243159F74FBF809171
:10504000E800877F8093E8006AE270E0CE01019675
:105050000E947D248091E8008B778093E80057C000
:10506000C096E7CF6091170370911803AE014F5FB0
:105070005F4F0E94B823BC01892B09F448C090916E
:10508000E800977F9093E80089819A810E94DB2451
:10509000E1CF8038E1F58091E800877F8093E800D8
:1050A00080910E038093F10045CF811130C0909123
:1050B0001503923060F58091E800877F8093E800C7
:1050C00090930E030E946E2580910E03882311F0A9
:1050D00084E005C08091E30087FDFACF81E08093F2
:1050E00012030E94A22213C080911503813079F42B
:1050F00081E0933009F080E0809310031092E90082
:105100008091E800877F8093E8000E946E2580915F
:10511000E80083FF0AC08091E800877F8093E80061
:105120008091EB0080628093EB00AA96E3E00C9400
:105130006D290895CF93809112038823A1F0C09127
:10514000E900CF709091EC00892F817090FD80E88C
:10515000C82B1092E9008091E80083FD0E9452273D
:10516000CF70C093E900CF910895991B79E004C0F6
:10517000991F961708F0961B881F7A95C9F7809596
:105180000895AA1BBB1B51E107C0AA1FBB1FA6178E
:10519000B70710F0A61BB70B881F991F5A95A9F7E0
:1051A00080959095BC01CD01089597FB072E16F4CC
:1051B000009407D077FD09D00E94C12807FC05D0D4
:1051C0003EF4909581959F4F0895709561957F4F1E
:1051D0000895A1E21A2EAA1BBB1BFD010DC0AA1F38
:1051E000BB1FEE1FFF1FA217B307E407F50720F050
:1051F000A21BB30BE40BF50B661F771F881F991FCB
:105200001A9469F760957095809590959B01AC0113
:10521000BD01CF010895EE0FFF1F0590F491E02D21
:1052200009940E941929332312F48A1B9B0B0C94B6
:105230002A29A29FB001B39FC001A39F700D811DB9
:105240001124911DB29F700D811D1124911D08958F
:105250000E941929B7FF0895821B930B08950E949D
:105260001929A59F900DB49F900DA49F800D911DAD
:1052700011240895B7FF0C942F290E942F29821B17
:10528000930B08952F923F924F925F926F927F926D
:105290008F929F92AF92BF92CF92DF92EF92FF9246
:1052A0000F931F93CF93DF93CDB7DEB7CA1BDB0BF2
:1052B0000FB6F894DEBF0FBECDBF09942A88398897
:1052C00048885F846E847D848C849B84AA84B9849E
:1052D000C884DF80EE80FD800C811B81AA81B981AA
:1052E000CE0FD11D0FB6F894DEBF0FBECDBFED01BE
:1052F0000895002E083090F0982F872F762F652F75
:10530000542F432F322F22270850F4CF220F331F60
:10531000441F551F661F771F881F991F0A95B2F7F4
:10532000002D089597FD1094002E083098F0085035
:10533000232F342F452F562F672F782F892F912D0C
:10534000F4CF1594979587957795679557954795D9
:10535000379527950A95AAF71124002D08958F9265
:105360009F92AF92BF92CF92DF92EF92FF92CF9334
:10537000DF93EC01688179818A819B8161157105D8
:105380008105910521F464E279ED8BE597E02DE14B
:1053900033EF41E050E00E94862A49015A019B0107
:1053A000AC01A7EAB1E40E942F296B017C01ACEEAD
:1053B000B4EFA50194010E943D29DC01CB018C0DC5
:1053C0009D1DAE1DBF1DB7FF03C00197A109B048C9
:1053D00088839983AA83BB839F77DF91CF91FF90C6
:1053E000EF90DF90CF90BF90AF909F908F900895F7
:1053F0000E94AF29089580E091E00E94AF290895AE
:10540000B0E0A0E08093000190930101A09302011D
:10541000B09303010895FC014150504030F00190D9
:105420000616D1F73197CF01089588279927089557
:10543000FB01DC0104C08D910190801921F44150E1
:105440005040C8F7881B990B0895FB01DC0102C08E
:1054500001900D9241505040D8F70895F999FECF30
:1054600092BD81BDF89A992780B50895A6E1B0E074
:1054700044E050E00C94782AA8E1B0E042E050E02B
:105480000C94782ADC01A40FB51F4150504048F01D
:10549000CB01840F951F2E910E94532A41505040FA
:1054A000D0F70895262FF999FECF92BD81BDF89AC5
:1054B000019700B4021639F01FBA20BD0FB6F89458
:1054C000FA9AF99A0FBE08950396272F0E94532A3D
:1054D0000E94522A252F0E94532A242F0C94532ACB
:1054E0000196272F0E94532A0C94522ADC01CB01EB
:1054F000FC01F999FECF06C0F2BDE1BDF89A3196E4
:1055000000B40D9241505040B8F70895052E97FB16
:105510001EF400940E949D2A57FD07D00E94E9289E
:1055200007FC03D04EF40C949D2A5095409530957D
:1055300021953F4F4F4F5F4F0895909580957095FF
:1055400061957F4F8F4F9F4F0895F894FFCF2A05A5
:105550002A057A057A05DF05FB0559055905000678
:10556000710680068006D519DC19E319E819ED19D2
:10557000F219F719FC19011A061A0B1A101A141A43
:10558000191A1C1A1F1A221A251A271A2A1A2C1A33
:10559000A61B1A1CAE1B781B7C1BB21B801BB61BE8
:1055A000C21B8C1B131C901BC61B941BCA1BF21B1B
:1055B000981BCE1BF91B9E1BD41BDC1B841BBA1B28
:1055C000881BBE1BA21BD81BE81B021C111C721BD4
:1055D000AA1B211C411F471F301F3B1F4D1F531F7C
:1055E000591F76279E2787289E278728D127F227AD
:0655F00087284928552818
:1055F60001000000660286020101020004000404A4
:1056060001191A1B1C1D1E1F202122280850011ECD
:105616000A14012A2266225F225822512201E20040
:10562600E900EA00B500B600B700CD008301CC0062
:105636008A019201940121022302240225022602F4
:1056460027022A02B300B4006F0070009F01CB014D
:105656009F02A002818283E200E900EA00B500B65B
:1056660000B700CD008301CC008A0192019401218C
:1056760002230224022502260227022A02B300B4CC
:10568600006F0070009F01CB019F02A00281828300
:105696003435369496970001020202020606060980
:1056A60009090909090F0F0F0F0F0F1515151819FD
:1056B6001919191919191919192324252525252503
:1056C6002500FF0100010000FFFF0000010001FFAF
:0256D6000000D2
:00000001FF
