:100000000C94C9020C9401030C9401030C94010399
:100010000C9401030C9401030C9401030C94010350
:100020000C9401030C9401030C949B2D0C946F2EE3
:100030000C9420280C9401030C9401030C940103EC
:100040000C9401030C9401030C9401030C94010320
:100050000C9401030C94A7280C9401030C94010345
:100060000C9401030C9401030C9401030C94010300
:100070000C9401030C9401030C9401030C940103F0
:100080000C9401030C9401030C9401030C940103E0
:100090000C9401030C9401030C9401030C940103D0
:1000A0000C9401030C9401030C940103A900AA0011
:1000B000237824782578267851005200AC00A800D7
:1000C000AB00AD00AE00AF00B200B3000352217828
:1000D0002078227828782B7827782E782C78005270
:1000E0000100010001000100010001000100010008
:1000F0000052010001000100015201000252010002
:10010000010000521E0F0500047F3F1F643214647B
:100110003214783C1E1E140A052223252628292A7B
:100120002C2D2F3032333536383A3B3D3E4042435A
:100130004547494A4C4E5051535557595A5C5E6099
:1001400062646668696B6D6F71737577797B7D7FAB
:1001500081838587898A8C8E90929496989A9C9EAA
:100160009FA1A3A5A7A8AAACAEAFB1B3B4B6B8B9C6
:10017000BBBCBEBFC1C2C3C5C6C7C9CACBCCCDCE2E
:10018000D0D1D2D2D3D4D5D6D7D7D8D9D9DADADB11
:10019000DBDBDCDCDCDCDCDDDDDDDDDCDCDCDCDC9D
:1001A000DBDBDBDADAD9D9D8D7D7D6D5D4D3D2D2DC
:1001B000D1D0CECDCCCBCAC9C7C6C5C3C2C1BFBEC4
:1001C000BCBBB9B8B6B4B3B1AFAEACAAA8A7A5A32F
:1001D000A19F9E9C9A98969492908E8C8A898785EE
:1001E00083817F7D7B79777573716F6D6B696866CD
:1001F0006462605E5C5A5957555351504E4C4A499F
:1002000047454342403E3D3B3A3836353332302F46
:100210002D2C2A292826252322FFAA7F55400001BC
:1002200001010101010101010202020202020202B6
:100230000203030303030303030404040404040488
:10024000050505050506060606060707070707084C
:10025000080808090909090A0A0A0B0B0B0C0C0CFF
:100260000D0D0D0E0E0E0F0F0F1010111111121299
:1002700013131414151516161717181819191A1A16
:100280001B1B1C1D1D1E1E1F202021222223242477
:10029000252626272829292A2B2C2D2D2E2F3031B3
:1002A0003232333435363738393A3B3C3D3E3F40C5
:1002B0004142434445464748494A4C4D4E4F5051B0
:1002C0005354555658595A5B5D5E5F61626465666A
:1002D00068696B6C6D6F7072737577787A7B7D7EF1
:1002E0008082838587888A8C8E8F91939596989A41
:1002F0009C9EA0A2A3A5A7A9ABADAFB1B3B5B7BA59
:10030000BCBEC0C2C4C6C9CBCDCFD1D4D6D8DBDD2C
:10031000DFE2E4E7E9EBEEF0F3F5F8FAFDFF0000C9
:100320000000000000002A2B280000000000000050
:1003300000000000000000000029000000002C1E4A
:100340003420212224342627252E362D3738271E07
:100350001F202122232425263333362E37381F042D
:1003600005060708090A0B0C0D0E0F1011121314C5
:1003700015161718191A1B1C1D2F3130232D350483
:1003800005060708090A0B0C0D0E0F1011121314A5
:1003900015161718191A1B1C1D2F3130354C00006B
:1003A000000000000000000000000000000000004D
:1003B000000000000000000000000000000000003D
:1003C00000007E0F00D4FFFFFFC700000078140379
:1003D0004E006F006F0064006C006500500061000B
:1003E000640000001E0354006800650020004D00FA
:1003F0006100640020004E006F006F0064006C001C
:10040000650000000403090409025B00030100A069
:10041000FA09040000010301010009211101000192
:1004200022440007058103080001090401000203BA
:1004300000000009211101000122220007058203AA
:100440002000010705030320000109040200010345
:1004500000000009211101000122B60007058403F4
:1004600020000112010002000000086C6A02000076
:1004700002010200010660FF0961A1010962150085
:1004800026FF009520750881020963150026FF00EC
:10049000952075089102C005010902A10185020994
:1004A00001A1000509190129081500250195087504
:1004B0000181020501093009311581257F950275F9
:1004C00008810609381581257F9501750881060583
:1004D0000C0A38021581257F950175088106C0C078
:1004E00005010980A101850319012AB7001501261C
:1004F000B700950175108100C0050C0901A10185A7
:100500000419012AA002150126A002950175108187
:1005100000C005010906A1018506050719E029E7C4
:10052000150025019508750181020507190029EFBD
:100530001500250195F075018102050819012905AD
:10054000950575019102950175039101C005010999
:1005500006A101050719E029E71500250195087591
:100560000181029501750881010507190029FF1510
:100570000026FF0095067508810005081901290568
:1005800015002501950575019102950175039101ED
:10059000C00011241FBECFEFDAE0DEBFCDBF04B62E
:1005A00003FE18C08091320390913303A09134036D
:1005B000B09135038730904BA740B04B59F410925F
:1005C0003203109233031092340310923503E0E0AB
:1005D000F8E3099511E0A0E0B1E0E0EFF4E602C035
:1005E00005900D92A63FB107D9F723E0A6EFB1E041
:1005F00001C01D92A233B207E1F70E9473120C945E
:100600000D320C9400008430B8F46330A8F4433009
:1006100098F450E093E0699F400D511D1124FA01B8
:1006200099E0899FE00DF11D1124EE0FFF1FE454A6
:10063000FF4F85919491089581E090E00895843072
:1006400088F461110FC090E0880F991FE1E0E42762
:10065000E80FF92FF11DEE0FFF1FE455FF4F8591B5
:100660009491089581E090E0089581E008950E94BA
:100670003503089581E008950E94350308950E948E
:100680003C03089508950E9442030895A6E0B0E057
:10069000ECE4F3E00C94B93049835A839E833091A3
:1006A000FD0189819A8131111AC03E81332399F06D
:1006B000222389F00E94D808182F682F89819A81F7
:1006C0000E94A50869817A81812F0E9426102696B2
:1006D000E3E00C94D5300E94BF08182FF3CF0E949E
:1006E000D80869817A81F1CFFC01262F40815181A0
:1006F00062817381848195810E9446030895CF931E
:10070000DF93EC0161E00E947403BE010E94370395
:10071000DF91CF910895CF93DF93EC0160E00E94C9
:100720007403BE010E944303DF91CF91089581E0DD
:1007300008950E9497030895CF93C82F0E94A107A0
:100740008C2F0E9499032FEF84E39CE0215080407E
:100750009040E1F700C00000CF91089581E00E9431
:100760009C030E94CB28089580E00E949C030E9475
:10077000EF2808950F931F93CF93DF938C0161E0CF
:100780000E947403EC01F801858181110E94261AF0
:10079000B801CE010E94AE24811106C080E0DF9135
:1007A000CF911F910F910895B801CE010E943F0390
:1007B0008823A1F3B801CE010E94B923882371F3E5
:1007C000B801CE010E94D41E882341F3B801CE01A6
:1007D0000E94AA1E882311F3B801CE010E94451A77
:1007E0008823E1F2B801CE010E94FD238823B1F2F3
:1007F000F8018581882361F0C330FCE7DF07E9F069
:1008000058F4C115ECE7DE07A9F0C130DC47B9F0B8
:10081000C8010E943A03C3CFCB358CE7D807A9F0B3
:10082000CC35ECE7DE0771F0CA35DC4789F70E946A
:10083000410DEECF0E94AE03B1CF0E94490D0E9440
:10084000B403ACCF0E94370DE3CF0E94450DE0CF3B
:100850000E94FD270E9453040E94841808950E945C
:1008600057040E947D190E9402280895089581E08E
:1008700008950895CF93DF93D82F0E943704C82F8F
:10088000882319F08D2F0E9439048C2FDF91CF918E
:1008900008950895CF93C82F0E9436048C2F0E948C
:1008A0003A04CF91089580E00E944A0408950E947E
:1008B0003D260E944A040895CF930E943D26C82FEA
:1008C0008091F8018C1779F0C093F8010E948C2870
:1008D0006093F9017093FA018093FB019093FC01FE
:1008E0008C2F0E944A04CF910895ADE0B0E0EBE771
:1008F000F4E00C94BA30488759876A877B878C87E5
:100900009D8791110E94470C1F8286E0FE01389658
:10091000DE01119601900D928A95E1F78D8181118A
:100920000DC029813A814B815C816D817E818F81EF
:100930000E94910B2D96E2E00C94D630CE010196E8
:100940000E947F038111EDCFF5CFFC01248121307E
:1009500021F4808191810E9405090895662329F080
:100960000E9435200E941A2108950E94A120FACFEA
:10097000CF93C82F882399F08CEF8C0F813A88F49D
:100980008C2F0E94DD26882329F08C2F0E947D2742
:100990000E94DB0C8C2F0E9466270E94DB0CCF91FB
:1009A000089580E28C0F883048F4C77081E001C060
:1009B000880FCA95EAF70E942A0CEFCFEBE5EC0FFF
:1009C000E33040F4F0E0E959FE4F808190E00E946E
:1009D0007126E5CFE8E5EC0FEB3150F4F0E0EE0FD7
:1009E000FF1FEF5CFE4F808191810E949626D7CF3A
:1009F00083E38C0F833198F661E08C2F0E94AE0464
:100A0000CECF882381F19CEF980F913A28F40E9471
:100A10007D270E94DB0C089590E2980F983050F4E7
:100A2000877091E001C0990F8A95EAF7892F0E949B
:100A3000300CEFCF9BE5980F933028F490E080E0E6
:100A40000E947126089598E5980F9B3128F490E054
:100A500080E00E949626089593E3980F933118F44E
:100A600060E00E94AE0408951F93CF93DF93182F88
:100A7000EB010E94B804209739F4812F0E940105F0
:100A8000DF91CF911F9108958FE99FE00197F1F7D2
:100A900000C000002197EFCF70E060E0893311F4CF
:100AA00060E570E00E9434050895882321F00E94DB
:100AB0002A0C0E94DB0C0895882321F00E94300C40
:100AC0000E94DB0C0895B0E0A0E0E9E6F5E00C94AC
:100AD000B3306C01D62FC72FFC011581068102951A
:100AE0000F700E94200CE82E8823F9F0E12E1123CC
:100AF000E1F08C2F807F803461F080E28D0F8830B0
:100B000008F18C2F807E803221F4D230D8F000237F
:100B1000C9F08091060382FF15C082E00E940B0D90
:100B20000E94200C91E0E82EE926BC2EB2949FE0B2
:100B3000B922FBE0FB15B8F1EB2DF0E0E15FFD4CD5
:100B40000C946C30E12CF1CF0C2F0F70C07F11F0A2
:100B50000295007F112399F0002359F080E28D0F58
:100B6000883010F0D11107C0802F0E942A0C0E94FB
:100B7000DB0C8D2F5AC0802F0E943A0CF8CF8D2F9E
:100B80000E940105002379F080E28D0F883010F07B
:100B9000D11104C0802F0E94300C03C0802F0E940E
:100BA000400C0E94DB0CEB2DE850FF0B349720F437
:100BB0000E943D260E944A04EE2089F00E941C0CEF
:100BC00080FD0DC0F60115820E94160C0E941908C6
:100BD000C6010E9468070E94160C0E942508CDB726
:100BE000DEB7E9E00C94CF302C2F2F70F22EC07FAF
:100BF000C03219F0F29480EFF822DD2341F0D130B9
:100C0000D1F1112309F444C00023F1F0B2CF809157
:100C1000060382FD15C0112359F0FF2029F08F2D06
:100C20000E942A0C0E94DB0C80E00E94B804BBCF1B
:100C300080E00E940105FF2009F4B5CF8F2DABCFD6
:100C4000112369F0011104C08F2D0E945505ABCF0F
:100C5000013009F0A8CF8F2D0E945E0CA4CF0111A6
:100C6000A2CF8F2D0E945C058F2D0E946A0C8F2DC4
:100C70000E944E0C98CF112321F0063008F093CF3C
:100C8000E3CF053008F08FCF8F2D0E945C058BCF0E
:100C90000023D1F3D93349F43FEF87EE93E031508D
:100CA00080409040E1F700C000008D2F0E940105B8
:100CB0007ACF8C2F86958695837069F0813009F004
:100CC00072CF8D2F9C2F9370111102C080E090E0A5
:100CD0000E94962668CF8D2F9C2F9370111102C011
:100CE00080E090E00E9471265ECF612F8D2F0E94E0
:100CF000AE0459CF8C2F837079F5111154CF4D2F3D
:100D0000429546954770440F440F8D2F8F70042EE7
:100D100001C0880F0A94EAF72D2F2071D4FF07C075
:100D20002FE030E001C0220F4A95EAF72095C695E2
:100D3000C695C370822BC23049F058F4C13019F007
:100D40000E94F50730CF0E94EF072DCF0E94FB07CE
:100D50002ACF0E94EC0727CF8695112311F08C2F04
:100D60008170882309F41FCF4D2F42954695477017
:100D7000440F440F8D2F8F70042E01C0880F0A94EA
:100D8000EAF72D2F2071D4FF07C02FE030E001C01B
:100D9000220F4A95EAF72095C695C695C370822B17
:100DA000C23049F058F4C13019F00E944408FBCE1B
:100DB0000E943E08F8CE0E944A08F5CE0E9407081D
:100DC000F2CECF70112329F08C2F0E9419088D2F9D
:100DD0003CCF8D2F0E945C058C2F0E942508E3CE0E
:100DE000D23F41F160F4D03FB9F0D13F81F01123FF
:100DF00009F446C00111BDCE8C2F8F711FC0D33FA7
:100E000001F1D43FA1F78091060382FD24C08C2F0D
:100E10008F71112311F312C0112341F0053008F036
:100E2000C2CE8C2F8F710E943208BDCE063008F0E2
:100E3000BACEF7CF8C2F8F711111CFCF0E94190826
:100E4000B2CE112329F08C2F8F710E941008ABCEE7
:100E50000E940C08A8CE112349F0CF718C2F0E945C
:100E6000190863E08C2F0E94ED0C9DCE81E00E945A
:100E70000B0D023008F497CE82E00E940B0D93CE4A
:100E8000002359F0D93309F010CFEFEFF7EE23E04C
:100E9000E150F0402040E1F706CF8C2F8F719DCFBD
:100EA0000F931F93CF93DF93EC01688179818D813C
:100EB0000E9410098C010E9450080E94EB07B801A3
:100EC000CE010E946305DF91CF911F910F9108958C
:100ED000CF93DF93EC018C81882399F0CE010E949F
:100EE000BA03811111C00E94200C882351F08D811A
:100EF000882339F08091060382FF03C082E00E94BC
:100F00000B0DDF91CF910895CE010E945007CE01C5
:100F10000E948B03F6CF90E080E00E94712690E063
:100F200080E00E9496260E94470C0E94DB0C0E94E3
:100F300036210E941A2108950E9494270E948B074F
:100F400008950E94370C0E949C07089592959F7007
:100F5000963091F058F4925F9F70923058F4803F31
:100F600019F030F4883E30F481E008959A5FF4CFB0
:100F7000843FD1F380E00895883EB0F3813FD1F7FC
:100F8000F3CFFC012481222339F0808191810E94DA
:100F900005090E94A607089580E00895A6E0B0E044
:100FA000E4EDF7E00C94BA302696E2E00C94D630EB
:100FB000A7E0B0E0EEEDF7E00C94BA302796E2E05F
:100FC0000C94D63008950E94E20708950E94E3072A
:100FD00080930802089508950E94E607089590916D
:100FE0000802892B0E94E607089590910802892340
:100FF0000E94E60708959091080289270E94E6075B
:1010000008950E94E20708950E94010808950E9431
:10101000040880930702089580E00E94070808955D
:1010200091E001C0990F8A95EAF7892F0E9407087D
:10103000089521E030E001C0220F8A95EAF78091FF
:101040000702822B0E940708089521E030E001C0CA
:10105000220F8A95EAF720958091070282230E9449
:101060000708089521E030E001C0220F8A95EAF7D1
:101070008091070282270E94070808959091070235
:10108000892B0E94070808959091070289230E94E6
:10109000070808959091070289270E94070808957C
:1010A0000895262F277091E001C0990F2A95EAF73D
:1010B00023E0769567952A95E1F7FB01EE0FFF1F78
:1010C000E60FF71FE40FF51F50E040E0682F70E0D7
:1010D0008191DF0111979B01042E02C0369527955F
:1010E0000A94E2F7217021952827292328272C9399
:1010F0004F5F5F4F4330510559F70895A82FA770F0
:1011000023E0969587952A95E1F7FC01EE0FFF1FE6
:10111000E80FF91FE60FF71F50E040E080E0219153
:1011200030E00A2E02C0369527950A94E2F7217026
:101130003327042E01C0220F0A94EAF7822B4F5F57
:101140005F4F4330510559F70895282F862F93306C
:1011500070F4233058F4622F70E023E0929F600D0A
:10116000711D112441E052E00E94510808959C5FD6
:101170009230E0F7622F70E04EEF51E0F5CF292F6B
:10118000933068F4833090F490E061E072E033E0F3
:10119000239F800D911D11240E947E0808952C5FCD
:1011A000223020F46EEF71E090E0F6CF80E00895F9
:1011B000CF92DF92FF920F931F93CF93DF936C0137
:1011C0000091070280910802082BC3E0D0E010E0F4
:1011D000FC2EC8010C2E02C0959587950A94E2F763
:1011E00080FD0CC02197A0F7F12C8F2DDF91CF91BE
:1011F0001F910F91FF90DF90CF900895B6018C2F33
:101200000E943F10019771F3F0CFCF93DF93EC0171
:101210000E94D808BE010E943F10DF91CF9108952F
:101220001F93CF93DF93EB019091FD01992339F048
:10123000CB010E940509DF91CF911F91089588236A
:1012400069F0CB010E94D808182F682FCE010E94A8
:10125000A508BE01812F0E943F10EDCFCB010E9457
:10126000BF08182FF6CFE1E0F0E0DF0102C0AA0FBF
:10127000BB1F6A95E2F7BD01DF0102C0AA0FBB1FC9
:101280004A95E2F76A2B01C0EE0F2A95EAF7962FEE
:101290009823961302C08E2B0895E0958E2308950F
:1012A000242F462F682F809107020E9433090E9445
:1012B000070808951F93CF93DF93C091090217E0A9
:1012C00080910A028C1304C0DF91CF911F91089581
:1012D000D0E01C9FF0011D9FF00D1124E55FFD4F34
:1012E00020813181428153816481758186810E9490
:1012F000D8072196C770E4CF209143023091440271
:101300004091450250914602609147027091480217
:10131000809149020E94D8070895CF93DF9380916E
:101320004902807F09F04DC080914802882309F46A
:1013300048C0E091090250910A02C0914402D09144
:101340004302609145027091460247E05E17C9F181
:101350008E2F90E0E49FF0011124E55FFD4F248182
:10136000222391F1489FF001499FF00D1124DF01E4
:10137000A55FBD4F11962C9111972C1325C02C9170
:101380002D1322C015962C91159721111DC0129670
:101390002D913C91261B370B283C3105A8F48091F8
:1013A00049028F70806180934902EF5EFD4F80811A
:1013B0008F708061808383E492E00E9468070E94BE
:1013C0005A09DF91CF910895FC013196E770BECFA5
:1013D000482F2091090290910A0257E0291302C078
:1013E00080E0089530E0529FF001539FF00D1124EA
:1013F000E55FFD4F8181681306C08081481303C0FB
:1014000085818111EECF2F5F3F4F2770E7CFA4E199
:10141000B0E0EDE0FAE00C94B0308C0186E0F80129
:10142000DE011F9601900D928A95E1F7F801848103
:10143000E58093E4A92E92E0B92E90914702911194
:101440001FC08823D1F0EE20A9F0C8010E94C10777
:10145000F82E882379F087E0F801D50101900D92EC
:101460008A95E1F7C5010E94A5040E948D090E949A
:101470007C095FC0C8010E946807FF24F39459C02B
:10148000C080D18082809380F090480220914502F4
:1014900030914602A401421B530BFF2009F4F9C00E
:1014A000483C510508F0A7C0882309F442C0909138
:1014B000440280914902282F207F09F05CC09D11D1
:1014C00016C090914302C91212C0E1104EC08F7035
:1014D0008061809349020E947C0983E492E00E942B
:1014E000680780914902F8018683F12C22C0E1103F
:1014F0003CC06D2D8C2D0E94E8096D2D8C2D0E9415
:10150000E809E82E8111F1CFCF86D88A8F85988996
:101510000E940509292F22952F70243078F49F709E
:101520002230A8F09923B9F0F8019681907F99F4C0
:10153000FE2C8F2D6496ECE00C94CC302A5F2F703B
:10154000223068F0C8010E946807EF2CF1CF992380
:1015500011F0882369F3805E883050F3F3CF803F29
:1015600038F3815F833070F7E3CF80914902816067
:1015700080934902BACF9D1113C090914302C912C2
:101580000FC0E1100DC08683C8010E94680787E084
:10159000F801A3E4B2E001900D928A95E1F767CFDC
:1015A000C8010E94C107882309F464CFEE2009F422
:1015B00061CF80914902803288F0209143023091BE
:1015C0004402398728879B868A86909147029C87A8
:1015D0001D868E87CE0108960E94680787E0F80175
:1015E000A3E4B2E001900D928A95E1F70E948D0983
:1015F0000E947C0942CF90914902292F207FA1F4BB
:10160000682D9A8A898AA6017A899E2D0E94CE0722
:1016100083E492E00E94680787E0F50111928A95C1
:10162000E9F70E947C0961CF882309F482CF809179
:1016300044028D1110C080914302C8120CC0E11009
:101640000AC09683C8010E94680787E0F5011192DD
:101650008A95E9F76ECFC8010E94C107882309F473
:1016600009CFEE2009F406CF80914902803208F4B8
:10167000B5CF20914302309144023A8329839C8262
:101680008B82909147029D831E828F83CE010196AB
:10169000A3CF483C5105B8F5882309F4EECEFE2CC3
:1016A000EE2009F4E7CE809144028D111EC0809196
:1016B0004302C8121AC08091490280FD0DC0982FC4
:1016C000907F51F08683903F09F45ECF982F907FF2
:1016D000905F8F70892B57CF87E0F801A3E4B2E0C9
:1016E00001900D928A95E1F724CFC8010E94C107AD
:1016F000811174CF80914902816080934902C801B1
:101700000E94680716CF682D9A8A898AA6017A896D
:101710009E2D0E94CE0787E0F50111928A95E9F788
:10172000A6CEAEE0B0E0E7E9FBE00C94B930288744
:1017300039874A875B876C877D878E87CE010896BD
:101740000E94070A8823B1F06C85662341F0288542
:1017500039854A855B857D858E850E94D80717E08F
:101760008091090290910A0289133DC02E96E3E010
:101770000C94D53087E0FE013896DE011196019079
:101780000D928A95E1F78C85882349F320910A020E
:1017900030E0C901019687709927409109024817E6
:1017A000190699F097E0929FD001939FB00D1124F4
:1017B000A55FBD4FFE01319601900D929A95E1F71C
:1017C00080930A020E945A09CACF0E94A107109270
:1017D0000A021092090287E0E3E4F2E0DF011D92C1
:1017E0008A95E9F7BCCF819FC0011124855F9D4F89
:1017F0000E94070A882309F4B9CFE09109021E9FCD
:10180000F0011124E55FFD4F208131814281538138
:101810006481758186810E94D8078091090290E0D9
:10182000019687709927809309029ACF809172025E
:1018300086958695869508958091720287700895A1
:1018400090917202977081E009F480E00895809190
:101850009E02089590919E02892B80939E02089586
:10186000809590919E02982390939E0208951092E5
:101870009E02089590919D02892B80939D02089568
:10188000809590919D02982390939D0208951092C7
:101890009D02089508950E944A0C08959091730244
:1018A000292F282331F080958923809373020E9489
:1018B0004B0C089508950E945A0C0895909174025B
:1018C000292F2823281729F0982B909374020E941F
:1018D0005B0C089590917402292F282331F0809594
:1018E0008923809374020E945B0C08958091740296
:1018F000882329F01092740280E00E945B0C089506
:10190000CF93C0919E0280919D02C82B809174025A
:10191000882331F0C82B0E94BB2681110E94760CCF
:101920008C2FCF910895CF93DF93C0910601D09172
:1019300007010E94800C8883C0910601D0910701A5
:1019400048E050E06AE672E0CE010E948031892BC7
:1019500059F088E0FE01AAE6B2E001900D928A9566
:10196000E1F7CE010E944A26DF91CF910895CF93EF
:10197000DF93C0910401D09105010E94800C8983FE
:10198000C0910401D091050140E250E06AE472E0A8
:10199000CE010E948031892B59F080E2FE01AAE439
:1019A000B2E001900D928A95E1F7CE010E94552692
:1019B000DF91CF91089580913001882339F0809193
:1019C000050387FF03C00E94B70C08950E94930C83
:1019D000089508950E94E90C08959091060392FFDE
:1019E00011C098E0899F90011124622B60937202CC
:1019F0000E941908809172028695869586950E94AC
:101A0000EA0C08950E94190808951092720280E06D
:101A10000E94EA0C08959091720280958923809328
:101A20007202282F277069F4891759F090910603E4
:101A300092FF07C08695869586950E9425080E948C
:101A4000050D08959091060392FB222720F928178F
:101A500069F080FB92F990930603809105039091C1
:101A600006030E946B0D82E00E940B0D0895809189
:101A7000060382FB882780F991E089270E94220DC6
:101A8000089581E00E94220D089580E00E94220DB9
:101A900008956FEF7FEF90E080E00E94D8310895C5
:101AA00090E080E00E94A431863E9E4F19F40E948F
:101AB0004624089580E0089582E090E00E949631E7
:101AC000089583E090E00E949631089584E090E0CC
:101AD0000E94A4310895BC0184E090E00E94D831B6
:101AE0000895AB01BC018FE090E00E94CC310895D5
:101AF000AB01BC0183E190E00E94CC31089560E02D
:101B000070E0CB010E94780D089560E070E0CB0199
:101B10000E94710D0E947F0D0895A8E0B0E0E3E9F6
:101B2000FDE00C94BA3066EE7EEF90E080E00E941B
:101B3000D83160E082E090E00E94BA3181E0809389
:101B4000080261E083E090E00E94BA3160E074E155
:101B500084E090E00E94D83160E086E090E00E944E
:101B6000BA3160E087E090E00E94BA3140E050E096
:101B7000BA0188E090E00E94CC3160E084E290E01D
:101B80000E94BA3160E087E190E00E94BA3160E0E3
:101B90008CE090E00E94BA3160E08DE090E00E941D
:101BA000BA3119821A821B821C821D821E821F82F8
:101BB000188648E050E068E170E0CE0101960E948E
:101BC000AA3140E050E0BA0180E290E00E94CC31BE
:101BD00080E00E945F240E948E240E94850D28963A
:101BE000E2E00C94D6300E948D0D0895682F8EE0AF
:101BF00090E00E94BA310895A6E0B0E0E2E0FEE095
:101C00000C94B8300E9480288C0180919F029091A2
:101C1000A0028017910781F019821A820E94802801
:101C2000682F49815A81792F80E090E00E947504E5
:101C30001093A00200939F022696E4E00C94D43007
:101C40000E948C286093AC027093AD028093AE0228
:101C50009093AF026093A8027093A9028093AA02A6
:101C60009093AB0208950E948C286093AC0270930D
:101C7000AD028093AE029093AF026093A402709382
:101C8000A5028093A6029093A7020895089508954F
:101C90000E94460E089508950E944B0E089585E314
:101CA00091E10E9480120E94470E0E94480E089502
:101CB00081E008950E94580E08950E94580E0895DC
:101CC000089508950E94600E0E94610E08950E947A
:101CD000500D811102C00E94F30D0E945C0D809393
:101CE000B0020E94660D90930603809305030E9444
:101CF0008B1C0E94610D0E94EC07809107020E94DC
:101D0000040808950E9477280E949E240E94BA1A0F
:101D10000E94D9110E94670E0E9449040E942D1949
:101D20000E944C0E0895A6E0B0E0E9E9FEE00C94B4
:101D3000B1300E945A0E811111C00E94FC0D0E9408
:101D4000271A0E94211B81110E94330E0E945821E4
:101D50000E945C042696EBE00C94CD300E94EF11BB
:101D60001091A10280E00E943F1118130EC0109143
:101D7000A20281E00E943F11811307C01091A302CB
:101D800082E00E943F111817C1F28091B00281FDDC
:101D90000E9445110E945D0EC82E81EAA82E82E0A5
:101DA000B82E10E099249394812F0E943F11082FA0
:101DB000F50181915F01081729F1D02ED826F12C69
:101DC000EE24E3948D2D8E21A9F0CC2099F0F98298
:101DD0001A830E9480289C838B839D8291E0802FB0
:101DE0008E2109F490E049815A816B817C818D813B
:101DF0000E947504F394EE0CF3E0FF12E3CFF501BB
:101E0000319700831F5F133079F60E94200E97CF21
:101E10001F93CF93DF930E944410EC01C11580E51E
:101E2000D807F0F5C11580E4D80708F09CC0C03E83
:101E3000D10520F5CD3CD10508F082C0C83AD105C6
:101E400078F4C53AD10508F073C0C130D10519F155
:101E5000209709F1C430D105F0F4D0E0C0E01BC0F8
:101E6000C33CD105D0F7C85AD0E0CC0FDD1FC6590E
:101E7000DE4F0990D881C02DD4640DC0C11580E219
:101E8000D80708F0D1C0C11581E0D80708F05AC0C2
:101E9000C83ED10510F7CE01DF91CF911F91089573
:101EA000C03682E5D80718F5C03482E5D80708F0B7
:101EB0006BC0C03282E5D80708F05FC0C11582E56B
:101EC000D80708F497C02C2F2695269580E2289FE6
:101ED000900111248C2F8370C1E0D0E002C0CC0FA0
:101EE000DD1F8A95E2F7C22BD32BDD68D4CFC03A31
:101EF00082E5D80760F4C03882E5D80708F459C0F5
:101F0000CF71D0E0DC2FCC27C46FD06AC4CFC03CE7
:101F100082E5D80708F462C0C03E82E5D80708F021
:101F20009CCFDC2FCC27CC27DF71C06FD06AB3CF1A
:101F3000C55AD0E0C056DE4FC881D0E0D064ABCFE8
:101F4000D065A9CF8D2F0E94E610182FCE019927BA
:101F50000E944410C12FD0E0DC2FCC27CC27DF71AA
:101F6000C82BD92B98CFCE0199270E944410CC279B
:101F7000DF70C82BD92BD06A8ECFCF71D0E0DC2F89
:101F8000CC27C16FD06A87CF2C2F26952695277036
:101F900080E2289F900111248C2F8370C1E0D0E053
:101FA00002C0CC0FDD1F8A95E2F7C22BD32BDC6871
:101FB00072CF2C2F26952695277080E2289F9001BE
:101FC00011248C2F8370C1E0D0E002C0CC0FDD1F44
:101FD0008A95E2F7C22BD32BDA685DCF8C2F8F71F5
:101FE0000E94E610C82FD0E0DC2FCC27CC27DF7171
:101FF000D06251CF8C2F8F710E94E61055E0D6959C
:10200000C7955A95E1F7CF70D0E0DC2FCC27282F69
:1020100030E084FF05C044E0220F331F4A95E1F70A
:10202000C22BD32BD06937CF8D2F8F710E94E61032
:10203000182FCE0199270E944410C12FD0E0DC2F29
:10204000CC27CC27DF71C82BD92BD2CF462F672FB7
:10205000733028F4433080F40E94B81D08957D3F0A
:1020600039F4411109C041E060E00E94C41D0895A7
:102070007C3F11F44423C1F390E080E008950E9476
:1020800026100E94080F089582389105B9F1B0F426
:102090008133910509F47DC048F48932910509F432
:1020A0006DC08A32910509F47BC00895853391058E
:1020B00009F45FC08933910509F10895833E9105C4
:1020C000D9F138F4803E910529F1823E910579F1EC
:1020D0000895863E9105D9F1873E910509F43EC0E9
:1020E000843E910541F52091060321FF24C0809193
:1020F000050384FD19C087EE90E008952091050343
:10210000237009F05AC02091060323FF14C089E20E
:1021100090E008952091050320FD38C0309106031A
:1021200030FF09C024FF43C090E080E00895209173
:10213000050322FDF7CF08952091050322FD3AC043
:102140003091060330FD39C024FFF5CFEDCF20914B
:10215000050323FFF0CF24FDE7CFCDCF209105036A
:1021600023FD2EC03091060331FFEECF84EE90E0C8
:1021700008952091050325FFDECFC9CF20910503E7
:1021800025FD21C02091060323FFD5CF89E390E0F0
:10219000D2CF2091050326FFCECF8AE290E00895AA
:1021A0002091050326FFC7CF81E390E0089583EED9
:1021B00090E0089582EE90E0089580EE90E008951A
:1021C00086EE90E0089585E390E0089590910503F0
:1021D00092FF10C041E0282F2471243009F040E024
:1021E00031E0282F2871283009F030E0431711F032
:1021F0002CE0822793FF10C041E0282F2471243166
:1022000009F040E031E0282F2871283109F030E052
:10221000431711F02CE082273091060330FF10C0E5
:1022200051E0282F2171213009F050E041E0282FA2
:102230002871283009F040E0541711F029E0822776
:1022400031FF10C041E0282F2171213109F040E019
:1022500031E0282F2871283109F030E0431711F0C0
:1022600029E0822794FD877E089580E008950895EF
:102270000E943711089508950E943B110895E82F98
:10228000F0E0E65FFC4F80810895089580EA8A952A
:10229000F1F7089500C008950E9446110895F8943A
:1022A000E82FE295EF70F0E031A1282F2F7081E048
:1022B00090E001C0880F2A95EAF7982F9095932314
:1022C00091A392A1892B82A37894089580EF0E9414
:1022D0004F1185E30E944F1186E30E944F1181EF59
:1022E0000E944F1186E90E944F1187E90E944F1109
:1022F0000895B0E0A0E0EFE7F1E10C94B4307C0188
:10230000162F042FC62FD0E0CE018D559E4F6C01A5
:10231000EC0128812F3F09F444C0F894E22FE295A4
:10232000EF70F0E031A12F7081E090E001C0880FE4
:102330002A95EAF7932F982B91A392A18095892350
:1023400082A378940E944A11A6EAB1E0F70149EA13
:1023500051E0F12C602F60959D9180819F3F31F17C
:10236000292F22952F7030E0E90128A130E09F70DD
:1023700002C0359527959A95E2F720FD17C0802B6E
:102380008083FF24F39431964A175B0729F7F601FF
:1023900080818F3F11F00E944F116F2D812F0E947D
:1023A0004C11CDB7DEB7E8E00C94D03086238083A3
:1023B000EACF0E94661183E0EAE0F3E0DF01982FA4
:1023C0001D929A95E9F7E7E0F3E0DF011D928A9507
:1023D000E9F783E00E942B120E9438110895A3E0D0
:1023E000B0E0E5EFF1E10C94B83019821A821B825B
:1023F00010E001E0402F612FCE0101960E9479117B
:102400001F5F000F1330B1F743E050E0BE016F5F74
:102410007F4F87E093E00E94803121E0009709F42C
:1024200020E0892B49F089819A81AB818093070351
:1024300090930803A093090343E06AE073E087E008
:1024400093E00E942C12182F0E943C11812F23969A
:10245000E4E00C94D4300895B0E0A0E0E2E3F2E1CF
:102460000C94B4306C017B01042FC22F222379F02D
:1024700081E08093B3020E9480289093B2028093FF
:10248000B10280E0CDB7DEB7E8E00C94D030D09157
:10249000B302DD23B1F38091B1029091B2020E94A8
:1024A0009828059770F310E0A801B601C7010E94B3
:1024B0008031892B31F0A801B601C7010E948D310E
:1024C000CD2F1092B3028C2FDDCF0E94702A0E9474
:1024D000820E0E947D2A08950E94822A0E94930EF5
:1024E0000E949C2A08950E9419280E94562A0E9440
:1024F0004F0E0E9465120E946C120E94620EFBCF6A
:102500009093F7018093F6010895EF92FF920F9355
:102510001F93CF93DF93EB01E82FD1110EC044231B
:1025200021F0F0E0E25EFD4FE4916E2F7E2F8E2FC2
:10253000CDB7DEB7E6E00C94D2300D2F10E0282F97
:1025400030E0442329F0225E3D4FF901249130E030
:10255000F6E0CF9FC0011124EFEFF0E0BF010E9431
:102560002230AB018C2F90E0880F991FA5E5A49F26
:10257000B001A59F700D1124861B970B982F990F02
:10258000980FBF01601B710B629FD001639FB00D5C
:10259000729FB00D11248B2F9D9FB0011124672FC6
:1025A0007727EF01C61BD70BBE01629FE001639F37
:1025B000D00D729FD00D11247F01E91AF108E09E21
:1025C000B001E19E700DF09E700D1124672F7727EA
:1025D000E61BF70BE29F8001E39F100DF29F100DA9
:1025E0001124E12F722F4230510599F048F4411522
:1025F000510569F04130510581F0EB2F8D2F07C057
:102600004430510569F080F046305105B1F76E2F26
:102610008FCFE22F7B2F812FFACFE22F7D2FF7CFA5
:10262000EB2F822F712FF3CF7B2F822FED2FEFCF48
:1026300041E00E948512089508950E94181308959C
:10264000CF93DF93762FE901682F842F0E941D130B
:10265000798368838A83DF91CF91089580910D03F8
:10266000982F9C7F29F48370846080930D030895D4
:102670008C3AE8F38370886AF8CFB0E0A0E0E3E436
:10268000F3E10C94B43088E090E00E949E316B013D
:102690007C0184E290E00E949631282F30E040E0F7
:1026A00050E060E070E080E090E000E20E94E13005
:1026B000B22FA32FF42FE52FD62FC72F9701860116
:1026C000BC29A12BFE295E2F532B2B2F3A2F4F2FE6
:1026D0006D2F7C2FCDB7DEB7E8E00C94D030B0E0A2
:1026E000A0E0E5E7F3E10C94B03049015A016B0139
:1026F0007C010E942E138401A4016A2D7B2D88E0A9
:1027000090E00E94CC3194014A2D5B2DB601C701A7
:1027100000E20E94FC30622F84E290E00E94BA3115
:10272000CDB7DEB7ECE00C94CC30EDE0F3E02081E7
:1027300031814281538164817581868197810E94B4
:102740006F130895EDE0F3E089E3808311828FEF4A
:10275000828383831482758129E330E04FEF5FEF3A
:1027600060E0868197810E946F13089580910D0328
:1027700080FF03C086958695089580E00895809136
:102780000D038170089590911103933018F49F5FA9
:1027900090931103882391F020910D0330910E0343
:1027A00040910F0350911003609111037091120337
:1027B00080911303909114030E946F13089581E098
:1027C0000E94C313089590911103992319F0915019
:1027D00090931103882391F020910D0330910E0303
:1027E00040910F03509110036091110370911203F7
:1027F00080911303909114030E946F13089581E058
:102800000E94E313089580911103089580931103AA
:10281000662389F020910D0330910E0340910F0340
:102820005091100370911203682F809113039091BF
:1028300014030E946F13089560E00E940614089527
:1028400080910E03089580910F03089580911003E5
:10285000089560910C0180910D0380FF0FC070E01E
:1028600080910B0123E0829FC0011124E091D401EB
:10287000F091D5018B5E9C4F0995089580910D01D3
:1028800090910E0123E0829FF0011124EB5EFC4F3A
:10289000891728F71182108212828F5F3396F8CF42
:1028A00090910D0390FF0EC090910D0120910E01AB
:1028B00033E0939FF0011124EB5EFC4F921718F068
:1028C0000E94291408958183608342839F5F339619
:1028D000F5CFA3E0B0E0EFE6F4E10C94BA309091CC
:1028E0000D0390FF0AC09E012F5F3F4F0E942013EF
:1028F0004B8169818A810E9450142396E2E00C94F6
:10290000D630CF93DF93EC01EC81F0E0E75EFE4F31
:102910004491EDE0F3E0628181810E9469148C8131
:102920008F5F8C83DF91CF910895CF93DF93EC017C
:10293000EDE0F3E0438162818C810E9469148C8117
:102940008F5F8C83DF91CF910895A3E0B0E0EBEA35
:10295000F4E10C94B8308C018091B40281110AC06A
:102960009E012F5F3F4F4FEF6FEF0E9420138A8130
:102970008093B402F8016481613069F08091B402FF
:1029800040E0662361F040E0623011F44091B4020F
:1029900080E060E004C06091B40240E080E00E940A
:1029A0005014F801848190E0019663E070E00E9489
:1029B000363084832396E4E00C94D430A3E0B0E076
:1029C000E4EEF4E10C94B330082FD62EF42EC22E90
:1029D00090910D0390FF2FC0E92FE695E695AE2F5D
:1029E000B0E0A755BE4F8C918093D4029C7F943069
:1029F00031F59E012F5F3F4F802F0E9420134B81A6
:102A000069818A810E94501400930E03D0920F03B3
:102A1000F0921003CC2079F020910D036091110306
:102A200070911203302F4D2D5F2D809113039091E3
:102A300014030E946F132396E9E00C94CF30823088
:102A400019F4F0901003E0CF863019F400910E03D2
:102A5000DBCF8930D9F38931B9F6E9516E2F617036
:102A6000B62EE695F0E0E75EFD4F1491E12C609103
:102A70000F01E61618F00E942914C6CFE19EC0018E
:102A8000112470E00E942230802FB11014C0860FF4
:102A900020910D01622F6E0D7727771F9B01220F6A
:102AA000331F260F371F2B5E3C4F4F2D6D2D0E947D
:102AB0002013E394DCCF861BEBCFEDE0F3E09181B4
:102AC000282F438162818AE0890F0E94DE140895D5
:102AD00081E00E945D150895EDE0F3E09181282FDB
:102AE0004381628186EF890F0E94DE14089581E0A0
:102AF0000E946C150895EDE0F3E0628121E1620F20
:102B000008F46FEF282F438181810E94DE1408951D
:102B100081E00E947B150895EDE0F3E0628121E100
:102B2000621B08F460E0282F438181810E94DE143B
:102B3000089581E00E948C150895EDE0F3E0438153
:102B400021E1420F08F44FEF282F628181810E941A
:102B5000DE14089581E00E949D150895EDE0F3E0F4
:102B6000438121E1421B08F440E0282F62818181EA
:102B70000E94DE14089581E00E94AE15089520E0C1
:102B80000E94DE140895EF92FF921F93CF93DF937C
:102B9000EC0110E0EE24EA94F12C60910F0116177D
:102BA00070F00E9429149A818C8190FF27C08F5F5A
:102BB0008C83DF91CF911F91FF90EF90089520912A
:102BC0000D01422F410F5527551FCA019A01220FAF
:102BD000331F280F391F2B5E3C4F70E0C7010E9446
:102BE0003630962F8C814091100360910F03199F0E
:102BF000800D11240E9420131F5FCFCF8150D8CFAA
:102C0000B0E0A0E0E6E0F6E10C94B330FC01828194
:102C10000FEF80FF01E010E080910F01181798F08E
:102C20000E9429148091B602013009F04CC0811134
:102C300002C080910F0181508093B602CDB7DEB7FC
:102C4000E9E00C94CF30C0910D01C12ED12CCC0DF8
:102C5000DD2DD11DCE01880F991FC80FD91FCB5E66
:102C6000DC4F198218821A8234E0E32EF12CB12C49
:102C70008091B6028B0D853004F18370082E000C14
:102C8000990BC816D90691F4809110038E9DA0016E
:102C90008F9D500D112455954795559547959E014B
:102CA00060910F0380910E030E942013B00EF1E09B
:102CB000EF1AF108E9F61F5FAFCF87FFDFCF9091E2
:102CC0000F01890FDBCF90E0019660910F0170E05A
:102CD0000E943630B1CF0F931F93CF93DF93809133
:102CE0000D0190910E0123E0829FF0011124EB5E13
:102CF000FC4F891740F1C0E0D3E060910F01C61787
:102D000040F10E942914209109018091B502820F9F
:102D10008093B50290910A01920F90930A011916BF
:102D200054F4082E000C990B40910F014150550BA3
:102D3000841795071CF0219520930901DF91CF910D
:102D40001F910F9108951182108212828F5F339626
:102D5000D0CF0C2F10E070E0C8010E9436302091D7
:102D60000D01820F482F50E02091B502022E000C79
:102D7000330B02171307BCF020910A01022E000C3E
:102D8000330B201731077CF08D9F900111242B5EAF
:102D90003C4F4091100360910F0380910E030E94FD
:102DA0002013CF5FAACFFA01EE0FFF1FE40FF51F2C
:102DB000EB5EFC4F118210821282F3CFB0E0A0E0F4
:102DC000E4EEF6E10C94B030EC014C81042F10E0FD
:102DD0009801D8010E9481309B01AC010E9497307C
:102DE0004B015C01E0E2F0E0E01BF10BA5E5B0E097
:102DF000AC019B010E9497306B017C019F01DF01B8
:102E00000E9479309B01AC010E94A2309B01AC0171
:102E1000280D391D4A1D5B1DC701B6010E944A30AD
:102E2000F22E822F90E039E23F1520F143E0249FFB
:102E30009001112435952795122F109500E085E516
:102E4000E82EEF1880910F01081718F10E9429143D
:102E50009C8181E0992319F0903219F48FEF8093CF
:102E6000080180910801890F8C83CDB7DEB7ECE0B3
:102E70000C94CC3025E530E0B901681B790B9B013F
:102E8000220F331F260F371F37FFD4CF2F5F3F4F3F
:102E9000D1CF8E2D01FD8F2D20910D01622F600F5E
:102EA0007727771F9B01220F331F260F371F2B5EBB
:102EB0003C4F412F60910F030E9420130F5FC2CF40
:102EC0000F931F93CF93DF93EC0110E000E09091FC
:102ED0000F019017110609F06CF40E9429148C81DF
:102EE00090E00196817099278C83DF91CF911F919B
:102EF0000F91089520910D01A801420F511D9A01D3
:102F0000220F331F240F351F2B5E3C4F4C816091E5
:102F10000F0380910E0396959017110651F04CF017
:102F2000442349F0409110030E9420130F5F1F4F6C
:102F3000CECF4423B9F340E0F7CFB0E0A0E0E3EA1E
:102F4000F7E10C94AC30FC016280448081E0848322
:102F5000E9E1F1E07490E8E9F1E0E491C091100357
:102F6000C695C158D0E0CC0FDD1FCD2FDD27812CB9
:102F700075E0972EAA24AA94B12C55245A94E719E7
:102F8000EE2EF12C80910F01881638F00E94291442
:102F9000CDB7DEB7E0E10C94C830C82CD12C82E06C
:102FA000861568F09C9CF0019D9CF00D1124E9545D
:102FB000FD4F80910E03808380910F038183411028
:102FC00023C09C9CF0019D9CF00D1124E954FD4F01
:102FD0001382128220910D01C601820F911D9C0166
:102FE000220F331F280F391F2B5E3C4F9C9CF00192
:102FF0009D9CF00D1124E954FD4F42816181808137
:103000000E9420138394BECF9C9C80019D9C100D38
:10301000112409541D4FF80183818823F1F0815058
:103020008383859DC0011124648170E00E94223059
:10303000FB01FF27E75EFE4F8491E82FE719E59D2E
:10304000C0011124B7010E94223080911003689FB3
:10305000B0011124F8017283BDCF0E946331B50124
:103060000E9436308C179D070CF0B4CFF2E0F615B5
:1030700098F40E946331B5010E943630F8018083D4
:103080000E94633120910F032695622F70E00E9409
:103090003630280FF80121839C9CF0019D9CF00D97
:1030A0001124E954FD4F128280911003893C58F09D
:1030B00088EC9C9CF0019D9CF00D1124E954FD4F7F
:1030C0008483838387CF8431A0F784E1F2CFEDE05E
:1030D000F3E020812E7F20833181428153816481FE
:1030E0007581868197810E946F131092D5020E948C
:1030F00029140895EDE0F3E080818E7F80831092A3
:10310000D5020E94291408951092D5028091D2020E
:1031100081110AC081E08093D20280910D038170F9
:103120008093D1020E947A18089560910D036695EC
:10313000669570E04BE050E080E191E00E947331D1
:10314000892B19F481E08093D5020E948028909306
:10315000CC028093CB02089590910D0390FF34C070
:103160009370811132C0946090930D03662391F0A7
:1031700020910D0330910E0340910F0350911003E5
:1031800060911103709112038091130390911403C5
:103190000E946F1360910D036695669570E04BE099
:1031A00050E080E191E00E947331892BB1F01092E0
:1031B000D50281E08093CE024091100360910F030D
:1031C00080910E030E94BF1508958B3210F0986A0B
:1031D000CBCF880F880F982BC7CF0E949518E9CFC7
:1031E000682F90910D039695969581E0890F8B320B
:1031F00008F081E00E94AC18089581E00E94F01868
:103200000895682F90910D03969596958FEF890FED
:1032100009F48AE20E94AC18089581E00E94011925
:10322000089561E00E94AC180895EDE0F3E080811C
:1032300081608083869586950E94111908958091FA
:103240000D0380FF03C00E94671808950E9415199E
:10325000089560E00E94AC1808958091D302811116
:1032600037C00E943D1320930D0330930E0340930B
:103270000F03509310036093110370931203809314
:103280001303909314032C7FA1F40E94A2130E94B5
:103290003D1320930D0330930E0340930F0350937F
:1032A00010036093110370931203809313039093A0
:1032B00014030E942E131092D50280910D0380FFFB
:1032C00004C0869586950E94291981E08093D302D7
:1032D0000895EDE0F3E08081816080838695869596
:1032E0000E942919089580910D0380FF03C00E9458
:1032F0007A1808950E94691908951092D202809157
:10330000D10281110E9469190E94951808950F93A6
:103310001F93CF93DF938091D5028823C1F18091D1
:10332000D402E0910D03E695E695E81BE093CD020B
:10333000823091F5F0E0EB5EFE4FE491CE2FD0E0CD
:1033400001E814E18091CE02882361F01092CE0250
:103350000E9480289093CC028093CB021092D002DE
:103360001092CF020E948028E091CB02F091CC0213
:103370008E1B9F0B8F3F9F4750F4EC0FFD1FF09368
:10338000CC02E093CB028BEC92E0F8010995DF913F
:10339000CF911F910F910895863049F4F0E0EE5ED1
:1033A000FE4FE491CE2FD0E005E914E1CBCF893078
:1033B00051F4E695F0E0E15FFE4FE491CE2FD0E0CE
:1033C00003EC15E1BFCF8F3051F4E695F0E0E45FF8
:1033D000FE4FE491CE2FD0E000E016E1B3CF85316F
:1033E00049F4F0E0E75FFE4FE491CE2FD0E00BE62A
:1033F00016E1A8CFC8E2D0E00EED16E1883109F45D
:10340000A1CF833239F4E7E0F1E0C591D49105EA28
:1034100014E198CFC4EFD1E000E617E1843209F45B
:1034200091CFC0EDD7E00CE113E1853209F08ACFEE
:103430008E2F63E00E941630E92FF0E0EC5FFE4F24
:10344000E491CE2FD0E00DE917E17CCF08950E94E2
:1034500087190895FA01811101C0FB0109950895AA
:10346000CF93DF93C82FD62F0E94B6138C1748F046
:103470000E94B6138D1728F40E94FD18DF91CF919A
:1034800008958C2F0E941119F9CF1F93CF93DF93CA
:10349000EC01FB011581111110C00E94270C8272F2
:1034A000FE01E052F847E531F10508F05EC0E55E47
:1034B000FD4C0C946C300E941F19812FDF91CF912D
:1034C0001F9108954DE059E16DEF78E10E942A1AAD
:1034D000F4CF4DEF58E16DE079E1F8CF47E755E1E2
:1034E00068E675E1F3CF48E655E167E775E1EECFB1
:1034F00049E955E168E875E1E9CF48E855E169E94E
:1035000075E1E4CF4BEB55E16AEA75E1DFCF4AEABA
:1035100055E16BEB75E1DACF4FEF53E16FED73E1FE
:10352000D5CF4FED53E16FEF73E1D0CF81E00E9433
:103530001119C3CF65E082E00E94301ABECF68E067
:1035400086E0FACF6EE089E0F7CF64E18FE0F4CF58
:1035500067E185E1F1CF88E1EACF62E289E1ECCF72
:1035600083E2E5CF6AE285E2E7CF11E0A6CF0E94D1
:10357000580E0895E7EDF2E088E0DF011D928A958C
:10358000E9F70E94E81B0895FC01228130E02F5FDB
:103590003F4F23703327938181E09217130609F080
:1035A00080E008950F931F93CF93DF93EC01162FC4
:1035B000042F0E94C41A811117C08A81FE01E80FEE
:1035C000F11D1F7764816078612B00FB67F96483CC
:1035D0008F5F83708A8388818F5F888381E0DF912A
:1035E000CF911F910F91089580E0F9CFFC01A38145
:1035F00082818A17B1F0AE0FBF2FB11D14968C9146
:1036000087FB992790F98F77DB018C93DA019C93E4
:1036100083818F5F8370838381818F5F818381E06A
:10362000089580E00895462F682F87ED92E00E946C
:10363000D21A0895AB01BC0187ED92E00E94F61A00
:103640000895AEE0B0E0E7E2FBE10C94B330809186
:10365000D602882351F01092D6028091D90280932D
:10366000DA028091D7028093D8020E94271C0E9420
:10367000B71A182F882309F43FC010E08CEFF82EFA
:1036800093E0E92EDD24D3942DEFC22E32E0B32E49
:1036900029C01E858D858823A1F10E948028198369
:1036A000CA829C838B83BD82DE8249815A816B8171
:1036B0007C818D819E810E9475048D851E85882365
:1036C00041F10E9480281F83C8869A878987BB861C
:1036D0001C864F81588569857A858B859C850E94DB
:1036E0007504102FBE01635F7F4FCE010E960E94BE
:1036F0001A1B082F8111CDCF812F2E96E9E00C9453
:10370000CF300E9480281983FA829C838B83ED82BC
:10371000CBCF0E9480281F83F8869A878987EB8603
:10372000D7CF8FE891E00197F1F700C0000008952E
:1037300020E9611121E93AB12F7081E090E001C0E8
:10374000880F2A95EAF7982F909593239AB99BB101
:10375000892B8BB9089520E9611121E989B190E0A5
:103760002F7002C0959587952A95E2F7817008958C
:103770000895CF93DF93C0E08091DF02C81760F017
:103780000E94911BC0E08091DF02C81778F00E9470
:10379000B81BDF91CF91089560E08C2F0E94981B99
:1037A00061E08C2F0E94981BCF5FE6CF60E08C2FEA
:1037B0000E94AB1BD82F61E08C2F0E94AB1BEC2F1B
:1037C000F0E0EF51FD4F880F8D2B8083CF5FDBCF73
:1037D00081E08093DF020E94B91B08951F93CF936D
:1037E000DF93182FE42FEE0F6E2BC82FD0E0DE01F1
:1037F000AF51BD4FEC918E2F8370681721F1EE0F02
:10380000EE0FE62BEC93EF70F0E0EA52FE4FC05261
:10381000DD4F80819881890F8883843024F060E0B7
:10382000812F0E94131B88818D3F24F461E0812F3A
:103830000E94131B8881082E000C990B64E070E035
:103840000E9436308883DF91CF911F910895CF93E6
:10385000DF93C0E08091DF02C81718F0DF91CF91AD
:10386000089561E08C2F0E94AB1BD82F60E08C2F55
:103870000E94AB1B4D2F682F8C2F0E94EE1BCF5F39
:10388000E9CF279A45B14F7755B15068EFB7F89413
:103890009B01220F331F260F371F280F391F2817B0
:1038A000390741F4EFBF8FE594E00197F1F700C0CD
:1038B00000000895DC016D91CD0178E055B900005C
:1038C00000C067FF45B9660F000000C000C000C01F
:1038D00045B900C07A9591F7E2CF0E94490D08954D
:1038E00080E00E943F11817008950E94EF112FEF38
:1038F00086E791E0215080409040E1F700C0000051
:103900000E94EF110E94701C882321F00E946D1C00
:103910000E94CB2808950E94751C089584E00895A4
:1039200050E0440F551F96E0699F400D511D112432
:1039300092E1899F400D511D1124CA018996089575
:103940000F931F93CF93DF938430C8F46330B8F4A0
:103950004330A8F40E94901C8C010E949631C82F1D
:10396000D0E0DC2FCC27C80101960E9496319E0141
:10397000282BC901DF91CF911F910F91089590E0FD
:1039800080E0F8CF0F931F93CF93DF93122F032F75
:10399000843078F4633068F4433058F40E94901C0B
:1039A000EC01602F0E94BA31612FCE0101960E9476
:1039B000BA31DF91CF911F910F910895FF920F932C
:1039C0001F93CF93DF93F42E843040F5611126C00E
:1039D00024E0829F800111240F581F4F82E090E065
:1039E000442311F090E080E0800F911F0E949631F7
:1039F000C82FD0E0DC2FCC2783E090E0FF2011F02F
:103A000081E090E0800F911F0E9496319E01282B4B
:103A1000C901CDB7DEB7E5E00C94D33090E080E08B
:103A2000F8CF0F931F93CF93DF93142F022F84307F
:103A3000F0F461111CC094E0899FE0011124CF587B
:103A4000DF4F82E090E0442311F090E080E0632FAC
:103A50008C0F9D1F0E94BA3183E090E0112311F07A
:103A600081E090E0602F8C0F9D1F0E94BA31DF91A2
:103A7000CF911F910F9108951F93CF93DF93C0E0D3
:103A8000D0E011C0412F6D2F8C2F0E9403039C01A9
:103A9000412F6D2F8C2F0E94C21C1F5F133091F796
:103AA000DF5FD33011F010E0EDCF41E060E08C2F0C
:103AB0000E941F039C0141E060E08C2F0E94111DB9
:103AC00040E060E08C2F0E941F039C0140E060E01A
:103AD0008C2F0E94111DCF5FC43091F6DF91CF91E2
:103AE0001F910895EF92FF920F931F93CF93DF934F
:103AF000EC018A017C01E60EF71ECE018996CE15F7
:103B0000DF0529F4CDB7DEB7E6E00C94D230C83437
:103B1000D10540F40E949631F80180830F5F1F4F5A
:103B20002196EBCFF8011082F9CFB0E0A0E0EBE9ED
:103B3000FDE10C94B4307C016A018C01060F171F63
:103B4000EC01CE018996C017D10729F4CDB7DEB7B5
:103B5000E8E00C94D030C834D10540F4FE01EE19F1
:103B6000FF09EC0DFD1D60810E94BA312196E9CF5D
:103B7000843038F4633028F4433018F40E94A01CD9
:103B8000089590E080E00895843028F4611103C026
:103B90000E94DE1C089590E080E0089580E1089581
:103BA0008FE793E00895EF92FF920F931F93CF93C7
:103BB000DF93EC018A017C01E60EF71ECE018F57E0
:103BC0009F4FCE15DF0529F4CDB7DEB7E6E00C94A4
:103BD000D230CF3723E0D20740F40E949631F8016B
:103BE00080830F5F1F4F2196E9CFF8011082F9CF34
:103BF000B0E0A0E0EEEFFDE10C94B4307C016A018E
:103C00008C01060F171FEC01CE018F579F4FC01775
:103C1000D10729F4CDB7DEB7E8E00C94D030CF3728
:103C200023E0D20740F4FE01EE19FF09EC0DFD1D63
:103C300060810E94BA312196E7CFCF93DF93C1E82C
:103C4000D0E060E0CE010E94BA312196C11584E037
:103C5000D807B9F7DF91CF910895A8E0B0E0E3E38A
:103C6000FEE10C94B230F82E8FE08F1508F46EC090
:103C70008FEF93E00E949631811168C001E810E057
:103C8000F11035C0FE0131966F0188E011928A95DE
:103C9000E9F77801FFEFEF1AFF0AC8010E94963199
:103CA00089831A82882309F451C08130D1F45801E4
:103CB00082E0A80EB11CC7010E9496318A83882336
:103CC00009F444C09FEF980F9330F0F4780193E02B
:103CD000E90EF11CC5010E9496318B838823B1F156
:103CE0001C8260E0C6010E94EA228701D2CF011542
:103CF00094E0190759F1C8010E949631811101C061
:103D0000FA940F5F1F4FBCCF7501843051F702E06A
:103D100010E07501EFEFEE1AFE0AC5010E94963120
:103D2000F601E00FF11F8083882381F08C3741F486
:103D3000E2E0F0E0EC0FFD1FE00FF11F1082D1CFA9
:103D40000F5F1F4F57010730110519F72896EAE05A
:103D50000C94CE30CF93DF93EB0186319C4711F565
:103D60000E94270C9D81992399F08A7A91E009F4A9
:103D700090E09093E202811109C089E20E946627D7
:103D80000E94DB0C80E0DF91CF91089585E3F6CFB0
:103D90008091E202811104C089E20E947D27F0CF68
:103DA00085E3FBCF81E0EFCFCF93DF93EC01FB0105
:103DB0008581882309F4D2C09E0130572332310512
:103DC00008F0B2C00E94660D90930603809305032D
:103DD000FE01E150F047E232F10520F4E05DFD4CD8
:103DE0000C946C308091050381608093050393C02F
:103DF000809106038860809306038DC0809105033F
:103E00008260F3CF809105038460EFCF809105033A
:103E10008860EBCF809106038160EDCF809106032F
:103E20008260E9CF809105038061DFCF8091050337
:103E30008062DBCF809105038064D7CF0E94A10709
:103E4000809105038068D1CF809105038C60CDCF30
:103E5000809106038360CFCF809105038E7FC5CF0D
:103E600080910603877FC7CF809105038D7FBDCFEB
:103E7000809105038B7FB9CF80910503877FB5CFF4
:103E8000809106038E7FB7CF809106038D7FB3CFDD
:103E9000809105038F7EA9CF809105038F7DA5CFEB
:103EA000809105038F7BA1CF0E94A107809105031C
:103EB0008F779BCF80910503837F97CF80910603F7
:103EC0008C7F99CF8091050382FB992790F921E09F
:103ED000922790FB82F990FB83F987CF80910603AC
:103EE000982F909591708E7F892B90FB81F983CFCD
:103EF00090910503892F8F7B96FF806476CF0E9477
:103F0000A10790910503892F97FB87F980586DCF02
:103F100081E00E94F60D80910503909106030E94B6
:103F20006B0D0E94A10780E0DF91CF91089580E0A2
:103F3000F0CF90910503892F8F7E94FF806155CF3C
:103F400090910503892F8E7F90FF81604ECF9091D5
:103F50000603892F877F93FF88604DCF81E0E4CFF0
:103F6000282F35EB2303C001112497FF04C080588C
:103F70009109892F089580589F4FFBCF8091E902C6
:103F800080FF0DC06091200170E0660F771F6038E0
:103F9000710570F56115710569F1862F089581FF2E
:103FA00007C06091200184E0689FB0011124EFCF29
:103FB0006091200182FD0AC08091E8028823A9F067
:103FC00020911F0160912001821710F088E0ECCF52
:103FD000869FC001112433E0880F991F3A95E1F7BD
:103FE000622F70E00E943630D2CF68E070E0D5CF0B
:103FF0008FE7089581E008958091E90280FF0CC069
:1040000060911C0170E075956795759567956115D0
:10401000710549F1862F089581FF06C060911C014A
:1040200070E075956795F3CF60911C0182FD0BC020
:104030009091E7029923A1F060911B0180911C01EE
:10404000961738F0682F70E06038710500F38FE73D
:104050000895899FC001112470E00E943630F4CF8A
:1040600061E070E0D7CF81E008959091EC0220915B
:10407000ED02922B2091EF02922B2091EE02922BD7
:1040800031F098E09093E80291E09093E7028D3C44
:1040900031F40E94BE1F81958093ED0208958E3CFD
:1040A00019F40E94BE1FF8CF8F3C31F40E94BE1F4E
:1040B00081958093EC020895803D19F40E94BE1F03
:1040C000F8CF893D29F40E94FC1F8093EE020895E9
:1040D0008A3D21F40E94FC1F8195F7CF8B3D31F47E
:1040E0000E94FC1F81958093EF0208958C3D19F486
:1040F0000E94FC1FF8CF9FE2980F983070F4815D0A
:10410000990B21E030E001C0220F8A95EAF78091F7
:10411000EB02822B8093EB0208958D3D31F4809168
:10412000E90281608093E90208958E3D21F4809137
:10413000E9028260F7CF8F3DB9F78091E902846090
:10414000F1CF4091EC028D3C59F48091ED0287FF54
:104150000DC01092ED0241110BC01092E80208C090
:104160008E3C81F48091ED0218169CF3442381F07B
:104170008091EE029091EF02892B09F05AC01092C3
:10418000E70208958F3C49F447FFF0CF1092EC020C
:104190008091ED028111ECCFE0CF803D19F414162F
:1041A000ACF3E4CF9091EE02893D29F41916F4F6B0
:1041B0001092EE02DBCF8A3D19F497FFD7CFF8CFEC
:1041C0009091EF028B3D29F497FFD0CF1092EF0230
:1041D000CDCF8C3D19F41916CCF3C8CF9FE2980FC0
:1041E000983090F4815D990B21E030E0B90102C074
:1041F000660F771F8A95E2F7CB0180959091EB02CD
:1042000089238093EB02B2CF8D3D31F48091E90296
:104210008E7F8093E902AACF8E3D21F48091E9023E
:104220008D7FF7CF8F3D09F0A1CF8091E9028B7F81
:10423000F0CF08950E9480289C019091EC0280911B
:10424000ED02982B21F03093E6022093E502909145
:10425000EE028091EF02982B21F03093E40220933C
:10426000E3028AEE92E00E946326089586E0EAEE79
:10427000F2E0DF011D928A95E9F71092E8021092B0
:10428000E7021092E9020895FC01828181110EC0BB
:10429000838181110BC08481811108C091E08581E7
:1042A000811101C090E0892F8170089581E0FCCFD9
:1042B000A6E0B0E0EEE5F1E20C94B93086E0EAEE7B
:1042C000F2E0DE01119601900D928A95E1F71092CD
:1042D000EC021092ED021092EE021092EF028B812E
:1042E0009C81892B89F08091E5029091E6020E94E1
:1042F0009828AC019091E8029923C9F1809121019D
:104300008417150608F440C08D819E81892B91F099
:104310008091E3029091E4020E949828AC01909170
:10432000E702992309F46AC080911D0184171506DC
:1043300008F472C0BE016F5F7F4F8AEE92E00E9468
:10434000AE27811105C08AEE92E00E9444218111BE
:104350000E941A2186E0FE013196AAEEB2E0019099
:104360000D928A95E1F72696E3E00C94D5302091E2
:1043700022018AE0289F900111242417350720F696
:104380009F5F9093E80202C09F3FD1F71B811123EA
:1043900059F00E94BE1F9FEF11160CF491E0899F07
:1043A000802D11248093EC021C81112359F00E946E
:1043B000BE1F9FEF11160CF491E0899F802D1124F0
:1043C0008093ED028091EC02882309F49DCF109137
:1043D000ED02112309F498CF0E94B01F882351F0F9
:1043E0008093EC02812F0E94B01F882329F08093D4
:1043F000ED028ACF81E0F4CF81E0F9CF20911E0158
:104400008AE0289F900111242417350708F092CFE5
:104410009F5F9093E70202C09F3FD1F71D81112358
:1044200059F00E94FC1F9FEF11160CF491E0899F38
:10443000802D11248093EE021E81112359F00E94D9
:10444000FC1F9FEF11160CF491E0899F802D112421
:104450008093EF028091EE02882309F46BCF1091D4
:10446000EF02112309F466CF0E94B01F882351F098
:104470008093EE02812F0E94B01F882329F0809341
:10448000EF0258CF81E0F4CF81E0F9CFB0E0A0E0B7
:10449000ECE4F2E20C94B330E82FF0E0E25EFC4F83
:1044A000B490282F26952695269530E0F901E25400
:1044B000FC4F0491877010E0082E02C015950795F7
:1044C0000A94E2F701701127F901E255FC4FE490DC
:1044D000F12C082E02C0F594E7940A94E2F791E0DB
:1044E000E922FF24F901E256FC4FC491D0E002C05A
:1044F000D595C7958A95E2F7C170DD27C62ED12CD8
:104500000115110549F5E114F10431F086EE0E9420
:10451000B804C601009771F5B6018B2D0E943405D1
:10452000C601009779F5E114F104A1F50115110513
:1045300031F081EE0E940105C6010097C9F5CD2B2F
:1045400031F08CE20E944C05C114D104C9F5CDB7FD
:10455000DEB7E9E00C94CF3081EE0E94B804C601CA
:10456000009789F2EFE9FFE03197F1F700C0000012
:104570000197F6CFEFE9FFE03197F1F700C00000B7
:104580000197C8CFEFE9FFE03197F1F700C00000D5
:104590000197C7CF86EE0E940105C601009731F250
:1045A000EFE9FFE03197F1F700C000000197F6CF87
:1045B000EFE9FFE03197F1F700C000000197BDCFB0
:1045C0008FE99FE00197F1F700C0000091E0C91A60
:1045D000D108BACFEF92FF920F931F93CF93DF933F
:1045E000EC01162F0AE08881882309F459C0813034
:1045F00009F052C08981813071F47E0182E0E80EB9
:10460000F11C8A810E944C05E701812F90E0009700
:10461000D9F52196E8CF823041F47E01E2E0EE0E3A
:10462000F11C8A810E94B804EFCF833041F47E01EF
:10463000F2E0EF0EF11C8A810E940105E5CF843083
:1046400011F02196E2CF2A81229690E080E0AE011F
:104650004F5F5F4F2053330B2A30310550F00097E6
:10466000A1F2EFE9FFE03197F1F700C000000197F8
:10467000F6CF089FB001099F700D1124C901860F64
:10468000971F2981EA01E3CFEFE9FFE03197F1F7C6
:1046900000C000000197BBCF612F0E944622B9CF16
:1046A000CDB7DEB7E6E00C94D2300F931F93CF93D3
:1046B000DF93C42FD22FFC0185818823C9F040935A
:1046C000F2020E9480289093F1028093F00280E22F
:1046D0008C0F883040F4C77081E001C0880FCA9504
:1046E000EAF70E945505DF91CF911F910F91089530
:1046F0001091F202141332C08091F0029091F102F5
:104700000E949828883C910548F5C0E2CD0F1D17FE
:10471000B9F080E2810F883040F4177081E001C069
:10472000880F1A95EAF70E945C05C83048F481E0CA
:104730009D2F977001C0880F9A95EAF70E94550542
:10474000802F0E944C05C83070F6D77081E001C000
:10475000880FDA95EAF70E945C05C5CF80E28C0FDE
:10476000883008F6C77081E001C0880FCA95EAF763
:10477000F2CF0F93DB0188519C4787309105A0F55C
:10478000FC01EE5AFD4C0C946C3006E221EE41EE39
:104790006AE17CE7CD010E94552380E00F910895E6
:1047A00007E225EE45EE6BE17CE7F4CF06E221EE71
:1047B00040EE68E17CE7EECF07E225EE44EE69E1EA
:1047C0007CE7E8CF06E221EE42EE6CE17CE7E2CF47
:1047D00007E225EE46EE6DE17CE7DCCF08E221E062
:1047E00045EE6EE17CE7D6CF15968C91882319F0C3
:1047F0001092F202D3CF81E0D1CF1F93CF93DF93FA
:1048000087372CE7920759F0C1E088379C47E1F4DD
:10481000FB01C581CC2371F10E94402406C0FB013D
:10482000C581CC23B1F00E943D240E9419080E944A
:104830004324D82F0E944024C82F0E943D244D2F8E
:104840006C2F0E945009C0E08C2FDF91CF911F91F7
:1048500008950E943D240E9425080E944324182F99
:104860000E944024D82F0E943D24412F6D2F0E948A
:104870005009EACF0E944024EECF8091250108958F
:1048800080912401089580912301089585E290E0AC
:104890000E949631843289F486E290E00E9496313B
:1048A000863059F487E290E00E94963191E0873299
:1048B00009F090E0892F8170089580E0FCCFCF93BC
:1048C000C82F6FEF811164E285E290E00E94BA3157
:1048D0006FEFC11166E086E290E00E94BA316FEF9F
:1048E000C11167E287E290E00E94BA31CF9108954A
:1048F000089588E290E00E949631682F70E090E081
:1049000080E008950895CF93C62F0E9482246C2FD3
:1049100088E290E00E94BA31CF91089580E00E9431
:104920005F2460E070E0CB010E9483240E943C1D64
:104930000E941D1E81E00E945F2408950E94782439
:104940000E9479240E9482240E944624811102C080
:104950000E948E2408950E94731908959C01FB0102
:104960008581882351F0A90157574038510530F40B
:10497000822F0E942D1E80E0089581E008952FEF80
:10498000FC012083089580E00895CF93DF93EC012C
:1049900088818230E9F028F4813071F0DF91CF9185
:1049A00008958330F9F08430C9F70E942014898378
:1049B0000E9423148A83F2CF0E9426142FEF829F35
:1049C000C00111246FEF70E00E9422306983E6CFAE
:1049D0000E94BF13882321F00E94B6138983DECF83
:1049E00080E0FCCF0E940314F9CFCF93DF93EC015A
:1049F0008881823021F128F4813069F0DF91CF91F4
:104A00000895833041F18430C9F70E942614482F5D
:104A10006A81898111C089812FEF829FC001112491
:104A20006FEF70E00E942230D62F0E942314C82F0F
:104A30000E9420144D2F6C2F0E94BF15DFCF89815B
:104A4000811103C00E947A18D9CF0E946919898107
:104A50000E942919D3CF89810E941C14CFCFFC0159
:104A60009C012E5F3F4F9081983041F0993051F07A
:104A7000973059F4C9010E94F5240895C9010E9494
:104A8000C52408950E94951308958FEF808308959B
:104A9000FC012181223019F40E942F2508950E94E3
:104AA000BF240895B0E0A0E0E8E5F5E20C94B4304E
:104AB000EC01E62E0E94C324811110C0E881E15070
:104AC000E531B8F4F0E0E75AFD4C0C946C301982F3
:104AD0008CE08A836E2DCE010E944A29CDB7DEB7C5
:104AE000E8E00C94D03089818230C1F028F4813024
:104AF00061F08FEF8883EECF833099F08430C9F76F
:104B00001A821B821C821D82E5CF0E948C280E9483
:104B100072306A837B838C839D83DCCF0E947924EF
:104B2000F6CF8A81082F10E06E0193E0C90ED11CE8
:104B30009CE1F92EF80E0330110560F6802F0E94DB
:104B40003F11F60181936F010F5F1F4FF012F3CFFA
:104B5000C1CF8981823031F0853059F68A810E9437
:104B6000AB24B8CF6A817B818C819D810E94723099
:104B70000E948324AFCF4B816A8189810E94A01C4F
:104B80009827892798279D838C83A4CF2C813D81EA
:104B90003227232732274B816A8189810E94C21CD8
:104BA00099CF0E943C1D96CF6E2DCE010E944825C4
:104BB00091CF0E94CE1D89838DCF0E94D01D982752
:104BC000892798279A83898385CF6B8170E08981B3
:104BD0009A81AE014C5F5F4F9827892798270E94E2
:104BE000D31D78CF6B8170E089819A81AE014C5FD3
:104BF0005F4F9827892798270E94F81D6BCF0E9446
:104C00001D1E68CF0E948E1CD6CF6B8170E08981FB
:104C10009A81AE014C5F5F4F9827892798270E94A1
:104C2000721D58CF6B8170E089819A81AE014C5F13
:104C30005F4F9827892798270E94951D4BCF41E009
:104C40008B81811101C040E06A8189810E94DE1C54
:104C500097CF2C813D8132272327322741E08B815A
:104C6000811101C040E06A8189810E94111D32CF0B
:104C70009093F8028093F7020895E091F702F09183
:104C8000F802309729F00190F081E02D0995089500
:104C900080E00895E091F702F091F802309721F05A
:104CA0000280F381E02D09950895E091F702F091DB
:104CB000F802309739F026E0DC012C930480F5816E
:104CC000E02D09950895E091F702F091F8023097F0
:104CD00039F022E0DC012C930680F781E02D099564
:104CE0000895A3E0B0E0E7E7F6E20C94BA30209133
:104CF000F5023091F60228173907A1F09093F602D9
:104D00008093F502E091F702F091F802309751F0AC
:104D100023E029839B838A830084F185E02DCE01E3
:104D2000019609952396E2E00C94D630A3E0B0E01A
:104D3000ECE9F6E20C94BA302091F3023091F402DF
:104D400028173907A1F09093F4028093F302E091C1
:104D5000F702F091F802309751F024E029839B8309
:104D60008A830084F185E02DCE0101960995239672
:104D7000E2E00C94D63020910601309107012E5FBD
:104D80003F4F80913001882379F08091050387FFA0
:104D90000BC020910401309105012E5F3F4F9EE131
:104DA00080E0915018F4089596E0FACFF90141910E
:104DB0009F014423B1F38F5FF4CF882321F19091B9
:104DC0003001992311F19091050397FF1EC0E82F40
:104DD000E695E695E695EE31B0F420910401309128
:104DE0000501E20FF32FF11D228130E0877041E0D1
:104DF00050E002C0440F551F8A95E2F72423352363
:104E000081E0232B91F480E00895209106013091F8
:104E10000701F9013296285F3F4F9191981721F0D1
:104E2000E217F307D1F7EFCF81E008959C01FC0171
:104E300032969FEF80E04191461751F09F3F19F461
:104E4000411101C0982F8F5F8630A9F79F3F09F469
:104E50000895290F311D97FD3A95F9016283089550
:104E6000FC01329608962191261303C0DF011197A9
:104E70001C92E817F907B9F70895E62FE695E6952D
:104E8000E695EE3168F4E80FF92FF11D677021E027
:104E900030E001C0220F6A95EAF78281822B82837B
:104EA0000895E62FE695E695E695EE3170F4E80F65
:104EB000F92FF11D677021E030E001C0220F6A95E3
:104EC000EAF720958281282322830895682F809114
:104ED0003001882359F08091050387FF07C0809136
:104EE0000401909105010E943D27089580910601DB
:104EF000909107010E9416270895682F8091300134
:104F0000882359F08091050387FF07C08091040131
:104F1000909105010E94512708958091060190917A
:104F200007010E943027089580913001882379F08D
:104F30008091050387FF0BC0E0910401F09105010A
:104F400032968EE1DF011D928A95E9F70895E0918E
:104F50000601F0910701329686E0F4CFDC01FB01F7
:104F600011969C9111978181981322C012968C9171
:104F70001297882319F0928189131AC013968C9185
:104F80001397882319F09381891312C015968C9179
:104F90001597882319F0958189130AC014969C915E
:104FA000992321F081E02481291303C080E001C00E
:104FB00081E08170089508950E94DB270895811192
:104FC00006C081E08093F9020E94DC27089582E008
:104FD000F9CF83E08093F9020E94DC2708950E94B4
:104FE000DF27089581E08093F9020E94DC2708956D
:104FF0000E94F2270895089508950E94FC270895BD
:10500000089508950E94FB270895CF930E940028D9
:105010000E94EF110E940128C0E08C2F0E943F11D6
:10502000811105C0CF5FC330C1F7CF91089581E0F2
:10503000FCCF85B7806885BF85B7806885BF089538
:105040001F921FB61F9211248F939F93AF93BF930C
:105050008091FA02811113C0809121039091220363
:10506000A0912303B09124034196A11DB11D80930B
:10507000210390932203A0932303B0932403BF91B1
:10508000AF919F918F911F901FBE1F901895809197
:105090002903843031F10E9428041092FA0288E139
:1050A00090E020E40FB6F894A895809360000FBEBE
:1050B0002093600083B7817F846083BF83B7816062
:1050C00083BF7894889583B78E7F83BF0FB6F8949B
:1050D000A8958091600088618093600010926000C4
:1050E0000FBE08950E94A1070E942F04089582E038
:1050F00084BD93E095BD9AEF97BD80936E000895AF
:105100002FB7F8948091210390912203A09123035B
:10511000B09124032FBF08952FB7F8946091210315
:105120007091220380912303909124032FBF08954F
:105130009C014FB7F8948091210390912203A09194
:105140002303B09124034FBF821B930B08957894DF
:105150001F921FB61F9211248F939F93AF93BF93FB
:105160008091210390912203A0912303B091240305
:105170000196A11DB11D8093210390932203A0935A
:105180002303B0932403BF91AF919F918F911F9000
:105190001FBE1F90189581E08093E00080E280930D
:1051A000D8001092C9008FE19EE40197F1F700C08A
:1051B000000087E090EBDC0180933203909333038F
:1051C000A0933403B093350388E19CE00FB6F894C4
:1051D000A895809360000FBE90936000FFCF88E198
:1051E0009CE00FB6F894A895809360000FBE909352
:1051F0006000FFCF8091030308959B01BA01909155
:1052000029039430E9F48F708093E9009FEF809137
:10521000E800915085FD06C085ED8A95F1F7000004
:105220009111F5CF8091E80085FF0AC050E040E081
:10523000C9010E94402B8091E8008E778093E8009E
:10524000089543E050E0BC0184E00E94FD280895E9
:1052500046E050E0BC0184E00E94FD28089540E251
:1052600050E0BC0184E00E94FD280895CF93DF93B5
:10527000EC0148E050E0BC0181E00E94FD2888E09C
:10528000FE01ABEFB2E001900D928A95E1F7DF915C
:10529000CF910895603231F440E250E0BC0182E0E9
:1052A0000E94FD28089580912803811109C00E9461
:1052B0001F2D0E947C2D8091E20084608093E2008B
:1052C00008951092280308950E94F227089560918E
:1052D000250381E0611101C080E00E94E927089563
:1052E0009091290381E0943009F080E060912503DA
:1052F0000E94EF27089542E061EC81E00E949B2C20
:1053000042E261EC84E00E949B2C42E261EC82E08C
:105310000E949B2C42E260EC83E00E949B2C9091C7
:10532000290381E0943009F080E0609125030E9418
:10533000DF27089580912B03833009F463C030F494
:105340008130E1F1823009F4A0C008958A3009F477
:105350008CC08B3009F471C0893009F052C0809143
:105360002A03813209F04DC080912E0390912F03C2
:10537000009719F0029709F044C08091E800877FF8
:105380008093E8008091E80082FF37C09091F3009D
:105390008091F200029731F48091F100813011F098
:1053A000863021F48091F100809303038091E8001E
:1053B0008B778093E8000E94CF2C23C080912A0332
:1053C000813AF9F48091E800877F8093E80080912A
:1053D0002E0390912F03892B61F468E08BEF92E00C
:1053E00070E00E94DE2B8091E8008B778093E800CC
:1053F000089560E090E080E0F3CF8091290381116F
:10540000C1CF089580912A03813AD9F780912E0364
:1054100090912F03892BA9F78091E800877F8093D3
:10542000E8008091E80080FFFCCF809130018093FC
:10543000F1008091E8008E77BCCF80912A03813201
:1054400001F780912E0390912F03892BD1F6809143
:10545000E800877F8093E8000E94CF2C80912C0386
:10546000809330010E94A107089580912A03813220
:1054700041F68091E800877F8093E8000E94CF2C5E
:1054800080912D0380930403089580912A03813A2B
:1054900009F0B7CF8091E800877F8093E800809182
:1054A000E80080FFFCCF80910403C1CF84B7877FE1
:1054B00084BF0FB6F894A8958091600088618093AE
:1054C0006000109260000FBE80E890E00FB6F89484
:1054D00080936100909361000FBE0E94F8270895A9
:1054E0000E941F2D0E947C2DE2EEF0E080818460FE
:1054F000808378940E94FB2F089586E291E00E94B9
:105500003826089580912903853031F4809129034C
:10551000853019F00E94722808950E9447288091D2
:105520002703882399F30E940528882379F30E9492
:105530002A2B0E94A107EACFA0E2B0E0E2EAFAE259
:105540000C94BA3080912903843009F583E080936C
:10555000E9008091E80082FF1AC08091E80090E0A5
:1055600085FF09C050E040E060E270E0CE010196A6
:105570000E948F2B91E08091E8008B778093E80068
:10558000992329F060E2CE0101960E945225A0964F
:10559000E2E00C94D6309A014091300350913103EF
:1055A0000E94D32A0895492F55274330510521F1F0
:1055B00068F44130510509F443C04230510509F403
:1055C00044C090E080E050E040E026C04132510508
:1055D00051F142325105A9F76330710590F7FB0193
:1055E000EE0FFF1FE751FE4F408151816A517E4F00
:1055F000FB01808190E010C099278130910581F0F6
:10560000009729F00297E9F6EEECF3E002C0E4E03F
:10561000F4E0849190E0AF01F90151834083089553
:10562000E4EEF3E0F6CF6330710558F6660F771FAE
:10563000FB01E151FE4F4081518189E090E0ECCFC8
:1056400082E190E043E654E0E7CF8BE590E048E06C
:1056500054E0E2CF80E189BD82E189BD09B400FE5A
:10566000FDCF8091D8008F7D8093D8008091E0009D
:1056700082608093E0008091E00081FDFCCF08957E
:10568000AF92BF92CF92DF92FF920F931F93CF936F
:10569000DF936C01EB018A010E94EE2CF82E811140
:1056A00023C00115110539F0F80180819181C81BD3
:1056B000D90BC80ED91EB12CA12C2097A9F080912E
:1056C000E80085FD22C08091E8008E778093E80095
:1056D00001151105A1F0F80180819181A80EB91E74
:1056E000B182A08285E0F82E8F2DDF91CF911F919E
:1056F0000F91FF90DF90CF90BF90AF9008950E94E0
:10570000EE2C8823D1F2F82EEFCFF60181916F01B4
:105710008093F1002197FFEFAF1ABF0ACECFAF926F
:10572000BF92CF92DF92FF920F931F93CF93DF939D
:105730006C01EB018A010E94EE2CF82E811123C02E
:105740000115110539F0F80180819181C81BD90B31
:10575000C80ED91EB12CA12C2097A9F08091E80089
:1057600085FD22C08091E8008B778093E8000115C9
:105770001105A1F0F80180819181A80EB91EB182B6
:10578000A08285E0F82E8F2DDF91CF911F910F9190
:10579000FF90DF90CF90BF90AF9008950E94EE2CC5
:1057A0008823D1F2F82EEFCF8091F100F60181939A
:1057B0006F012197FFEFAF1ABF0ACECFFC01809196
:1057C00030039091310386179707A0F0611571059A
:1057D00029F49091E8009E779093E80090E061159D
:1057E000710551F4911108C08091E80082FF34C026
:1057F00080E00895BC01F2CF809129038823C1F194
:105800008530C1F18091E80083FD30C08091E800CF
:1058100082FDEACF8091E80080FFE1CF8091F30024
:105820002091F200382F6115710519F028303105EB
:1058300058F091E02830310509F090E02091E8001F
:105840002E772093E800CBCF81918093F1006150B7
:1058500071092F5F3F4FE7CF80912903882341F0E3
:10586000853041F08091E80083FFBECF81E008954C
:1058700082E0089583E00895FC01809130039091C7
:10588000310386179707A0F06115710529F48091FF
:10589000E8008E778093E80090E06115710551F47F
:1058A000911108C08091E80082FF35C080E0089522
:1058B000BC01F2CF809129038823C9F18530C9F159
:1058C0008091E80083FD31C08091E80082FDEACF3D
:1058D0008091E80080FFE1CF8091F3002091F200F9
:1058E000382F6115710519F02830310558F091E015
:1058F0002830310509F090E08091E8008E778093A0
:10590000E800CBCF84918093F1003196615071090A
:105910002F5F3F4FE6CF80912903882341F08530E8
:1059200041F08091E80083FFBDCF81E0089582E0DF
:10593000089583E00895982F973028F08F70809312
:10594000E90081E008959093E900242F762F50E03C
:10595000981731F07091EC002091ED005091F0001B
:1059600021FD02C09F5FE8CF3091EB003E7F309376
:10597000EB003091ED003D7F3093ED003091EB0076
:1059800031603093EB007093EC002093ED00509366
:10599000F0002091EE0027FDE5CF80E00895809192
:1059A0002A0387FF13C08091E80082FF06C0809120
:1059B000E8008B778093E80004C08091290381116F
:1059C000F2CF0895809129038823D9F38091E800CC
:1059D00080FFF8CF8091E8008E77ECCF2091E40033
:1059E0003091E50095E6A9012091EC00822F8170AD
:1059F00020FF06C08091E80080FF06C080E0089587
:105A00002091E80022FD1AC080912903882389F0A3
:105A1000853089F08091EB0085FD0FC02091E40076
:105A20003091E50042175307F9F29150E1F684E016
:105A3000089582E0089583E0089581E008950E942A
:105A40008E2D0E94962DE0EEF0E0808181608083B3
:105A5000E8EDF0E080818F77808319BCA7EDB0E09E
:105A60008C918E7F8C9380818F7E8083109228030F
:105A700008950F931F93CF93DF930E948E2D0E9462
:105A8000962DC8EDD0E088818F77888388818068E3
:105A9000888388818F7D888319BC10922903109296
:105AA0002503109227031092260300EE10E0F80160
:105AB00080818B7F808388818160888342E060E081
:105AC00080E00E949B2CE1EEF0E080818E7F80835D
:105AD000E2EEF0E080818160808380818860808355
