:100000000C948B050C94C3050C94C3050C94C30588
:100010000C94C3050C94C3050C94C3050C94C30540
:100020000C94C3050C94C3050C94AD150C94CE1917
:100030000C9440240C94C3050C94C3050C94C30584
:100040000C94C3050C94C3050C94C3050C94C30510
:100050000C94C3050C9486160C94C3050C94C3052C
:100060000C94C3050C94C3050C94C3050C94C305F0
:100070000C94C3050C94C3050C94C3050C94C305E0
:100080000C94C3050C94C3050C94C3050C94C305D0
:100090000C94C3050C94C3050C94C3050C94C305C0
:1000A0000C94C3050C94C3050C94C3050000000018
:1000B0000000A800AE00AC00AB00AF007A00B200B8
:1000C000B100B3007C007B007D0003520000000003
:1000D00000002078267825782478237821782278E3
:1000E0002B782C782E782A7829780052000000008E
:1000F0000000000000000000000000000000000000
:10010000000000000000000000000052000000009D
:100110000000000001520252000000000000000038
:10012000000000000000000000000052A900AA002A
:10013000277828784F0050005200510000DA0281E1
:10014000FFD9F1DB20A4A62EAF00A0C0D30000A1F0
:10015000C8D30000AED580A81F408D1420001E0F0C
:100160000500047F3F1F643214643214783C1E1E65
:10017000140A05000101010101010101010202024D
:100180000202020202020303030303030303040443
:10019000040404040405050505050606060606070D
:1001A0000707070708080808090909090A0A0A0BC6
:1001B0000B0B0C0C0C0D0D0D0E0E0E0F0F0F101067
:1001C00011111112121313141415151616171718EE
:1001D0001819191A1A1B1B1C1D1D1E1E1F20202159
:1001E0002222232424252626272829292A2B2C2DA0
:1001F0002D2E2F30313232333435363738393A3BC1
:100200003C3D3E3F404142434445464748494A4CB5
:100210004D4E4F50515354555658595A5B5D5E5F81
:10022000616264656668696B6C6D6F707273757717
:10023000787A7B7D7E8082838587888A8C8E8F9179
:10024000939596989A9C9EA0A2A3A5A7A9ABADAFA3
:10025000B1B3B5B7BABCBEC0C2C4C6C9CBCDCFD18D
:10026000D4D6D8DBDDDFE2E4E7E9EBEEF0F3F5F836
:10027000FAFDFFFFAA7F55402223252628292A2C94
:100280002D2F3032333536383A3B3D3E40424345E0
:1002900047494A4C4E5051535557595A5C5E60621B
:1002A000646668696B6D6F71737577797B7D7F812B
:1002B000838587898A8C8E90929496989A9C9E9F2B
:1002C000A1A3A5A7A8AAACAEAFB1B3B4B6B8B9BB49
:1002D000BCBEBFC1C2C3C5C6C7C9CACBCCCDCED0B8
:1002E000D1D2D2D3D4D5D6D7D7D8D9D9DADADBDBA5
:1002F000DBDCDCDCDCDCDDDDDDDDDCDCDCDCDCDB3C
:10030000DBDBDADAD9D9D8D7D7D6D5D4D3D2D2D184
:10031000D0CECDCCCBCAC9C7C6C5C3C2C1BFBEBC77
:10032000BBB9B8B6B4B3B1AFAEACAAA8A7A5A3A1E8
:100330009F9E9C9A98969492908E8C8A89878583AA
:10034000817F7D7B79777573716F6D6B696866648A
:1003500062605E5C5A5957555351504E4C4A49475A
:10036000454342403E3D3B3A3836353332302F2DFF
:100370002C2A29282625232200AF00AE00000103E5
:10038000060C183123664444C4C484848484C4C4E1
:100390004446662311180C06030000001F78C10FA5
:1003A00038E0C00000020E0E8EC6C04040C0C68EAF
:1003B0000E0E020080C060380FC07C0FF81EC3F81C
:1003C0005C767B6D755555756D7B765E7E775B6D66
:1003D000755555754D7B665CF0C33EF0000080C0DE
:1003E0006030180C040682C34361A1A1A1A161433E
:1003F000C38206040C183060C0800000202020005A
:100400005343522000202020004341502000202050
:1004100020004E554D20005374617475733A2000CE
:100420004E2F4120202000546872656520005477CB
:100430006F202020004F6E65202020005A65726FCB
:100440002020004C617965723A2000546865204D87
:100450006164204E6F6F646C650005010902A101A3
:1004600085020901A10005091901290815002501C6
:100470009508750181020501093009311581257F33
:1004800095027508810609381581257F9501750843
:100490008106050C0A38021581257F9501750881B2
:1004A00006C0C005010980A101850319012AB70012
:1004B000150126B700950175108100C0050C0901D2
:1004C000A101850419012AA002150126A0029501A7
:1004D00075108100C005010906A1018506050719EF
:1004E000E029E71500250195087501810205071926
:1004F0000029EF1500250195F07501810205081905
:10050000012905950575019102950175039101C0B9
:1005100005010906A101050719E029E715002501D4
:10052000950875018102950175088101050719007B
:1005300029FF150026FF009506750881000508199A
:100540000129051500250195057501910295017593
:10055000039101C009023B00020100A0FA09040056
:1005600000010301010009211101000122440007DB
:1005700005810308000109040100010300000009CE
:10058000211101000122B60007058203200001129B
:10059000010002000000086C6A1200000101020064
:1005A000010E03550064006F006E0031003300003F
:1005B000001E0354006800650020004D00610064C7
:1005C0000020004E006F006F0064006C00650000AA
:1005D000000403090407087F0807003E5B4F5B3EE9
:1005E000003E6B4F6B3E001C3E7C3E1C00183C7E68
:1005F0003C18001C577D571C001C5E7F5E1C0000D1
:10060000183C180000FFE7C3E7FF0000182418009B
:1006100000FFE7DBE7FF0030483A060E00262979A5
:10062000292600407F05050700407F05253F005A29
:100630003CE73C5A007F3E1C1C0800081C1C3E7F07
:100640000014227F2214005F5F005F5F0006097FB5
:10065000017F00006689956A0060606060600094B8
:10066000A2FFA2940008047E04080010207E20103F
:100670000008082A1C0800081C2A0808001E101080
:100680001010000C1E0C1E0C0030383E38300006D6
:100690000E3E0E060000000000000000005F00009B
:1006A00000000700070000147F147F1400242A7F35
:1006B0002A120023130864620036495620500000B5
:1006C0000807030000001C224100000041221C001A
:1006D000002A1C7F1C2A0008083E080800008070C1
:1006E00030000008080808080000006060000020D2
:1006F00010080402003E5149453E0000427F400080
:10070000007249494946002141494D3300181412ED
:100710007F10002745454539003C4A494931004191
:100720002111090700364949493600464949291E21
:100730000000001400000000403400000000081415
:100740002241001414141414000041221408000261
:1007500001590906003E415D594E007C1211127C80
:10076000007F49494936003E41414122007F4141D5
:10077000413E007F49494941007F09090901003E86
:1007800041415173007F0808087F0000417F41000C
:10079000002040413F01007F08142241007F40407B
:1007A0004040007F021C027F007F0408107F003E53
:1007B0004141413E007F09090906003E4151215E49
:1007C000007F091929460026494949320003017F63
:1007D0000103003F4040403F001F2040201F003FDA
:1007E0004038403F00631408146300030478040396
:1007F000006159494D4300007F4141410002040816
:10080000102000004141417F000402010204004029
:100810004040404000000307080000205454784046
:10082000007F284444380038444444280038444475
:10083000287F0038545454180000087E090200181C
:10084000A4A49C78007F080404780000447D400044
:10085000002040403D00007F102844000000417F00
:100860004000007C04780478007C08040478003898
:100870004444443800FC182424180018242418FC8C
:10088000007C080404080048545454240004043F25
:100890004424003C4040207C001C2040201C003CA4
:1008A0004030403C004428102844004C9090907CFC
:1008B000004464544C4400000836410000000077B6
:1008C0000000000041360800000201020402003C62
:1008D0002623263C00000000000000404040F0F8C5
:1008E000F8FF38FFF8F83FF8F8FF38FFF8F8F04065
:1008F000404000000000000080C0C0C0800000C078
:10090000C08000000080C0C000C0C0000080C0C027
:100910000000000000C0C0C0C0C000C0C000000097
:1009200000000000000000000000000000000000C7
:1009300000000000000000000000000000000000B7
:1009400000000000000000000000000000000000A7
:1009500000000000C0F0F8FC3E1E06010000007F11
:100960004141417F007F4141417F000080C0E07EE6
:100970005B4F5BFEC00000C000DCD7DEDEDED7DCF4
:1009800000C00000000000000000000000000000A7
:100990000000000000000000000000494949FFFF7E
:1009A000FFFFE0DFBFBF00BFBFDFE0FFFFFFFF498A
:1009B000494900000000001F3F6060E0BF1F007F4A
:1009C0007F071E381E077F7F007F7F0E1F3B7160F1
:1009D00000000000007F7F0C0C0C007E7E007F7EFC
:1009E0000303007F7E03037E7E03037F7E000F3EB2
:1009F000703C063C703E0F00327B49493F7E007FD1
:100A00007E0303001E3F69696F260000000000009E
:100A100000000000030F1F3F3C7870600000007F63
:100A20004141417F007F4141417F00307B7F7830F1
:100A3000202030787F3B0003000F7F0F0F0F7F0FC8
:100A400000030000000000000000000000000000A3
:100A50000000000000000000000000010101070F7D
:100A60000F7F0F7F0F0F7E0F0F7F0F7F0F0F07017D
:100A70000101000000000000000000000101000072
:100A80000000000000000000000000000000000066
:100A90000000000000000000000000000000000056
:100AA0000000000000000000000000000000000046
:100AB0000000000000000000000000000000000036
:100AC0000000000000000000000000000000000026
:100AD0000000000000000000000000000000000016
:100AE0000000000000000000000000000000000006
:100AF00000000000000000000000000000000000F6
:100B000000000000000000000000000000000000E5
:100B100000000000000011241FBECFEFDAE0DEBFAE
:100B2000CDBF04B603FE18C080911505909116053F
:100B3000A0911705B09118058730904BA740B04B96
:100B400059F410921505109216051092170510927F
:100B50001805E0E0F8E3099525E0A8EAB1E001C056
:100B60001D92A531B207E1F711E0A0E0B1E0E4EE9B
:100B7000F8E502C005900D92A83AB107D9F70E9496
:100B800067240C941C2C0C940000CF93DF934091AD
:100B9000130550911405435153409A01205E3F4F75
:100BA00021303240C0F020E032E0241B350B609150
:100BB000110370911203FC01CA01240F351FC1E01B
:100BC000D0E08217930750F07093120360931103E3
:100BD000DF91CF91089520E230E0E9CF4491DC012C
:100BE000AD5EBC4F5C91451781F04C93AC01A5E024
:100BF00056954795AA95E1F7DE0102C0AA0FBB1FE3
:100C00004A95E2F7AD016A2B752B01963196D9CF43
:100C1000482F209106039091CD0257E0291302C07E
:100C200080E0089530E0529FF001539FF00D1124B1
:100C3000E253FD4F8181681306C08081481303C0D1
:100C400085818111EECF2F5F3F4F2770E7CFE8ED11
:100C5000F0E080818E7F80831092E2001092DA00B3
:100C60001092E100A0EEB0E08C9181608C938081C5
:100C70008F77808319BCA7EDB0E08C918E7F8C9329
:100C800080818F7E80831092B60208952091E400C7
:100C90003091E50095E6A9012091EC00822F81704A
:100CA00020FF06C08091E80080FF06C080E0089524
:100CB0002091E80022FD1AC08091C302882389F0A8
:100CC000853089F08091EB0085FD0FC02091E40014
:100CD0003091E50042175307F9F29150E1F684E0B4
:100CE000089582E0089583E0089581E00895809159
:100CF000C50287FF13C08091E80082FF06C0809183
:100D0000E8008B778093E80004C08091C3028111D2
:100D1000F2CF08958091C3028823D9F38091E8002F
:100D200080FFF8CF8091E8008E77ECCF982F9093DA
:100D3000E900242F762F50E0891731F07091EC00F4
:100D40002091ED005091F00021FD07C09F5F97308A
:100D500071F78093E90081E008953091EB003E7FC8
:100D60003093EB003091ED003D7F3093ED003091FA
:100D7000EB0031603093EB007093EC002093ED00BA
:100D80005093F0002091EE0027FDE0CF80E0089521
:100D9000B0E0A0E0EEECF6E00C943C2AC8EDD0E028
:100DA00088818F7E8883E7EDF0E080818160808399
:100DB00084E082BF81E08093B60288818E7F888341
:100DC00002EE10E0F80110821092DA0081EEC82ED7
:100DD000D12CF601108288818F7788838881806882
:100DE000888388818F7D888319BC1092C3021092FA
:100DF000C4021092C2021092C10290EEE92EF12CB0
:100E0000F70180818B7F808388818160888342E0C5
:100E100060E080E00E949606F60180818E7F8083EC
:100E2000F801808181608083808188608083F70100
:100E300080818E7F8083888180618883CDB7DEB793
:100E4000E8E00C94582AFC018091CB029091CC02EE
:100E500086179707A0F06115710529F49091E800B5
:100E60009E779093E80090E06115710551F491111F
:100E700008C08091E80082FF34C080E00895BC0182
:100E8000F2CF8091C3028823C1F18530C1F18091F6
:100E9000E80083FD30C08091E80082FDEACF8091B8
:100EA000E80080FFE1CF8091F3002091F200382F1D
:100EB0006115710519F02830310558F091E028309E
:100EC000310509F090E02091E8002E772093E800AA
:100ED000CBCF81918093F100615071092F5F3F4F1B
:100EE000E7CF8091C302882341F0853041F08091A3
:100EF000E80083FFBECF81E0089582E0089583E09B
:100F000008958091B80208952FB7F8946091B202C5
:100F10007091B3028091B4029091B5022FBF0895F1
:100F2000909123019923D1F09091AF0297FF16C0C1
:100F3000E82FE695E695E695EE31E0F4F0E0EE5424
:100F4000FE4F282F277081E090E001C0880F2A957E
:100F5000EAF780959281892382830895ECEAF1E093
:100F60009191891303C0DF0111971C9291E0E23B3C
:100F7000F907B1F70895909123019923C1F0909159
:100F8000AF0297FF14C0E82FE695E695E695EE319F
:100F9000F8F4F0E0EE54FE4F877021E030E001C03D
:100FA000220F8A95EAF78281822B82830895ACEA28
:100FB000B1E0EFEF90E02D91821751F0EF3F19F47F
:100FC000211101C0E92F9F5F9630A9F7EF3F09F487
:100FD00008950E2E000CFF0BE655FE4FE6CFA3E062
:100FE000B0E0E5EFF7E00C94422A2091AD02309199
:100FF000AE0228173907A1F09093AE028093AD029C
:10100000E091AB02F091AC02309751F024E02983DB
:101010009B838A830084F185E02DCE01019609959A
:101020002396E2E00C945E2AA3E0B0E0EAE1F8E067
:101030000C94422A2091A9023091AA02281739075C
:10104000A1F09093AA028093A902E091AB02F091E3
:10105000AC02309751F023E029839B838A8300847C
:10106000F185E02DCE01019609952396E2E00C94DE
:101070005E2AE091AB02F091AC02309729F001902A
:10108000F081E02D0995089580E0089580919E02F9
:1010900080FD16C081FD16C082FD16C080919D02A4
:1010A0008823A1F0883280F428E0829FC0011124B7
:1010B00068E270E00E94832A862F672B39F008953A
:1010C00082E0089584E0089588E0089581E008951D
:1010D00080919E0280FD14C081FD14C082FD16C067
:1010E00080919C02882381F08E3180F420E5829FDC
:1010F000C00111246EE170E00E94832A862F0895BA
:1011000084E1089588E2089588E0089580E50895CF
:10111000282F35EB2303C001112497FF04C080580A
:101120009109892F089580589F4FFBCF20910A0382
:1011300036E0839FC0011124629F800D911D112410
:10114000811522E0920714F090E080E08D5E9C4FC4
:1011500090931405809313050895FA01811101C03D
:10116000FB0109950895089580916A02982F9C7F4C
:1011700029F48370846080936A0208958C3AE8F3BE
:101180008370886AF8CFAF92BF92DF92EF92FF929E
:101190000F931F93CF93DF93082F162FE901E42FAE
:1011A000F0E0ED58FE4F611110C0E4915E2F4E2F1C
:1011B0004983E8835A83DF91CF911F910F91FF906C
:1011C000EF90DF90BF90AF900895E62EF12C449100
:1011D000D42EE42FF0E026E0829FC00111242FEFEF
:1011E00030E0B9010E941E2A802F90E0880F991FDD
:1011F00055E5569FD001579FB00D11248A1B9B0BBC
:10120000982F990F890F5901AE18BF08AE9ED001D3
:10121000AF9EB00DBE9EB00D11245B2F189F8001B4
:101220001124012F11275901A01AB10AAE9E800185
:10123000AF9E100DBE9E100D11245901A81AB108C1
:10124000AE9CC001AF9C900DBE9C900D1124892FC7
:101250009927281B390B2E9FC0012F9F900D3E9F71
:10126000900D1124E92F62307105A1F050F4611541
:10127000710509F49DCF6130710581F0EB2F512F7D
:1012800097CF6430710569F080F06630710509F41C
:101290008FCFF4CFE42F4B2F592F8ACFE42F412F3C
:1012A00087CFEB2F542F492F83CF4B2F5D2DE12F6D
:1012B0007FCF80E00895F894E82FE295EF70F0E09A
:1012C00031A1282F2F7081E090E001C0880F2A956E
:1012D000EAF7982F9095932391A392A1892B82A34B
:1012E000789408959091AF0292FF10C041E0282FAA
:1012F0002471243009F040E031E0282F2871283093
:1013000009F030E0431711F02CE0822793FF10C062
:1013100041E0282F2471243109F040E031E0282FEA
:101320002871283109F030E0431711F02CE08227B2
:101330003091B00230FF10C051E0282F21712130D0
:1013400009F050E041E0282F2871283009F040E0F2
:10135000541711F029E0822731FF10C041E0282FF7
:101360002171213109F040E031E0282F2871283126
:1013700009F030E0431711F029E0822794FD877EC1
:10138000089582389105B9F1B0F48133910509F4DB
:101390007DC048F48932910509F46DC08A32910507
:1013A00009F47BC008958533910509F45FC0893342
:1013B000910509F10895833E9105D9F138F4803EF5
:1013C000910529F1823E910579F10895863E9105B6
:1013D000D9F1873E910509F43EC0843E910541F55F
:1013E0002091B00221FF24C08091AF0284FD19C07A
:1013F00087EE90E008952091AF02237009F05AC063
:101400002091B00223FF14C089E290E0089520915A
:10141000AF0220FD38C03091B00230FF09C024FF78
:1014200043C090E080E008952091AF0222FDF7CF05
:1014300008952091AF0222FD3AC03091B00230FDF4
:1014400039C024FFF5CFEDCF2091AF0223FFF0CFBD
:1014500024FDE7CFCDCF2091AF0223FD2EC03091E8
:10146000B00231FFEECF84EE90E008952091AF02FC
:1014700025FFDECFC9CF2091AF0225FD21C02091ED
:10148000B00223FFD5CF89E390E0D2CF2091AF0205
:1014900026FFCECF8AE290E008952091AF0226FF8A
:1014A000C7CF81E390E0089583EE90E0089582EE47
:1014B00090E0089580EE90E0089586EE90E0089523
:1014C00085E390E008957430B8F4643078F58430A2
:1014D00080F594E0899FF0011124E70FF11DEE0FD4
:1014E000FF1FEE0FFF1FE60FF11DEE0FFF1FE4556C
:1014F000FF4F8591949108957D3F59F4611116C075
:101500008430B8F494E0899FF0011124E45DFE4F2B
:10151000F0CF7C3F59F4611109C0843050F494E05D
:10152000899FF0011124E25DFE4FE3CF80E090E05F
:10153000089581E0FCCF1F93CF93DF930E94C109F0
:10154000EC01C11580E5D807F0F5C11580E4D80796
:1015500008F09CC0C03ED10520F5CD3CD10508F077
:1015600082C0C83AD10578F4C53AD10508F073C0F5
:10157000C130D10519F1209709F1C430D105F0F43B
:10158000D0E0C0E01BC0C33CD105D0F7C85AD0E0C2
:10159000CC0FDD1FC95DDE4F0990D881C02DD4640A
:1015A0000DC0C11580E2D80708F0D1C0C11581E097
:1015B000D80708F05AC0C83ED10510F7CE01DF9118
:1015C000CF911F910895C03682E5D80718F5C03431
:1015D00082E5D80708F06BC0C03282E5D80708F072
:1015E0005FC0C11582E5D80708F497C02C2F269557
:1015F000269580E2289F900111248C2F8370C1E0F2
:10160000D0E002C0CC0FDD1F8A95E2F7C22BD32BAE
:10161000DD68D4CFC03A82E5D80760F4C03882E5EF
:10162000D80708F459C0CF71D0E0DC2FCC27C46FA5
:10163000D06AC4CFC03C82E5D80708F462C0C03E7F
:1016400082E5D80708F09CCFDC2FCC27CC27DF71B0
:10165000C06FD06AB3CFC55AD0E0CC5DDE4FC88131
:10166000D0E0D064ABCFD065A9CF8D2F0E94720996
:10167000182FCE0199270E94C109C12FD0E0DC2F7D
:10168000CC27CC27DF71C82BD92B98CFCE01992737
:101690000E94C109CC27DF70C82BD92BD06A8ECF0E
:1016A000CF71D0E0DC2FCC27C16FD06A87CF2C2F31
:1016B00026952695277080E2289F900111248C2F73
:1016C0008370C1E0D0E002C0CC0FDD1F8A95E2F745
:1016D000C22BD32BDC6872CF2C2F26952695277032
:1016E00080E2289F900111248C2F8370C1E0D0E00C
:1016F00002C0CC0FDD1F8A95E2F7C22BD32BDA682C
:101700005DCF8C2F8F710E947209C82FD0E0DC2F23
:10171000CC27CC27DF71D06251CF8C2F8F710E94E4
:10172000720955E0D695C7955A95E1F7CF70D0E08C
:10173000DC2FCC27282F30E084FF05C044E0220FA7
:10174000331F4A95E1F7C22BD32BD06937CF8D2FAA
:101750008F710E947209182FCE0199270E94C1092A
:10176000C12FD0E0DC2FCC27CC27DF71C82BD92BA1
:10177000D2CF8095909112029823909312020895EF
:10178000809112029091E901892B9091E8019923AF
:1017900091F0892B90912301992371F09091AF02E0
:1017A00097FF0AC09EE124EB31E040E0915040F405
:1017B00041111092E801089596E02CEA31E0F5CF4E
:1017C000F90151919F01552389F34F5FEFCF80912C
:1017D00006039091CD02981301C008958F5F877022
:1017E000FACFB0E0A0E0E7EFFBE00C943B2A7C01ED
:1017F0000091720210917302809113029091140271
:10180000082B192BCFE0D0E0CC24C394D12CBC2ED4
:10181000C6010C2E02C0880F991F0A94E2F780239C
:101820009123892B49F4219790F7B12C8B2DCDB7BB
:10183000DEB7E9E00C94572AB7018C2F0E94630AA7
:101840000E949B0A019779F3F1CFCF93DF93EC01CC
:101850000E94F10BBE010E94630A0E949B0ADF9165
:10186000CF910895A82FA77023E0969587952A9584
:10187000E1F7880F991F880F991FFB01E80FF91FE7
:1018800050E040E080E0219130E00A2E02C0369521
:1018900027950A94E2F721703327042E01C0220F06
:1018A0000A94EAF7822B4F5F5F4F4430510559F796
:1018B0000895943070F4843098F444E0949F90013B
:1018C000112468ED71E0820F932F911D0E94320C5C
:1018D00008959C5F923020F464ED71E090E0F6CFC3
:1018E00080E00895262F277091E001C0990F2A9576
:1018F000EAF723E0769567952A95E1F7660F771F5B
:10190000660F771FFA01E60FF71F50E040E0682FDF
:1019100070E08191DF0111979B01042E02C0369582
:1019200027950A94E2F72170219528272923282753
:101930002C934F5F5F4F4430510559F70895282F7E
:10194000862F943068F4243050F434E0939FB00133
:101950001124620F711D48ED51E00E94720C089530
:101960009C5F9230E0F7622F70E044ED51E0F5CFDC
:101970009093730280937202089521E030E002C0D8
:10198000220F331F8A95E2F72095309580917202DD
:1019900090917302822393230E94B80C0895909132
:1019A000E701809589238093E701282F277069F448
:1019B000891759F09091B00292FF07C086958695DD
:1019C00086950E94BD0C1092E701089521E030E059
:1019D00002C0220F331F8A95E2F780917202909124
:1019E0007302822B932B0E94B80C089590931402DB
:1019F000809313020895FC0124812223C1F0808189
:101A000091810E94250C92959F70963091F058F428
:101A1000925F9F70923058F4803F19F030F4883E06
:101A200030F481E008959A5FF4CF843FD1F380E0F1
:101A30000895883EB0F3813FD1F7F3CFA6E0B0E040
:101A4000E4E2FDE00C94412A49835A8349815A819A
:101A50009923A1F0222391F0CA010E94F10B182FC3
:101A6000682F89819A810E949F0C69817A81812FD8
:101A70000E94630A2696E3E00C945D2ACA010E9444
:101A8000590C182FF2CFCF93DF93C0911305D0914B
:101A900014058A30C1F420910A03CE01835193408A
:101AA000622F70E00E941E2A281B822F66E00E948F
:101AB000692AC82FC15018F4DF91CF91089580E2B0
:101AC0000E94430DF7CF8D30E9F4C351D3402091EC
:101AD0000A03622F70E0CE010E941E2A281B822F6B
:101AE0009E01280F311D2115324018F080E0D0E012
:101AF000C0E0C80FD11DCD5EDC4FD0931405C0935C
:101B00001305DACF96E0FE01ABE0B3E001900D9251
:101B10009A95E1F7803E08F458C086E0FE011192E4
:101B20008A95E9F7C0911305D091140546E050E07D
:101B3000BE018BE093E00E94542B9E012351334061
:101B4000892B41F1C90145E0969587954A95E1F7C2
:101B500041E050E0BA0102C0660F771F8A95E2F7B4
:101B6000CB016091110370911203862B972BB90161
:101B70006B5F7F4FE5E076956795EA95E1F702C0E8
:101B8000440F551F6A95E2F7842B952B909312030F
:101B9000809311032A5F3F4F40910A03642F70E046
:101BA000C9010E941E2A481B463010F4240F311D23
:101BB000211572E0370710F030E020E02D5E3C4F39
:101BC000309314052093130577CFF6E08F9FB00173
:101BD00011246B527A4F46E050E0CE010E943E2B1A
:101BE000A1CFCF93DF93EC01FE018491811103C05B
:101BF000DF91CF9108950E94430D2196F5CF8091FA
:101C00002301882359F18091AF0287FF27C00E94EA
:101C1000C00B8093B30140E250E06AEE71E082EBCA
:101C200091E00E94542B892BC1F080E2E2EBF1E0BD
:101C3000AAEEB1E001900D928A95E1F7E091AB0236
:101C4000F091AC02309749F086E08093B2010480B5
:101C5000F581E02D82EB91E0099508950E94C00B7B
:101C60008093AA0148E050E06AE072E08AEA91E0DD
:101C70000E94542B892B89F388E0EAEAF1E0AAE07C
:101C8000B2E001900D928A95E1F7E091AB02F091FC
:101C9000AC02309711F30280F381E02D8AEA91E0E3
:101CA000DBCF882321F00E94B90B0E94FF0D08951D
:101CB000882339F090911202982B909312020E947F
:101CC000FF0D08950F931F93CF93DF938B01EA01CC
:101CD0009091C302943061F58093E9008FEF909169
:101CE000E800815095FD06C095ED9A95F1F700004A
:101CF0008111F5CF8091E80085FF1AC00E94460649
:101D0000811111C08091E80085FD06C08091E80036
:101D10008E778093E800F2CFF80181918F01809354
:101D2000F100219779F78091E8008E778093E800A1
:101D3000DF91CF911F910F91089543E050E0BC01D6
:101D400082E00E94620E089546E050E0BC0182E00D
:101D50000E94620E089540E250E0BC0182E00E94C1
:101D6000620E0895CF93DF93EC0148E050E0BC0190
:101D700081E00E94620E88E0FE01A9EBB2E00190D2
:101D80000D928A95E1F7DF91CF91089581E08093DC
:101D9000E00080E28093D8001092C9008FE19EE4B9
:101DA0000197F1F700C0000087E090EBDC01809321
:101DB000150590931605A0931705B093180588E1B3
:101DC0009CE00FB6F894A895809360000FBE9093A6
:101DD0006000FFCF80916A0280FD0AC0EAE3F2E072
:101DE000118210821282339652E0EC34F507C1F76B
:101DF000279A35B13F7725B120684FB7F8948AE329
:101E000092E0FC015191CF0168E025B9000000C0CB
:101E100057FF35B9550F000000C000C000C035B9EC
:101E200000C06A9591F7F2E08C349F0751F74FBFDD
:101E30008FE594E00197F1F700C000000895EF925C
:101E4000FF920F931F93CF93DF938C01CAE3D2E0ED
:101E5000F12CE12CF801948160916C0280916B026D
:101E6000F3E0EF16F104ECF49923E9F09E014091C0
:101E70006D020E94C3082FEFE21AF20A239686E051
:101E8000E816F10439F70E94EA0EF801848190E027
:101E90000196817099278483CDB7DEB7E6E00C9474
:101EA0005A2A992319F39E0140E0E3CFB0E0A0E065
:101EB000ECE5FFE00C94382AEC014C81042F10E093
:101EC0009801D8010E940D2C9B01AC010E94D82BD7
:101ED0004B015C01E0E2F0E0E01BF10BA5E5B0E0B6
:101EE000AC019B010E94D82B6B017C019F01DF019B
:101EF0000E949D2A9B01AC010E94E32B9B01AC0137
:101F0000280D391D4A1D5B1DC701B6010E94EB2B30
:101F1000F22E822F90E039E23F1598F143E0249FA2
:101F20009001112435952795122F10959AE3C92E0B
:101F300092E0D92E00E085E5E82EEF188E2D01FD08
:101F40008F2D9601412F60916C020E94C3080F5F94
:101F500053E0C50ED11C063089F70E94EA0E9C8121
:101F600081E0992319F0903219F48FEF80931B01CF
:101F700080911B01890F8C83CDB7DEB7ECE00C9408
:101F8000542A25E530E0A901481B590BCA019A01E2
:101F9000220F331F280F391F37FFC4CF2F5F3F4F4A
:101FA000C1CF0F931F93CF93DF93CAE3D2E0FE011B
:101FB000118210821282339682E0EC34F807C1F766
:101FC00010E000E080913802082E000C990B0817F1
:101FD00019078CF180911A01082E000C990B8017BB
:101FE00091074CF19E0140916D0260916C028091CD
:101FF0006B020E94C3080F5F1F4F23960630110526
:1020000009F70E94EA0E8091190190913802980F09
:102010009093380220911A01280F20931A0112166A
:1020200014F495301CF0819580931901DF91CF91C4
:102030001F910F910895198218821A82DCCFB0E0A7
:10204000A0E0E5E2F0E10C943B2AFC018281DD2472
:10205000DA9480FD02C0DD24D3940AE312E0D0E0DC
:10206000C0E026E0B22EF80111821082128294E0C4
:10207000E92EF12CC12C809137028C0D8730C4F1F0
:102080006B2D0E94752A892F082E000C990B8C1736
:102090009D0791F480916D028E9DA0018F9D500D42
:1020A00011245595479555954795980160916C0277
:1020B00080916B020E94C308CD0CF1E0EF1AF10889
:1020C000D1F621960D5F1F4FC630D10561F60E94F3
:1020D000EA0E8091370291E0D91210C081110CC034
:1020E00085E080933702CDB7DEB7E9E00C94572A3C
:1020F00087FFCACF8A5FC8CF8150F3CF90E00196A7
:10210000BE010E94832AEDCFEF92FF921F93CF93DF
:10211000DF93EC018AE3E82E82E0F82E10E08C8158
:10212000970140916D0260916C02810F0E94C3087B
:10213000165D83E0E80EF11C1C3F89F70E94EA0E51
:102140009A818C8190FF08C08F5F8C83DF91CF9143
:102150001F91FF90EF9008958150F7CF90916A0200
:1021600090FF0CC0EAE3F2E0818360834283339600
:1021700092E0EC34F907C1F70E94EA0E0895A3E05B
:10218000B0E0E5ECF0E10C94402A8C01809139023A
:1021900081110AC09E012F5F3F4F4FEF6FEF0E94EA
:1021A000C3088A8180933902F8016481613069F043
:1021B0008091390240E0662361F040E0623011F422
:1021C0004091390280E060E004C06091390240E053
:1021D00080E00E94AE10F801848190E0019663E0F7
:1021E00070E00E94832A84832396E4E00C945C2AA6
:1021F000A3E0B0E0EEEFF0E10C94422A90916A0285
:1022000090FF0AC09E012F5F3F4F0E94C3084B8181
:1022100069818A810E94AE102396E2E00C945E2AC6
:10222000CF93DF93EC01EAE6F2E0438162818C8197
:102230000E94F8108C818F5F8C83DF91CF9108957D
:10224000CF93DF93EC01EC81F0E0E858FD4F44912F
:10225000EAE6F2E0628181810E94F8108C818F5F52
:102260008C83DF91CF910895B0E0A0E0EAE3F1E143
:102270000C943C2A6C017B0164E670E088E70E94C4
:1022800038298C01E601EC0CFD1C17FD0BC0FE018A
:10229000849164E670E00E94A4298C012196CE15F9
:1022A000DF0599F70E941A2A81E00115110509F04E
:1022B00080E0CDB7DEB7E8E00C94582A80919A020E
:1022C00090919B02911103C091E089270895882382
:1022D00069F062E070E08AE793E00E9434118111B6
:1022E00003C080919A02089510929A0280919A02F6
:1022F000EBCFCF93C0919A0280919B028823D1F0BB
:102300000E948407605A75418F4F9F4F60939602D9
:10231000709397028093980290939902C11108C01C
:1023200062E070E088E793E00E943411811105C0FB
:10233000C0919A028C2FCF91089581E080939A02E8
:10234000F7CF2F923F925F926F927F928F929F92E0
:10235000AF92BF92CF92DF92EF92FF920F931F93B3
:10236000CF93DF9380919B02882309F4B2C060E091
:1023700080E00E94960860E080E00E9496088CED64
:1023800093E00E94C50561E080E00E9496088CEB16
:1023900093E00E94C50562E080E00E9496088CE907
:1023A00093E00E94C50563E080E00E9496088CE7F8
:1023B00093E00E94C50560E087E00E9496088BE4E8
:1023C00094E00E94F10D61E087E00E94960883E4AA
:1023D00094E00E94F10D2091720230917302832FDC
:1023E0009927009751F19C0188E0A90174E0569566
:1023F00047957A95E1F74115510511F08C5F9A01E7
:10240000A90156954795569547954115510511F0E7
:102410008E5F9A0136952795232B09F08F5F8130C7
:1024200009F469C0882359F0823009F467C0833009
:1024300009F467C080E294E004C080E0D6CF8CE36A
:1024400094E00E94F10D62E087E00E94960887E127
:1024500094E00E94F10D63E087E00E9496080E94DC
:102460003908C82F8EE094E0C0FF02C082E194E0FA
:102470000E94F10D85E094E0C1FF02C089E094E084
:102480000E94F10D8CEF93E0C2FF02C080E094E067
:102490000E94F10D8091110390911203892BA1F5F7
:1024A00080919A028823A9F00E94840700919602E5
:1024B000109197022091980230919902601B710B44
:1024C000820B930B6F3F7F4F8F4F9F4710F40E94FB
:1024D0005E11DF91CF911F910F91FF90EF90DF90F0
:1024E000CF90BF90AF909F908F907F906F905F90B4
:1024F0003F902F90089585E394E0A3CF8EE294E07F
:10250000A0CF87E294E09DCF80919B02882341F287
:10251000809195028111C4CF0E94791120911103FD
:10252000309112032115310509F4BACF80E041E062
:1025300050E0082F10E01A01082E02C0220C331CB4
:102540000A94E2F7B10162237323672B11F48F5FC2
:10255000F0CF9091940290FF95C0880F880F880F5C
:1025600080931E0110922101895F80931F0183E0F7
:102570008093220124E630E047E050E06CE171E016
:1025800088E70E94D229892B09F08ACFA80125E08B
:10259000440F551F2A95E1F78091940280FF84C073
:1025A000E4E7F2E080E2DF011D928A95E9F7A4EA10
:1025B000B1E000EA11E088EAC82E81E0D82E97E069
:1025C000592E772473948D91E80129918E01240F5F
:1025D000352F311D2D5E3C4FE82FF0E0EC58FD4FBC
:1025E00090E080E0652C681A872C082E01C0880CCA
:1025F0000A94EAF77901A12CE701B9907E01B8208D
:10260000662D6A196770962E062E000C770BDB2D4F
:1026100001C0DD0F9A94EAF77195619571096770B1
:10262000772701C0B6946A95EAF7BD2A6081962E95
:102630009B289082A39468E0A612DECF0196319683
:102640008830910579F6CA16DB0609F0BCCF04E69E
:1026500010E020E230E044E752E060E488E70E94C6
:10266000F329892B09F01CCFE101C095D095809109
:10267000110390911203C823D923D0931203C0935E
:1026800011030ECF8295880F807680931E019801EA
:10269000369527953695279520932101815E809365
:1026A0001F012093220166CF4D5E5C4F04E610E0CF
:1026B00020E230E0D2CFB0E0A0E0E1E6F3E10C941C
:1026C000342AFC016280448081E08483E8E7F2E000
:1026D0007490E7EFF2E0E49100916D0206950158E5
:1026E00010E0000F111F012F1127CCE4D2E02AE3E4
:1026F000C22E22E0D22E3AE6832E32E0932EAA2476
:10270000AA94B12C55245A94E719EE2EF12C82E0AC
:10271000861530F080916B02888380916C028983EA
:10272000411016C01B821A8296014A8169818881F4
:102730000E94C308259683E0C80ED11C8C169D0606
:1027400031F70E94EA0ECDB7DEB7E0E10C94502AD3
:102750008B818823E9F081508B83859DC0011124F2
:102760006C8170E00E941E2AFB01FF27E858FD4F94
:102770008491E82FE719E59DC0011124B7010E945B
:102780001E2A80916D02689FB00111247A83CCCFFC
:102790000E942E2BB5010E94832A8017910724F6F0
:1027A00082E0861588F40E942E2BB5010E94832AB0
:1027B00088830E942E2B20916C022695622F70E058
:1027C0000E94832A280F29831A8280916D02893CF6
:1027D00020F088EC8C838B83A7CF8431D8F784E1F9
:1027E000F9CFB0E0A0E0E7EFF3E10C94382A49011B
:1027F0005A016B017C010E94B4088401A4016A2D76
:102800007B2D88E090E00E94972B94014A2D5B2D50
:10281000B601C70100E20E94C72A622F84E290E05D
:102820000E94852BCDB7DEB7ECE00C94542AA3E0D0
:10283000B0E0EDE1F4E10C94352AF82E762EE42E8A
:10284000622E90916A0290FF2FC0E92FE695E695DF
:10285000AE2FB0E0AB58BE4F8C91809335029C7F79
:10286000943031F59E012F5F3F4F8F2D0E94C3089A
:102870004B8169818A810E94AE10F0926B02709246
:102880006C02E0926D02662079F020916A026091FC
:102890006E0270916F023F2D472D5E2D8091700268
:1028A000909171020E94F1132396EFE00C94512A4B
:1028B000823019F4E0906D02E0CF863019F4F09088
:1028C0006B02DBCF8930D9F38931B9F6E9518E2F0C
:1028D0008170582EE695F0E0ED58FD4FE4910E2FF3
:1028E00010E08AE3C82E82E0D82EB12CA12C96E00D
:1028F000892E912CC501B4010E941E2A8F2D5110E2
:1029000013C0860F96014E2D672D0E94C308A00E9E
:10291000B11E83E0C80ED11C8CE4C81682E0D80634
:1029200049F70E94EA0EA9CF861BECCFEAE6F2E057
:10293000438121E1421B08F440E021E06281818172
:102940000E9417140895EAE6F2E0438121E1420F64
:1029500008F44FEF21E0628181810E9417140895ED
:10296000EAE6F2E0628121E1621B08F460E021E026
:10297000438181810E9417140895EAE6F2E06281A2
:1029800021E1620F08F46FEF21E0438181810E9411
:1029900017140895EAE6F2E0818121E04381628123
:1029A0008A500E9417140895EAE6F2E0818121E03E
:1029B00043816281865F0E941714089580916E02A0
:1029C000882319F0815080936E0220916A02309121
:1029D0006B0240916C0250916D0260916E02709199
:1029E0006F0280917002909171020E94F11308951C
:1029F00080916E02833018F48F5F80936E02209175
:102A00006A0230916B0240916C0250916D026091AC
:102A10006E0270916F0280917002909171020E941B
:102A2000F1130895EAE6F2E089E3808311828FEFE3
:102A3000828383831482758129E330E04FEF5FEF57
:102A400060E0868197810E94F11308959091B00211
:102A500092FB222720F9281779F080FB92F99093B6
:102A6000B0026091AF027091B00284E090E00E94E9
:102A7000A32B82E00E94CF0C0895A8E0B0E0E3E42D
:102A8000F5E10C94422A66EE7EEF90E080E00E9431
:102A9000A32B60E082E090E00E94852B81E090E033
:102AA000909314028093130261E083E090E00E940F
:102AB000852B60E074E184E090E00E94A32B60E04D
:102AC00086E090E00E94852B6FEF87E090E00E9407
:102AD000852B40E050E0BA0188E090E00E94972BFF
:102AE00060E084E290E00E94852B60E087E190E066
:102AF0000E94852B60E08CE090E00E94852B60E0D6
:102B00008DE090E00E94852B19821A821B821C8224
:102B10001D821E821F82188648E050E068E170E046
:102B2000CE0101960E94752B40E050E0BA0180E290
:102B300090E00E94972B40E050E0BA018FE090E0D7
:102B40000E94972B40E050E0BA0183E190E00E94A0
:102B5000972B2896E2E00C945E2A1F920F920FB6F4
:102B60000F9211242F933F934F935F936F937F9313
:102B70008F939F93AF93BF93EF93FF938091E10067
:102B800082FF09C08091E20082FF05C08091E100D0
:102B90008B7F8093E1008091DA0080FF24C08091D8
:102BA000D80080FF20C08091DA008E7F8093DA0009
:102BB0008091D90080FF9DC080E189BD82E189BDFF
:102BC00009B400FEFDCF81E08093C3028091B6027C
:102BD000811109C00E9427060E94C8068091E20068
:102BE00084608093E2008091E10080FF17C08091B3
:102BF000E20080FF13C08091E2008E7F8093E200AC
:102C00008091E20080618093E2008091D800806230
:102C10008093D80019BC85E08093C3028091E100C5
:102C200084FF2BC08091E20084FF27C080E189BD32
:102C300082E189BD89B5982F917080FFFBCF80918B
:102C4000D8008F7D8093D8008091E1008F7E8093A3
:102C5000E1008091E2008F7E8093E2008091E200AB
:102C600081608093E2008091C402882309F447C008
:102C700084E08093C3028091C3028091E10083FFCE
:102C800027C08091E20083FF23C08091E100877F0D
:102C90008093E10082E08093C3021092C40280918D
:102CA000E1008E7F8093E1008091E2008E7F80932F
:102CB000E2008091E20080618093E20042E060E007
:102CC00080E00E9496068091F00088608093F0007A
:102CD000FF91EF91BF91AF919F918F917F916F91F4
:102CE0005F914F913F912F910F900FBE0F901F90CA
:102CF000189519BC1092C3021092B60274CF80913D
:102D0000E30087FD93E09093C302B5CF78941F92C0
:102D10001FB61F9211248F939F93AF93BF938091FF
:102D2000B2029091B302A091B402B091B5020196A3
:102D3000A11DB11D8093B2029093B302A093B4027F
:102D4000B093B502BF91AF919F918F911F901FBE1D
:102D50001F9018959C014FB7F8948091B202909102
:102D6000B302A091B402B091B5024FBF821B930B86
:102D700008952FB7F8948091B2029091B302A09178
:102D8000B402B091B5022FBF08950E94B9169C01FC
:102D90009091A5028091A602982B21F03093A20277
:102DA0002093A1029091A7028091A802982B21F074
:102DB0003093A00220939F02E091AB02F091AC020D
:102DC000309749F082E08093A3020680F781E02DDE
:102DD00083EA92E0099508951092120280912301EE
:102DE000882339F18091AF0287FF23C0E4EBF1E043
:102DF0008EE1DF011D928A95E9F790E080E00E9464
:102E0000140890E080E00E94EF071092E9010E9410
:102E1000FF0D86E0E3EAF2E0DF011D928A95E9F713
:102E200010929C0210929D0210929E020E94C51662
:102E30000895ECEAF1E086E0DCCFAAE2B0E0E3E25C
:102E4000F7E10C94412A85EC92E02091F100FC011D
:102E50002193CF01F2E08D3C9F07B9F78091C60224
:102E6000833009F470C0B8F4813009F447C082306F
:102E700009F4B1C08091E80083FF7EC28091C50251
:102E80009091C6029A3008F077C2E92FF0E0E25E36
:102E9000F34D0C94972A8A3009F48CC08B3009F4D6
:102EA0006FC0893039F78091C502813219F780915E
:102EB000C9029091CA020297E8F68091E800877FE4
:102EC0008093E8008091E80082FF38C09091F30081
:102ED0008091F200029731F48091F100813011F07D
:102EE000863021F48091F1008093B8028091E8004F
:102EF0008B778093E8000E947706BCCF8091C50253
:102F0000813A09F0B7CF8091E800877F8093E8008D
:102F10008091C9029091CA02892B61F468E089EB23
:102F200092E070E00E9423078091E8008B77809305
:102F3000E800A0CF60E090E080E0F3CF8091C30292
:102F40008111C0CF97CF8091C502813A09F092CF0D
:102F50008091C9029091CA02892B09F08BCF809190
:102F6000E800877F8093E8008091E80080FFFCCF35
:102F7000809123018093F1008091E8008E77B9CF92
:102F80008091C502813209F075CF8091C90290917C
:102F9000CA02892B09F06ECF8091E800877F809369
:102FA000E8000E9477068091C702809323010E9467
:102FB000EC1660CF8091C502813209F05BCF809121
:102FC000E800877F8093E8000E9477068091C8021E
:102FD0008093B7024FCF8091C502813A09F04ACF62
:102FE0008091E800877F8093E8008091E80080FF6F
:102FF000FCCF8091B702BECF803899F0823809F0BB
:10300000BBC18091C9028F70873008F0B5C1809331
:10301000E9008091EB0085FB882780F91092E90098
:1030200006C08091C1029091C2029111826090917C
:10303000E800977F9093E8008093F1001092F100F0
:103040008091E8008E7794C1882309F482C1823090
:1030500009F092C18091C702811185C18091C90296
:103060008F702FEF280F263008F086C18093E9007B
:103070002091EB0020FF77C1933031F48091EB0079
:1030800080628093EB006FC19091EB009061909310
:10309000EB0021E030E001C0220F8A95EAF720938F
:1030A000EA001092EA008091EB008860EACF81117B
:1030B00063C11091C7021F778091E3008078812B54
:1030C0008093E3008091E800877F8093E8000E946E
:1030D00077068091E80080FFFCCF8091E300806854
:1030E0008093E30082E0111183E08093C30244C126
:1030F0008058823008F040C18091C7029091C80288
:103100008C3D23E09207A1F583E08A838AE28983DC
:103110004FB7F894DE01139620E03EE051E2E32F32
:10312000F0E050935700E49120FF03C0E295EF7068
:103130003F5FEF708E2F90E0EA30C0F0C7968D931E
:103140009D932F5F243159F74FBF8091E800877F0F
:103150008093E8006AE270E0CE0101960E942307A6
:103160008091E8008B778093E80006C1C096E7CF96
:103170004091C9025091CA02292F332723303105CB
:1031800009F444C078F52130310509F46FC08BE3B0
:1031900090E0E4E5F5E02230310509F0EDC0209142
:1031A000E800277F2093E8002091CB023091CC02E9
:1031B0008217930708F49C0140E02115310509F0BE
:1031C00064C0411162C08091E80082FDC9CF809146
:1031D000C302882329F2853019F28091E80083FF29
:1031E000F2CFBECF21323105A9F12232310509F0EB
:1031F000C3C04115510509F443C04130510509F0E0
:10320000BBC086EB90E0EAE5F4E0C9CF99278130B6
:103210009105C1F0009759F0029709F0ADC0E1EABD
:10322000F5E0E4918E2F90E0E1EAF5E007C0E1EDF2
:10323000F5E0E4918E2F90E0E1EDF5E0009709F4E0
:103240009BC0ADCFE1EBF5E0E4918E2F90E0E1EB98
:10325000F5E0F4CF4115510571F04130510509F009
:103260008BC089E090E0EFE7F5E099CF82E190E054
:10327000EFE8F5E094CF89E090E0E6E6F5E08FCF67
:1032800084E490E0E0E1F5E08ACF8091C3028823F6
:1032900009F466CF853009F463CF8091E80083FD9F
:1032A0005FCF8091E80082FD8ECF8091E80080FFA3
:1032B00084CF9091F3008091F2002115310519F02F
:1032C0008830910550F041E0089709F040E0809186
:1032D000E8008E778093E80070CF44914093F1002E
:1032E0003196215031090196E8CF803809F044C069
:1032F0008091E800877F8093E8008091C4028093EA
:10330000F1009ECE811138C01091C7021230A0F595
:103310008091E800877F8093E8001093C4020E94A8
:103320007706112311F084E005C08091E30087FD4A
:10333000FACF81E08093C30242E061EC81E00E9419
:10334000960642E261EC82E00E9496068091C302FA
:1033500013C08091C702813079F481E0933009F085
:1033600080E08093C2021092E9008091E800877F9C
:103370008093E8000E9477068091E80083FF0AC0EE
:103380008091E800877F8093E8008091EB00806265
:103390008093EB00AA96E3E00C945D2A1F920F92B3
:1033A0000FB60F9211242F933F934F935F936F9318
:1033B0007F938F939F93AF93BF93CF93DF93EF93BD
:1033C000FF93D091E900DF708091EC00C82FC170AD
:1033D00080FDC0E81092E9008091F000877F809323
:1033E000F00078940E941D171092E9008091F0007F
:1033F00088608093F000CD2BCF70C093E900FF91DF
:10340000EF91DF91CF91BF91AF919F918F917F917C
:103410006F915F914F913F912F910F900FBE0F9041
:103420001F9018950E94EC162FEF84E39CE021502A
:1034300080409040E1F700C0000088E19CE00FB6BA
:10344000F894A895809360000FBE90936000FFCF22
:103450004091A5029091A7022091A802662309F449
:1034600069C0942B922B2091A602922B31F098E008
:1034700090939C0291E090939D028D3C41F40E94B8
:10348000680881958093A6020E94C51608958E3C17
:1034900019F40E946808F6CF8F3C31F40E94680846
:1034A00081958093A502F0CF803D19F40E946808B1
:1034B000F8CF893D29F40E9446088093A702E4CF03
:1034C0008A3D21F40E9446088195F7CF8B3D31F467
:1034D0000E94460881958093A802D6CF8C3D19F4AE
:1034E0000E944608F8CF9FE2980F983070F4815DF3
:1034F000990B21E030E001C0220F8A95EAF7809114
:10350000A402822B8093A402BFCF8D3D31F4809121
:103510009E02816080939E02B7CF8E3D21F4809100
:103520009E028260F7CF8F3D09F0AECF80919E0260
:103530008460F0CF8D3C59F48091A60287FF0DC0C6
:103540001092A60241110BC010929C0208C08E3C42
:1035500081F48091A60218169CF3442381F0809197
:10356000A7029091A802892B09F08ECF10929D029C
:103570008BCF8F3C49F447FFF0CF1092A50280918A
:10358000A6028111ECCFE0CF803D19F41416ACF304
:10359000E4CF893D29F4191604F71092A702DDCF74
:1035A0008A3D19F497FFD9CFF8CF8B3D29F427FF37
:1035B000D4CF1092A802D1CF8C3D19F41216CCF3BF
:1035C000CCCF9FE2980F983090F4815D990B21E069
:1035D00030E0B90102C0660F771F8A95E2F7CB0190
:1035E00080959091A40289238093A402B6CF8D3D4B
:1035F00031F480919E028E7F80939E02AECF8E3DED
:1036000021F480919E028D7FF7CF8F3D09F0A5CFE9
:1036100080919E028B7FF0CF882381F19CEF980FE1
:10362000913A28F40E9490070E94FF0D089590E2BD
:10363000980F983050F4877091E001C0990F8A95E7
:10364000EAF7892F0E94B90BEFCF9BE5980F9330D3
:1036500028F490E080E00E941408089598E5980FFF
:103660009B3128F490E080E00E94EF07089593E3F7
:10367000980F933118F460E00E94281A0895CF93B0
:10368000C82F8823B1F18CEF8C0F813AA0F580917F
:103690002301882301F18091AF0287FF1CC0EC2F2A
:1036A000E695E695E695F0E0EE54FE4F828190E0D7
:1036B0004C2F477021E030E002C0220F331F4A95A3
:1036C000E2F782239323892B79F08C2F0E949007B5
:1036D0000E94FF0D09C0ECEAF1E08191C817A9F33F
:1036E00081E0E23BF807C9F78C2F0E94BB070E94DC
:1036F000FF0DCF91089580E28C0F883068F4C77079
:1037000021E030E001C0220FCA95EAF78091120251
:10371000822B80931202EBCFEBE5EC0FE33040F409
:10372000F0E0EC5DFE4F808190E00E941408E1CF54
:10373000E8E5EC0FEB3150F4F0E0EE0FFF1FE95D30
:10374000FE4F808191810E94EF07D3CF83E38C0FDE
:10375000833178F661E08C2F0E94281ACACF0F932C
:103760001F93CF93DF93C62FD42F022FFC018581A7
:103770008823A9F0609309030E94B9169093080367
:1037800080930703C77081E001C0880FCA95EAF7EC
:103790000E94580EDF91CF911F910F910895809153
:1037A0000903681335C080910703909108030E94B4
:1037B000AA16883C910560F510E21D0FCD17B9F0EF
:1037C00080E28C0F883040F4C77081E001C0880F20
:1037D000CA95EAF70E94510E183048F481E09D2FF7
:1037E000977001C0880F9A95EAF70E94580E802FB3
:1037F0000E943F1B802F0E940C1B183058F6D77078
:1038000081E001C0880FDA95EAF70E94510EC2CF1D
:10381000C77081E001C0880FCA95EAF7F6CF6091C2
:103820006A026695669570E04BE050E08EE091E0AC
:103830000E94472B892B19F481E0809336020E9465
:10384000B9169093300280932F02089590916A02E6
:1038500090FF35C09370811133C0946090936A02D9
:10386000662391F020916A0230916B0240916C02C4
:1038700050916D0260916E0270916F0280917002A2
:10388000909171020E94F11360916A0266956695AB
:1038900070E04BE050E08EE091E00E94472B892BD6
:1038A000B9F01092360281E08093320220E040911C
:1038B0006D0260916C0280916B020E941714089552
:1038C0008B3210F0986ACACF880F880F982BC6CF1A
:1038D0000E940F1CE8CF80916A02869586958150E0
:1038E00009F48AE261E00E94261C089580916A0230
:1038F000869586958F5F8B3208F081E061E00E94AB
:10390000261C089590916A0290FF09C0969596959D
:10391000981728F0961718F40E94761C089561E015
:103920000E94261C0895B0E0A0E0E9E9FCE10C94B7
:103930003A2A8C01FC018481882341F121E04081F5
:1039400051816281738195810E941E0DEC01FC0101
:10395000E851FC47E730F105A8F5E85DF34D0C941C
:10396000972A26E241EE61EEC8010E94AF1B8091CA
:10397000E701877059F0F8018581882339F080913B
:10398000B00282FF03C082E00E94CF0CCDB7DEB749
:10399000EAE00C94562A27E245EE65EEE5CF26E2F2
:1039A00041EE60EEE1CF27E245EE64EEDDCF26E2A8
:1039B00041EE62EED9CF27E245EE66EED5CF28E2A2
:1039C00041E0EBCFF8018581882309F4F2C310921E
:1039D0000903CE019057839708F0D7C384E090E0A5
:1039E0000E946F2B9093B0028093AF02FE01E150D2
:1039F000F047E232F10520F4E15DF34D0C94972A93
:103A00008091AF0281608093AF0295C08091B00237
:103A100088608093B0028FC08091AF028260F3CF44
:103A20008091AF028460EFCF8091AF028860EBCFCE
:103A30008091B0028160EDCF8091B0028260E9CFC9
:103A40008091AF028061DFCF8091AF028062DBCFD7
:103A50008091AF028064D7CF0E94EC168091AF02B4
:103A60008068D1CF8091AF028C60CDCF8091B002C1
:103A70008360CFCF8091AF028E7FC5CF8091B0029F
:103A8000877FC7CF8091AF028D7FBDCF8091AF027E
:103A90008B7FB9CF8091AF02877FB5CF8091B00285
:103AA0008E7FB7CF8091B0028D7FB3CF8091AF0270
:103AB0008F7EA9CF8091AF028F7DA5CF8091AF027D
:103AC0008F7BA1CF0E94EC168091AF028F779BCFA6
:103AD0008091AF02837F97CF8091B0028C7F99CF86
:103AE0008091AF0282FB992790F921E0922790FB09
:103AF00082F990FB83F987CF8091B002982F90953F
:103B000091708E7F892B90FB81F983CF9091AF02CA
:103B1000892F8F7B96FF806476CF0E94EC16909160
:103B2000AF02892F97FB87F980586DCF61E08EE057
:103B300090E00E94852B6091AF027091B00284E00A
:103B400090E00E94A32B0E94EC1611CF60E0EFCF13
:103B50009091AF02892F8F7E94FF806154CF909116
:103B6000AF02892F8E7F90FF81604DCF9091B00280
:103B7000892F877F93FF88604CCF85E315C385E34A
:103B800021C380916A0280FF19C0282F2E7F2093C5
:103B90006A0230916B0240916C0250916D0260910B
:103BA0006E0270916F0280917002909171020E947A
:103BB000F113109236020E94EA0ED9CE81608093F2
:103BC0006A0261E0869586950E94261CD0CE4BE65F
:103BD0005CE166E77CE10E94AD08C9CE46E75CE1A6
:103BE0006BE67CE1F8CF4AEC54E164ED74E1F3CF8D
:103BF00044ED54E16AEC74E1EECF40EB54E16DEB3F
:103C000074E1E9CF4DEB54E160EB74E1E4CF46E9B8
:103C100054E163EA74E1DFCF43EA54E166E974E119
:103C2000DACF4EED54E168EF74E1D5CF48EF54E1BF
:103C30006EED74E1D0CF61E081E0C6CF65E082E057
:103C40000E94821C94CE68E086E0FACF6EE089E0A4
:103C5000F7CF64E18FE0F4CF67E185E1F1CF61E078
:103C600088E1B2CF62E289E1EBCF61E083E2ACCFE1
:103C70006AE285E2E5CF0E94EC16FFEF24E33CE028
:103C8000F15020403040E1F700C000000E94C60E15
:103C90006FEF7FEF90E080E00E94A32B0E94121A4A
:103CA0008091B00282FB882780F991E089270E94E9
:103CB0002615F8018581C081D181882309F44DC082
:103CC000CE010E94F10BF82E682FCE010E949F0CAE
:103CD000BE018F2D0E94630A0E949B0AD82FC92F14
:103CE000A82EF801C580B680B2943FE0B32280913F
:103CF000E701877009F1EC2CCC20F9F0892F807F47
:103D0000803469F080E28D0F8830B0F0892F807E9A
:103D1000803229F4F1E0FD1778F4BB2069F080913E
:103D2000B00282FF09C082E00E94CF0C8091E701BF
:103D30008770EE24E3948111E12CDC2ED2942FE0E5
:103D4000D2222BE02D1508F46DC0ED2DF0E0EF5AD6
:103D5000F34D0C94972A80E0AACFCE010E94590C13
:103D6000F82EB6CF3C2F3F70F32EC07F19F0F2949F
:103D700090EFF922CC20B9F0FF2069F080E28D0F9E
:103D8000883010F0A11009C080911202F82AF09238
:103D900012020E94FF0D8D2F43C08091E901F82A85
:103DA000F092E901F6CF8D2F0E940C1BFF20D1F17C
:103DB000D05ED83010F0A11004C08F2D0E94B90B36
:103DC00006C0F0948091E901F822F092E9010E9486
:103DD000FF0D28C08C2F8F70F82EC07FC03219F0D5
:103DE000F29480EFF822AA2059F091E0A91609F484
:103DF00079C0CC2009F485C0BB2009F447C0CBCFE3
:103E00008091B00282FD3EC0CC20B1F1FF2039F09C
:103E100080911202F82AF09212020E94FF0D80E0B7
:103E20000E943F1B2D2D2850330B2430310510F4F8
:103E30000E943908EE20A9F08091E70180FD11C0B1
:103E4000F80115828695869586950E94E60CC80134
:103E50000E94931C8091E7018695869586950E9425
:103E6000BD0C20E0F8014081518162817381848121
:103E700095810E941E0D8ACD80E00E940C1BFF20C0
:103E800089F29BCFCC20A1F0B11004C08F2D0E94ED
:103E9000580EC8CFE1E0BE12C5CF8091E8019F2D3A
:103EA0009823F91609F4BECFF82AF092E801BACFA8
:103EB000B110B8CF8F2D0E94510E9091E8018F2D37
:103EC000892329F08F2D809589238093E8018091A3
:103ED000D3019F2D982309F4A5CFF094F822F092F6
:103EE000D301A0CFCC2029F0F5E0FB1508F49ACF40
:103EF000CDCF24E02B1508F495CF8F2D0E94510EC5
:103F000091CFBB20D1F339E3A31209C08FEF97EE15
:103F1000E3E081509040E040E1F700C000008D2FC9
:103F20000E940C1B7FCF8C2F86958695837069F03D
:103F3000813009F077CF8D2F9C2F9370C11002C074
:103F400080E090E00E94EF076DCF8D2F9C2F937043
:103F5000C11002C080E090E00E94140863CF6C2D75
:103F60008D2F0E94281A5ECF8C2F837009F03FC0DE
:103F7000C11058CF4D2F429546954770440F440FBE
:103F80002D2F2F7030E0042E02C0220F331F0A9411
:103F9000E2F790E080E0D4FF09C08FE090E002C03B
:103FA000880F991F4A95E2F780959095C695C6951A
:103FB000C370C23099F078F440911302509114020A
:103FC000C13039F0822B932B842395230E94F60C69
:103FD00029CF242B352B822B932BF8CF822B932B9D
:103FE000209113023091140282279327EFCF8695F8
:103FF000CC2011F08C2F8170882309F413CF4D2F22
:10400000429546954770440F440F2D2F2F7030E096
:10401000042E02C0220F331F0A94E2F790E080E0E2
:10402000D4FF09C08FE090E002C0880F991F4A9525
:10403000E2F780959095C695C695C370C23099F009
:1040400078F44091720250917302C13039F0822BA2
:10405000932B842395230E94B80CE4CE242B352B7C
:10406000822B932BF8CF822B932B209172023091CD
:10407000730282279327EFCFCF70CC2029F08C2FAB
:104080000E94E60C8D2F03CF8D2F0E94510E8C2F96
:104090000E94BD0CC7CE8D2FF2EFAF1699F1FA1525
:1040A00070F020EFA216D1F031EFA31691F0CC20E2
:1040B00009F45BC0B1106FCE8C2F8F7127C093EFC6
:1040C000A91639F1E4EFAE12F2CF8091B00282FD71
:1040D0002EC08C2F8F71CC20D9F218C0CC2069F063
:1040E000F4E0FB1508F49ECECF7181E090E002C0B1
:1040F000880F991FCA95E2F7B8CF25E02B1508F471
:1041000091CEF2CF8C2F8F71C110C2CF0E94E60CDE
:1041100089CE90E080E0CC2009F49DCFCF7181E082
:1041200090E002C0880F991FCA95E2F794CFCC2087
:1041300089F0CF718C2F0E94E60C8091B00282FF33
:1041400007C038E0C39FC001112483608093E7015A
:104150008C2FDCCF81E00E94CF0C81E08B1508F022
:1041600061CE82E00E94CF0C5DCEBB2059F0893336
:1041700009F0D5CE9FEFE7EEF3E09150E040F0403C
:10418000E1F7CBCE8C2F8F7183CFC631FCE7DF07F1
:10419000E1F4809112028A7A91E009F490E0909320
:1041A000D2018111EACC89E20E94BB070E94FF0D77
:1041B000DECBC6312CE7D20741F58091D2018111C7
:1041C000DECC89E20E949007F1CFC3303CE7D307F1
:1041D00009F45ECD50F4C1159CE7D90709F44BCD25
:1041E000C130DC4709F45ACD64CDCB35FCE7DF079D
:1041F00009F4B1CDCC352CE7D20709F451CDCA353D
:10420000DC4709F056CD81E052CD809112028272D6
:10421000FE01E052F847E531F10508F04ACDE35AD6
:10422000F34D0C94972ACF93DF938091E601807F22
:1042300009F04DC08091E501882309F448C0E09160
:1042400006035091CD02C091E101D091E00160914F
:10425000E2017091E30147E05E17C9F18E2F90E013
:10426000E49FF0011124E253FD4F2481222391F1B8
:10427000489FF001499FF00D1124DF01A253BD4F6B
:1042800011962C9111972C1325C02C912D1322C01F
:1042900015962C91159721111DC012962D913C91C8
:1042A000261B370B283C3105A8F48091E6018F705E
:1042B00080618093E601EC52FD4F80818F708061B8
:1042C000808380EE91E00E94931C0E94E70BDF91B7
:1042D000CF910895FC013196E770BECFA4E1B0E024
:1042E000E4E7F1E20C94382A8C0186E0F801DE0163
:1042F0001F9601900D928A95E1F7F8018481E5807F
:1043000090EEA92E91E0B92E9091E401911128C070
:10431000882319F1EE20F1F0C8010E94FB0CF82E61
:104320008823C1F087E0F801D50101900D928A95AC
:10433000E1F78091E401813031F48091E0019091C6
:10434000E1010E94250C0E9413218F2D6496ECE060
:104350000C94542AC8010E94931CFF24F394F5CFB7
:10436000D080C18082809380F090E5012091E201AD
:104370003091E301A401421B530BFF2009F4D9C083
:10438000483C510508F092C08823F9F29091E10170
:104390008091E601282F207F09F056C0C91214C071
:1043A0009091E001D91210C0E11048C08F70806177
:1043B0008093E60180EE91E00E94931C8091E601DB
:1043C000F8018683F12CC1CFE11038C06C2D8D2D02
:1043D0000E9408066C2D8D2D0E940806E82E811182
:1043E000F1CFDF86C88A8F8598890E94250C292FF6
:1043F00022952F70243058F49F70223088F0992332
:1044000099F0F8019681907F79F4FE2C9ECF2A5F77
:104410002F70223068F0C8010E94931CEF2CF5CF5A
:10442000992311F0882389F3805E883070F3F3CFED
:10443000803F58F3815F833070F7E7CF8091E601CA
:1044400081608093E601BECFC91207C09091E00160
:10445000D91203C0EE2009F48DC0C8010E94FB0CE4
:10446000882309F477CFEE2009F474CF8091E60118
:10447000803288F02091E0013091E101398728876E
:104480009B868A869091E4019C871D868E87CE014B
:1044900008960E94931C87E0F801A0EEB1E001901D
:1044A0000D928A95E1F70E94132157CF9091E60172
:1044B000292F207F51F480EE91E00E94931C87E029
:1044C000F50111928A95E9F77DCF882309F43DCF54
:1044D0008091E1018C1110C08091E001D8120CC0D4
:1044E000E1100AC09683C8010E94931C87E0F50181
:1044F00011928A95E9F729CFC8010E94FB0C882305
:1045000009F428CFEE2009F425CF8091E60180320E
:1045100010F22091E0013091E1013A8329839C82DD
:104520008B829091E4019D831E828F83CE01019640
:10453000B0CF483C5105D0F6882309F40ECFFE2CAD
:10454000EE2009F407CF8091E1018C1120C0809109
:10455000E001D8121CC08091E60180FD0FC0982FA9
:10456000907F61F08683903F31F0982F907F905F2D
:104570008F70892B8683C8010E94931C87E0F80105
:10458000A0EEB1E001900D928A95E1F7DECEC80170
:104590000E94FB0C81117FCF8091E60181608093A6
:1045A000E601C8010E94931CD0CEABE1B0E0EBED78
:1045B000F2E20C94402A4E8B5F8B688F798F8A8F42
:1045C0009B8F192F91111092E9011D8A86E0FE013F
:1045D0007696DE011F9601900D928A95E1F70A8D7D
:1045E000002341F021E04F85588969897A89C80103
:1045F0000E941E0D0B8B1C8B87E0FE013F96DE0197
:10460000189601900D928A95E1F7CE0108960E94C6
:104610006E2181110CC087E0FE013896DE011196F3
:1046200001900D928A95E1F78C8581110BC017E0FE
:10463000809106039091CD02891331C06B96E4E01E
:104640000C945C2A2091CD0230E0C901019687705C
:104650009927409106034817190699F097E0929F11
:10466000D001939FB00D1124A253BD4FFE0131968E
:1046700001900D929A95E1F78093CD020E94E70B8D
:10468000D6CF0E94EC161092CD021092060387E05E
:10469000E0EEF1E0DF011D928A95E9F7C8CF819F36
:1046A000C001112482539D4F0E946E21882331F254
:1046B0008091060390E00196877099278093060306
:1046C000B7CFA4E0B0E0E7E6F3E20C94392A198210
:1046D0001A821B821C820DE511E081E6E82E81E042
:1046E000F82E99249394CC24C394D12C25E6A22EA1
:1046F00021E0B22ED8018D918D018F3F09F444C085
:10470000F894E82FE295EF70F0E021A18F70A601F8
:1047100002C0440F551F8A95E2F7CA01922F982BC9
:1047200091A392A18095892382A3789400C061E629
:1047300071E0FE013196492D4095DB019D91BD014F
:1047400080819F3F09F44BC0292F22952F7030E0C4
:10475000D90190962C9130E09F7002C03595279535
:104760009A95E2F720FD3BC0892980833196A616F1
:10477000B70619F7F801319780818F3F11F00E9439
:104780005B09B0EABA95F1F7990CE016F10609F069
:10479000B1CF44E050E0BE016F5F7F4F8AE192E00D
:1047A0000E94542B892BF9F089819A81AB81BC81BD
:1047B00080931A0290931B02A0931C02B0931D02D7
:1047C00081E0809319020E94B91690931802809399
:1047D000170210E0812F2496EBE00C94552A8423D5
:1047E000C4CF10E026C010911902112391F38091DB
:1047F0001702909118020E94AA16059750F344E000
:1048000050E06AE172E081E292E00E94542B892B31
:1048100041F380911A0290911B02A0911C02B09169
:104820001D028093210290932202A0932302B09351
:10483000240210921902CECFA6E0B0E0E2E2F4E248
:104840000C94402A0E94B9168C0180911502909117
:1048500016028017910781F019821A820E94B916F8
:10486000682F49815A81792F80E090E00E94D522FB
:1048700010931602009315022696E4E00C945C2A2D
:104880001F921FB61F9211248F939F93AF93BF93D4
:104890008091B102811113C08091B2029091B30254
:1048A000A091B402B091B5024196A11DB11D8093B3
:1048B000B2029093B302A093B402B093B502BF9139
:1048C000AF919F918F911F901FBE1F901895CDB7EC
:1048D000DEB7A5970FB6F894DEBF0FBECDBF85B784
:1048E000806885BF85B7806885BF84B7877F84BFB0
:1048F0000FB6F894A895809160008861809360005D
:10490000109260000FBE80E890E00FB6F89480939C
:104910006100909361000FBE89E599E09093A90131
:104920008093A8010E9427060E94C8068091E20099
:1049300084608093E20078948091C3028823A1F080
:104940001091E9001F709091EC00892F817090FD0B
:1049500080E8182B1092E9008091E80083FD0E9406
:104960001D171F701093E90082E084BD93E095BD90
:104970009AEF97BD80936E0081E080932C02269879
:104980002E9A25982D9A8FE891E00197F1F700C0B3
:10499000000020912C024DE252E0FA018E2F841B80
:1049A000821708F456C080EF0E945B0985EF0E94D1
:1049B0005B0984EF0E945B0986EF0E945B0987EF29
:1049C0000E945B0981EF0E945B0986E90E945B09F6
:1049D00087E90E945B0984E0E1E2F2E0DF01282F31
:1049E0001D922A95E9F7EAE1F2E0DF011D928A952E
:1049F000E9F790E080E00E946F2B863E9E4F11F019
:104A00000E943D1582E090E00E94612B8093250278
:104A100084E090E00E946F2B9093B0028093AF02ED
:104A20000E946123EFEFF6E721E0E150F0402040E3
:104A3000E1F700C000000E9461238091210280FF05
:104A400014C06FEF7FEF90E080E00E94A32B0E94E4
:104A5000C60E83B186FB882780F91D9904C090E0BB
:104A6000892B81939BCF92E0FBCF83E090E00E9463
:104A7000612B90E00E94F60C1092940280E88093E3
:104A80000A030E9432296BE070E083E591E00E9406
:104A900034118823E9F18091940265E070E081FD92
:104AA00034C18EE491E00E943411882389F16DE0D5
:104AB00070E08CE391E00E943411882349F10E9458
:104AC0008407605A75418F4F9F4F60939602709391
:104AD00097028093980290939902E3E1F3E080E0DB
:104AE00092E0DF019C011D9221503040E1F7F093EC
:104AF0001405E09313058FEF9FEF909312038093BB
:104B0000110381E080939B0280939A021092950298
:104B100080911E02811177C090E080E00E946F2B8F
:104B2000863E9E4F21F00E943D150E94121588E09E
:104B300090E00E94692B4B015C0184E290E00E94AE
:104B4000612B282F30E040E050E060E070E080E032
:104B500090E000E20E94AC2A282939294A295B29E1
:104B600020936A0230936B0240936C0250936D0263
:104B700060936E0270936F02809370029093710243
:104B80002C7F89F50E94121588E090E00E94692B25
:104B90006B017C0184E290E00E94612B282F30E0C1
:104BA00040E050E060E070E080E090E00E94AC2ADD
:104BB000B22FA32FF42FE52F5B0197018601BC29AB
:104BC000A12BFE29E32BB0936A02A0936B02F09312
:104BD0006C02E0936D0260936E02B0926F0280935C
:104BE0007002909371020E94B40810923602809174
:104BF0006A0280FF05C060E0869586950E94261CAB
:104C000081E080931E0284E091E09093AC02809357
:104C1000AB0258E1A52EB12C81E292E0A4E0A80FEE
:104C2000ADA364E0862E912C8091C302853009F5F6
:104C300040E4F42EEE24E39400E112E18091C302FB
:104C4000853009F465C00E94EC160E943908109264
:104C5000200280911F02882351F080916A028160B6
:104C600080936A0260E0869586950E94261C0E94C9
:104C70000F1C0E94612326E2E22E22E0F22E31E296
:104C8000C32E32E0D32E2AE232E0D601F701919111
:104C90008D912E173F0709F486C09817C1F310E0D5
:104CA00044244394F60101916F01D7015D907D0189
:104CB000501619F15026712C66246394852D862197
:104CC000A1F07F8E18A30E94B9169AA389A34BA2C4
:104CD00091E0802F862109F490E09CA34F8D58A18C
:104CE00069A17AA18BA10E94D5227394660CB4E0CD
:104CF0007B12E4CFF701319700831F5F143091F6E8
:104D00000E9484077724739453C089E491E0CBCE4A
:104D10008091C302843009F436C01092360280912B
:104D2000200281110DC0E092200280916A02982F2A
:104D3000917090931F028E7F80936A020E94EA0E08
:104D40000E945E111092B1020FB6F894A895A0923D
:104D500060000FBEF092600083B7817F846083BFE4
:104D600083B7816083BF7894889583B78E7F83BF34
:104D70000FB6F894A89580916000886180936000D8
:104D8000109260000FBE8091C202882309F456CFB2
:104D90000E946123E1E2F2E0819181113FC2BDA155
:104DA000BE13FACF4BCF98137ACF0E941C24712CDC
:104DB000809136028823D9F180913502E0916A0210
:104DC000E695E695E81BE0933102823009F04AC08F
:104DD000F0E0E159FE4FE4910E2F10E090E2E92E51
:104DE00091E1F92E80913202882361F01092320213
:104DF0000E94B9169093300280932F0210923402D1
:104E0000109233020E94B916E0912F02F091300205
:104E10008E1B9F0B8F3F9F4750F4E00FF11FF093C5
:104E20003002E0932F028FE292E0F701099510E043
:104E300000E082E0682E9DEF592E442443942CEF2D
:104E4000322E33E0232E80912C02181708F476C0FE
:104E5000002309F4FBC00E9484070E94A1110E9454
:104E60007911F8C0863059F4F0E0E459FE4FE4912E
:104E70000E2F10E080E1E82E81E1F82EB3CF8930CB
:104E800061F4E695F0E0E759FE4FE4910E2F10E053
:104E9000B4E8EB2EB0E1FB2EA5CF8F3061F4E695A0
:104EA000F0E0EA59FE4FE4910E2F10E0AFE1EA2E58
:104EB000A0E1FA2E97CF853159F4F0E0ED59FE4F7D
:104EC000E4910E2F10E0F1EDEF2EFFE0FF2E8ACFE0
:104ED00008E210E066E5E62E6FE0F62E883109F470
:104EE00081CF833249F4E1E6F1E005911491EFEBD3
:104EF000EE2EE0E1FE2E76CF04EF11E05FE1E52E2D
:104F00005FE0F52E843209F46DCF00ED17E043EB3E
:104F1000E42E48E0F42E853209F064CF8E2F63E052
:104F20000E94692AE92FF0E0E25AFE4FE4910E2F29
:104F300010E07BE5E72E73E1F72E54CFE12EF12C44
:104F4000E3B1E6FBEE27E0F91D997EC080E08E2BF1
:104F5000D701A35DBD4FEC919E2F9370891709F483
:104F600071C0EE0FEE0FE82BEC93EF70F0E0EB5911
:104F7000FE4F9701255D3D4F69018081D9019C91CC
:104F8000890F8C9320E084303CF1F701E65DFD4F02
:104F900080818F5F80830E94B9161B8B3C8A682FAB
:104FA0008D8B9E8B2F8A488E412F5CEF792F83E06B
:104FB00091E00E94D5220E94B916198F3A8E682F6F
:104FC0008B8F9C8F2D8E1E8E412F5CEF792F83E06F
:104FD00090E00E94D52221E0F60180818D3F3CF5D2
:104FE000F701E65DFD4F8081815080830E94B916F4
:104FF0001F835886682F89879A876B864C86412F36
:105000005DEF792F82E091E00E94D5220E94B916CF
:105010001D875E86682F8F87988B698A1A8A412F31
:105020005DEF792F82E090E00E94D52221E0D60149
:105030008C91082E000C990BB4010E94832AF60172
:105040008083022B1F5FFFCE82E081CF0E94A111DF
:10505000711005CF86E0E3EAF2E0DE0111960190DF
:105060000D928A95E1F7D090A4021091A5020091CB
:10507000A602E090A702F090A8021092A50210925A
:10508000A6021092A7021092A802812F802B09F489
:1050900045C08091A1029091A2020E94AA169C0193
:1050A00090919C02992309F4D8C025313105B0F1C3
:1050B0009F3F19F09F5F90939C02112359F00E942B
:1050C00068089FEF11160CF491E0899F802D112440
:1050D0008093A502002359F00E94680891E0101601
:1050E0000CF09FEF899F802D11248093A602809160
:1050F000A502882399F0C090A602CC2079F00E94E6
:105100008808882309F482C08093A5028C2D0E9410
:105110008808882309F47CC08093A6028F2D8E29ED
:1051200009F443C080919F029091A0020E94AA16A8
:105130009C0190919D02992309F48AC02135310583
:10514000A0F19F3F19F09F5F90939D02EE2059F0D0
:105150000E9446089FEF1E140CF491E0899F802D59
:1051600011248093A702FF2059F00E94460891E085
:105170001F140CF09FEF899F802D11248093A802AB
:105180008091A702882389F0E090A802EE2069F0C0
:105190000E9488088823F1F18093A7028E2D0E9437
:1051A00088088823C9F18093A8028091A402D812AC
:1051B00016C08091A502882311F0181310C0209109
:1051C000A602222311F002130AC09091A80299238B
:1051D00011F09F1104C03091A7023323A9F10E945E
:1051E000C51686E0FE013196A3EAB2E001900D9269
:1051F0008A95E1F70E94390890912E02891709F4E7
:1052000013CD80932E020E9484070ECD81E07CCFC7
:1052100081E082CF81E0C0CF81E0C5CF09BD19BD5B
:1052200009B400FEFDCF8091D8008F7D8093D80017
:105230008091E00082608093E0008091E00081FD39
:10524000FCCF0E94EC16FACC822B892B51F2C7CFEF
:105250002B30310508F077CFA8CF2B30310508F07F
:1052600029CF5CCF1092B9008CE08093B8000895EC
:10527000B0E0A0E0EEE3F9E20C94392AB82EEB019D
:105280000E94B9166C01EE24E394F12CC431D105CF
:1052900060F025E0E22EF12CCF3FDC0731F0CE01AB
:1052A00064E170E00E941E2A7B0184EAA82E94E843
:1052B000992E1092BC00A092BC000E94B9168C01DD
:1052C0008091BC0087FF0DC08091B900887F883035
:1052D000F9F08091B900887F8031D1F00FEF1FEF96
:1052E00008C0C8010E94AA16E816F90648F70EEF92
:1052F0001FEFCF3FDC07E9F2C6010E94AA16C817CC
:10530000D907B8F6C801CDB7DEB7EBE00C94552A43
:10531000B092BB009092BC000E94B9168C018091A3
:10532000BC0087FF0AC08091B900887F883111F0E6
:105330008034A1F610E000E0E5CFC8010E94AA1673
:10534000E816F90660F7D3CF0F931F93CF93DF933F
:10535000EB018093BB0084E88093BC000E94B916E7
:105360008C018091BC0087FF11C02091B900287F7B
:1053700081E090E0283211F490E080E091958195F1
:105380009109DF91CF911F910F910895CF3FDC07D5
:1053900041F3C8010E94AA16C817D90710F78EEF6B
:1053A0009FEFEFCFB0E0A0E0E8EDF9E20C943C2AEB
:1053B0006B018A017901B9010E943829E6010C0DBF
:1053C0001D1DC017D10711F097FF08C024E92093D5
:1053D000BC00CDB7DEB7E8E00C94582AB70189913C
:1053E0000E94A429EECFB0E0A0E0E9EFF9E20C942E
:1053F0003C2AC62F6A017901B8010E94382997FD1D
:105400000CC0B8018C2F0E94A429E601EC0CFD1CF5
:10541000CE15DF0511F097FF08C024E92093BC00EA
:10542000CDB7DEB7E8E00C94582AB80189910E9404
:10543000A429EECF84E98093BC000895AA1BBB1B6E
:1054400051E107C0AA1FBB1FA617B70710F0A61B84
:10545000B70B881F991F5A95A9F780959095BC01A5
:10546000CD0108952F923F924F925F926F927F925B
:105470008F929F92AF92BF92CF92DF92EF92FF9264
:105480000F931F93CF93DF93CDB7DEB7CA1BDB0B10
:105490000FB6F894DEBF0FBECDBF09942A883988B5
:1054A00048885F846E847D848C849B84AA84B984BC
:1054B000C884DF80EE80FD800C811B81AA81B981C8
:1054C000CE0FD11D0FB6F894DEBF0FBECDBFED01DC
:1054D0000895991B79E004C0991F961708F0961B50
:1054E000881F7A95C9F78095089587FB082E0626B0
:1054F00087FD819567FD61950E94692A0EF491955B
:1055000007FC8195089597FB072E16F4009407D0A9
:1055100077FD09D00E941E2A07FC05D03EF4909525
:1055200081959F4F0895709561957F4F0895EE0F77
:10553000FF1F0590F491E02D09940E940D2C332358
:1055400012F48A1B9B0B0C94A72A0E940D2CB7FF08
:105550000895821B930B0895002E083090F0982F29
:10556000872F762F652F542F432F322F2227085055
:10557000F4CF220F331F441F551F661F771F881F4C
:10558000991F0A95B2F7002D089597FD1094002EEB
:10559000083098F00850232F342F452F562F672FAF
:1055A000782F892F912DF4CF15949795879577951E
:1055B000679557954795379527950A95AAF711242A
:1055C000002D08958F929F92AF92BF92CF92DF925B
:1055D000EF92FF92CF93DF93EC01688179818A810A
:1055E0009B81611571058105910521F464E279EDD6
:1055F0008BE597E02DE133EF41E050E00E94B92BBD
:1056000049015A019B01AC01A7EAB1E40E94D82BE1
:105610006B017C01ACEEB4EFA50194010E94E62B76
:10562000DC01CB018C0D9D1DAE1DBF1DB7FF03C05E
:105630000197A109B04888839983AA83BB839F7788
:10564000DF91CF91FF90EF90DF90CF90BF90AF9020
:105650009F908F9008950E94E22A089580E091E043
:105660000E94E22A0895B0E0A0E0809300019093A8
:105670000101A0930201B09303010895FB01DC0135
:1056800002C005900D9241505040D8F70895FC019A
:105690004150504030F001900616D1F73197CF01BC
:1056A0000895882799270895FB01DC0104C08D9196
:1056B0000190801921F441505040C8F7881B990B84
:1056C0000895F999FECF92BD81BDF89A992780B5CA
:1056D0000895A6E1B0E044E050E00C94AB2BA8E1C3
:1056E000B0E042E050E00C94AB2BDC01A40FB51FFE
:1056F0004150504048F0CB01840F951F2E910E94DD
:10570000862B41505040D0F70895262FF999FECFAF
:1057100092BD81BDF89A019700B4021639F01FBA04
:1057200020BD0FB6F894FA9AF99A0FBE0895039621
:10573000272F0E94862B0E94852B252F0E94862BC7
:10574000242F0C94862B0196272F0E94862B0C94D5
:10575000852BDC01CB01FC01F999FECF06C0F2BD1F
:10576000E1BDF89A319600B40D9241505040B8F71F
:105770000895052E97FB1EF400940E94D02B57FD30
:1057800007D00E94EB2B07FC03D04EF40C94D02BD7
:1057900050954095309521953F4F4F4F5F4F08955D
:1057A00090958095709561957F4F8F4F9F4F08958D
:1057B0000E940D2CA59F900DB49F900DA49F800D6D
:1057C000911D11240895B7FF0C94D82B0E94D82B5B
:1057D000821B930B0895A1E21A2EAA1BBB1BFD018D
:1057E0000DC0AA1FBB1FEE1FFF1FA217B307E407C0
:1057F000F50720F0A21BB30BE40BF50B661F771F18
:10580000881F991F1A9469F76095709580959095F7
:105810009B01AC01BD01CF010895A29FB001B39FD0
:10582000C001A39F700D811D1124911DB29F700DA9
:10583000811D1124911D0895F894FFCFFC172418A1
:10584000BC192418BC1957187818BC197519821975
:10585000CF1CD31CB11CCB1CD71CDB1CDF1C3A1D7E
:10586000AF1D421D0C1D101D461D141D4A1D561D49
:10587000201DA81D241D5A1D281D5E1D861D2C1DC2
:10588000621D8D1D321D681D701D181D4E1D1C1DB5
:10589000521D361D6C1D7C1D961DA61D061D3E1D30
:1058A000B61DB21EB21EEA1EEA1E931FAF1F121FC4
:1058B000121FB41F3C204B204B20C11DE71DEE1DC5
:1058C000F31DF81DFD1D021E071E0C1E111E161EC7
:1058D0001B1E1E1E231E261E291E2C1E2F1E321EA0
:0458E000351E381E1B
:1058E400010000008107B20EAB0EA40E9D0E01193B
:1058F4001A1B1C1D1E1F2021220102010021007FF2
:1059040022000301818283E200E900EA00B500B6C7
:1059140000B700CD008301CC008A019201940121DB
:1059240002230224022502260227022A02B300B41B
:10593400006F0070009F01CB019F02A002F0F5F4FC
:10594400F6F7F1969700FF0100010000FFFF000049
:10595400010001FF00000102020202060606090915
:10596400090909090F0F0F0F0F0F1515151819192C
:105974001919191919191919232425252525252536
:085984000008101818100800BB
:00000001FF
