:100000000C9405060C943D060C943D060C943D069C
:100010000C943D060C943D060C943D060C943D0654
:100020000C943D060C943D060C9415170C94431B40
:100030000C943E270C943D060C943D060C943D0612
:100040000C943D060C943D060C943D060C943D0624
:100050000C943D060C94EE170C943D060C943D0652
:100060000C943D060C943D060C943D060C943D0604
:100070000C943D060C943D060C943D060C943D06F4
:100080000C943D060C943D060C943D060C943D06E4
:100090000C943D060C943D060C943D060C943D06D4
:1000A0000C943D060C943D060C943D060501090296
:1000B000A10185020901A1000509190129081500FE
:1000C0002501950875018102050109300931158165
:1000D000257F95027508810609381581257F9501D0
:1000E00075088106050C0A38021581257F95017572
:1000F000088106C0C005010980A101850319012AF4
:10010000B700150126B700950175108100C0050CD8
:100110000901A101850419012AA002150126A002E6
:10012000950175108100C005010906A1018506052C
:100130000719E029E71500250195087501810205D9
:1001400007190029EF1500250195F07501810205B9
:10015000081901290595057501910295017503910D
:1001600001C00660FF0961A1010962150026FF00B8
:100170009520750881020963150026FF00952075FA
:10018000089102C005010906A101050719E029E748
:1001900015002501950875018102950175088101F9
:1001A0000507190029FF150026FF0095067508812F
:1001B000000508190129051500250195057501910E
:1001C00002950175039101C00000000000000000CD
:1001D000000000000000000000000000000000001F
:1001E0000000000000000000000000007E0F00D4AE
:1001F000FFFFFFC7000000780000000000000000C3
:100200002A2B280000000000000000000000000071
:1002100000000029000000002C1E3420212224347C
:100220002627252E362D3738271E1F20212223244E
:1002300025263333362E37381F0405060708090AEA
:100240000B0C0D0E0F101112131415161718191A86
:100250001B1C1D2F3130232D350405060708090A04
:100260000B0C0D0E0F101112131415161718191A66
:100270001B1C1D2F3130354C00DA0281FFD9F1DB18
:1002800020A4A62EAF00A0C0D30000A1C8D30000B8
:10029000AED580A81F408D1420001E0F0500047FDE
:1002A0003F1F643214643214783C1E1E140A050089
:1002B0000101010101010101010202020202020227
:1002C00002020303030303030303040404040404FA
:1002D00004050505050506060606060707070707C0
:1002E00008080808090909090A0A0A0B0B0B0C0C73
:1002F0000C0D0D0D0E0E0E0F0F0F1010111111120F
:100300001213131414151516161717181819191A8D
:100310001A1B1B1C1D1D1E1E1F20202122222324F0
:1003200024252626272829292A2B2C2D2D2E2F302F
:10033000313232333435363738393A3B3C3D3E3F43
:10034000404142434445464748494A4C4D4E4F5030
:10035000515354555658595A5B5D5E5F61626465EE
:100360006668696B6C6D6F7072737577787A7B7D78
:100370007E8082838587888A8C8E8F9193959698CC
:100380009A9C9EA0A2A3A5A7A9ABADAFB1B3B5B7E8
:10039000BABCBEC0C2C4C6C9CBCDCFD1D4D6D8DBBF
:1003A000DDDFE2E4E7E9EBEEF0F3F5F8FAFDFFFF5D
:1003B000AA7F55402223252628292A2C2D2F30328A
:1003C000333536383A3B3D3E4042434547494A4C37
:1003D0004E5051535557595A5C5E60626466686965
:1003E0006B6D6F71737577797B7D7F81838587896D
:1003F0008A8C8E90929496989A9C9E9FA1A3A5A772
:10040000A8AAACAEAFB1B3B4B6B8B9BBBCBEBFC19D
:10041000C2C3C5C6C7C9CACBCCCDCED0D1D2D2D328
:10042000D4D5D6D7D7D8D9D9DADADBDBDBDCDCDC3C
:10043000DCDCDDDDDDDDDCDCDCDCDCDBDBDBDADAFF
:10044000D9D9D8D7D7D6D5D4D3D2D2D1D0CECDCC76
:10045000CBCAC9C7C6C5C3C2C1BFBEBCBBB9B8B68B
:10046000B4B3B1AFAEACAAA8A7A5A3A19F9E9C9A16
:1004700098969492908E8C8A89878583817F7D7BE4
:1004800079777573716F6D6B6968666462605E5CC5
:100490005A5957555351504E4C4A4947454342408B
:1004A0003E3D3B3A3836353332302F2D2C2A292821
:1004B0002625232200230000232800000103060C28
:1004C000183123664444C4C484848484C4C4444628
:1004D000662311180C06030000001F78C10F38E0D6
:1004E000C00000020E0E8EC6C04040C0C68E0E0E6A
:1004F000020080C060380FC07C0FF81EC3F85C7625
:100500007B6D755555756D7B765E7E775B6D75552C
:1005100055754D7B665CF0C33EF0000080C06030D6
:10052000180C040682C34361A1A1A1A16143C38247
:1005300006040C183060C0800000202020005343C7
:100540005220002020200043415020002020200085
:100550004E554D20005374617475733A20004E2F30
:1005600041202020005468726565200054776F2078
:100570002020004F6E65202020005A65726F2020D9
:10058000004C617965723A2000546865204D6164C1
:10059000204E6F6F646C6500000000000000A80032
:1005A000AE00AC00AB00AF007A00B200B100B30007
:1005B0007C007B007D0003520000000000002078DA
:1005C0002678257824782378217822782B782C783F
:1005D0002E782A78297800520000000000000000E0
:1005E000000000000000000000000000000000000B
:1005F00000000000000000520000000000000000A9
:100600000152025200000000000000000000000043
:100610000000000000000052A900AA0027782878F6
:100620004F0050005200510009025B00030100A07E
:10063000FA09040000010301010009211101000170
:100640002244000705810308000109040100020398
:100650000000000921110100012222000705820388
:100660002000010705030320000109040200010323
:1006700000000009211101000122B60007058403D2
:1006800020000112010002000000086C6A12000044
:1006900001010200010E03550064006F006E00317D
:1006A00000330000001E0354006800650020004D68
:1006B000006100640020004E006F006F0064006C59
:1006C00000650000000403090407087F0807003ED6
:1006D0005B4F5B3E003E6B4F6B3E001C3E7C3E1C06
:1006E00000183C7E3C18001C577D571C001C5E7F88
:1006F0005E1C0000183C180000FFE7C3E7FF000085
:100700001824180000FFE7DBE7FF0030483A060E28
:1007100000262979292600407F05050700407F052E
:10072000253F005A3CE73C5A007F3E1C1C0800084D
:100730001C1C3E7F0014227F2214005F5F005F5F5D
:100740000006097F017F00006689956A006060608D
:1007500060600094A2FFA2940008047E04080010C8
:10076000207E20100008082A1C0800081C2A0808FF
:10077000001E10101010000C1E0C1E0C0030383E15
:10078000383000060E3E0E0600000000000000009B
:10079000005F000000000700070000147F147F14B2
:1007A00000242A7F2A120023130864620036495667
:1007B000205000000807030000001C224100000038
:1007C00041221C00002A1C7F1C2A0008083E080841
:1007D0000000807030000008080808080000006071
:1007E0006000002010080402003E5149453E000010
:1007F000427F4000007249494946002141494D333A
:10080000001814127F10002745454539003C4A491D
:10081000493100412111090700364949493600464E
:100820004949291E00000014000000004034000067
:100830000000081422410014141414140000412272
:100840001408000201590906003E415D594E007C22
:100850001211127C007F49494936003E4141412234
:10086000007F4141413E007F49494941007F0909DC
:100870000901003E41415173007F0808087F0000D4
:10088000417F4100002040413F01007F0814224188
:10089000007F40404040007F021C027F007F040830
:1008A000107F003E4141413E007F09090906003E9C
:1008B0004151215E007F09192946002649494932E4
:1008C0000003017F0103003F4040403F001F2040E4
:1008D000201F003F4038403F0063140814630003AA
:1008E00004780403006159494D4300007F414141B0
:1008F00000020408102000004141417F0004020171
:10090000020400404040404000000307080000206F
:1009100054547840007F28444438003844444428E4
:1009200000384444287F0038545454180000087E8E
:1009300009020018A4A49C78007F08040478000031
:10094000447D4000002040403D00007F10284400CE
:100950000000417F4000007C04780478007C08049B
:10096000047800384444443800FC18242418001843
:10097000242418FC007C080404080048545454241F
:100980000004043F4424003C4040207C001C2040E4
:10099000201C003C4030403C004428102844004CBF
:1009A0009090907C004464544C4400000836410010
:1009B000000000770000000041360800000201023C
:1009C0000402003C2623263C0000000000000040FA
:1009D0004040F0F8F8FF38FFF8F83FF8F8FF38FF2C
:1009E000F8F8F040404000000000000080C0C0C0A7
:1009F000800000C0C08000000080C0C000C0C000F7
:100A00000080C0C00000000000C0C0C0C0C000C066
:100A1000C000000000000000000000000000000016
:100A200000000000000000000000000000000000C6
:100A300000000000000000000000000000000000B6
:100A40000000000000000000C0F0F8FC3E1E06019F
:100A50000000007F4141417F007F4141417F000014
:100A600080C0E07E5B4F5BFEC00000C000DCD7DED4
:100A7000DEDED7DC00C00000000000000000000047
:100A8000000000000000000000000000000000491D
:100A90004949FFFFFFFFE0DFBFBF00BFBFDFE0FF4F
:100AA000FFFFFF49494900000000001F3F6060E070
:100AB000BF1F007F7F071E381E077F7F007F7F0ECE
:100AC0001F3B716000000000007F7F0C0C0C007E5B
:100AD0007E007F7E0303007F7E03037E7E03037F11
:100AE0007E000F3E703C063C703E0F00327B494951
:100AF0003F7E007F7E0303001E3F69696F26000072
:100B00000000000000000000030F1F3F3C787060F1
:100B10000000007F4141417F007F4141417F003023
:100B20007B7F7830202030787F3B0003000F7F0FE1
:100B30000F0F7F0F00030000000000000000000006
:100B400000000000000000000000000000000001A4
:100B50000101070F0F7F0F7F0F0F7E0F0F7F0F7F9A
:100B60000F0F07010101000000000000000000005D
:100B70000101000000000000000000000000000073
:100B80000000000000000000000000000000000065
:100B90000000000000000000000000000000000055
:100BA0000000000000000000000000000000000045
:100BB0000000000000000000000000000000000035
:100BC0000000000000000000000000000000000025
:100BD0000000000000000000000000000000000015
:100BE0000000000000000000000000000000000005
:100BF00000000000000000000000000000000000F5
:100C00000000000000000000000011241FBECFEF14
:100C1000DAE0DEBFCDBF04B603FE18C08091280520
:100C200090912905A0912A05B0912B058730904B12
:100C3000A740B04B59F41092280510922905109244
:100C40002A0510922B05E0E0F8E3099525E0A8EBD2
:100C5000B1E001C01D92A832B207E1F711E0A0E0B7
:100C6000B1E0E6EEF4E602C005900D92A83BB107B4
:100C7000D9F70E9465270C9408320C940000CF939A
:100C8000DF934091260550912705465253409A0123
:100C9000205E3F4F21303240C0F020E032E0241B84
:100CA000350B6091240370912503FC01CA01240FC8
:100CB000351FC1E0D0E08217930750F070932503F1
:100CC00060932403DF91CF91089520E230E0E9CFD3
:100CD0004491DC01AA5DBC4F5C91451781F04C93B7
:100CE000AC01A5E056954795AA95E1F7DE0102C053
:100CF000AA0FBB1F4A95E2F7AD016A2B752B01962F
:100D00003196D9CF482F209119039091E00257E0F6
:100D1000291302C080E0089530E0529FF001539FF4
:100D2000F00D1124EF51FD4F8181681306C08081C1
:100D3000481303C085818111EECF2F5F3F4F27708D
:100D4000E7CFE8EDF0E080818E7F80831092E200B3
:100D50001092DA001092E100A0EEB0E08C91816078
:100D60008C9380818F77808319BCA7EDB0E08C9144
:100D70008E7F8C9380818F7E80831092C90208952C
:100D80002091E4003091E50095E6A9012091EC0066
:100D9000822F817020FF06C08091E80080FF06C08E
:100DA00080E008952091E80022FD1AC08091D602CB
:100DB000882389F0853089F08091EB0085FD0FC094
:100DC0002091E4003091E50042175307F9F2915069
:100DD000E1F684E0089582E0089583E0089581E0DB
:100DE00008958091D80287FF13C08091E80082FFA8
:100DF00006C08091E8008B778093E80004C0809162
:100E0000D6028111F2CF08958091D6028823D9F3BA
:100E10008091E80080FFF8CF8091E8008E77ECCFDA
:100E2000982F9093E900242F762F50E0891731F006
:100E30007091EC002091ED005091F00021FD07C071
:100E40009F5F973071F78093E90081E008953091BA
:100E5000EB003E7F3093EB003091ED003D7F30930F
:100E6000ED003091EB0031603093EB007093EC00BB
:100E70002093ED005093F0002091EE0027FDE0CF8D
:100E800080E00895B0E0A0E0E8E4F7E00C942130C1
:100E9000C8EDD0E088818F7E8883E7EDF0E0808127
:100EA0008160808384E082BF81E08093C902888171
:100EB0008E7F888302EE10E0F80110821092DA0033
:100EC00081EEC82ED12CF601108288818F7788831D
:100ED00088818068888388818F7D888319BC10927F
:100EE000D6021092D7021092D5021092D40290EE40
:100EF000E92EF12CF70180818B7F808388818160CE
:100F0000888342E060E080E00E941007F601808163
:100F10008E7F8083F80180818160808380818860FA
:100F20008083F70180818E7F8083888180618883C0
:100F3000CDB7DEB7E8E00C943D30FC018091DE02D5
:100F40009091DF0286179707A0F06115710529F4CB
:100F50009091E8009E779093E80090E0611571050C
:100F600051F4911108C08091E80082FF34C080E004
:100F70000895BC01F2CF8091D6028823C1F185305B
:100F8000C1F18091E80083FD30C08091E80082FDCE
:100F9000EACF8091E80080FFE1CF8091F3002091BB
:100FA000F200382F6115710519F02830310558F01D
:100FB00091E02830310509F090E02091E8002E778B
:100FC0002093E800CBCF81918093F10061507109AB
:100FD0002F5F3F4FE7CF8091D602882341F08530C5
:100FE00041F08091E80083FFBECF81E0089582E068
:100FF000089583E008958091CB0208952FB7F89467
:101000006091C5027091C6028091C7029091C8029A
:101010002FBF0895909123019923D1F09091C2029E
:1010200097FF16C0E82FE695E695E695EE31E0F4D9
:10103000F0E0EE53FE4F282F277081E090E001C0D2
:10104000880F2A95EAF780959281892382830895F3
:10105000ECEBF1E09191891303C0DF0111971C9231
:1010600091E0E23CF907B1F70895909123019923AB
:10107000C1F09091C20297FF14C0E82FE695E69563
:10108000E695EE31F8F4F0E0EE53FE4F877021E084
:1010900030E001C0220F8A95EAF78281822B828399
:1010A0000895ACEBB1E0EFEF90E02D91821751F095
:1010B000EF3F19F4211101C0E92F9F5F9630A9F786
:1010C000EF3F09F408950E2E000CFF0BE654FE4F7F
:1010D000E6CFA3E0B0E0EFE6F8E00C9427302091F3
:1010E000C0023091C10228173907A1F09093C102C4
:1010F0008093C002E091BE02F091BF02309751F0A0
:1011000024E029839B838A830084F185E02DCE012E
:10111000019609952396E2E00C944330A3E0B0E0F9
:10112000E4E9F8E00C9427302091BC023091BD0234
:1011300028173907A1F09093BD028093BC02E0917B
:10114000BE02F091BF02309751F023E029839B83C8
:101150008A830084F185E02DCE01019609952396BE
:10116000E2E00C944330E091BE02F091BF02309770
:1011700029F00190F081E02D0995089580E008950F
:101180008091B10280FD16C081FD16C082FD16C09F
:101190008091B0028823A1F0883280F428E0829FF9
:1011A000C001112468E270E00E946830862F672B2E
:1011B00039F0089582E0089584E0089588E0089564
:1011C00081E008958091B10280FD14C081FD14C0BA
:1011D00082FD16C08091AF02882381F08E3180F4A9
:1011E00020E5829FC00111246EE170E00E9468300A
:1011F000862F089584E1089588E2089588E008958F
:1012000080E50895282F35EB2303C001112497FFB3
:1012100004C080589109892F089580589F4FFBCFB3
:1012200026E3611125E383B190E02F7002C095950C
:1012300087952A95E2F78170089526E3611125E3E9
:1012400034B12F7081E090E001C0880F2A95EAF751
:10125000982F9095932394B995B1892B85B90895CA
:101260009091A902E92FF0E04091AA029F012F5F1F
:101270003F4F2370332742171306A9F0E555FD4F62
:10128000282F2F7780818078822B60FB87F98083DD
:101290009F5F93709093A9028091A7028F5F8093C4
:1012A000A70281E0089580E0089520911D0336E0B3
:1012B000839FC0011124629F800D911D112481150F
:1012C00022E0920714F090E080E08A5D9C4F9093BA
:1012D0002705809326050895FA01811101C0FB01BD
:1012E0000995089508958091760280FD0AC0E6E48C
:1012F000F2E0118210821282339682E0E835F8071C
:10130000C1F766E070E086E492E00E94361108952D
:101310009091760290FF0CC0E6E4F2E08183608356
:101320004283339692E0E835F907C1F70E947309CA
:10133000089580917602982F9C7F29F483708460B1
:101340008093760208958C3AE8F38370886AF8CF28
:10135000AF92BF92DF92EF92FF920F931F93CF93C2
:10136000DF93082F162FE901E42FF0E0E155FD4F40
:10137000611110C0E4915E2F4E2F4983E8835A8398
:10138000DF91CF911F910F91FF90EF90DF90BF9071
:10139000AF900895E62EF12C4491D42EE42FF0E086
:1013A00026E0829FC00111242FEF30E0B9010E9496
:1013B0000330802F90E0880F991F55E5569FD0018C
:1013C000579FB00D11248A1B9B0B982F990F890FE3
:1013D0005901AE18BF08AE9ED001AF9EB00DBE9EA3
:1013E000B00D11245B2F189F80011124012F1127AC
:1013F0005901A01AB10AAE9E8001AF9E100DBE9E8B
:10140000100D11245901A81AB108AE9CC001AF9C5F
:10141000900DBE9C900D1124892F9927281B390B04
:101420002E9FC0012F9F900D3E9F900D1124E92FFC
:1014300062307105A1F050F46115710509F49DCF7A
:101440006130710581F0EB2F512F97CF643071051A
:1014500069F080F06630710509F48FCFF4CFE42F86
:101460004B2F592F8ACFE42F412F87CFEB2F542FAB
:10147000492F83CF4B2F5D2DE12F7FCFA3E0B0E02D
:10148000E4E4FAE00C9427309091760290FF0AC0D1
:101490009E012F5F3F4F0E94A8094B8169818A817D
:1014A0000E9488092396E2E00C944330CF93DF93A7
:1014B000EC01E6E7F2E0438162818C810E943E0A02
:1014C0008C818F5F8C83DF91CF910895CF93DF93D1
:1014D000EC01EC81F0E0EC54FC4F4491E6E7F2E0E3
:1014E000628181810E943E0A8C818F5F8C83DF91B3
:1014F000CF910895EF92FF920F931F93CF93DF93B5
:101500008C01C6E4D2E0F12CE12CF80194816091C9
:10151000780280917702F3E0EF16F104ECF499235E
:10152000E9F09E01409179020E94A8092FEFE21A8A
:10153000F20A239686E0E816F10439F70E9473094F
:10154000F801848190E00196817099278483CDB75A
:10155000DEB7E6E00C943F30992319F39E0140E09A
:10156000E3CFA3E0B0E0E7EBFAE00C9425308C0188
:101570008091450281110AC09E012F5F3F4F4FEFBE
:101580006FEF0E94A8098A8180934502F801648167
:10159000613069F08091450240E0662361F040E0EF
:1015A000623011F44091450280E060E004C0609137
:1015B000450240E080E00E948809F801848190E0C3
:1015C000019663E070E00E94683084832396E4E033
:1015D0000C944130B0E0A0E0E0EFFAE00C941D3054
:1015E000EC014C81042F10E09801D8010E94F931E0
:1015F0009B01AC010E94C4314B015C01E0E2F0E0D0
:10160000E01BF10BA5E5B0E0AC019B010E94C431E9
:101610006B017C019F01DF010E9489309B01AC01BD
:101620000E94CF319B01AC01280D391D4A1D5B1D65
:10163000C701B6010E94D731F22E822F90E039E225
:101640003F1598F143E0249F90011124359527958B
:10165000122F109596E4C92E92E0D92E00E085E570
:10166000E82EEF188E2D01FD8F2D9601412F6091F0
:1016700078020E94A8090F5F53E0C50ED11C063006
:1016800089F70E9473099C8181E0992319F09032B7
:1016900019F48FEF80931B0180911B01890F8C83BC
:1016A000CDB7DEB7ECE00C94393025E530E0A90188
:1016B000481B590BCA019A01220F331F280F391FEB
:1016C00037FFC4CF2F5F3F4FC1CF0F931F93CF93EF
:1016D000DF93C6E4D2E0FE011182108212823396BB
:1016E00082E0E835F807C1F710E000E0809144029D
:1016F000082E000C990B081719078CF180911A011C
:10170000082E000C990B801791074CF19E01409117
:10171000790260917802809177020E94A8090F5F98
:101720001F4F23960630110509F70E947309809117
:10173000190190914402980F9093440220911A014C
:10174000280F20931A01121614F495301CF081957D
:1017500080931901DF91CF911F910F910895198204
:1017600018821A82DCCFB0E0A0E0E9EBFBE00C9439
:101770002030FC018281DD24DA9480FD02C0DD246A
:10178000D39406E412E0D0E0C0E026E0B22EF801E7
:1017900011821082128294E0E92EF12CC12C8091EA
:1017A00043028C0D8730C4F16B2D0E945A30892F73
:1017B000082E000C990B8C179D0791F480917902EB
:1017C0008E9DA0018F9D500D1124559547955595DF
:1017D0004795980160917802809177020E94A8094C
:1017E000CD0CF1E0EF1AF108D1F621960D5F1F4FF5
:1017F000C630D10561F60E9473098091430291E0E1
:10180000D91210C081110CC085E080934302CDB77E
:10181000DEB7E9E00C943C3087FFCACF8A5FC8CFBF
:101820008150F3CF90E00196BE010E946830EDCF69
:10183000EF92FF921F93CF93DF93EC0186E4E82EA3
:1018400082E0F82E10E08C8197014091790260913E
:101850007802810F0E94A809165D83E0E80EF11C52
:101860001C3F89F70E9473099A818C8190FF08C000
:101870008F5F8C83DF91CF911F91FF90EF90089540
:101880008150F7CF80E00895F894E82FE295EF704B
:10189000F0E031A1282F2F7081E090E001C0880F87
:1018A0002A95EAF7982F9095932391A392A1892BDB
:1018B00082A3789408959091C20292FF10C041E0F3
:1018C000282F2471243009F040E031E0282F2871BE
:1018D000283009F030E0431711F02CE0822793FF05
:1018E00010C041E0282F2471243109F040E031E09C
:1018F000282F2871283109F030E0431711F02CE02F
:1019000082273091C30230FF10C051E0282F21718F
:10191000213009F050E041E0282F2871283009F0EB
:1019200040E0541711F029E0822731FF10C041E058
:10193000282F2171213109F040E031E0282F287152
:10194000283109F030E0431711F029E0822794FD97
:10195000877E089582389105B9F1B0F481339105FD
:1019600009F47DC048F48932910509F46DC08A32CA
:10197000910509F47BC008958533910509F45FC092
:101980008933910509F10895833E9105D9F138F421
:10199000803E910529F1823E910579F10895863EB8
:1019A0009105D9F1873E910509F43EC0843E910529
:1019B00041F52091C30221FF24C08091C20284FD21
:1019C00019C087EE90E008952091C202237009F0BB
:1019D0005AC02091C30223FF14C089E290E0089509
:1019E0002091C20220FD38C03091C30230FF09C0EF
:1019F00024FF43C090E080E008952091C20222FDC0
:101A0000F7CF08952091C20222FD3AC03091C3025F
:101A100030FD39C024FFF5CFEDCF2091C20223FF66
:101A2000F0CF24FDE7CFCDCF2091C20223FD2EC001
:101A30003091C30231FFEECF84EE90E00895209103
:101A4000C20225FFDECFC9CF2091C20225FD21C0F1
:101A50002091C30223FFD5CF89E390E0D2CF20911C
:101A6000C20226FFCECF8AE290E008952091C20202
:101A700026FFC7CF81E390E0089583EE90E00895BC
:101A800082EE90E0089580EE90E0089586EE90E07A
:101A9000089585E390E008951F93CF93DF930E940C
:101AA000AA0CEC01C11580E5D807F0F5C11580E45A
:101AB000D80708F09CC0C03ED10520F5CD3CD1052B
:101AC00008F082C0C83AD10578F4C53AD10508F0CB
:101AD00073C0C130D10519F1209709F1C430D10587
:101AE000F0F4D0E0C0E01BC0C33CD105D0F7C85A29
:101AF000D0E0CC0FDD1FC95DDE4F0990D881C02D2D
:101B0000D4640DC0C11580E2D80708F0D1C0C1155A
:101B100081E0D80708F05AC0C83ED10510F7CE01C1
:101B2000DF91CF911F910895C03682E5D80718F54F
:101B3000C03482E5D80708F06BC0C03282E5D80710
:101B400008F05FC0C11582E5D80708F497C02C2FB4
:101B50002695269580E2289F900111248C2F837072
:101B6000C1E0D0E002C0CC0FDD1F8A95E2F7C22BA6
:101B7000D32BDD68D4CFC03A82E5D80760F4C038F3
:101B800082E5D80708F459C0CF71D0E0DC2FCC270C
:101B9000C46FD06AC4CFC03C82E5D80708F462C0E5
:101BA000C03E82E5D80708F09CCFDC2FCC27CC279D
:101BB000DF71C06FD06AB3CFC55AD0E0CC5DDE4FC5
:101BC000C881D0E0D064ABCFD065A9CF8D2F0E9463
:101BD0005B0C182FCE0199270E94AA0CC12FD0E0D0
:101BE000DC2FCC27CC27DF71C82BD92B98CFCE0187
:101BF00099270E94AA0CCC27DF70C82BD92BD06A5A
:101C00008ECFCF71D0E0DC2FCC27C16FD06A87CFC9
:101C10002C2F26952695277080E2289F900111246D
:101C20008C2F8370C1E0D0E002C0CC0FDD1F8A95FD
:101C3000E2F7C22BD32BDC6872CF2C2F269526958A
:101C4000277080E2289F900111248C2F8370C1E0BF
:101C5000D0E002C0CC0FDD1F8A95E2F7C22BD32B58
:101C6000DA685DCF8C2F8F710E945B0CC82FD0E09B
:101C7000DC2FCC27CC27DF71D06251CF8C2F8F7116
:101C80000E945B0C55E0D695C7955A95E1F7CF7049
:101C9000D0E0DC2FCC27282F30E084FF05C044E0C3
:101CA000220F331F4A95E1F7C22BD32BD06937CFD0
:101CB0008D2F8F710E945B0C182FCE0199270E94E7
:101CC000AA0CC12FD0E0DC2FCC27CC27DF71C82B8A
:101CD000D92BD2CF809590911F02982390931F0209
:101CE000089580911F029091F601892B9091F50142
:101CF000992391F0892B90912301992371F0909170
:101D0000C20297FF0AC09EE124EC31E040E091500E
:101D100040F441111092F501089596E02CEB31E06A
:101D2000F5CFF90151919F01552389F34F5FEFCF13
:101D3000809119039091E002981301C008958F5F7C
:101D40008770FACFA82FA77023E0969587952A95DC
:101D5000E1F7FC01EE0FFF1FE80FF91FE60FF71F79
:101D600050E040E080E0219130E00A2E02C036953C
:101D700027950A94E2F721703327042E01C0220F21
:101D80000A94EAF7822B4F5F5F4F4330510559F7B2
:101D90000895943070F4843098F444E0949F900156
:101DA000112467EE71E0820F932F911D0E94A20E05
:101DB00008959C5F923020F464EE71E090E0F6CFDD
:101DC00080E00895262F277091E001C0990F2A9591
:101DD000EAF723E0769567952A95E1F7FB01EE0F88
:101DE000FF1FE60FF71FE40FF51F50E040E0682FDC
:101DF00070E08191DF0111979B01042E02C036959E
:101E000027950A94E2F7217021952827292328276E
:101E10002C934F5F5F4F4330510559F70895282F9A
:101E2000862F943068F4243050F434E0939FB0014E
:101E30001124620F711D47EE51E00E94E20E0895D9
:101E40009C5F9230E0F7622F70E044EE51E0F5CFF6
:101E500080937E02089590917E0221E030E0F901A6
:101E600001C0EE0F8A95EAF7D90102C0AA0FBB1F85
:101E70006A95E2F7EA2B01C0220F4A95EAF7892F0B
:101E80008E23E81305C0292B822F0E94280F089566
:101E900020952923F9CF21E030E001C0220F8A9557
:101EA000EAF7209580917E0282230E94280F0895F0
:101EB0009091F401809589238093F401282F277055
:101EC00069F4891759F09091C30292FF07C0869573
:101ED000869586950E944B0F1092F401089521E09B
:101EE00030E001C0220F8A95EAF780917E02822BB2
:101EF0000E94280F0895809329020895982F9295A3
:101F00009F7011F0892F94E0282F2695269511F0C7
:101F10009E5F822F869509F09F5F892F0895CF934A
:101F2000DF93C0912605D09127058A30C1F4209116
:101F30001D03CE0186529340622F70E00E94033051
:101F4000281B822F66E00E944E30C82FC15018F423
:101F5000DF91CF91089580E20E948F0FF7CF8D30EF
:101F6000E9F4C652D34020911D03622F70E0CE01E8
:101F70000E940330281B822F9E01280F311D21153E
:101F8000324018F080E0D0E0C0E0C80FD11DCA5D3B
:101F9000DC4FD0932705C0932605DACF96E0FE01EB
:101FA000AEE1B3E001900D929A95E1F7803E08F41E
:101FB00058C086E0FE0111928A95E9F7C091260586
:101FC000D091270546E050E0BE018EE193E00E94EB
:101FD00040319E0126523340892B41F1C90145E031
:101FE000969587954A95E1F741E050E0BA0102C025
:101FF000660F771F8A95E2F7CB01609124037091F9
:102000002503862B972BB9016B5F7F4FE5E0769513
:102010006795EA95E1F702C0440F551F6A95E2F70C
:10202000842B952B90932503809324032A5F3F4FA5
:1020300040911D03642F70E0C9010E940330481BCA
:10204000463010F4240F311D211572E0370710F0CF
:1020500030E020E02A5D3C4F309327052093260591
:1020600077CFF6E08F9FB00111246753794F46E098
:1020700050E0CE010E942A31A1CFCF93DF93EC0133
:10208000FE018491811103C0DF91CF9108950E94D8
:102090008F0F2196F5CF80912301882359F18091EC
:1020A000C20287FF27C00E94710E8093C30140E2E5
:1020B00050E067EF71E082EC91E00E944031892BA3
:1020C000C1F080E2E2ECF1E0A7EFB1E001900D9207
:1020D0008A95E1F7E091BE02F091BF02309749F096
:1020E00086E08093C2010480F581E02D82EC91E0CE
:1020F000099508950E94710E8093BA0148E050E05E
:1021000067E172E08AEB91E00E944031892B89F30C
:1021100088E0EAEBF1E0A7E1B2E001900D928A9548
:10212000E1F7E091BE02F091BF02309711F3028017
:10213000F381E02D8AEB91E0DBCF882321F00E9430
:102140006A0E0E944B100895882339F090911F0267
:10215000982B90931F020E944B1008950F931F938A
:10216000CF93DF938B01EA019091D602943061F511
:102170008093E9008FEF9091E800815095FD06C0B3
:1021800095ED9A95F1F700008111F5CF8091E80067
:1021900085FF1AC00E94C006811111C08091E8001D
:1021A00085FD06C08091E8008E778093E800F2CF2D
:1021B000F80181918F018093F100219779F7809147
:1021C000E8008E778093E800DF91CF911F910F9107
:1021D000089543E050E0BC0184E00E94AE100895F1
:1021E00046E050E0BC0184E00E94AE10089540E259
:1021F00050E0BC0184E00E94AE100895CF93DF93BD
:10220000EC0148E050E0BC0181E00E94AE1088E0A3
:10221000FE01ACECB2E001900D928A95E1F7DF91FE
:10222000CF91089581E08093E00080E28093D80010
:102230001092C9008FE19EE40197F1F700C0000001
:1022400087E090EBDC018093280590932905A0930B
:102250002A05B0932B0588E19CE00FB6F894A89569
:10226000809360000FBE90936000FFCF279A45B126
:102270004F7755B15068EFB7F8949B01220F331F89
:10228000260F371F280F391F2817390741F4EFBFD2
:102290008FE594E00197F1F700C000000895DC019C
:1022A0006D91CD0178E055B9000000C067FF45B9D8
:1022B000660F000000C000C000C045B900C07A959C
:1022C00091F7E2CFCF93C82F6FEF811164E285E2DF
:1022D00090E00E9471316FEFC11166E086E290E0FC
:1022E0000E9471316FEFC11167E287E290E00E94B6
:1022F0007131CF910895CF93DF93C9EBD0E060E0C7
:10230000CE010E9471312196C11584E0D807B9F73A
:10231000DF91CF9108950F931F93CF93DF93142FE5
:10232000022F8430F0F461111CC094E0899FE00119
:102330001124C755DF4F82E090E0442311F090E074
:1023400080E0632F8C0F9D1F0E94713183E090E02D
:10235000112311F081E090E0602F8C0F9D1F0E94EF
:102360007131DF91CF911F910F9108951F93CF93FA
:10237000DF93122F8430E8F46430D8F44430C8F48A
:1023800028E0629FE001112450E0440F551FC40F64
:10239000D51F20E2829FC0011124C80FD91F632FCF
:1023A000CE0189960E947131612FCE018A960E94DA
:1023B0007131DF91CF911F9108958F929F92AF92CB
:1023C000BF92CF92DF92FF920F931F93CF93DF9331
:1023D00008E116E088E9C82E85E0D82EC0E0560155
:1023E000D0E015C0F401259134914F2D6D2F8C2F25
:1023F0000E94B61182E0880E911CF39484E0F812DA
:10240000F1CF88E0A80EB11CDF5FD43019F0450190
:10241000F12CE8CFF8012591349141E060E08C2F58
:102420000E948B11F80132962591349140E060E0D2
:102430008C2F0E948B110C5F1F4FCF5F80E2C80E64
:10244000D11CC43009F0CBCFDF91CF911F910F91F8
:10245000FF90DF90CF90BF90AF909F908F900895A6
:1024600080E00E94621160E088E290E00E94713199
:102470000E94DD110E947B1181E00E94621108958B
:1024800085E290E00E944D31843289F486E290E04A
:102490000E944D31863059F487E290E00E944D3120
:1024A00091E0873209F090E0892F8170089580E0F3
:1024B000FCCFFF920F931F93CF93DF93F42E8430C2
:1024C00040F5611126C024E0829F80011124075548
:1024D0001F4F82E090E0442311F090E080E0800FF5
:1024E000911F0E944D31C82FD0E0DC2FCC2783E014
:1024F00090E0FF2011F081E090E0800F911F0E949A
:102500004D319E01282BC901CDB7DEB7E5E00C9413
:10251000403090E080E0F8CF0F931F93CF93DF938C
:10252000843038F5643028F5443018F528E0629F8F
:102530008001112450E0440F551F040F151F30E295
:10254000839FC0011124080F191FC80189960E949A
:102550004D31C82FD0E0DC2FCC27C8018A960E94CD
:102560004D319E01282BC901DF91CF911F910F9111
:10257000089590E080E0F8CF462F672F743038F44C
:10258000443060F4843050F40E948C1208957D3FF2
:1025900041F4411103C041E0843048F090E080E014
:1025A00008957C3FD9F74111F9CF8430B8F760E046
:1025B0000E9459120895CF92DF92FF920F931F93BA
:1025C000CF93DF936C0100917E0280912902082B4A
:1025D000C3E0D0E010E0FC2EC8010C2E02C095959F
:1025E00087950A94E2F780FD0CC02197A0F7F12CA3
:1025F0008F2DDF91CF911F910F91FF90DF90CF90A2
:102600000895B6018C2F0E94BC120E944C0D0197B8
:1026100061F3EECFCF93DF93EC010E94DB12BE019A
:102620000E94BC120E944C0DDF91CF910895FC01D5
:1026300024812223C1F0808191810E940A13929506
:102640009F70963091F058F4925F9F70923058F4DA
:10265000803F19F030F4883E30F481E008959A5FAD
:10266000F4CF843FD1F380E00895883EB0F3813FFA
:10267000D1F7F3CFA6E0B0E0E0E4F3E10C9426302C
:1026800049835A8349815A819923A1F0222391F0E9
:10269000CA010E94DB12182F682F89819A810E943B
:1026A0000F0F69817A81812F0E94BC122696E3E088
:1026B0000C944230CA010E94C90E182FF2CFAB0110
:1026C00024E630E0BC0188E70E94732F21E0892BCB
:1026D00009F020E0822F08958091A5029091A60232
:1026E000911103C091E089270895882369F063E080
:1026F00070E087EB94E00E945F13811103C080912A
:10270000A50208951092A5028091A502EBCFCF9368
:10271000C091A5028091A6028823D1F00E94FE07F5
:10272000605C7848844E9F4F6093A1027093A20230
:102730008093A3029093A402C11108C063E070E0EB
:1027400084EB94E00E945F13811105C0C091A50243
:102750008C2FCF91089581E08093A502F7CF2F921F
:102760003F925F926F927F928F929F92AF92BF92B1
:10277000CF92DF92EF92FF920F931F93CF93DF934D
:102780008091A602882309F490C060E080E00E9456
:10279000550960E080E00E9455098AE195E00E94B9
:1027A0003F0661E080E00E9455098AEF94E00E94B4
:1027B0003F0662E080E00E9455098AED94E00E94A5
:1027C0003F0663E080E00E9455098AEB94E00E9496
:1027D0003F0660E087E00E94550989E895E00E9485
:1027E0003D1061E087E00E94550981E895E00E9474
:1027F0003D1080917E020E947E0F813009F467C0F7
:10280000882349F0823009F465C0833009F465C03B
:102810008EE595E002C08AE795E00E943D1062E0F7
:1028200087E00E94550985E595E00E943D1063E030
:1028300087E00E9455090E94B308C82F8CE495E0F8
:10284000C0FF02C080E595E00E943D1083E495E062
:10285000C1FF02C087E495E00E943D108AE395E045
:10286000C2FF02C08EE395E00E943D1080912403D8
:1028700090912503892BA1F58091A5028823A9F0C9
:102880000E94FE070091A1021091A2022091A302D2
:102890003091A402601B710B820B930B6F3F7F4F33
:1028A0008F4F9F4710F40E946C13DF91CF911F91BF
:1028B0000F91FF90EF90DF90CF90BF90AF909F90DF
:1028C0008F907F906F905F903F902F90089583E757
:1028D00095E0A3CF8CE695E0A0CF85E695E09DCF6F
:1028E0008091A602882341F28091A0028111C4CF79
:1028F0000E9487132091240330912503211531056F
:1029000009F4BACF80E041E050E0082F10E01A014E
:10291000082E02C0220C331C0A94E2F7B101622394
:102920007323672B11F48F5FF0CF90919F0290FF7C
:1029300095C0880F880F880F80931E011092210187
:10294000895F80931F0183E08093220124E630E0B9
:1029500047E050E06CE171E088E70E942F2F892B5F
:1029600009F08ACFA80125E0440F551F2A95E1F709
:1029700080919F0280FF84C0EFE7F2E080E2DF01F8
:102980001D928A95E9F7A4EAB1E000EA11E088EA2D
:10299000C82E81E0D82E97E0592E772473948D911C
:1029A000E80129918E01240F352F311D2A5D3C4FFE
:1029B000E82FF0E0E158FD4F90E080E0652C681AC8
:1029C000872C082E01C0880C0A94EAF77901A12C03
:1029D000E701B9907E01B820662D6A196770962EBE
:1029E000062E000C770BDB2D01C0DD0F9A94EAF761
:1029F0007195619571096770772701C0B6946A95E2
:102A0000EAF7BD2A6081962E9B289082A39468E005
:102A1000A612DECF019631968830910579F6CA1656
:102A2000DB0609F0BCCF04E610E020E230E04FE71F
:102A300052E060E488E70E94B92F892B09F01CCF8F
:102A4000E101C095D0958091240390912503C8237E
:102A5000D923D0932503C09324030ECF8295880FEA
:102A6000807680931E019801369527953695279597
:102A700020932101815E80931F012093220166CF64
:102A80004A5D5C4F04E610E020E230E0D2CFB0E0D7
:102A9000A0E0EDE4F5E10C941930FC016280448083
:102AA00081E08483E4EBF3E07490E3E3F4E0E49109
:102AB000009179020695015810E0000F111F012FB7
:102AC0001127C8E5D2E026E4C22E22E0D22E36E756
:102AD000832E32E0932EAA24AA94B12C55245A9422
:102AE000E719EE2EF12C82E0861530F08091770206
:102AF0008883809178028983411016C01B821A82D4
:102B000096014A81698188810E94A809259683E0FF
:102B1000C80ED11C8C169D0631F70E947309CDB7E3
:102B2000DEB7E0E10C9435308B818823E9F08150E9
:102B30008B83859DC00111246C8170E00E9403305D
:102B4000FB01FF27EC54FC4F8491E82FE719E59D2A
:102B5000C0011124B7010E94033080917902689F5F
:102B6000B00111247A83CCCF0E941A31B5010E94A2
:102B700068308017910724F682E0861588F40E9459
:102B80001A31B5010E94683088830E941A31209161
:102B900078022695622F70E00E946830280F298302
:102BA0001A8280917902893C20F088EC8C838B8397
:102BB000A7CF8431D8F784E1F9CFB0E0A0E0E3EE0D
:102BC000F5E10C941D3049015A016B017C010E9412
:102BD00099098401A4016A2D7B2D88E090E00E9470
:102BE000833194014A2D5B2DB601C70100E20E949A
:102BF000B330622F84E290E00E947131CDB7DEB72E
:102C0000ECE00C943930A3E0B0E0E9E0F6E10C949C
:102C10001A30F82E762EE42E622E9091760290FFD6
:102C20002FC0E92FE695E695AE2FB0E0AB58BE4F2A
:102C30008C91809341029C7F943031F59E012F5FEF
:102C40003F4F8F2D0E94A8094B8169818A810E9484
:102C50008809F092770270927802E09279026620F9
:102C600079F02091760260917A0270917B023F2D7B
:102C7000472D5E2D80917C0290917D020E94DD1592
:102C80002396EFE00C943630823019F4E09079020C
:102C9000E0CF863019F4F0907702DBCF8930D9F39A
:102CA0008931B9F6E9518E2F8170582EE695F0E002
:102CB000E155FC4FE4910E2F10E086E4C82E82E02F
:102CC000D82EB12CA12C96E0892E912CC501B401EF
:102CD0000E9403308F2D511013C0860F96014E2D88
:102CE000672D0E94A809A00EB11E83E0C80ED11C5A
:102CF00088E5C81682E0D80649F70E947309A9CF73
:102D0000861BECCFE6E7F2E0438121E1421B08F4A9
:102D100040E021E0628181810E9403160895E6E788
:102D2000F2E0438121E1420F08F44FEF21E062819C
:102D300081810E9403160895E6E7F2E0628121E1B5
:102D4000621B08F460E021E0438181810E94031648
:102D50000895E6E7F2E0628121E1620F08F46FEF87
:102D600021E0438181810E9403160895E6E7F2E0A5
:102D7000818121E0438162818A500E940316089577
:102D8000E6E7F2E0818121E043816281865F0E9473
:102D90000316089580917A02882319F08150809358
:102DA0007A02209176023091770240917802509118
:102DB000790260917A0270917B0280917C029091FD
:102DC0007D020E94DD15089580917A02833018F407
:102DD0008F5F80937A022091760230917702409142
:102DE00078025091790260917A0270917B02809111
:102DF0007C0290917D020E94DD1508959091C3029E
:102E000092FB222720F9281779F080FB92F9909302
:102E1000C3026091C2027091C30284E090E00E94FC
:102E20008F3182E00E94580F08951F920F920FB6C3
:102E30000F9211242F933F934F935F936F937F9340
:102E40008F939F93AF93BF93EF93FF938091E10094
:102E500082FF09C08091E20082FF05C08091E100FD
:102E60008B7F8093E1008091DA0080FF24C0809105
:102E7000D80080FF20C08091DA008E7F8093DA0036
:102E80008091D90080FF9DC080E189BD82E189BD2C
:102E900009B400FEFDCF81E08093D6028091C90283
:102EA000811109C00E94A1060E9442078091E200A0
:102EB00084608093E2008091E10080FF17C08091E0
:102EC000E20080FF13C08091E2008E7F8093E200D9
:102ED0008091E20080618093E2008091D80080625E
:102EE0008093D80019BC85E08093D6028091E100E0
:102EF00084FF2BC08091E20084FF27C080E189BD60
:102F000082E189BD89B5982F917080FFFBCF8091B8
:102F1000D8008F7D8093D8008091E1008F7E8093D0
:102F2000E1008091E2008F7E8093E2008091E200D8
:102F300081608093E2008091D702882309F447C022
:102F400084E08093D6028091D6028091E10083FFD5
:102F500027C08091E20083FF23C08091E100877F3A
:102F60008093E10082E08093D6021092D702809194
:102F7000E1008E7F8093E1008091E2008E7F80935C
:102F8000E2008091E20080618093E20042E060E034
:102F900080E00E9410078091F00088608093F0002C
:102FA000FF91EF91BF91AF919F918F917F916F9121
:102FB0005F914F913F912F910F900FBE0F901F90F7
:102FC000189519BC1092D6021092C90274CF809144
:102FD000E30087FD93E09093D602B5CF78941F92DB
:102FE0001FB61F9211248F939F93AF93BF9380912D
:102FF000C5029091C602A091C702B091C802019685
:10300000A11DB11D8093C5029093C602A093C70273
:10301000B093C802BF91AF919F918F911F901FBE37
:103020001F9018959C014FB7F8948091C50290911C
:10303000C602A091C702B091C8024FBF821B930B7A
:1030400008952FB7F8948091C5029091C602A0917F
:10305000C702B091C8022FBF08950E9421189C0199
:103060009091B8028091B902982B21F03093B5026B
:103070002093B4029091BA028091BB02982B21F068
:103080003093B3022093B202E091BE02F091BF02EE
:10309000309749F082E08093B6020680F781E02DF8
:1030A00086EB92E00995089510921F02809123010A
:1030B000882339F18091C20287FF23C0E4ECF1E05C
:1030C0008EE1DF011D928A95E9F790E080E00E9491
:1030D0008E0890E080E00E9469081092F6010E943C
:1030E0004B1086E0E6EBF2E0DF011D928A95E9F7EE
:1030F0001092AF021092B0021092B1020E942D18ED
:103100000895ECEBF1E086E0DCCFAAE2B0E0EBE87A
:10311000F8E10C94263088ED92E02091F100DC017A
:103120002D93CD01B2E0803E9B07B9F78091D90283
:10313000833009F472C0B8F4813009F449C0823098
:1031400009F4B3C08091E80083FF8BC28091D8025C
:103150009091D9029A3008F084C2E92FF0E0E65F3E
:10316000FD4C0C947C308A3009F48EC08B3009F40D
:1031700071C0893039F78091D802813219F7809176
:10318000DC029091DD02009711F00297D9F6809150
:10319000E800877F8093E8008091E80082FF38C0D4
:1031A0009091F3008091F200029731F48091F10048
:1031B000813011F0863021F48091F1008093CB02B0
:1031C0008091E8008B778093E8000E94F106BACFE7
:1031D0008091D802813A09F0B5CF8091E800877FCD
:1031E0008093E8008091DC029091DD02892B61F4EC
:1031F00068E08CEC92E070E00E949D078091E8000E
:103200008B778093E8009ECF60E090E080E0F3CF82
:103210008091D6028111C0CF95CF8091D802813A9A
:1032200009F090CF8091DC029091DD02892B09F0AA
:1032300089CF8091E800877F8093E8008091E80043
:1032400080FFFCCF809123018093F1008091E80002
:103250008E77B9CF8091D802813209F073CF8091F7
:10326000DC029091DD02892B09F06CCF8091E8009F
:10327000877F8093E8000E94F1068091DA028093B4
:1032800023010E9454185ECF8091D802813209F048
:1032900059CF8091E800877F8093E8000E94F10673
:1032A0008091DB028093CA024DCF8091D802813A8F
:1032B00009F048CF8091E800877F8093E8008091F3
:1032C000E80080FFFCCF8091CA02BECF803899F021
:1032D000823809F0C6C18091DC028F70873008F017
:1032E000C0C18093E9008091EB0085FB882780F9BD
:1032F0001092E90006C08091D4029091D5029111FC
:1033000082609091E800977F9093E8008093F100AD
:103310001092F1008091E8008E779FC1882309F414
:103320008DC1823009F09DC18091DA02811190C176
:103330008091DC028F702FEF280F263008F091C1AA
:103340008093E9002091EB0020FF82C1933031F49B
:103350008091EB0080628093EB007AC19091EB004A
:1033600090619093EB0021E030E001C0220F8A953C
:10337000EAF72093EA001092EA008091EB0088605F
:10338000EACF81116EC11091DA021F778091E300BC
:103390008078812B8093E3008091E800877F809381
:1033A000E8000E94F1068091E80080FFFCCF809148
:1033B000E30080688093E30082E0111183E0809352
:1033C000D6024FC18058823008F04BC12091DA02FA
:1033D0003091DB022C3DE3E03E07A1F583E08A83D8
:1033E0008AE289834FB7F894DE01139620E03EE02D
:1033F00051E2E32FF0E050935700E49120FF03C027
:10340000E295EF703F5FEF708E2F90E0EA30C0F0F2
:10341000C7968D939D932F5F243159F74FBF8091AD
:10342000E800877F8093E8006AE270E0CE010196B1
:103430000E949D078091E8008B778093E80011C17E
:10344000C096E7CF8091DC029091DD02432F552793
:103450004330510509F44AC078F54130510509F46B
:103460007AC08BE590E0E8E2F6E04230510509F0E1
:10347000F8C02091E800277F2093E8002091DE0229
:103480003091DF028217930708F49C0140E0211578
:10349000310509F065C0411163C08091E80082FDEB
:1034A000C9CF8091D602882329F2853019F2809104
:1034B000E80083FFF2CFBECF4132510509F43CC092
:1034C0004232510509F0CDC08330910508F0C9C0E2
:1034D000FC01EE0FFF1FE555FE4F0190F081E02D3E
:1034E00088559E4FDC018C9190E01AC03327213023
:1034F0003105D1F02115310561F02230310509F097
:10350000B0C0E5E9F6E0E4918E2F90E0E5E9F6E061
:1035100007C0E5ECF6E0E4918E2F90E0E5ECF6E0F4
:10352000009709F49EC0A5CFE5EAF6E0E4918E2F5E
:1035300090E0E5EAF6E0F4CF8330910508F091C021
:10354000880F991FFC01EF54FE4F0190F081E02D90
:1035500089E090E08ECF82E190E0E3E8F6E089CF69
:103560008091D602882309F465CF853009F462CFB3
:103570008091E80083FD5ECF8091E80082FD8DCFD1
:103580008091E80080FF83CF9091F3008091F2005A
:103590002115310519F08830910550F041E0089768
:1035A00009F040E08091E8008E778093E8006FCFCB
:1035B00044914093F1003196215031090196E8CFB2
:1035C000803809F04EC08091E800877F8093E80042
:1035D0008091D7028093F1009DCE811142C010915D
:1035E000DA021230F0F58091E800877F8093E800DE
:1035F0001093D7020E94F106112311F084E005C058
:103600008091E30087FDFACF81E08093D60242E00B
:1036100061EC81E00E94100742E261EC84E00E94CC
:10362000100742E261EC82E00E94100742E260EC87
:1036300083E00E9410078091D60213C08091DA02C5
:10364000813079F481E0933009F080E08093D502F5
:103650001092E9008091E800877F8093E8000E9443
:10366000F1068091E80083FF0AC08091E800877F1F
:103670008093E8008091EB0080628093EB00AA9633
:10368000E3E00C9442301F920F920FB60F92112478
:103690002F933F934F935F936F937F938F939F935A
:1036A000AF93BF93CF93DF93EF93FF93D091E90054
:1036B000DF708091EC00C82FC17080FDC0E81092CF
:1036C000E9008091F000877F8093F00078940E9459
:1036D00085181092E9008091F00088608093F000D6
:1036E000CD2BCF70C093E900FF91EF91DF91CF9187
:1036F000BF91AF919F918F917F916F915F914F910A
:103700003F912F910F900FBE0F901F9018950E9420
:1037100054182FEF84E39CE0215080409040E1F763
:1037200000C0000088E19CE00FB6F894A895809353
:1037300060000FBE90936000FFCF4091B80290915F
:10374000BA022091BB02662309F469C0942B922B24
:103750002091B902922B31F098E09093AF0291E062
:103760009093B0028D3C41F40E94E20881958093D1
:10377000B9020E942D1808958E3C19F40E94E208A7
:10378000F6CF8F3C31F40E94E20881958093B80215
:10379000F0CF803D19F40E94E208F8CF893D29F46A
:1037A0000E94C0088093BA02E4CF8A3D21F40E94AF
:1037B000C0088195F7CF8B3D31F40E94C0088195F8
:1037C0008093BB02D6CF8C3D19F40E94C008F8CF7D
:1037D0009FE2980F983070F4815D990B21E030E002
:1037E00001C0220F8A95EAF78091B702822B80935D
:1037F000B702BFCF8D3D31F48091B10281608093DB
:10380000B102B7CF8E3D21F48091B1028260F7CF33
:103810008F3D09F0AECF8091B1028460F0CF8D3C36
:1038200059F48091B90287FF0DC01092B90241117D
:103830000BC01092AF0208C08E3C81F48091B90297
:1038400018169CF3442381F08091BA029091BB0238
:10385000892B09F08ECF1092B0028BCF8F3C49F4A8
:1038600047FFF0CF1092B8028091B9028111ECCFDE
:10387000E0CF803D19F41416ACF3E4CF893D29F470
:10388000191604F71092BA02DDCF8A3D19F497FF9A
:10389000D9CFF8CF8B3D29F427FFD4CF1092BB02AC
:1038A000D1CF8C3D19F41216CCF3CCCF9FE2980FF8
:1038B000983090F4815D990B21E030E0B90102C0AD
:1038C000660F771F8A95E2F7CB0180959091B7023A
:1038D00089238093B702B6CF8D3D31F48091B10238
:1038E0008E7F8093B102AECF8E3D21F48091B102E4
:1038F0008D7FF7CF8F3D09F0A5CF8091B1028B7FEF
:10390000F0CF882381F19CEF980F913A28F40E9420
:103910000A080E944B10089590E2980F983050F4D6
:10392000877091E001C0990F8A95EAF7892F0E946C
:103930006A0EEFCF9BE5980F933028F490E080E07B
:103940000E948E08089598E5980F9B3128F490E026
:1039500080E00E946908089593E3980F933118F46A
:1039600060E00E949D1B0895CF93C82F8823B1F17A
:103970008CEF8C0F813AA0F580912301882301F10F
:103980008091C20287FF1CC0EC2FE695E695E69574
:10399000F0E0EE53FE4F828190E04C2F477021E023
:1039A00030E002C0220F331F4A95E2F782239323AF
:1039B000892B79F08C2F0E940A080E944B1009C0B5
:1039C000ECEBF1E08191C817A9F381E0E23CF80744
:1039D000C9F78C2F0E9435080E944B10CF91089593
:1039E00080E28C0F883068F4C77021E030E001C0BD
:1039F000220FCA95EAF780911F02822B80931F0243
:103A0000EBCFEBE5EC0FE33040F4F0E0EC5DFE4F84
:103A1000808190E00E948E08E1CFE8E5EC0FEB3169
:103A200050F4F0E0EE0FFF1FE95DFE4F80819181C1
:103A30000E946908D3CF83E38C0F833178F661E06D
:103A40008C2F0E949D1BCACF1F93CF93DF93182FFB
:103A5000EB010E94B41C209739F4812F0E94811C35
:103A6000DF91CF911F9108958FE99FE00197F1F7C2
:103A700000C000002197EFCF0F931F93CF93DF93E8
:103A8000C62FD42F022FFC0185818823A9F06093D3
:103A90001C030E94211890931B0380931A03C77084
:103AA00081E001C0880FCA95EAF70E94A410DF9157
:103AB000CF911F910F91089580911C03681334C01A
:103AC00080911A0390911B030E941218883C910563
:103AD00058F510E21D0FCD17B9F080E28C0F883039
:103AE00040F4C77081E001C0880FCA95EAF70E94D0
:103AF0009D10183048F481E09D2F977001C0880F09
:103B00009A95EAF70E94A41070E060E0802F0E946E
:103B1000241D183060F6D77081E001C0880FDA9557
:103B2000EAF70E949D10C3CFC77081E001C0880FE3
:103B3000CA95EAF7F6CF609176026695669570E0D1
:103B40004BE050E08EE091E00E943331892B19F474
:103B500081E0809342020E94211890933C0280935E
:103B60003B0208959091760290FF35C093708111C9
:103B700033C0946090937602662391F02091760290
:103B800030917702409178025091790260917A02E7
:103B900070917B0280917C0290917D020E94DD15E4
:103BA000609176026695669570E04BE050E08EE09D
:103BB00091E00E943331892BB9F01092420281E0EA
:103BC00080933E0220E040917902609178028091DA
:103BD00077020E94031608958B3210F0986ACACFBC
:103BE000880F880F982BC6CF0E949B1DE8CFE6E771
:103BF000F2E080818160808360E0869586950E94F6
:103C0000B21D08958091760286958695815009F4BB
:103C10008AE261E00E94B21D089580917602869545
:103C200086958F5F8B3208F081E061E00E94B21DC3
:103C300008959091760290FF09C0969596959817F1
:103C400028F0961718F40E940D1E089561E00E9456
:103C5000B21D0895A8E0B0E0E0E3FEE10C94193055
:103C60008C01DC0114968C911497882309F4BDC053
:103C700021E04C9111965C91119712966C911297DC
:103C800013967C91139715969C910E943A137C0190
:103C9000F8018581882309F447C1C7019757803807
:103CA000910508F09EC5FFE0FE1508F48EC08FEF69
:103CB00093E00E944D31811188C069EBA62EB12C92
:103CC000E1104DC0FE01339686E0DF011D928A951A
:103CD000E9F75AE0452E7501BFEFEB1AFB0AC50163
:103CE0000E944D3189831A82882309F46EC0813085
:103CF00009F07FC06501E2E0CE0ED11CC7010E9431
:103D00004D318A83882309F460C09FEF980F933068
:103D1000A0F5F3E0AF0EB11CC6010E944D318B83BC
:103D2000882309F452C01C82DE0111967D01F7013F
:103D30002081222381F2213009F09DC0918182816E
:103D4000913009F058C0F2E0EF0EF11C70E060E035
:103D5000893311F460E570E00E94241D53C0A11462
:103D600024E0B20691F1C5010E944D31811101C0DC
:103D7000EA943FEFA31AB30AA3CF56018430A1F609
:103D800042E0E42EF12C56012FEFA21AB20AC6012E
:103D90000E944D31E1E0F0E0EC0FFD1FEE0DFF1D44
:103DA0008083882391F08C3741F4E2E0F0E0EC0F5F
:103DB000FD1FEE0DFF1D1082B7CF3FEFE31AF30A90
:103DC000650187E0E816F104F1F68091F40187704F
:103DD00061F0D80115968C91882339F08091C30247
:103DE00082FF03C082E00E94580F2896E0E10C9405
:103DF0003530570199CF923049F422E0E20EF11CA0
:103E00000E94B41C9FEFE91AF90A91CF933031F464
:103E100032E0E30EF11C0E94811CF4CF943021F0BB
:103E20008FEFE81AF80AEECF92E0E90EF11C30E0CD
:103E300020E0B7016F5F7F4FD70111964C918053FF
:103E4000990B8A30910560F021153105D9F2EFE91F
:103E5000FFE03197F1F700C0000021503109F4CFA5
:103E6000429EF001439EF00D11249C012E0F3F1F36
:103E7000842F7B01DECFE22FF0E0E850FE4F54901C
:103E8000822F86958695869590E0FC01E851FE4F3D
:103E900064902770712C022E02C0759467940A9466
:103EA000E2F7F1E06F227724FC01E852FE4F8490A4
:103EB000912C022E02C0959487940A94E2F731E087
:103EC00083229924FC01E853FE4FC490D12C02C0F8
:103ED000D594C7942A95E2F781E0C822DD246114C5
:103EE000710419F081EE0E94B41C8114910419F040
:103EF00086EE0E94B41C70E060E0852D0E94241DB7
:103F00008114910419F086EE0E94811C61147104E1
:103F100019F081EE0E94811CC114D10409F472CF02
:103F200070E060E08CE218CFF701E851FC47E73021
:103F3000F10508F042C4EC5EFD4C0C947C3026E2A6
:103F400041EE61EEC8010E943C1D3FCF27E245EEE5
:103F500065EEF8CF26E241EE60EEF4CF27E245EEC3
:103F600064EEF0CF26E241EE62EEECCF27E245EEC2
:103F700066EEE8CF28E241E0EBCF8091C20281609B
:103F80008093C20295C08091C30288608093C3026F
:103F90008FC08091C2028260F3CF8091C2028460A0
:103FA000EFCF8091C2028860EBCF8091C302816025
:103FB000EDCF8091C3028260E9CF8091C20280611F
:103FC000DFCF8091C2028062DBCF8091C202806429
:103FD000D7CF0E9454188091C2028068D1CF8091BF
:103FE000C2028C60CDCF8091C3028360CFCF80911D
:103FF000C2028E7FC5CF8091C302877FC7CF8091D9
:10400000C2028D7FBDCF8091C2028B7FB9CF8091DC
:10401000C202877FB5CF8091C3028E7FB7CF8091D8
:10402000C3028D7FB3CF8091C2028F7EA9CF8091D2
:10403000C2028F7DA5CF8091C2028F7BA1CF0E944B
:1040400054188091C2028F779BCF8091C202837FE8
:1040500097CF8091C3028C7F99CF8091C20282FB5F
:10406000992790F921E0922790FB82F990FB83F940
:1040700087CF8091C302982F909591708E7F892B66
:1040800090FB81F983CF9091C202892F8F7B96FF9D
:10409000806476CF0E9454189091C202892F97FBBA
:1040A00087F980586DCF61E08EE090E00E94713119
:1040B0006091C2027091C30284E090E00E948F314F
:1040C0000E94541882CE60E0EFCF9091C202892FF7
:1040D0008F7E94FF806154CF9091C202892F8E7F92
:1040E00090FF81604DCF9091C302892F877F93FF0E
:1040F00088604CCF85E35CC38091E201811104C0EC
:1041000089E20E940A0856C385E3FBCFA7E7EA16B7
:10411000ACE7FA0609F020C381E00E946F0F43E08C
:1041200062E081E00E942B0F50CE8091760280FFEA
:1041300019C0282F2E7F209376023091770240916C
:1041400078025091790260917A0270917B0280919D
:104150007C0290917D020E94DD15109242020E9425
:10416000730933CE81608093760261E086958695EF
:104170000E94B21D2ACE42E05EE16DE07EE10E9427
:104180006C0923CE4DE05EE162E07EE1F8CF46EBC4
:1041900056E160EC76E1F3CF40EC56E166EB76E178
:1041A000EECF4CE956E169EA76E1E9CF49EA56E11A
:1041B0006CE976E1E4CF42E856E16FE876E1DFCFE3
:1041C0004FE856E162E876E1DACF4AEC56E164EE78
:1041D00076E1D5CF44EE56E16AEC76E1D0CF61E0EE
:1041E00081E0C6CF65E082E00E94191EEECD68E056
:1041F00086E0FACF6EE089E0F7CF64E18FE0F4CF9C
:1042000067E185E1F1CF61E088E1B2CF62E289E167
:10421000EBCF61E083E2ACCF6AE285E2E5CFB7E7BE
:10422000EB16BCE7FB0609F45AC0E8E7EE16ECE72C
:10423000FE0609F45AC0F8018581E080F1808823E8
:1042400009F487C0C7010E94DB12D82E682FC7016E
:104250000E940F0FB7018D2D0E94BC120E944C0DC1
:104260007C01882ED8011596AC90159716969C90D7
:1042700092943FE093228091F401877009F1CA2C57
:10428000AA20F9F08F2D807F803469F080E28E0DB6
:104290008830B0F08F2D807E803229F4B1E0BE15D9
:1042A00078F4992069F08091C30282FF09C082E00E
:1042B0000E94580F8091F4018770CC24C39481111F
:1042C000C12CBF2CB2942FE0B222EBE0EB1508F426
:1042D000A8C0EB2DF0E0E55EFD4C0C947C3081E055
:1042E0000E944B0F1CCF82E018CF82E0F9CF9BE5F4
:1042F000E9169CE7F90659F1ACE5EA16ACE7FA06CF
:10430000E1F0BAE5EB16BCE7FB0609F094CF81E0DB
:104310001BC00E945418EFEFF4E32CE0E150F04092
:104320002040E1F700C000000E9412116FEF7FEF04
:1043300090E080E00E948F3128C28091C30282FB0E
:10434000882780F991E089270E94FE1674CF80E0CB
:10435000FBCFC7010E94C90ED82E7CCFFF2DFF7066
:10436000DF2E8F2D807F19F0D29490EFD922AA20D2
:10437000B9F0DD2069F080E28E0D883010F08110F8
:1043800009C080911F02D82AD0921F020E944B10B0
:104390008E2D45C08091F601D82AD092F601F6CF35
:1043A0008E2D0E94811CDD20E1F180E28E0D88308F
:1043B00010F0811004C08D2D0E946A0E06C0D094AA
:1043C0008091F601D822D092F6010E944B1029C0AC
:1043D0002F2D2F70D22E8F2D807F803219F0D29406
:1043E00080EFD822882059F031E0831609F481C08B
:1043F000AA2009F48DC0992009F44FC0C9CF80913B
:10440000C30282FD46C0AA20F1F1DD2039F080917F
:104410001F02D82AD0921F020E944B1080E00E94F7
:10442000B41CAB2DA850BB0B149710F40E94B3081A
:10443000CC20A9F08091F40180FD11C0F801158213
:104440008695869586950E946F0FC8010E942A1E48
:104450008091F4018695869586950E944B0F20E009
:10446000D8014C9111965C91119712966C9112970C
:1044700013967C91139714968C91149715969C9192
:104480000E943A13B2CC80E00E94811CDD2049F2E8
:1044900092CFAA20A1F0911004C08D2D0E94A410EB
:1044A000C0CF81E09812BDCF8091F5019D2D98235A
:1044B000D91609F4B6CFD82AD092F501B2CF91100F
:1044C000B0CF8D2D0E949D109091F5018D2D8923E7
:1044D00029F08D2D809589238093F5018091E3014A
:1044E0009D2D982309F49DCFD094D822D092E3013A
:1044F00098CFAA2029F095E0991508F492CFCDCF56
:10450000A4E0A91508F48DCF8D2D0E949D1089CFB0
:104510009920D1F3B9E38B1218C1EFEFF7EE23E046
:10452000E150F0402040E1F700C000000EC18F2DA7
:1045300086958695837061F0813009F072CFC7014E
:104540009370A11002C080E090E00E94690869CFDA
:10455000C7019370A11002C080E090E00E948E0815
:1045600060CF6A2D8E2D0E949D1B5BCF8F2D837097
:1045700091F5A11056CF4E2D429546954770440FA8
:10458000440F8E2D8F70042E01C0880F0A94EAF715
:104590002E2D2071E4FE07C02FE030E001C0220F75
:1045A0004A95EAF720953F2D36953695337032308F
:1045B00069F050F440912902313029F0822B842394
:1045C0000E947B0F2ECF842B822BFACF282B809139
:1045D00029028227F5CF8695AA2011F08F2D8170B0
:1045E000882309F41ECF4E2D429546954770440FFF
:1045F000440F8E2D8F70042E01C0880F0A94EAF7A5
:104600002E2D2071E4FE07C02FE030E001C0220F04
:104610004A95EAF720953F2D36953695337032301E
:1046200069F050F440917E02313029F0822B8423CE
:104630000E94280FF6CE842B822BFACF282B809154
:104640007E028227F5CF3F2D3F70F32EAA2029F05E
:10465000832F0E946F0F8E2D21CF8E2D0E949D10D3
:104660008F2D0E944B0FDDCE8E2D92EF8916B1F16A
:10467000981570F0A0EF8A16D1F0B1EF8B1691F07B
:10468000AA2009F45DC0911083CE8F2D8F712AC0AE
:10469000E3EF8E1651F1F4EF8F12F2CF8091C30247
:1046A00082FD2FC08F2D8F71AA20D9F21BC0AA20A6
:1046B00081F024E0291508F4B4CE2F2D2F7181E06C
:1046C00090E001C0880F2A95EAF790917E02892731
:1046D000AFCF35E0391508F4A4CEEFCF8F2D8F7111
:1046E000A110BFCF0E946F0F9CCE80E0AA2009F4DA
:1046F0009FCF9F2D9F7181E001C0880F9A95EAF7A7
:1047000097CFAA2091F08F2D8F71F82E0E946F0FF6
:104710008091C30282FF07C0A8E0FA9EC001112465
:1047200083608093F4018F2DDDCF81E00E94580FCC
:10473000B1E0B91508F075CE82E00E94580F71CE35
:10474000992039F0893309F4E8CE8E2D0E94811C1E
:1047500068CE8F2D8F7185CFB8E7EB16BCE7FB06CF
:1047600009F4C1CDF3E0EF16FCE7FF0609F4DECD56
:1047700008F0BDCDE1143CE7F30609F4CACD81E0B1
:10478000E8168CE7F80609F056CD0E94871BE6E193
:10479000EE16ECE7FE0609F0B9CC80911F028A7A8A
:1047A00091E009F490E09093E2018111A3CC89E2B9
:1047B0000E9435080E944B1008CBF6E1EF16FCE78B
:1047C000FF0609F499CC80911F028272F701E05232
:1047D000F847E531F10508F022CDE95DFD4C0C9478
:1047E0007C30F701E851FC47E730F10508F4A3CB32
:1047F00010921C03C7019057839748F684E090E01D
:104800000E945B319093C3028093C202F701E15092
:10481000F047E232F10508F0B0CBE45CFD4C0C94BB
:104820007C30CF93DF938091F301807F09F04DC0FE
:104830008091F201882309F448C0E0911903509156
:10484000E002C091EE01D091ED016091EF01709115
:10485000F00147E05E17C9F18E2F90E0E49FF00170
:104860001124EF51FD4F2481222391F1489FF00143
:10487000499FF00D1124DF01AF51BD4F11962C91CE
:1048800011972C1325C02C912D1322C015962C9115
:10489000159721111DC012962D913C91261B370BA7
:1048A000283C3105A8F48091F3018F7080618093DA
:1048B000F301E951FD4F80818F70806180838DEE1F
:1048C00091E00E942A1E0E94980EDF91CF910895D8
:1048D000FC013196E770BECFA4E1B0E0E2E7F4E27C
:1048E0000C941D308C0186E0F801DE011F960190CA
:1048F0000D928A95E1F7F8018481E5809DEEA92E5D
:1049000091E0B92E9091F101911128C0882319F1FD
:10491000EE20F1F0C8010E941713F82E8823C1F091
:1049200087E0F801D50101900D928A95E1F7809119
:10493000F101813031F48091ED019091EE010E94FE
:104940000A130E9411248F2D6496ECE00C943930E8
:10495000C8010E942A1EFF24F394F5CFD080C180A5
:1049600082809380F090F2012091EF013091F0016C
:10497000A401421B530BFF2009F4D9C0483C510548
:1049800008F092C08823F9F29091EE018091F30132
:10499000282F207F09F056C0C91214C09091ED0154
:1049A000D91210C0E11048C08F7080618093F3016C
:1049B0008DEE91E00E942A1E8091F301F80186831A
:1049C000F12CC1CFE11038C06C2D8D2D0E948206D4
:1049D0006C2D8D2D0E948206E82E8111F1CFDF868D
:1049E000C88A8F8598890E940A13292F22952F70D3
:1049F000243058F49F70223088F0992399F0F80100
:104A00009681907F79F4FE2C9ECF2A5F2F70223002
:104A100068F0C8010E942A1EEF2CF5CF992311F0EF
:104A2000882389F3805E883070F3F3CF803F58F39A
:104A3000815F833070F7E7CF8091F30181608093CD
:104A4000F301BECFC91207C09091ED01D91203C086
:104A5000EE2009F48DC0C8010E941713882309F4C1
:104A600077CFEE2009F474CF8091F301803288F083
:104A70002091ED013091EE01398728879B868A8647
:104A80009091F1019C871D868E87CE0108960E9429
:104A90002A1E87E0F801ADEEB1E001900D928A95F3
:104AA000E1F70E94112457CF9091F301292F207F25
:104AB00051F48DEE91E00E942A1E87E0F5011192DB
:104AC0008A95E9F77DCF882309F43DCF8091EE01E7
:104AD0008C1110C08091ED01D8120CC0E1100AC0F9
:104AE0009683C8010E942A1E87E0F50111928A95DB
:104AF000E9F729CFC8010E941713882309F428CFAA
:104B0000EE2009F425CF8091F301803210F220913C
:104B1000ED013091EE013A8329839C828B82909142
:104B2000F1019D831E828F83CE010196B0CF483C58
:104B30005105D0F6882309F40ECFFE2CEE2009F49F
:104B400007CF8091EE018C1120C08091ED01D81229
:104B50001CC08091F30180FD0FC0982F907F61F001
:104B60008683903F31F0982F907F905F8F70892BD4
:104B70008683C8010E942A1E87E0F801ADEEB1E0ED
:104B800001900D928A95E1F7DECEC8010E941713BD
:104B900081117FCF8091F30181608093F301C8017F
:104BA0000E942A1ED0CEABE1B0E0E9EDF5E20C9414
:104BB00025304E8B5F8B688F798F8A8F9B8F192F53
:104BC00091111092F6011D8A86E0FE017696DE01B3
:104BD0001F9601900D928A95E1F70A8D002341F00E
:104BE00021E04F85588969897A89C8010E943A1362
:104BF0000B8B1C8B87E0FE013F96DE01189601901F
:104C00000D928A95E1F7CE0108960E946C248111DD
:104C10000CC087E0FE013896DE01119601900D92DE
:104C20008A95E1F78C8581110BC017E080911903FB
:104C30009091E002891331C06B96E4E00C9441300E
:104C40002091E00230E0C9010196877099274091D8
:104C500019034817190699F097E0929FD001939F86
:104C6000B00D1124AF51BD4FFE01319601900D9250
:104C70009A95E1F78093E0020E94980ED6CF0E94A9
:104C800054181092E0021092190387E0EDEEF1E063
:104C9000DF011D928A95E9F7C8CF819FC0011124D9
:104CA0008F519D4F0E946C24882331F2809119030B
:104CB00090E001968770992780931903B7CFA4E0FD
:104CC000B0E0E5E6F6E20C941E3019821A821B82EF
:104CD0001C820DE511E081E6E82E81E0F82E992492
:104CE0009394CC24C394D12C25E6A22E21E0B22E9D
:104CF000D8018D918D018F3F09F444C0F894E82FBD
:104D0000E295EF70F0E021A18F70A60102C0440F80
:104D1000551F8A95E2F7CA01922F982B91A392A171
:104D20008095892382A3789400C061E671E0FE013A
:104D30003196492D4095DB019D91BD0180819F3FBA
:104D400009F44BC0292F22952F7030E0D90190969D
:104D50002C9130E09F7002C0359527959A95E2F727
:104D600020FD3BC0892980833196A616B70619F726
:104D7000F801319780818F3F11F00E94440CB0EA16
:104D8000BA95F1F7990CE016F10609F0B1CF44E0BD
:104D900050E0BE016F5F7F4F85E292E00E9440319C
:104DA000892BF9F089819A81AB81BC81809325029E
:104DB00090932602A0932702B093280281E080936B
:104DC00024020E942118909323028093220210E073
:104DD000812F2496EBE00C943A308423C4CF10E06A
:104DE00026C010912402112391F380912202909108
:104DF00023020E941218059750F344E050E065E248
:104E000072E087E392E00E944031892B41F3809168
:104E1000250290912602A0912702B091280280934A
:104E2000370290933802A0933902B0933A0210925D
:104E30002402CECFA6E0B0E0E0E2F7E20C94253009
:104E40000E9421188C0180912002909121028017EC
:104E5000910781F019821A820E942118682F4981D6
:104E60005A81792F80E090E00E94D325109321028F
:104E7000009320022696E4E00C9441301F921FB666
:104E80001F9211248F939F93AF93BF938091C4027D
:104E9000811113C08091C5029091C602A091C702F2
:104EA000B091C8024196A11DB11D8093C502909397
:104EB000C602A093C702B093C802BF91AF919F9161
:104EC0008F911F901FBE1F901895CDB7DEB7E29748
:104ED0000FB6F894DEBF0FBECDBF85B7806885BF23
:104EE00085B7806885BF84B7877F84BF0FB6F89485
:104EF000A8958091600088618093600010926000A6
:104F00000FBE80E890E00FB6F89480936100909314
:104F100061000FBE82E49CE09093B9018093B801D8
:104F20000E94A1060E9442078091E2008460809363
:104F3000E20078948091D6028823A1F01091E900D4
:104F40001F709091EC00892F817090FD80E8182BE4
:104F50001092E9008091E80083FD0E9485181F707F
:104F60001093E90082E084BD93E095BD9AEF97BD70
:104F700080936E000E944012811102C00E94301284
:104F8000E7EAF2E088E0DF011D928A95E9F781E027
:104F90008093340260E080E00E941D0961E080E0BF
:104FA0000E941D09EFE8F1E03197F1F700C0000021
:104FB00010E080913402181708F4C0C080EF0E94FE
:104FC000440C85EF0E94440C84EF0E94440C86EF51
:104FD0000E94440C87EF0E94440C81EF0E94440C15
:104FE00086E90E94440C87E90E94440C84E0E7E3D0
:104FF000F2E0DF01282F1D922A95E9F7E5E2F2E0C1
:10500000DF011D928A95E9F790E080E00E945B3114
:10501000863E9E4F21F40E944012811168C066EEC8
:105020007EEF90E080E00E948F3160E082E090E0CF
:105030000E94713181E08093290261E083E090E079
:105040000E94713160E074E184E090E00E948F3151
:1050500060E086E090E00E94713160E087E090E0DF
:105060000E94713140E050E0BA0188E090E00E9477
:10507000833160E084E290E00E94713160E087E17A
:1050800090E00E94713160E08CE090E00E9471310C
:1050900060E08DE090E00E94713119821A821B82DB
:1050A0001C821D821E821F82188648E050E068E143
:1050B00070E0CE0101960E94613140E050E0BA01FB
:1050C00080E290E00E94833180E00E9462110E94A1
:1050D000301240E050E0BA018FE090E00E9483314E
:1050E00040E050E0BA0183E190E00E94833182E029
:1050F00090E00E944D3180932D0284E090E00E9468
:105100005B319093C3028093C2020E945F26EFEF4F
:10511000F6E721E0E150F0402040E1F700C0000058
:105120000E945F268091370280FF1AC06FEF7FEFE9
:1051300090E080E00E948F310E94121160E0812F88
:105140000E941009082F61E0812F0E941009E12FB1
:10515000F0E0ED5CFD4F880F802B80831F5F29CF2F
:1051600083E090E00E944D310E947B0F10929F02DD
:1051700080E880931D030E94FB2E6BE070E08FE8B7
:1051800092E00E945F138823E9F180919F0265E01D
:1051900070E081FD31C18AE892E00E945F138823AC
:1051A00089F16DE070E088E792E00E945F13882348
:1051B00049F10E94FE07605C7848844E9F4F6093DF
:1051C000A1027093A2028093A3029093A402E6E24C
:1051D000F3E080E092E0DF019C011D92215030401D
:1051E000E1F7F0932705E09326058FEF9FEF90936B
:1051F00025038093240381E08093A6028093A50277
:105200001092A00280912A0281117EC088E090E075
:105210000E9455314B015C0184E290E00E944D31C7
:10522000282F30E040E050E060E070E080E090E067
:1052300000E20E949830282939294A295B292093C5
:10524000760230937702409378025093790260930C
:105250007A0270937B0280937C0290937D022C7F74
:1052600009F042C029E320937602109277022FEFD3
:10527000209378022093790210927A0229E330E099
:105280004FEF5FEF60E00E94DD1588E090E00E9444
:1052900055316B017C0184E290E00E944D31282F52
:1052A00030E040E050E060E070E080E090E00E949C
:1052B0009830B22FA32FF42FE52F5B0197018601C1
:1052C000BC29A12BFE29E32BB0937602A093770291
:1052D000F0937802E093790260937A02B0927B02B5
:1052E00080937C0290937D020E9499091092420261
:1052F0008091760280FF05C060E0869586950E94C9
:10530000B21D81E080932A0284E091E09093BF0275
:105310008093BE0268E1E62EF12C87E392E074E010
:10532000B72EB80EE4E0CE2ED12C8091D602853077
:10533000C1F450E4A52E9924939400E112E18091E8
:10534000D602853009F45BC00E9454180E94B3084D
:1053500010922C0280912B0281110E94F71D0E9455
:105360009B1D0E945F263EE2832E32E0932E47E390
:10537000642E42E0742ED301F40191918D9132E0BC
:10538000E233F30709F485C09817B9F310E033242A
:105390003394D3010D913D01F40141904F0140162A
:1053A00019F14026A12C55245394842D8521A1F078
:1053B000ADA61EA70E94211898AB8FA739AA91E02D
:1053C000802F852109F490E09AAB4DA55EA56FA5CD
:1053D00078A989A90E94D325A394550CF4E0AF12B3
:1053E000E4CFF401319700831F5F143091F60E94DF
:1053F000FE07AA24A39452C085E892E0CECE809105
:10540000D602843009F436C01092420280912C02F8
:1054100081110DC090922C0280917602982F91708C
:1054200090932B028E7F809376020E9473090E94D4
:105430006C131092C4020FB6F894A895E092600025
:105440000FBEA092600083B7817F846083BF83B763
:10545000816083BF7894889583B78E7F83BF0FB6B2
:10546000F894A89580916000886180936000109204
:1054700060000FBE8091D502882309F460CF0E949E
:105480005F26E7E3F2E08191811128C3BE12FBCFD2
:1054900056CF98137BCF0E941A27A12C80914202ED
:1054A0008823D9F180914102E0917602E695E69554
:1054B000E81BE0933D02823009F071C0F0E0E55551
:1054C000FD4FE4910E2F10E026E6822E2AE0922E68
:1054D00080913E02882361F010923E020E942118C2
:1054E00090933C0280933B021092400210923F0244
:1054F0000E942118E0913B02F0913C028E1B9F0B11
:105500008F3F9F4750F4E00FF11FF0933C02E09370
:105510003B028BE392E0F4010995809135028823E8
:1055200051F0109235028091A9028093AA028091D5
:10553000A7028093A802912C80913402981608F457
:105540009AC090E08CEF982E23E0822E77247394FB
:105550003DEF632E42E0542E8091AA022091A902D1
:10556000281709F4D6C2E82FF0E0E555FD4F108169
:1055700017FB002700F91F778F5F83708093AA02C3
:105580008091A8028F5F8093A8020111AEC00E9493
:10559000211819A39AA29CA38BA38DA2ADC086301B
:1055A00059F4F0E0E855FD4FE4910E2F10E096E538
:1055B000892E9AE0992E8CCF893061F4E695F0E03F
:1055C000EB55FD4FE4910E2F10E088E1882E8CE022
:1055D000982E7ECF8F3061F4E695F0E0EE55FD4FCA
:1055E000E4910E2F10E0B3EB8B2EBBE09B2E70CF1F
:1055F000853159F4F0E0E156FD4FE4910E2F10E0B3
:10560000A5E68A2EABE09A2E63CF08E210E07AEE90
:10561000872E7AE0972E883109F45ACF833249F4E5
:10562000EDE9F2E005911491F1EB8F2EFAE09F2E57
:105630004FCF04EF11E06AE7862E6AE0962E84329F
:1056400009F446CF00ED17E052E7852E59E0952E7C
:10565000853209F03DCF8E2F63E00E944E30E92F56
:10566000F0E0E656FD4FE4910E2F10E0E7E48E2EB9
:10567000E5E19E2E2DCF61E0892D0E941009182FA3
:1056800060E0892D0E941009E12FEE0FE82B092D13
:1056900010E0D801AD5CBD4F9C91892F8370E81755
:1056A00011F1990F990FE92BEC93EF70F0E0EB59A2
:1056B000FE4F0E5C1D4F8081D8018C90880E8C921D
:1056C000B3E060E0B81524F0EDEF8E1624F461E04D
:1056D000892D0E943009882D880C990BB6010E94F3
:1056E0006830D8018C93939427CF0E94211819A376
:1056F0006AA29CA38BA35DA27EA249A15AA16BA121
:105700007CA18DA19EA10E94D325002391F00E942F
:1057100021181FA368A69AA789A75BA61CA64FA15C
:1057200058A569A57AA58BA59CA50E94D32591E0D3
:1057300013CF0E9421181FA398A69AA789A78BA60A
:10574000EDCF0E94FE070E94AF130E948713E7C1AE
:1057500081E03FC281E045C281E084C281E08AC22B
:1057600000E210E0FE0131964F018091E80085FDD6
:105770000AC08091E8008B778093E8000E94C00601
:10578000882399F3BFC28091F100D4018D934D011C
:105790000150110951F7B6C21A828CE08B831BC0ED
:1057A0008A81823009F4C2C228F4813061F08FEF1F
:1057B000898311C08330C1F08430C9F71B821C82F9
:1057C0001D821E8208C00E94FE070E9482306B83E9
:1057D0007C838D839E8340E250E0BE016F5F7F4FEC
:1057E00082E00E94AE10A1CD2B81822F90E0FE01BD
:1057F0003496245E8430910570F7DC01A95CBD4FBE
:105800003C91319301962813F5CFE5CF8A81823000
:1058100081F0853061F68091760280FF15C080911D
:1058200076028E7F80937602109242020E94730964
:10583000D2CF6B817C818D819E810E94823088E2F3
:1058400090E00E947131C7CF0E94F71DC4CF4C81F8
:105850006B818A810E948C129827892798279E83C2
:105860008D83B9CF2D813E813227232732274C816A
:105870006B818A810E94B611AECF0E94DD11ABCF41
:105880009A81923009F093CF8830B1F1893009F4D0
:105890005FC08B81823009F1A8F4813009F09BCF81
:1058A0008C81BFEF8B9FC00111246FEF70E00E94CD
:1058B0000330462F20E060917802809177020E94A9
:1058C000031689CF8330A1F0843009F084CF20E023
:1058D000409179026D818C81F2CF8C81882309F40B
:1058E0009ECF0E94F71D60E08C810E94B21D73CF95
:1058F0008C8180937A026FCF8B818230E1F078F4D3
:10590000813009F068CF80917902EFEF8E9FC0015E
:1059100011246FEF70E00E9403306C835CCF833002
:10592000A1F0843009F057CF809177028C83809169
:1059300078028D8350CF8091760280FF04C08695D7
:1059400086958C8348CF80E0FCCF80917A02F9CF96
:10595000209176023091770240917802509179023D
:1059600060917A0270917B0280917C0290917D021D
:105970000E94DD1530CF80E18A832DCF83E08A83BA
:1059800087E40CCF0A811B811027012710279E0175
:105990002F5F3F4F39018C80C901880D911D4C014B
:1059A000C80187549F4F8614970409F414CF073415
:1059B000A3E01A0750F40E944D31F30184830F5F76
:1059C0001F4FBFEF6B1A7B0AEBCFD30114961C92CB
:1059D000F6CF0A811B81102701271027FE0131967F
:1059E0003F018C80800E912E911CC80187549F4FDF
:1059F0008016910609F4EFCE0734F3E01F0728F470
:105A0000D30114966C910E947131BFEF6B1A7B0A1F
:105A10000F5F1F4FEACF0E947B11DDCE84E0ACCF39
:105A20000A811B81102701271027FE0131963F01B3
:105A30008C809F01280D311D4901C801899686146B
:105A4000970409F4C8CE0038110558F40E944D316E
:105A5000D30114968C930F5F1F4FFFEF6F1A7F0ACD
:105A6000ECCFF3011482F7CF0A811B8110270127A5
:105A700010279E012F5F3F4F39018C80800E912EA1
:105A8000911CC80189968016910609F4A4CE0038AD
:105A9000110528F4D30114966C910E947131BFEF67
:105AA0006B1A7B0A0F5F1F4FECCF41E08C81811195
:105AB00001C040E06B818A810E945912CDCE2D81B8
:105AC0003E8132272327322741E08C81811101C09A
:105AD00040E06B818A810E948B117DCE09BD19BD8A
