:100000000C9455020C948D020C948D020C948D026C
:100010000C948D020C948D020C948D020C948D0224
:100020000C948D020C948D020C94F6260C94CA2725
:100030000C940C220C948D020C948D020C948D0265
:100040000C948D020C948D020C948D020C948D02F4
:100050000C948D020C9493220C948D020C948D02BE
:100060000C948D020C948D020C948D020C948D02D4
:100070000C948D020C948D020C948D020C948D02C4
:100080000C948D020C948D020C948D020C948D02B4
:100090000C948D020C948D020C948D020C948D02A4
:1000A0000C948D020C948D020C948D02A900AA0070
:1000B000237824784F00500025782678AC00A84299
:1000C000AB00AD00AE00AF00B200B100B34121788B
:1000D0002078227828782B7827782E432C780100F6
:1000E0000100010001000100010001000100010008
:1000F00001000100010001000100010001000100F8
:10010000010001001E0F0500047F3F1F64321464CC
:100110003214783C1E1E140A052223252628292A7B
:100120002C2D2F3032333536383A3B3D3E4042435A
:100130004547494A4C4E5051535557595A5C5E6099
:1001400062646668696B6D6F71737577797B7D7FAB
:1001500081838587898A8C8E90929496989A9C9EAA
:100160009FA1A3A5A7A8AAACAEAFB1B3B4B6B8B9C6
:10017000BBBCBEBFC1C2C3C5C6C7C9CACBCCCDCE2E
:10018000D0D1D2D2D3D4D5D6D7D7D8D9D9DADADB11
:10019000DBDBDCDCDCDCDCDDDDDDDDDCDCDCDCDC9D
:1001A000DBDBDBDADAD9D9D8D7D7D6D5D4D3D2D2DC
:1001B000D1D0CECDCCCBCAC9C7C6C5C3C2C1BFBEC4
:1001C000BCBBB9B8B6B4B3B1AFAEACAAA8A7A5A32F
:1001D000A19F9E9C9A98969492908E8C8A898785EE
:1001E00083817F7D7B79777573716F6D6B696866CD
:1001F0006462605E5C5A5957555351504E4C4A499F
:1002000047454342403E3D3B3A3836353332302F46
:100210002D2C2A292826252322FFAA7F55400001BC
:1002200001010101010101010202020202020202B6
:100230000203030303030303030404040404040488
:10024000050505050506060606060707070707084C
:10025000080808090909090A0A0A0B0B0B0C0C0CFF
:100260000D0D0D0E0E0E0F0F0F1010111111121299
:1002700013131414151516161717181819191A1A16
:100280001B1B1C1D1D1E1E1F202021222223242477
:10029000252626272829292A2B2C2D2D2E2F3031B3
:1002A0003232333435363738393A3B3C3D3E3F40C5
:1002B0004142434445464748494A4C4D4E4F5051B0
:1002C0005354555658595A5B5D5E5F61626465666A
:1002D00068696B6C6D6F7072737577787A7B7D7EF1
:1002E0008082838587888A8C8E8F91939596989A41
:1002F0009C9EA0A2A3A5A7A9ABADAFB1B3B5B7BA59
:10030000BCBEC0C2C4C6C9CBCDCFD1D4D6D8DBDD2C
:10031000DFE2E4E7E9EBEEF0F3F5F8FAFDFF1E03A8
:100320004E00430043002D00310037003000310003
:100330002D004B00420020007600320000001E031A
:1003400054006800650020004D006100640020003A
:100350004E006F006F0064006C0065000000040335
:10036000090409023B00020100A0FA09040000018F
:100370000301010009211101000122440007058148
:100380000308000109040100010300000009211114
:1003900001000122B60007058203200001120100BE
:1003A00002000000086C6A21000002010200010541
:1003B000010902A10185020901A10005091901290C
:1003C000081500250195087501810205010930090C
:1003D000311581257F95027508810609381581251B
:1003E0007F950175088106050C0A38021581257F65
:1003F000950175088106C0C005010980A10185032A
:1004000019012AB700150126B70095017510810062
:10041000C0050C0901A101850419012AA0021501DA
:1004200026A002950175108100C005010906A101F1
:100430008506050719E029E71500250195087501CE
:1004400081020507190029EF1500250195F07501B6
:10045000810205081901290595057501910295018B
:1004600075039101C005010906A101050719E029DD
:10047000E715002501950875018102950175088130
:10048000010507190029FF150026FF0095067508CC
:10049000810005081901290515002501950575013B
:1004A0009102950175039101C00011241FBECFEF89
:1004B000DAE0DEBFCDBF04B603FE18C0809125038D
:1004C00090912603A0912703B09128038730904B89
:1004D000A740B04B59F410922503109226031092B6
:1004E000270310922803E0E0F8E3099511E0A0E06B
:1004F000B1E0EEE6F7E502C005900D92A43EB1072B
:10050000D9F723E0A4EEB1E001C01D92A532B207F5
:10051000E1F70E9406120C94612B0C9400008430C9
:10052000B8F46330A8F4433098F450E093E0699F46
:10053000400D511D1124FA0199E0899FE00DF11D34
:100540001124EE0FFF1FE454FF4F859194910895FD
:1005500081E090E008950E948F020895843088F42D
:1005600061110FC090E0880F991FE1E0E427E80FC8
:10057000F92FF11DEE0FFF1FE455FF4F8591949168
:10058000089581E090E008950E94AE02089581E010
:1005900008950E94C702089581E008950E94C7024D
:1005A00008950E94CE02089508950E94D4020895ED
:1005B000A6E0B0E0EEEDF2E00C940D2A49835A83F8
:1005C0009E833091EB0189819A8131111AC03E815D
:1005D000332399F0222389F00E948F08182F682F67
:1005E00089819A810E945C0869817A81812F0E94A9
:1005F000B90F2696E3E00C94292A0E947608182F5A
:10060000F3CF0E948F0869817A81F1CFFC01262FF8
:100610004081518162817381848195810E94D802D9
:100620000895CF93DF93EC0161E00E940603BE01C1
:100630000E94C902DF91CF910895CF93DF93EC011F
:1006400060E00E940603BE010E94D502DF91CF91B7
:10065000089581E008950E9429030895CF93C82F3B
:100660000E9431078C2F0E942B032FEF84E39CE024
:10067000215080409040E1F700C00000CF910895E4
:1006800081E00E942E030E94B722089580E00E941C
:100690002E030E94DB2208950F931F93CF93DF93C5
:1006A0008C0161E00E940603EC01F8018581811153
:1006B0000E947819B801CE010E94D102811106C0B2
:1006C00080E0DF91CF911F910F910895B801CE0185
:1006D0000E94E01F8823A1F3B801CE010E940A1CEA
:1006E000882371F3B801CE010E94E01B882341F3F7
:1006F000B801CE010E949719882311F3F801858172
:10070000882361F0C330FCE7DF07E9F058F4C11536
:10071000ECE7DE07A9F0C130DC47B9F0C8010E9460
:10072000CC02CFCFCB358CE7D807A9F0CC35ECE79E
:10073000DE0771F0CA35DC4789F70E94D60CEECF90
:100740000E944003BDCF0E94DE0C0E944603B8CF3A
:100750000E94CC0CE3CF0E94DA0CE0CF0E94E9218A
:100760000E94D9030E94E01708950E94DD030E94B1
:10077000CF180E94EE210895089581E0089508950C
:10078000CF93DF93D82F0E94BD03C82F882319F081
:100790008D2F0E94BF038C2FDF91CF910895089574
:1007A000CF93C82F0E94BC038C2F0E94C003CF910F
:1007B000089580E00E94D00308950E9429200E949D
:1007C000D0030895CF930E942920C82F8091E6017D
:1007D0008C1779F0C093E6010E9478226093E701BC
:1007E0007093E8018093E9019093EA018C2F0E94B5
:1007F000D003CF910895ADE0B0E0E1E0F4E00C94D7
:100800000E2A488759876A877B878C879D87911135
:100810000E94DC0B1F8286E0FE013896DE011196F5
:1008200001900D928A95E1F78D8181110DC029818A
:100830003A814B815C816D817E818F810E94260B84
:100840002D96E2E00C942A2ACE0101960E94110313
:100850008111EDCFF5CFFC012481213021F480817D
:1008600091810E94C1080895662329F00E946B1DA2
:100870000E94501E08950E94D71DFACFCF93C82F13
:10088000882399F08CEF8C0F813A88F48C2F0E948A
:10089000C920882329F08C2F0E9469210E94700CA6
:1008A0008C2F0E9452210E94700CCF91089580E2FB
:1008B0008C0F883048F4C77081E001C0880FCA955A
:1008C000EAF70E94BF0BEFCFEBE5EC0FE33040F40B
:1008D000F0E0EC59FE4F808190E00E945D20E5CF72
:1008E000E8E5EC0FEB3150F4F0E0EE0FFF1FE25DB6
:1008F000FE4F808191810E948220D7CF83E38C0FAD
:10090000833198F661E08C2F0E943404CECF882387
:1009100081F19CEF980F913A28F40E9469210E947E
:10092000700C089590E2980F983050F4877091E021
:1009300001C0990F8A95EAF7892F0E94C50BEFCF66
:100940009BE5980F933028F490E080E00E945D20B2
:10095000089598E5980F9B3128F490E080E00E947C
:100960008220089593E3980F933118F460E00E9479
:10097000340408951F93CF93DF93182FEB010E9447
:100980003E04209739F4812F0E948704DF91CF9194
:100990001F9108958FE99FE00197F1F700C00000D3
:1009A0002197EFCF70E060E0893311F460E570E0EB
:1009B0000E94BA040895882321F00E94BF0B0E9470
:1009C000700C0895882321F00E94C50B0E94700CC2
:1009D0000895B0E0A0E0EFEEF4E00C94072A6C017B
:1009E000D62FC72FFC011581068102950F700E943A
:1009F000B50BE82E8823F9F0E12E1123E1F08C2FBE
:100A0000807F803461F080E28D0F883008F18C2F78
:100A1000807E803221F4D230D8F00023C9F080915A
:100A2000F90282FF15C082E00E94A00C0E94B50B63
:100A300091E0E82EE926BC2EB2949FE0B922FBE0BB
:100A4000FB15B8F1EB2DF0E0ED59F44D0C94C729EE
:100A5000E12CF1CF0C2F0F70C07F11F00295007FB9
:100A6000112399F0002359F080E28D0F883010F0A7
:100A7000D11107C0802F0E94BF0B0E94700C8D2FD8
:100A80005AC0802F0E94CF0BF8CF8D2F0E94870471
:100A9000002379F080E28D0F883010F0D11104C06E
:100AA000802F0E94C50B03C0802F0E94D50B0E948F
:100AB000700CEB2DE850FF0B349720F40E94292096
:100AC0000E94D003EE2089F00E94B10B80FD0DC082
:100AD000F60115820E94AB0B0E94BA07C6010E9464
:100AE000F8060E94AB0B0E94CA07CDB7DEB7E9E05B
:100AF0000C94232A2C2F2F70F22EC07FC03219F0B5
:100B0000F29480EFF822DD2341F0D130D1F11123AE
:100B100009F444C00023F1F0B2CF8091F90282FDC4
:100B200015C0112359F0FF2029F08F2D0E94BF0B13
:100B30000E94700C80E00E943E04BBCF80E00E94C7
:100B40008704FF2009F4B5CF8F2DABCF112369F0B7
:100B5000011104C08F2D0E94DB04ABCF013009F0DE
:100B6000A8CF8F2D0E94F30BA4CF0111A2CF8F2D00
:100B70000E94E2048F2D0E94FF0B8F2D0E94E30B39
:100B800098CF112321F0063008F093CFE3CF053042
:100B900008F08FCF8F2D0E94E2048BCF0023D1F37A
:100BA000D93349F43FEF87EE93E0315080409040D5
:100BB000E1F700C000008D2F0E9487047ACF8C2FB0
:100BC00086958695837069F0813009F072CF8D2FFC
:100BD0009C2F9370111102C080E090E00E9482204F
:100BE00068CF8D2F9C2F9370111102C080E090E090
:100BF0000E945D205ECF612F8D2F0E94340459CF5B
:100C00008C2F8370A1F5111154CF4D2F429546952D
:100C10004770440F440F2D2F2F7030E0042E02C078
:100C2000220F331F0A94E2F790E080E0D4FF09C05E
:100C30008FE090E002C0880F991F4A95E2F78095F7
:100C40009095C695C695C370822B932BC23049F000
:100C500058F4C13019F00E948A072BCF0E948107F7
:100C600028CF0E94930725CF0E947E0722CF86952A
:100C7000112311F08C2F8170882309F41ACF4D2F86
:100C8000429546954770440F440F2D2F2F7030E04A
:100C9000042E02C0220F331F0A94E2F790E080E096
:100CA000D4FF09C08FE090E002C0880F991F4A95D9
:100CB000E2F780959095C695C695C370822B932BCD
:100CC000C23049F058F4C13019F00E94F507F1CE56
:100CD0000E94EC07EECE0E94FE07EBCE0E94A20718
:100CE000E8CECF70112329F08C2F0E94BA078D2FE8
:100CF00032CF8D2F0E94E2048C2F0E94CA07D9CEDA
:100D0000D23F41F160F4D03FB9F0D13F81F01123DF
:100D100009F446C00111B3CE8C2F8F711FC0D33F91
:100D200001F1D43FA1F78091F90282FD24C08C2FFC
:100D30008F71112311F312C0112341F0053008F017
:100D4000B8CE8C2F8F710E94DC07B3CE063008F02E
:100D5000B0CEF7CF8C2F8F711111CFCF0E94BA0771
:100D6000A8CE112329F08C2F8F710E94AE07A1CE3F
:100D70000E94A9079ECE112349F0CF718C2F0E94AB
:100D8000BA0763E08C2F0E94820C93CE81E00E9410
:100D9000A00C023008F48DCE82E00E94A00C89CE17
:100DA000002359F0D93309F006CFEFEFF7EE23E037
:100DB000E150F0402040E1F7FCCE8C2F8F719DCFA9
:100DC0000F931F93CF93DF93EC01688179818D811D
:100DD0000E94CC088C010E9407080E947D07B80180
:100DE000CE010E94E904DF91CF911F910F910895E8
:100DF000CF93DF93EC018C81882399F0CE010E9480
:100E00004C03811111C00E94B50B882351F08D81D4
:100E1000882339F08091F90282FF03C082E00E94AA
:100E2000A00CDF91CF910895CE010E94E006CE0183
:100E30000E941D03F6CF90E080E00E945D2090E0CC
:100E400080E00E9482200E94DC0B0E94700C0E94B5
:100E50006C1E0E94501E08950E9480210E941B0754
:100E600008950E94CC0B0E942C07089592959F70C4
:100E7000963091F058F4925F9F70923058F4803F12
:100E800019F030F4883E30F481E008959A5FF4CF91
:100E9000843FD1F380E00895883EB0F3813FD1F7DD
:100EA000F3CFFC012481222339F0808191810E94BB
:100EB000C1080E943607089580E00895A6E0B0E0DA
:100EC000E4E6F7E00C940E2A2696E2E00C942A2A37
:100ED000A7E0B0E0EEE6F7E00C940E2A2796E2E0F9
:100EE0000C942A2A08950E94720708950E9473079D
:100EF0009093FB018093FA01089508950E9476076C
:100F000008952091FA013091FB01822B932B0E94CE
:100F1000760708952091FA013091FB0182239323F3
:100F20000E94760708952091FA013091FB018227F3
:100F300093270E94760708950E94720708950E94E1
:100F40009C0708950E949F079093F9018093F801F0
:100F5000089590E080E00E94A207089521E030E02B
:100F6000A90102C0440F551F8A95E2F7CA010E94E9
:100F7000A207089521E030E002C0220F331F8A95B6
:100F8000E2F78091F8019091F901822B932B0E9456
:100F9000A207089521E030E002C0220F331F8A9596
:100FA000E2F7209530958091F8019091F901822324
:100FB00093230E94A207089521E030E002C0220F8F
:100FC000331F8A95E2F78091F8019091F901822709
:100FD00093270E94A20708952091F8013091F9010A
:100FE000822B932B0E94A20708952091F801309143
:100FF000F901822393230E94A20708952091F8010A
:101000003091F901822793270E94A207089508953D
:10101000262F277091E001C0990F2A95EAF723E067
:10102000769567952A95E1F7660F771F660F771F0C
:10103000FA01E60FF71F50E040E0682F70E0819161
:10104000DF0111979B01042E02C0369527950A9463
:10105000E2F7217021952827292328272C934F5F19
:101060005F4F4430510559F70895A82FA77023E02A
:10107000969587952A95E1F7880F991F880F991FF4
:10108000FB01E80FF91F50E040E080E0219130E0E3
:101090000A2E02C0369527950A94E2F7217033276D
:1010A000042E01C0220F0A94EAF7822B4F5F5F4F94
:1010B0004430510559F70895282F862F933070F446
:1010C000233058F4622F70E023E0929F600D711D71
:1010D000112440EF51E00E94080808959C5F92306F
:1010E000E0F7622F70E04CEE51E0F5CF292F9330FE
:1010F00068F4833090F490E060EF71E033E0239F78
:10110000800D911D11240E94350808952C5F223016
:1011100020F46CEE71E090E0F6CF80E00895B0E04E
:10112000A0E0E5E9F8E00C94072A7C010091F801C1
:101130001091F9018091FA019091FB01082B192B74
:10114000CFE0D0E0CC24C394D12CBC2EC6010C2E11
:1011500002C0880F991F0A94E2F780239123892BFC
:1011600049F4219790F7B12C8B2DCDB7DEB7E9E08C
:101170000C94232AB7018C2F0E94D20F019789F378
:10118000F3CFCF93DF93EC010E948F08BE010E9442
:10119000D20FDF91CF9108951F93CF93DF93EB018F
:1011A0009091EB01992339F0CB010E94C108DF91A6
:1011B000CF911F910895882369F0CB010E948F0879
:1011C000182F682FCE010E945C08BE01812F0E945B
:1011D000D20FEDCFCB010E947608182FF6CF1F93C8
:1011E000CF93DF93C091FC0117E08091FD018C1338
:1011F00004C0DF91CF911F910895D0E01C9FF001B2
:101200001D9FF00D1124E250FE4F2081318142815B
:1012100053816481758186810E9468072196C77019
:10122000E4CF20913602309137024091380250913C
:10123000390260913A0270913B0280913C020E9417
:1012400068070895CF93DF9380913C02807F09F077
:101250004DC080913B02882309F448C0E091FC0115
:101260005091FD01C0913702D09136026091380251
:101270007091390247E05E17C9F18E2F90E0E49F2C
:10128000F0011124E250FE4F2481222391F1489F66
:10129000F001499FF00D1124DF01A250BE4F1196BD
:1012A0002C9111972C1325C02C912D1322C015962B
:1012B0002C91159721111DC012962D913C91261B42
:1012C000370B283C3105A8F480913C028F70806177
:1012D00080933C02EC5FFD4F80818F708061808342
:1012E00086E392E00E94F8060E94EF08DF91CF911A
:1012F0000895FC013196E770BECF482F2091FC0184
:101300009091FD0157E0291302C080E0089530E07C
:10131000529FF001539FF00D1124E250FE4F818146
:10132000681306C08081481303C085818111EECF08
:101330002F5F3F4F2770E7CFA4E1B0E0E2EAF9E08A
:101340000C94042A8C0186E0F801DE011F960190BE
:101350000D928A95E1F7F8018481E58096E3A92E44
:1013600092E0B92E90913A0291111FC08823D1F0DA
:10137000EE20A9F0C8010E945107F82E882379F0C9
:1013800087E0F801D50101900D928A95E1F7C5013A
:101390000E942B040E9422090E9411095FC0C8010B
:1013A0000E94F806FF24F39459C0C080D180828047
:1013B0009380F0903B022091380230913902A401D1
:1013C000421B530BFF2009F4F9C0483C510508F0BB
:1013D000A7C0882309F442C09091370280913C0253
:1013E000282F207F09F05CC09D1116C09091360215
:1013F000C91212C0E1104EC08F70806180933C0210
:101400000E94110986E392E00E94F80680913C0256
:10141000F8018683F12C22C0E1103CC06D2D8C2D8B
:101420000E947D096D2D8C2D0E947D09E82E811171
:10143000F1CFCF86D88A8F8598890E94C108292F3D
:1014400022952F70243078F49F702230A8F09923D1
:10145000B9F0F8019681907F99F4FE2C8F2D649657
:10146000ECE00C94202A2A5F2F70223068F0C8012B
:101470000E94F806EF2CF1CF992311F0882369F32D
:10148000805E883050F3F3CF803F38F3815F833044
:1014900070F7E3CF80913C02816080933C02BACF29
:1014A0009D1113C090913602C9120FC0E1100DC0FA
:1014B0008683C8010E94F80687E0F801A6E3B2E03F
:1014C00001900D928A95E1F767CFC8010E945107FC
:1014D000882309F464CFEE2009F461CF80913C02A7
:1014E000803288F020913602309137023987288780
:1014F0009B868A8690913A029C871D868E87CE01B4
:1015000008960E94F80687E0F801A6E3B2E0019091
:101510000D928A95E1F70E9422090E94110942CF9B
:1015200090913C02292F207FA1F4682D9A8A898A04
:10153000A6017A899E2D0E945E0786E392E00E94B2
:10154000F80687E0F50111928A95E9F70E941109E2
:1015500061CF882309F482CF809137028D1110C0AA
:1015600080913602C8120CC0E1100AC09683C801EF
:101570000E94F80687E0F50111928A95E9F76ECF8F
:10158000C8010E945107882309F409CFEE2009F40D
:1015900006CF80913C02803208F4B5CF209136020C
:1015A000309137023A8329839C828B8290913A0250
:1015B0009D831E828F83CE010196A3CF483C5105A7
:1015C000B8F5882309F4EECEFE2CEE2009F4E7CE20
:1015D000809137028D111EC080913602C8121AC048
:1015E00080913C0280FD0DC0982F907F51F0868342
:1015F000903F09F45ECF982F907F905F8F70892B7A
:1016000057CF87E0F801A6E3B2E001900D928A95EA
:10161000E1F724CFC8010E945107811174CF809156
:101620003C02816080933C02C8010E94F80616CFFC
:10163000682D9A8A898AA6017A899E2D0E945E0762
:1016400087E0F50111928A95E9F7A6CEAEE0B0E009
:10165000ECE2FBE00C940D2A288739874A875B87E8
:101660006C877D878E87CE0108960E949C0988230F
:10167000B1F06C85662341F0288539854A855B8504
:101680007D858E850E94680717E08091FC0190910E
:10169000FD0189133DC02E96E3E00C94292A87E0D2
:1016A000FE013896DE01119601900D928A95E1F7C0
:1016B0008C85882349F32091FD0130E0C901019612
:1016C000877099274091FC014817190699F097E017
:1016D000929FD001939FB00D1124A250BE4FFE01E6
:1016E000319601900D929A95E1F78093FD010E9449
:1016F000EF08CACF0E9431071092FD011092FC0141
:1017000087E0E6E3F2E0DF011D928A95E9F7BCCFBE
:10171000819FC001112482509E4F0E949C09882302
:1017200009F4B9CFE091FC011E9FF0011124E250B1
:10173000FE4F208131814281538164817581868190
:101740000E9468078091FC0190E0019687709927BC
:101750008093FC019ACF8091650286958695869547
:101760000895809165028770089590916502977041
:1017700081E009F480E008958091910208959091AC
:101780009102892B80939102089580959091910206
:101790009823909391020895109291020895909148
:1017A0009002892B809390020895809590919002E9
:1017B00098239093900208951092900208950895AE
:1017C0000E94DF0B089590916602292F282331F0A3
:1017D00080958923809366020E94E00B0895089506
:1017E0000E94EF0B089590916702292F2823281754
:1017F00029F0982B909367020E94F00B0895909126
:101800006702292F282331F080958923809367026E
:101810000E94F00B089580916702882329F01092AE
:10182000670280E00E94F00B0895CF93C09191026F
:1018300080919002C82B80916702882331F0C82BD9
:101840000E94A72081110E940B0C8C2FCF9108952C
:10185000CF93DF93C0910601D09107010E94150C30
:101860008883C0910601D091070148E050E06DE502
:1018700072E0CE010E94D42A892B59F088E0FE0143
:10188000ADE5B2E001900D928A95E1F7CE010E949C
:101890003620DF91CF910895CF93DF93C09104015B
:1018A000D09105010E94150C8983C0910401D0914B
:1018B000050140E250E06DE372E0CE010E94D42ABF
:1018C000892B59F080E2FE01ADE3B2E001900D9268
:1018D0008A95E1F7CE010E944120DF91CF910895D2
:1018E00080912D01882339F08091F80287FF03C091
:1018F0000E944C0C08950E94280C089508950E949F
:101900007E0C08959091F90292FF11C098E0899F92
:1019100090011124622B609365020E94BA078091A6
:1019200065028695869586950E947F0C08950E9493
:10193000BA0708951092650280E00E947F0C089516
:10194000909165028095892380936502282F2770E6
:1019500069F4891759F09091F90292FF07C08695B2
:10196000869586950E94CA070E949A0C08959091C8
:10197000F90292FB222720F9281769F080FB92F9DF
:101980009093F9028091F8029091F9020E94FF0C65
:1019900082E00E94A00C08958091F90282FB8827C2
:1019A00080F991E089270E94B70C089581E00E9498
:1019B000B70C089580E00E94B70C08956FEF7FEF99
:1019C00090E080E00E942C2B089590E080E00E943F
:1019D000F82A21E0863E9E4F09F020E0822F0895EC
:1019E00082E090E00E94EA2A089583E090E00E945D
:1019F000EA2A089584E090E00E94F82A0895BC0144
:101A000084E090E00E942C2B0895AB01BC018FE094
:101A100090E00E94202B0895AB01BC0183E190E08F
:101A20000E94202B089560E070E0CB010E940C0D15
:101A3000089560E070E0CB010E94050D0E94130D37
:101A40000895A8E0B0E0E7E2FDE00C940E2A66EE0F
:101A50007EEF90E080E00E942C2B60E082E090E03E
:101A60000E940E2B81E090E09093FB018093FA019D
:101A700061E083E090E00E940E2B60E074E184E07E
:101A800090E00E942C2B60E086E090E00E940E2BFC
:101A900060E087E090E00E940E2B40E050E0BA0149
:101AA00088E090E00E94202B60E084E290E00E94B9
:101AB0000E2B60E087E190E00E940E2B60E08CE04E
:101AC00090E00E940E2B60E08DE090E00E940E2BD3
:101AD00019821A821B821C821D821E821F82188616
:101AE00048E050E068E170E0CE0101960E94FE2AD5
:101AF00040E050E0BA0180E290E00E94202B0E947A
:101B0000190D2896E2E00C942A2A0E94210D0895CE
:101B1000682F8EE090E00E940E2B0895A6E0B0E0C2
:101B2000E4E9FDE00C940C2A0E946C228C01809167
:101B30009202909193028017910781F019821A8284
:101B40000E946C22682F49815A81792F80E090E0B1
:101B50000E94FB0310939302009392022696E4E006
:101B60000C94282A0E94782260939F027093A0020E
:101B70008093A1029093A20260939B0270939C02B7
:101B800080939D0290939E0208950E947822609314
:101B90009F027093A0028093A1029093A20260938F
:101BA0009702709398028093990290939A020895F5
:101BB000089508950E94D80D089508950E94DD0D9E
:101BC000089588EC90E10E9413120E94D90D0E94A2
:101BD000DA0D089581E008950E94EA0D08950E94AB
:101BE000EA0D0895089508950E94F20D0E94F30DE4
:101BF00008950E94E50C811102C00E94850D0E948B
:101C0000F00C8093A3020E94FA0C9093F902809347
:101C1000F8020E94DD1B0E94F50C90E00E947E07F6
:101C20008091F8019091F9010E949F0708950E9408
:101C300063220E940C1A0E946C110E94F90D0E94EE
:101C4000CF030E9489180E94DE0D0895A6E0B0E03F
:101C5000ECE2FEE00C94052A0E94EC0D811111C00B
:101C60000E948E0D0E9479190E94731A81110E94A0
:101C7000C50D0E948E1E0E94E2032696EBE00C9496
:101C8000212A0E9482111091940280E00E94D210B9
:101C900018130EC01091950281E00E94D21081139A
:101CA00007C01091960282E00E94D2101817C1F26C
:101CB0008091A30281FD0E94D8100E94EF0DC82ED2
:101CC00084E9A82E82E0B82E10E099249394812F05
:101CD0000E94D210082FF50181915F01081729F1A8
:101CE000D02ED826F12CEE24E3948D2D8E21A9F050
:101CF000CC2099F0F9821A830E946C229C838B83FA
:101D00009D8291E0802F8E2109F490E049815A81D3
:101D10006B817C818D810E94FB03F394EE0CF3E0D8
:101D2000FF12E3CFF501319700831F5F133079F67F
:101D30000E94B20D97CF1F93CF93DF930E94D70FCE
:101D4000EC01C11580E5D807F0F5C11580E4D8078E
:101D500008F09CC0C03ED10520F5CD3CD10508F06F
:101D600082C0C83AD10578F4C53AD10508F073C0ED
:101D7000C130D10519F1209709F1C430D105F0F433
:101D8000D0E0C0E01BC0C33CD105D0F7C85AD0E0BA
:101D9000CC0FDD1FC959DE4F0990D881C02DD46406
:101DA0000DC0C11580E2D80708F0D1C0C11581E08F
:101DB000D80708F05AC0C83ED10510F7CE01DF9110
:101DC000CF911F910895C03682E5D80718F5C03429
:101DD00082E5D80708F06BC0C03282E5D80708F06A
:101DE0005FC0C11582E5D80708F497C02C2F26954F
:101DF000269580E2289F900111248C2F8370C1E0EA
:101E0000D0E002C0CC0FDD1F8A95E2F7C22BD32BA6
:101E1000DD68D4CFC03A82E5D80760F4C03882E5E7
:101E2000D80708F459C0CF71D0E0DC2FCC27C46F9D
:101E3000D06AC4CFC03C82E5D80708F462C0C03E77
:101E400082E5D80708F09CCFDC2FCC27CC27DF71A8
:101E5000C06FD06AB3CFC55AD0E0C356DE4FC88139
:101E6000D0E0D064ABCFD065A9CF8D2F0E94791080
:101E7000182FCE0199270E94D70FC12FD0E0DC2F59
:101E8000CC27CC27DF71C82BD92B98CFCE0199272F
:101E90000E94D70FCC27DF70C82BD92BD06A8ECFEA
:101EA000CF71D0E0DC2FCC27C16FD06A87CF2C2F29
:101EB00026952695277080E2289F900111248C2F6B
:101EC0008370C1E0D0E002C0CC0FDD1F8A95E2F73D
:101ED000C22BD32BDC6872CF2C2F2695269527702A
:101EE00080E2289F900111248C2F8370C1E0D0E004
:101EF00002C0CC0FDD1F8A95E2F7C22BD32BDA6824
:101F00005DCF8C2F8F710E947910C82FD0E0DC2F0D
:101F1000CC27CC27DF71D06251CF8C2F8F710E94DC
:101F2000791055E0D695C7955A95E1F7CF70D0E076
:101F3000DC2FCC27282F30E084FF05C044E0220F9F
:101F4000331F4A95E1F7C22BD32BD06937CF8D2FA2
:101F50008F710E947910182FCE0199270E94D70FF8
:101F6000C12FD0E0DC2FCC27CC27DF71C82BD92B99
:101F7000D2CF462F672F733028F4433080F40E946D
:101F8000AB0208957D3F39F4411109C041E060E0A2
:101F90000E94C40208957C3F11F44423C1F390E0F1
:101FA00080E008950E94B90F0E949B0E0895823828
:101FB0009105B9F1B0F48133910509F47DC048F47D
:101FC0008932910509F46DC08A32910509F47BC00C
:101FD00008958533910509F45FC08933910509F1AE
:101FE0000895833E9105D9F138F4803E910529F199
:101FF000823E910579F10895863E9105D9F1873E9B
:10200000910509F43EC0843E910541F52091F90205
:1020100021FF24C08091F80284FD19C087EE90E072
:1020200008952091F802237009F05AC02091F90216
:1020300023FF14C089E290E008952091F80220FD6A
:1020400038C03091F90230FF09C024FF43C090E04E
:1020500080E008952091F80222FDF7CF08952091A5
:10206000F80222FD3AC03091F90230FD39C024FF58
:10207000F5CFEDCF2091F80223FFF0CF24FDE7CF7D
:10208000CDCF2091F80223FD2EC03091F90231FF0F
:10209000EECF84EE90E008952091F80225FFDECF88
:1020A000C9CF2091F80225FD21C02091F90223FF1C
:1020B000D5CF89E390E0D2CF2091F80226FFCECF92
:1020C0008AE290E008952091F80226FFC7CF81E3CD
:1020D00090E0089583EE90E0089582EE90E00895F8
:1020E00080EE90E0089586EE90E0089585E390E01C
:1020F00008959091F80292FF10C041E0282F2471BA
:10210000243009F040E031E0282F2871283009F010
:1021100030E0431711F02CE0822793FF10C041E01C
:10212000282F2471243109F040E031E0282F287154
:10213000283109F030E0431711F02CE0822730916C
:10214000F90230FF10C051E0282F2171213009F031
:1021500050E041E0282F2871283009F040E0541762
:1021600011F029E0822731FF10C041E0282F2171B2
:10217000213109F040E031E0282F2871283109F0A1
:1021800030E0431711F029E0822794FD877E0895FF
:1021900080E0089508950E94CA10089508950E944D
:1021A000CE100895E82FF0E0E350FD4F80810895B0
:1021B000089580EA8A95F1F7089500C008950E9475
:1021C000D9100895F894E82FE295EF70F0E031A16E
:1021D000282F2F7081E090E001C0880F2A95EAF740
:1021E000982F9095932391A392A1892B82A3789401
:1021F000089584E30E94E21085E30E94E21086E3E2
:102200000E94E21084E90E94E21086E90E94E21036
:1022100087E90E94E2100895B0E0A0E0E2E1F1E178
:102220000C94082A7C01162F042FC62FD0E0CE0173
:1022300080569E4F6C01EC0128812F3F09F444C069
:10224000F894E22FE295EF70F0E031A12F7081E079
:1022500090E001C0880F2A95EAF7932F982B91A35D
:1022600092A18095892382A378940E94DD10A3EA2D
:10227000B1E0F70146EA51E0F12C602F60959D91A5
:1022800080819F3F31F1292F22952F7030E0E901A5
:1022900028A130E09F7002C0359527959A95E2F706
:1022A00020FD17C0802B8083FF24F39431964A17BA
:1022B0005B0729F7F60180818F3F11F00E94E21041
:1022C0006F2D812F0E94DF10CDB7DEB7E8E00C94B0
:1022D000242A86238083EACF0E94F91083E0EDEF61
:1022E000F2E0DF01982F1D929A95E9F7EAEFF2E00C
:1022F000DF011D928A95E9F783E00E94BE110E94DA
:10230000CB100895A3E0B0E0E8E8F1E10C940C2ACA
:1023100019821A821B8210E001E0402F612FCE014A
:1023200001960E940C111F5F000F1330B1F743E0BC
:1023300050E0BE016F5F7F4F8AEF92E00E94D42A87
:1023400021E0009709F420E0892B49F089819A81E6
:10235000AB818093FA029093FB02A093FC0243E0CE
:102360006DEF72E08AEF92E00E94BF11182F0E9479
:10237000CF10812F2396E4E00C94282A0895B0E032
:10238000A0E0E5ECF1E10C94082A6C017B01042F3C
:10239000C22F222379F081E08093A6020E946C2252
:1023A0009093A5028093A40280E0CDB7DEB7E8E069
:1023B0000C94242AD091A602DD23B1F38091A402CB
:1023C0009091A5020E948422059770F310E0A80165
:1023D000B601C7010E94D42A892B31F0A801B601A9
:1023E000C7010E94E12ACD2F1092A6028C2FDDCFCB
:1023F0000E9447240E94170E0E94542408950E94B0
:1024000059240E94260E0E94732408950E940522DA
:102410000E942D240E94E10D0E94F8110E94FF11DC
:102420000E94F40DFBCF9093E5018093E4010895A1
:10243000EF92FF920F931F93CF93DF93EB01E82F5F
:10244000D1110EC0442321F0F0E0E25EFD4FE49193
:102450006E2F7E2F8E2FCDB7DEB7E6E00C94262AA6
:102460000D2F10E0282F30E0442329F0225E3D4F4D
:10247000F901249130E0F6E0CF9FC0011124EFEF85
:10248000F0E0BF010E947D29AB018C2F90E0880F06
:10249000991FA5E5A49FB001A59F700D1124861B6F
:1024A000970B982F990F980FBF01601B710B629FBC
:1024B000D001639FB00D729FB00D11248B2F9D9F93
:1024C000B0011124672F7727EF01C61BD70BBE0180
:1024D000629FE001639FD00D729FD00D11247F0198
:1024E000E91AF108E09EB001E19E700DF09E700DBA
:1024F0001124672F7727E61BF70BE29F8001E39FEC
:10250000100DF29F100D1124E12F722F4230510552
:1025100099F048F44115510569F04130510581F0B9
:10252000EB2F8D2F07C04430510569F080F0463005
:102530005105B1F76E2F8FCFE22F7B2F812FFACF6E
:10254000E22F7D2FF7CFEB2F822F712FF3CF7B2F31
:10255000822FED2FEFCF41E00E94181208950895C9
:102560000E94AB120895CF93DF93762FE901682F75
:10257000842F0E94B012798368838A83DF91CF9180
:10258000089580910003982F9C7F29F483708460C4
:102590008093000308958C3AE8F38370886AF8CF3B
:1025A000B0E0A0E0E6EDF2E10C94082A88E090E0CB
:1025B0000E94F22A6B017C0184E290E00E94EA2AE8
:1025C000282F30E040E050E060E070E080E090E0F4
:1025D00000E20E94352AB22FA32FF42FE52FD62F29
:1025E000C72F97018601BC29A12BFE295E2F532BF3
:1025F0002B2F3A2F4F2F6D2F7C2FCDB7DEB7E8E072
:102600000C94242AB0E0A0E0E8E0F3E10C94042A62
:1026100049015A016B017C010E94C1128401A4018D
:102620006A2D7B2D88E090E00E94202B94014A2D9A
:102630005B2DB601C70100E20E94502A622F84E29E
:1026400090E00E940E2BCDB7DEB7ECE00C94202A70
:10265000E0E0F3E089E3808311828FEF828383835C
:102660001482758129E330E04FEF5FEF60E08681EF
:1026700097810E94021308958091000380FF03C098
:1026800086958695089580E008959091040393308F
:1026900018F49F5F90930403882391F02091000326
:1026A00030910103409102035091030360910403B0
:1026B0007091050380910603909107030E94021315
:1026C000089581E00E944513089590910403992391
:1026D00019F0915090930403882391F02091000306
:1026E0003091010340910203509103036091040370
:1026F0007091050380910603909107030E940213D5
:10270000089581E00E946513089560910C01809105
:10271000000380FF0FC070E080910B0123E0829FD7
:10272000C0011124E091D101F091D201885F9C4F4A
:102730000995089580910D0190910E0123E0829FEB
:10274000F0011124E85FFC4F891728F711821082ED
:1027500012828F5F3396F8CF9091000390FF0EC0E6
:1027600090910D0120910E0133E0939FF00111240F
:10277000E85FFC4F921718F00E948513089581833B
:10278000608342839F5F3396F5CFA3E0B0E0EBEC2C
:10279000F3E10C940E2A9091000390FF0AC09E0171
:1027A0002F5F3F4F0E94B3124B8169818A810E9443
:1027B000AC132396E2E00C942A2ACF93DF93EC012A
:1027C000EC81F0E0E75EFE4F4491E0E0F3E06281EF
:1027D00081810E94C5138C818F5F8C83DF91CF91A3
:1027E0000895CF93DF93EC01E0E0F3E04381628151
:1027F0008C810E94C5138C818F5F8C83DF91CF9178
:102800000895A3E0B0E0E7E0F4E10C940C2A8C0119
:102810008091A70281110AC09E012F5F3F4F4FEFA9
:102820006FEF0E94B3128A818093A702F80164813E
:10283000613069F08091A70240E0662361F040E0DA
:10284000623011F44091A70280E060E004C0609122
:10285000A70240E080E00E94AC13F801848190E080
:10286000019663E070E00E94912984832396E4E05E
:102870000C94282AA3E0B0E0E0E4F4E10C94072AE9
:10288000082FD62EF42EC22E9091000390FF2FC059
:10289000E92FE695E695AE2FB0E0AA55BE4F8C9194
:1028A0008093C7029C7F943031F59E012F5F3F4F8C
:1028B000802F0E94B3124B8169818A810E94AC13E0
:1028C00000930103D0920203F0920303CC2079F02D
:1028D000209100036091040370910503302F4D2D6A
:1028E0005F2D80910603909107030E9402132396A7
:1028F000E9E00C94232A823019F4F0900303E0CF2E
:10290000863019F400910103DBCF8930D9F3893186
:10291000B9F6E9516E2F6170B62EE695F0E0E75EEC
:10292000FD4F1491E12C60910F01E61618F00E9402
:102930008513C6CFE19EC001112470E00E947D295D
:10294000802FB11014C0860F20910D01622F6E0DE3
:102950007727771F9B01220F331F260F371F285F12
:102960003C4F4F2D6D2D0E94B312E394DCCF861B9C
:10297000EBCFE0E0F3E09181282F438162818AE090
:10298000890F0E943A14089581E00E94B9140895B5
:10299000E0E0F3E09181282F4381628186EF890F87
:1029A0000E943A14089581E00E94C8140895E0E05E
:1029B000F3E0628121E1620F08F46FEF282F438179
:1029C00081810E943A14089581E00E94D7140895ED
:1029D000E0E0F3E0628121E1621B08F460E0282F6F
:1029E000438181810E943A14089581E00E94E81495
:1029F0000895E0E0F3E0438121E1420F08F44FEF56
:102A0000282F628181810E943A14089581E00E94FA
:102A1000F9140895E0E0F3E0438121E1421B08F45A
:102A200040E0282F628181810E943A14089581E05C
:102A30000E940A15089520E00E943A140895EF922A
:102A4000FF921F93CF93DF93EC0110E0EE24EA9402
:102A5000F12C60910F01161770F00E9485139A8176
:102A60008C8190FF27C08F5F8C83DF91CF911F9166
:102A7000FF90EF90089520910D01422F410F5527AF
:102A8000551FCA019A01220F331F280F391F285FD3
:102A90003C4F70E0C7010E949129962F8C81409194
:102AA000030360910203199F800D11240E94B31249
:102AB0001F5FCFCF8150D8CFB0E0A0E0E2E6F5E1D4
:102AC0000C94072AFC0182810FEF80FF01E010E0E7
:102AD00080910F01181798F00E9485138091A90228
:102AE000013009F04CC0811102C080910F0181506A
:102AF0008093A902CDB7DEB7E9E00C94232AC091F8
:102B00000D01C12ED12CCC0DDD2DD11DCE01880F94
:102B1000991FC80FD91FC85FDC4F198218821A820B
:102B200034E0E32EF12CB12C8091A9028B0D85307D
:102B300004F18370082E000C990BC816D90691F485
:102B4000809103038E9DA0018F9D500D11245595FA
:102B50004795559547959E01609102038091010329
:102B60000E94B312B00EF1E0EF1AF108E9F61F5F10
:102B7000AFCF87FFDFCF90910F01890FDBCF90E0C0
:102B8000019660910F0170E00E949129B1CF0F93DF
:102B90001F93CF93DF9380910D0190910E0123E05D
:102BA000829FF0011124E85FFC4F891740F1C0E0DB
:102BB000D3E060910F01C61740F10E948513209168
:102BC00009018091A802820F8093A80290910A01C6
:102BD000920F90930A01191654F4082E000C990BC9
:102BE00040910F014150550B841795071CF021951A
:102BF00020930901DF91CF911F910F9108951182C8
:102C0000108212828F5F3396D0CF0C2F10E070E0CD
:102C1000C8010E94912920910D01820F482F50E098
:102C20002091A802022E000C330B02171307BCF0F0
:102C300020910A01022E000C330B201731077CF083
:102C40008D9F90011124285F3C4F409103036091B8
:102C50000203809101030E94B312CF5FAACFFA0151
:102C6000EE0FFF1FE40FF51FE85FFC4F118210828B
:102C70001282F3CFB0E0A0E0E0E4F6E10C94042A85
:102C8000EC014C81042F10E09801D8010E94D52955
:102C90009B01AC010E94EB294B015C01E0E2F0E0FA
:102CA000E01BF10BA5E5B0E0AC019B010E94EB2914
:102CB0006B017C019F01DF010E94CD299B01AC01CA
:102CC0000E94F6299B01AC01280D391D4A1D5B1D90
:102CD000C701B6010E94A529F22E822F90E039E2A9
:102CE0003F1520F143E0249F90011124359527954D
:102CF000122F109500E085E5E82EEF1880910F0166
:102D0000081718F10E9485139C8181E0992319F01E
:102D1000903219F48FEF8093080180910801890F98
:102D20008C83CDB7DEB7ECE00C94202A25E530E0AB
:102D3000B901681B790B9B01220F331F260F371F28
:102D400037FFD4CF2F5F3F4FD1CF8E2D01FD8F2D79
:102D500020910D01622F600F7727771F9B01220FB3
:102D6000331F260F371F285F3C4F412F609102030E
:102D70000E94B3120F5FC2CF0F931F93CF93DF93C5
:102D8000EC0110E000E090910F019017110609F09E
:102D90006CF40E9485138C8190E0019681709927D4
:102DA0008C83DF91CF911F910F91089520910D0198
:102DB000A801420F511D9A01220F331F240F351F06
:102DC000285F3C4F4C8160910203809101039695EE
:102DD0009017110651F04CF0442349F04091030341
:102DE0000E94B3120F5F1F4FCECF4423B9F340E0D0
:102DF000F7CFB0E0A0E0EFEFF6E10C94002AFC0181
:102E00006280448081E08483E9E1F1E07490E8E944
:102E1000F1E0E491C0910303C695C158D0E0CC0F16
:102E2000DD1FCD2FDD27812C75E0972EAA24AA94D3
:102E3000B12C55245A94E719EE2EF12C80910F01F4
:102E4000881638F00E948513CDB7DEB7E0E10C9408
:102E50001C2AC82CD12C82E0861568F09C9CF001BD
:102E60009D9CF00D1124E655FD4F80910103808358
:102E7000809102038183411023C09C9CF0019D9CA2
:102E8000F00D1124E655FD4F1382128220910D01A1
:102E9000C601820F911D9C01220F331F280F391F7D
:102EA000285F3C4F9C9CF0019D9CF00D1124E65541
:102EB000FD4F4281618180810E94B3128394BECF15
:102EC0009C9C80019D9C100D112406551D4FF801FE
:102ED00083818823F1F081508383859DC001112473
:102EE000648170E00E947D29FB01FF27E75EFE4FB1
:102EF0008491E82FE719E59DC0011124B7010E94D4
:102F00007D2980910303689FB0011124F801728329
:102F1000BDCF0E94B72AB5010E9491298C179D0749
:102F20000CF0B4CFF2E0F61598F40E94B72AB50180
:102F30000E949129F80180830E94B72A2091020300
:102F40002695622F70E00E949129280FF8012183B5
:102F50009C9CF0019D9CF00D1124E655FD4F1282C2
:102F600080910303893C58F088EC9C9CF0019D9C67
:102F7000F00D1124E655FD4F8483838387CF843180
:102F8000A0F784E1F2CFE0E0F3E020812E7F208300
:102F900031814281538164817581868197810E944C
:102FA00002131092C8020E9485130895E0E0F3E036
:102FB00080818E7F80831092C8020E9485130895BD
:102FC0001092C8028091C50281110AC081E08093ED
:102FD000C5028091000381708093C4020E94D617BD
:102FE0000895609100036695669570E04BE050E0AF
:102FF00080E191E00E94C72A892B19F481E0809337
:10300000C8020E946C229093BF028093BE02089572
:103010009091000390FF34C09370811132C094608E
:1030200090930003662391F02091000330910103F7
:1030300040910203509103036091040370910503D2
:1030400080910603909107030E9402136091000390
:103050006695669570E04BE050E080E191E00E945B
:10306000C72A892BB1F01092C80281E08093C10277
:103070004091030360910203809101030E941B159C
:1030800008958B3210F0986ACBCF880F880F982B59
:10309000C7CF0E94F117E9CF682F90910003969552
:1030A000969581E0890F8B3208F081E00E94081824
:1030B000089581E00E944C180895682F90910003B4
:1030C000969596958FEF890F09F48AE20E94081869
:1030D000089581E00E945D18089561E00E9408183B
:1030E0000895E0E0F3E08081816080838695869595
:1030F0000E946D1808958091000380FF03C00E9414
:10310000C31708950E947118089560E00E9408187E
:1031100008958091C602811137C00E94D012209379
:103120000003309301034093020350930303609321
:1031300004037093050380930603909307032C7F89
:10314000A1F40E9428130E94D01220930003309310
:1031500001034093020350930303609304037093AD
:10316000050380930603909307030E94C1121092F7
:10317000C8028091000380FF04C0869586950E9456
:10318000851881E08093C6020895E0E0F3E0808135
:1031900081608083869586950E9485180895109297
:1031A000C5028091C40281110E94C5180E94F117C6
:1031B00008950F931F93CF93DF938091C8028823C4
:1031C000C1F18091C702E0910003E695E695E81B06
:1031D000E093C002823091F5F0E0EB5EFE4FE491A7
:1031E000CE2FD0E00DED13E18091C102882361F074
:1031F0001092C1020E946C229093BF028093BE0283
:103200001092C3021092C2020E946C22E091BE0290
:10321000F091BF028E1B9F0B8F3F9F4750F4EC0F26
:10322000FD1FF093BF02E093BE028EEB92E0F80127
:103230000995DF91CF911F910F910895863049F440
:10324000F0E0EE5EFE4FE491CE2FD0E001EF13E10F
:10325000CBCF893051F4E695F0E0E15FFE4FE49189
:10326000CE2FD0E00FE115E1BFCF8F3051F4E695BE
:10327000F0E0E45FFE4FE491CE2FD0E00CE515E1E5
:10328000B3CF853149F4F0E0E75FFE4FE491CE2FF4
:10329000D0E007EC15E1A8CFC8E2D0E00AE316E1E0
:1032A000883109F4A1CF833239F4E7E0F1E0C59128
:1032B000D49101E014E198CFC4EFD1E00CEB16E11A
:1032C000843209F491CFC0EDD7E00FEA12E18532E4
:1032D00009F08ACF8E2F63E00E947129E92FF0E078
:1032E000EC5FFE4FE491CE2FD0E009EF16E17CCFEA
:1032F00008950E94D9180895FA01811101C0FB01B7
:1033000009950895CF93DF93C82FD62F0E943C13C1
:103310008C1748F00E943C138D1728F40E9459180E
:10332000DF91CF9108958C2F0E946D18F9CF1F93D4
:10333000CF93DF93EC01FB011581111110C00E94A6
:10334000BC0B8272FE01E052F847E531F10508F04E
:103350005EC0E159F44D0C94C7290E947B18812F5F
:10336000DF91CF911F91089549E658E169E578E131
:103370000E947C19F4CF49E558E169E678E1F8CF7D
:1033800043ED54E164EC74E1F3CF44EC54E163EDBC
:1033900074E1EECF45EF54E164EE74E1E9CF44EE21
:1033A00054E165EF74E1E4CF47E155E166E075E192
:1033B000DFCF46E055E167E175E1DACF41E853E15F
:1033C00061E673E1D5CF41E653E161E873E1D0CF27
:1033D00081E00E946D18C3CF65E082E00E948219EF
:1033E000BECF68E086E0FACF6EE089E0F7CF64E117
:1033F0008FE0F4CF67E185E1F1CF88E1EACF62E2C7
:1034000089E1ECCF83E2E5CF6AE285E2E7CF11E024
:10341000A6CF0E94EA0D0895EAECF2E088E0DF0111
:103420001D928A95E9F70E943A1B0895FC012281BA
:1034300030E02F5F3F4F23703327938181E0921755
:10344000130609F080E008950F931F93CF93DF9345
:10345000EC01162F042F0E94161A811117C08A81C1
:10346000FE01E80FF11D1F7764816078612B00FB7E
:1034700067F964838F5F83708A8388818F5F888315
:1034800081E0DF91CF911F910F91089580E0F9CFF6
:10349000FC01A38182818A17B1F0AE0FBF2FB11D4D
:1034A00014968C9187FB992790F98F77DB018C9389
:1034B000DA019C9383818F5F8370838381818F5F27
:1034C000818381E0089580E00895462F682F8AEC7B
:1034D00092E00E94241A0895AB01BC018AEC92E0AC
:1034E0000E94481A0895AEE0B0E0E9E7FAE10C94D2
:1034F000072A8091C902882351F01092C902809155
:10350000CC028093CD028091CA028093CB020E94AC
:10351000791B0E94091A182F882309F43FC010E074
:103520008CEFF82E93E0E92EDD24D3942DEFC22EFC
:1035300032E0B32E29C01E858D858823A1F10E941B
:103540006C221983CA829C838B83BD82DE8249816F
:103550005A816B817C818D819E810E94FB038D85C8
:103560001E85882341F10E946C221F83C8869A879A
:103570008987BB861C864F81588569857A858B85AE
:103580009C850E94FB03102FBE01635F7F4FCE011D
:103590000E960E946C1A082F8111CDCF812F2E9686
:1035A000E9E00C94232A0E946C221983FA829C83FE
:1035B0008B83ED82CBCF0E946C221F83F8869A8783
:1035C0008987EB86D7CF8FE891E00197F1F700C0AC
:1035D0000000089520E9611121E93AB12F7081E0DE
:1035E00090E001C0880F2A95EAF7982F90959323D1
:1035F0009AB99BB1892B8BB9089520E9611121E912
:1036000089B190E02F7002C0959587952A95E2F7D1
:10361000817008950895CF93DF93C0E08091D20226
:10362000C81760F00E94E31AC0E08091D202C81768
:1036300078F00E940A1BDF91CF91089560E08C2FF3
:103640000E94EA1A61E08C2F0E94EA1ACF5FE6CF4F
:1036500060E08C2F0E94FD1AD82F61E08C2F0E9411
:10366000FD1AEC2FF0E0EC52FD4F880F8D2B80837C
:10367000CF5FDBCF81E08093D2020E940B1B0895C5
:103680001F93CF93DF93182FE42FEE0F6E2BC82FCD
:10369000D0E0DE01AC52BD4FEC918E2F83706817E5
:1036A00021F1EE0FEE0FE62BEC93EF70F0E0ED5210
:1036B000FE4FCD52DD4F80819881890F8883843001
:1036C00024F060E0812F0E94651A88818D3F24F4E8
:1036D00061E0812F0E94651A8881082E000C990BE9
:1036E00064E070E00E9491298883DF91CF911F915F
:1036F0000895CF93DF93C0E08091D202C81718F0ED
:10370000DF91CF91089561E08C2F0E94FD1AD82F90
:1037100060E08C2F0E94FD1A4D2F682F8C2F0E9485
:10372000401BCF5FE9CF279A45B14F7755B150681D
:10373000EFB7F8949B01220F331F260F371F280F76
:10374000391F2817390741F4EFBF8FE594E001973F
:10375000F1F700C000000895DC016D91CD0178E023
:1037600055B9000000C067FF45B9660F000000C0F2
:1037700000C000C045B900C07A9591F7E2CF0E9421
:10378000DE0C089580E00E94D210817008950E949E
:1037900082112FEF86E791E0215080409040E1F7C1
:1037A00000C000000E9482110E94C21B882321F0E9
:1037B0000E94BF1B0E94B72208950E94C71B089554
:1037C000CF93DF93EB0186319C4711F50E94BC0B30
:1037D0009D81992399F08A7A91E009F490E0909381
:1037E000D502811109C089E20E9452210E94700C09
:1037F00080E0DF91CF91089585E3F6CF8091D502E7
:10380000811104C089E20E946921F0CF85E3FBCFDA
:1038100081E0EFCFCF93DF93EC01FB01858188231B
:1038200009F4D2C09E0130572332310508F0B2C0EE
:103830000E94FA0C9093F9028093F802FE01E15085
:10384000F047E232F10520F4EC57F44D0C94C7290F
:103850008091F80281608093F80293C08091F90210
:1038600088608093F9028DC08091F8028260F3CF66
:103870008091F8028460EFCF8091F8028860EBCFEE
:103880008091F9028160EDCF8091F9028260E9CFE9
:103890008091F8028061DFCF8091F8028062DBCFF7
:1038A0008091F8028064D7CF0E9431078091F8029E
:1038B0008068D1CF8091F8028C60CDCF8091F902E1
:1038C0008360CFCF8091F8028E7FC5CF8091F902BF
:1038D000877FC7CF8091F8028D7FBDCF8091F8029E
:1038E0008B7FB9CF8091F802877FB5CF8091F902A5
:1038F0008E7FB7CF8091F9028D7FB3CF8091F80290
:103900008F7EA9CF8091F8028F7DA5CF8091F8029C
:103910008F7BA1CF0E9431078091F8028F779BCFD8
:103920008091F802837F97CF8091F9028C7F99CFA5
:103930008091F80282FB992790F921E0922790FB71
:1039400082F990FB83F987CF8091F902982F9095A7
:1039500091708E7F892B90FB81F983CF9091F80233
:10396000892F8F7B96FF806476CF0E9431079091DC
:10397000F802892F97FB87F980586DCF81E00E946C
:10398000880D8091F8029091F9020E94FF0C0E942C
:10399000310780E0DF91CF91089580E0F0CF9091E2
:1039A000F802892F8F7E94FF806155CF9091F802A5
:1039B000892F8E7F90FF81604ECF9091F902892FE1
:1039C000877F93FF88604DCF81E0E4CF282F35EBD0
:1039D0002303C001112497FF04C080589109892F47
:1039E000089580589F4FFBCF8091DC0280FF0DC06F
:1039F0006091200170E0660F771F6038710570F5E7
:103A00006115710569F1862F089581FF07C06091E6
:103A1000200184E0689FB0011124EFCF6091200164
:103A200082FD0AC08091DB028823A9F020911F014A
:103A300060912001821710F088E0ECCF869FC001D2
:103A4000112433E0880F991F3A95E1F7622F70E057
:103A50000E949129D2CF68E070E0D5CF8FE708951A
:103A600081E008958091DC0280FF0CC060911C0110
:103A700070E075956795759567956115710549F1C4
:103A8000862F089581FF06C060911C0170E0759536
:103A90006795F3CF60911C0182FD0BC09091DA0213
:103AA0009923A1F060911B0180911C01961738F0B9
:103AB000682F70E06038710500F38FE70895899FE3
:103AC000C001112470E00E949129F4CF61E070E000
:103AD000D7CF81E008959091DF022091E002922BF0
:103AE0002091E202922B2091E102922B31F098E09A
:103AF0009093DB0291E09093DA028D3C31F40E94C6
:103B0000F41C81958093E00208958E3C19F40E9484
:103B1000F41CF8CF8F3C31F40E94F41C8195809303
:103B2000DF020895803D19F40E94F41CF8CF893D0E
:103B300029F40E94321D8093E10208958A3D21F408
:103B40000E94321D8195F7CF8B3D31F40E94321DCA
:103B500081958093E20208958C3D19F40E94321DF4
:103B6000F8CF9FE2980F983070F4815D990B21E0B7
:103B700030E001C0220F8A95EAF78091DE02822BA5
:103B80008093DE0208958D3D31F48091DC028160E6
:103B90008093DC0208958E3D21F48091DC028260E6
:103BA000F7CF8F3DB9F78091DC028460F1CF40916F
:103BB000DF028D3C59F48091E00287FF0DC0109226
:103BC000E00241110BC01092DB0208C08E3C81F470
:103BD0008091E00218169CF3442381F08091E10269
:103BE0009091E202892B09F05AC01092DA020895EE
:103BF0008F3C49F447FFF0CF1092DF028091E00242
:103C00008111ECCFE0CF803D19F41416ACF3E4CF72
:103C10009091E102893D29F41916F4F61092E1021F
:103C2000DBCF8A3D19F497FFD7CFF8CF9091E2020E
:103C30008B3D29F497FFD0CF1092E202CDCF8C3D7F
:103C400019F41916CCF3C8CF9FE2980F983090F46E
:103C5000815D990B21E030E0B90102C0660F771F4A
:103C60008A95E2F7CB0180959091DE0289238093BB
:103C7000DE02B2CF8D3D31F48091DC028E7F8093E5
:103C8000DC02AACF8E3D21F48091DC028D7FF7CF3C
:103C90008F3D09F0A1CF8091DC028B7FF0CF08959A
:103CA0000E946C229C019091DF028091E002982B8F
:103CB00021F03093D9022093D8029091E1028091B3
:103CC000E202982B21F03093D7022093D6028DED9B
:103CD00092E00E944F20089586E0EDEDF2E0DF01D2
:103CE0001D928A95E9F71092DB021092DA02109287
:103CF000DC020895FC01828181110EC08381811153
:103D00000BC08481811108C091E08581811101C0BF
:103D100090E0892F8170089581E0FCCFA6E0B0E0AB
:103D2000E4E9FEE10C940D2A86E0EDEDF2E0DE011F
:103D3000119601900D928A95E1F71092DF02109290
:103D4000E0021092E1021092E2028B819C81892BA9
:103D500089F08091D8029091D9020E948422AC010E
:103D60009091DB029923C9F18091210184171506F6
:103D700008F440C08D819E81892B91F08091D602FC
:103D80009091D7020E948422AC019091DA0299238B
:103D900009F46AC080911D018417150608F472C0E9
:103DA000BE016F5F7F4F8DED92E00E949A218111DD
:103DB00005C08DED92E00E947A1E81110E94501E76
:103DC00086E0FE013196ADEDB2E001900D928A954C
:103DD000E1F72696E3E00C94292A209122018AE05B
:103DE000289F900111242417350720F69F5F909398
:103DF000DB0202C09F3FD1F71B81112359F00E94C3
:103E0000F41C9FEF11160CF491E0899F802D112472
:103E10008093DF021C81112359F00E94F41C9FEF54
:103E200011160CF491E0899F802D11248093E002FB
:103E30008091DF02882309F49DCF1091E0021123C5
:103E400009F498CF0E94E61C882351F08093DF028A
:103E5000812F0E94E61C882329F08093E0028ACFFC
:103E600081E0F4CF81E0F9CF20911E018AE0289F04
:103E7000900111242417350708F092CF9F5F90938B
:103E8000DA0202C09F3FD1F71D81112359F00E9431
:103E9000321D9FEF11160CF491E0899F802D1124A3
:103EA0008093E1021E81112359F00E94321D9FEF81
:103EB00011160CF491E0899F802D11248093E20269
:103EC0008091E102882309F46BCF1091E202112363
:103ED00009F466CF0E94E61C882351F08093E1022A
:103EE000812F0E94E61C882329F08093E20258CF9C
:103EF00081E0F4CF81E0F9CF0F931F93CF93DF934D
:103F0000C42FD22FFC0185818823C9F04093E5029C
:103F10000E946C229093E4028093E30280E28C0F73
:103F2000883040F4C77081E001C0880FCA95EAF775
:103F30000E94DB04DF91CF911F910F9108951091A2
:103F4000E502141332C08091E3029091E4020E94D2
:103F50008422883C910548F5C0E2CD0F1D17B9F0C9
:103F600080E2810F883040F4177081E001C0880F33
:103F70001A95EAF70E94E204C83048F481E09D2FC8
:103F8000977001C0880F9A95EAF70E94DB04802F92
:103F90000E94D204C83070F6D77081E001C0880F4B
:103FA000DA95EAF70E94E204C5CF80E28C0F8830F0
:103FB00008F6C77081E001C0880FCA95EAF7F2CF12
:103FC0000F93DB0188519C4787309105A0F5FC01D8
:103FD000EA55F44D0C94C72906E221EE41EE6AE160
:103FE0007CE7CD010E947C1F80E00F91089507E2DD
:103FF00025EE45EE6BE17CE7F4CF06E221EE40EEE4
:1040000068E17CE7EECF07E225EE44EE69E17CE76C
:10401000E8CF06E221EE42EE6CE17CE7E2CF07E278
:1040200025EE46EE6DE17CE7DCCF08E221E045EECF
:104030006EE17CE7D6CF15968C91882319F010920B
:10404000E502D3CF81E0D1CF9093EB028093EA02D7
:104050000895E091EA02F091EB02309729F0019087
:10406000F081E02D0995089580E00895E091EA023D
:10407000F091EB02309721F00280F381E02D099559
:104080000895E091EA02F091EB02309739F026E0D2
:10409000DC012C930480F581E02D09950895E091D1
:1040A000EA02F091EB02309739F022E0DC012C9328
:1040B0000680F781E02D09950895A3E0B0E0E3E6DE
:1040C000F0E20C940E2A2091E8023091E9022817C0
:1040D0003907A1F09093E9028093E802E091EA02A7
:1040E000F091EB02309751F023E029839B838A8380
:1040F0000084F185E02DCE01019609952396E2E03A
:104100000C942A2AA3E0B0E0E8E8F0E20C940E2A2E
:104110002091E6023091E70228173907A1F0909329
:10412000E7028093E602E091EA02F091EB02309719
:1041300051F024E029839B838A830084F185E02D5C
:10414000CE01019609952396E2E00C942A2A20914B
:104150000601309107012E5F3F4F80912D0188238A
:1041600079F08091F80287FF0BC020910401309113
:1041700005012E5F3F4F9EE180E0915018F40895B5
:1041800096E0FACFF90141919F014423B1F38F5F8B
:10419000F4CF882321F190912D01992311F1909171
:1041A000F80297FF1EC0E82FE695E695E695EE31FA
:1041B000B0F42091040130910501E20FF32FF11DBD
:1041C000228130E0877041E050E002C0440F551F6B
:1041D0008A95E2F72423352381E0232B91F480E0B4
:1041E00008952091060130910701F9013296285F68
:1041F0003F4F9191981721F0E217F307D1F7EFCFD6
:1042000081E008959C01FC0132969FEF80E041918E
:10421000461751F09F3F19F4411101C0982F8F5F4D
:104220008630A9F79F3F09F40895290F311D97FDA6
:104230003A95F90162830895FC013296089621911E
:10424000261303C0DF0111971C92E817F907B9F78D
:104250000895E62FE695E695E695EE3168F4E80FC9
:10426000F92FF11D677021E030E001C0220F6A953F
:10427000EAF78281822B82830895E62FE695E69500
:10428000E695EE3170F4E80FF92FF11D677021E02B
:1042900030E001C0220F6A95EAF720958281282339
:1042A00022830895682F80912D01882359F08091F1
:1042B000F80287FF07C080910401909105010E94D8
:1042C0002921089580910601909107010E94022101
:1042D0000895682F80912D01882359F08091F8026C
:1042E00087FF07C080910401909105010E943D2144
:1042F000089580910601909107010E941C21089564
:1043000080912D01882379F08091F80287FF0BC0FE
:10431000E0910401F091050132968EE1DF011D92DA
:104320008A95E9F70895E0910601F0910701329628
:1043300086E0F4CFDC01FB0111969C9111978181FD
:10434000981322C012968C911297882319F09281AB
:1043500089131AC013968C911397882319F09381AF
:10436000891312C015968C911597882319F09581A1
:1043700089130AC014969C91992321F081E024812D
:10438000291303C080E001C081E081700895089581
:104390000E94C7210895811106C081E08093EC023C
:1043A0000E94C821089582E0F9CF83E08093EC0257
:1043B0000E94C82108950E94CB21089581E0809336
:1043C000EC020E94C82108950E94DE2108950895FC
:1043D00008950E94E8210895089508950E94E72114
:1043E0000895CF930E94EC210E9482110E94ED213A
:1043F000C0E08C2F0E94D210811105C0CF5FC33066
:10440000C1F7CF91089581E0FCCF85B7806885BF63
:1044100085B7806885BF08951F921FB61F9211242B
:104420008F939F93AF93BF938091ED02811113C03F
:104430008091140390911503A0911603B091170376
:104440004196A11DB11D8093140390931503A09371
:104450001603B0931703BF91AF919F918F911F9057
:104460001FBE1F90189580911C03843031F10E946B
:10447000AE031092ED0288E190E020E40FB6F894CC
:10448000A895809360000FBE2093600083B7817F62
:10449000846083BF83B7816083BF7894889583B736
:1044A0008E7F83BF0FB6F894A895809160008861D5
:1044B00080936000109260000FBE08950E94310743
:1044C0000E94B503089582E084BD93E095BD9AEF04
:1044D00097BD80936E0008952FB7F89480911403D0
:1044E00090911503A0911603B09117032FBF089563
:1044F0002FB7F894609114037091150380911603FF
:10450000909117032FBF08959C014FB7F8948091A5
:10451000140390911503A0911603B09117034FBF98
:10452000821B930B089578941F921FB61F9211243B
:104530008F939F93AF93BF93809114039091150332
:10454000A0911603B09117030196A11DB11D809390
:10455000140390931503A0931603B0931703BF9110
:10456000AF919F918F911F901FBE1F90189581E072
:104570008093E00080E28093D8001092C9008FE120
:104580009EE40197F1F700C0000087E090EBDC01AA
:104590008093250390932603A0932703B0932803C9
:1045A00088E19CE00FB6F894A895809360000FBE58
:1045B00090936000FFCF88E19CE00FB6F894A89537
:1045C000809360000FBE90936000FFCF8091F60251
:1045D00008959B01BA0190911C039430E9F48F7007
:1045E0008093E9009FEF8091E800915085FD06C01F
:1045F00085ED8A95F1F700009111F5CF8091E800E3
:1046000085FF0AC050E040E0C9010E94EA24809181
:10461000E8008E778093E800089543E050E0BC0105
:1046200082E00E94E922089546E050E0BC0182E069
:104630000E94E922089540E250E0BC0182E00E941D
:10464000E9220895CF93DF93EC0148E050E0BC01EC
:1046500081E00E94E92288E0FE01AEEEB2E0019026
:104660000D928A95E1F7DF91CF91089580911B0318
:10467000811109C00E947A260E94D7268091E2000B
:1046800084608093E200089510921B0308950E94B5
:10469000DE2108956091180381E0611101C080E07E
:1046A0000E94D521089590911C0381E0943009F077
:1046B00080E0609118030E94DB21089542E061ECE4
:1046C00081E00E94F62542E261EC82E00E94F6253C
:1046D00090911C0381E0943009F080E06091180310
:1046E0000E94CB21089580911E03833009F461C09C
:1046F00030F48130D1F1823009F49EC008958A30BF
:1047000009F48AC08B3009F46FC0893009F050C0B9
:1047100080911D03813209F04BC08091210390915B
:104720002203029708F044C08091E800877F8093BD
:10473000E8008091E80082FF37C09091F3008091FB
:10474000F200029731F48091F100813011F086304F
:1047500021F48091F1008093F6028091E8008B773C
:104760008093E8000E942A2623C080911D03813A8D
:10477000F9F48091E800877F8093E800809121031D
:1047800090912203892B61F468E08EEE92E070E054
:104790000E9439258091E8008B778093E800089586
:1047A00060E090E080E0F3CF80911C038111C1CFE5
:1047B000089580911D03813AD9F78091210390914A
:1047C0002203892BA9F78091E800877F8093E80076
:1047D0008091E80080FFFCCF80912D018093F10053
:1047E0008091E8008E77BCCF80911D03813201F764
:1047F0008091210390912203892BD1F68091E800CA
:10480000877F8093E8000E942A2680911F0380936F
:104810002D010E943107089580911D03813241F6D8
:104820008091E800877F8093E8000E942A2680918B
:1048300020038093F702089580911D03813A09F0C7
:10484000B7CF8091E800877F8093E8008091E800EF
:1048500080FFFCCF8091F702C1CF84B7877F84BFF0
:104860000FB6F894A89580916000886180936000ED
:10487000109260000FBE80E890E00FB6F89480932D
:104880006100909361000FBE0E94E42108950E9490
:104890007A260E94D726E2EEF0E080818460808351
:1048A00078940E945629089583E291E00E94242082
:1048B000089580911C03853031F480911C0385306C
:1048C00019F00E945E2208950E94332280911A03FB
:1048D000882399F30E94F121882379F30E94D4243C
:1048E0000E943107EACF08959A0140912303509125
:1048F00024030E947C240895492F552743305105F5
:1049000019F168F44130510509F444C042305105B1
:1049100009F445C090E080E050E040E025C041321D
:10492000510549F142325105A9F784E490E045E68A
:1049300054E061157105C1F086EB90E04FEA53E059
:104940006130710589F0E6CF99278130910581F0BA
:10495000009729F00297F1F6EEE1F3E002C0EEE5F0
:10496000F3E0849190E0AF01F90151834083089511
:10497000EEE3F3E0F6CF89E090E044E753E0611521
:10498000710591F389E090E04DE853E061307105E5
:1049900059F3C0CF82E190E04DE953E0E5CF8BE3DE
:1049A00090E042E653E0E0CF80E189BD82E189BD3D
:1049B00009B400FEFDCF8091D8008F7D8093D80090
:1049C0008091E00082608093E0008091E00081FDB2
:1049D000FCCF0895AF92BF92CF92DF92FF920F93D8
:1049E0001F93CF93DF936C01EB018A010E9449264C
:1049F000F82E811123C00115110539F0F8018081CD
:104A00009181C81BD90BC80ED91EB12CA12C20979F
:104A1000A9F08091E80085FD22C08091E8008E77A2
:104A20008093E80001151105A1F0F80180819181C2
:104A3000A80EB91EB182A08285E0F82E8F2DDF91DD
:104A4000CF911F910F91FF90DF90CF90BF90AF90CB
:104A500008950E9449268823D1F2F82EEFCFF6015F
:104A600081916F018093F1002197FFEFAF1ABF0A88
:104A7000CECFFC01809123039091240386179707E2
:104A8000A0F06115710529F49091E8009E7790934C
:104A9000E80090E06115710551F4911108C0809112
:104AA000E80082FF34C080E00895BC01F2CF80911D
:104AB0001C038823C1F18530C1F18091E80083FD9A
:104AC00030C08091E80082FDEACF8091E80080FF4D
:104AD000E1CF8091F3002091F200382F611571052C
:104AE00019F02830310558F091E02830310509F0EF
:104AF00090E02091E8002E772093E800CBCF8191C1
:104B00008093F100615071092F5F3F4FE7CF809193
:104B10001C03882341F0853041F08091E80083FF39
:104B2000BECF81E0089582E0089583E00895FC01FE
:104B3000809123039091240386179707A0F06115B5
:104B4000710529F48091E8008E778093E80090E069
:104B50006115710551F4911108C08091E80082FF40
:104B600035C080E00895BC01F2CF80911C038823FA
:104B7000C9F18530C9F18091E80083FD31C0809191
:104B8000E80082FDEACF8091E80080FFE1CF8091CC
:104B9000F3002091F200382F6115710519F02830CB
:104BA000310558F091E02830310509F090E080910E
:104BB000E8008E778093E800CBCF84918093F1005A
:104BC0003196615071092F5F3F4FE6CF80911C03F2
:104BD000882341F0853041F08091E80083FFBDCF0C
:104BE00081E0089582E0089583E00895982F97303A
:104BF00028F08F708093E90081E008959093E90098
:104C0000242F762F50E0981731F07091EC0020910E
:104C1000ED005091F00021FD02C09F5FE8CF309180
:104C2000EB003E7F3093EB003091ED003D7F309301
:104C3000ED003091EB0031603093EB007093EC00AD
:104C40002093ED005093F0002091EE0027FDE5CF7A
:104C500080E0089580911D0387FF13C08091E800D4
:104C600082FF06C08091E8008B778093E80004C043
:104C700080911C038111F2CF089580911C03882339
:104C8000D9F38091E80080FFF8CF8091E8008E771B
:104C9000ECCF2091E4003091E50095E6A901209148
:104CA000EC00822F817020FF06C08091E80080FF19
:104CB00006C080E008952091E80022FD1AC080918E
:104CC0001C03882389F0853089F08091EB0085FDF5
:104CD0000FC02091E4003091E50042175307F9F22C
:104CE0009150E1F684E0089582E0089583E008950C
:104CF00081E008950E94E9260E94F126E0EEF0E0AE
:104D0000808181608083E8EDF0E080818F7780830F
:104D100019BCA7EDB0E08C918E7F8C9380818F7E43
:104D2000808310921B0308950F931F93CF93DF93FB
:104D30000E94E9260E94F126C8EDD0E088818F7795
:104D4000888388818068888388818F7D888319BC67
:104D500010921C031092180310921A031092190358
:104D600000EE10E0F80180818B7F80838881816074
:104D7000888342E060E080E00E94F625E1EEF0E00A
:104D800080818E7F8083E2EEF0E08081816080838D
:104D9000808188608083F80180818E7F8083888114
:104DA00080618883DF91CF911F910F910895E8ED85
:104DB000F0E080818F7E8083E7EDF0E0808181608C
:104DC000808384E082BF81E080931B030E9494264D
:104DD0000895E8EDF0E080818E7F80831092E200FC
:104DE00008951092DA001092E10008951F920F9238
:104DF0000FB60F9211242F933F934F935F936F93AE
:104E00007F938F939F93AF93BF93EF93FF93809183
:104E1000E10082FF0BC08091E20082FF07C0809119
:104E2000E1008B7F8093E1000E9455298091DA0098
:104E300080FF19C08091D80080FF15C08091DA00F2
:104E40008E7F8093DA008091D90080FF96C080E148
:104E500089BD82E189BD09B400FEFDCF81E0809368
:104E60001C030E9436238091E10080FF19C08091CD
:104E7000E20080FF15C08091E2008E7F8093E20007
:104E80008091E20080618093E2008091D80080628E
:104E90008093D80019BC85E080931C030E944A23AC
:104EA0008091E10084FF2BC08091E20084FF27C045
:104EB00080E189BD82E189BD89B5982F917080FF1D
:104EC000FBCF8091D8008F7D8093D8008091E10046
:104ED0008F7E8093E1008091E2008F7E8093E200DC
:104EE0008091E20081608093E20080911803882322
:104EF00009F449C084E080931C030E9453238091ED
:104F0000E10083FF29C08091E20083FF25C08091EA
:104F1000E100877F8093E10082E080931C03109280
:104F200018038091E1008E7F8093E1008091E20080
:104F30008E7F8093E2008091E20080618093E200A6
:104F400042E060E080E00E94F6258091F0008860F9
:104F50008093F0000E944723FF91EF91BF91AF91A2
:104F60009F918F917F916F915F914F913F912F9181
:104F70000F900FBE0F901F90189519BC10921C0334
:104F80000E94442370CF8091E30087FD93E09093CB
:104F90001C03B3CF1F920F920FB60F9211242F93C1
:104FA0003F934F935F936F937F938F939F93AF93B1
:104FB000BF93CF93DF93EF93FF93D091E900DF701E
:104FC0008091EC00C82FC17080FDC0E81092E9000C
:104FD0008091F000877F8093F00078940E940E28E3
:104FE0001092E9008091F00088608093F000CD2B52
:104FF000CF70C093E900FF91EF91DF91CF91BF9106
:10500000AF919F918F917F916F915F914F913F9160
:105010002F910F900FBE0F901F901895AAE2B0E04D
:10502000E4E1F8E20C940D2A8DE193E02091F10087
:10503000FC012193CF01F3E085329F07B9F70E946D
:1050400073238091E80083FF1EC180911D0390911E
:105050001E039A3008F017C1E92FF0E0E355F44D34
:105060000C94C729803899F0823809F00CC18091DE
:1050700021038F70873008F006C18093E90080918A
:10508000EB0085FB882780F91092E90006C080912B
:10509000190390911A03911182609091E800977F13
:1050A0009093E8008093F1001092F1008091E80065
:1050B0008E77E5C0882309F4D3C0823009F0E3C0BD
:1050C00080911F038111D6C0809121038F702FEF33
:1050D000280F263008F0D7C08093E9002091EB001C
:1050E00020FFC8C0933031F48091EB008062809340
:1050F000EB00C0C09091EB0090619093EB0021E039
:1051000030E001C0220F8A95EAF72093EA0010925E
:10511000EA008091EB008860EACF8111B4C0109161
:105120001F031F778091E3008078812B8093E30039
:105130008091E800877F8093E8000E942A26809172
:10514000E80080FFFCCF8091E30080688093E3005B
:1051500082E0111183E080931C0395C08058823057
:1051600008F091C080911F03909120038C3D23E0B3
:105170009207A1F583E08A838AE289834FB7F89486
:10518000DE01139620E03EE051E2E32FF0E0509381
:105190005700E49120FF03C0E295EF703F5FEF708E
:1051A0008E2F90E0EA30C0F0C7968D939D932F5FCD
:1051B000243159F74FBF8091E800877F8093E80042
:1051C0006AE270E0CE0101960E9439258091E800E4
:1051D0008B778093E80057C0C096E7CF609121039A
:1051E00070912203AE014F5F5F4F0E947424BC0197
:1051F000892B09F448C09091E800977F9093E800CC
:1052000089819A810E949725E1CF8038E1F58091CC
:10521000E800877F8093E800809118038093F10075
:1052200045CF811130C090911F03923060F580917D
:10523000E800877F8093E800909318030E942A2655
:1052400080911803882311F084E005C08091E30069
:1052500087FDFACF81E080931C030E945E2313C078
:1052600080911F03813079F481E0933009F080E070
:1052700080931A031092E9008091E800877F809361
:10528000E8000E942A268091E80083FF0AC08091EE
:10529000E800877F8093E8008091EB008062809334
:1052A000EB00AA96E3E00C94292A0895CF9380910D
:1052B0001C038823A1F0C091E900CF709091EC000D
:1052C000892F817090FD80E8C82B1092E9008091B1
:1052D000E80083FD0E940E28CF70C093E900CF91B3
:1052E0000895991B79E004C0991F961708F0961B42
:1052F000881F7A95C9F780950895AA1BBB1B51E1B9
:1053000007C0AA1FBB1FA617B70710F0A61BB70B35
:10531000881F991F5A95A9F780959095BC01CD01DA
:10532000089597FB072E16F4009407D077FD09D057
:105330000E947D2907FC05D03EF4909581959F4FF2
:105340000895709561957F4F0895A1E21A2EAA1BCA
:10535000BB1BFD010DC0AA1FBB1FEE1FFF1FA21725
:10536000B307E407F50720F0A21BB30BE40BF50B22
:10537000661F771F881F991F1A9469F760957095AB
:10538000809590959B01AC01BD01CF010895EE0F72
:10539000FF1F0590F491E02D09940E94D529332335
:1053A00012F48A1B9B0B0C94E629A29FB001B39FB9
:1053B000C001A39F700D811D1124911DB29F700D1E
:1053C000811D1124911D08950E94D529B7FF0895CC
:1053D000821B930B08950E94D529A59F900DB49F21
:1053E000900DA49F800D911D11240895B7FF0C947A
:1053F000EB290E94EB29821B930B08952F923F9279
:105400004F925F926F927F928F929F92AF92BF92D4
:10541000CF92DF92EF92FF920F931F93CF93DF9380
:10542000CDB7DEB7CA1BDB0B0FB6F894DEBF0FBEDD
:10543000CDBF09942A88398848885F846E847D842A
:105440008C849B84AA84B984C884DF80EE80FD802C
:105450000C811B81AA81B981CE0FD11D0FB6F894A2
:10546000DEBF0FBECDBFED010895002E083090F0D5
:10547000982F872F762F652F542F432F322F2227D7
:105480000850F4CF220F331F441F551F661F771F8C
:10549000881F991F0A95B2F7002D089597FD109463
:1054A000002E083098F00850232F342F452F562F08
:1054B000672F782F892F912DF4CF15949795879585
:1054C0007795679557954795379527950A95AAF744
:1054D0001124002D08958F929F92AF92BF92CF9288
:1054E000DF92EF92FF92CF93DF93EC016881798195
:1054F0008A819B81611571058105910521F464E222
:1055000079ED8BE597E02DE133EF41E050E00E942B
:10551000422B49015A019B01AC01A7EAB1E40E9468
:10552000EB296B017C01ACEEB4EFA50194010E9464
:10553000F929DC01CB018C0D9D1DAE1DBF1DB7FFF0
:1055400003C00197A109B04888839983AA83BB83CC
:105550009F77DF91CF91FF90EF90DF90CF90BF903A
:10556000AF909F908F9008950E946B2A089580E0DD
:1055700091E00E946B2A0895B0E0A0E080930001C2
:1055800090930101A0930201B09303010895FC01DF
:105590004150504030F001900616D1F73197CF01BD
:1055A0000895882799270895FB01DC0104C08D9197
:1055B0000190801921F441505040C8F7881B990B85
:1055C0000895FB01DC0102C001900D924150504052
:1055D000D8F70895F999FECF92BD81BDF89A992721
:1055E00080B50895A6E1B0E044E050E00C94342B7F
:1055F000A8E1B0E042E050E00C94342BDC01A40FB1
:10560000B51F4150504048F0CB01840F951F2E919B
:105610000E940F2B41505040D0F70895262FF99942
:10562000FECF92BD81BDF89A019700B4021639F001
:105630001FBA20BD0FB6F894FA9AF99A0FBE0895D2
:105640000396272F0E940F2B0E940E2B252F0E94BE
:105650000F2B242F0C940F2B0196272F0E940F2B1A
:105660000C940E2BDC01CB01FC01F999FECF06C096
:10567000F2BDE1BDF89A319600B40D924150504010
:10568000B8F70895052E97FB1EF400940E94592B3D
:1056900057FD07D00E94A52907FC03D04EF40C94B7
:1056A000592B50954095309521953F4F4F4F5F4F67
:1056B000089590958095709561957F4F8F4F9F4F7E
:1056C0000895F894FFCF2A052A057A057A05DF05A3
:1056D000FB05590559050006710680068006AD19BF
:1056E000B419BB19C019C519CA19CF19D419D919B8
:1056F000DE19E319E819EC19F119F419F719FA1977
:10570000FD19FF19021A041A621CD61C6A1C341CEB
:10571000381C6E1C3C1C721C7E1C481CCF1C4C1C74
:10572000821C501C861CAE1C541C8A1CB51C5A1CA6
:10573000901C981C401C761C441C7A1C5E1C941CFB
:10574000A41CBE1CCD1C2E1C661CDD1CFD1F0320D2
:10575000EC1FF71F09200F20152032285A28432953
:0E5760005A2843298D28AE28432905291129EE
:10576E000100000068028802010102000400040426
:10577E0001191A1B1C1D1E1F202122280850011E54
:10578E000A1401E62222231B2314230D2301E20017
:10579E00E900EA00B500B600B700CD008301CC00E9
:1057AE008A0192019401210223022402250226027B
:1057BE0027022A02B300B4006F0070009F01CB01D4
:1057CE009F02A002818283E200E900EA00B500B6E2
:1057DE0000B700CD008301CC008A01920194012113
:1057EE0002230224022502260227022A02B300B453
:1057FE00006F0070009F01CB019F02A00281828387
:10580E003435369496970001020202020606060906
:10581E0009090909090F0F0F0F0F0F151515181983
:10582E001919191919191919192324252525252589
:10583E0025931B00FF0100010000FFFF0000010087
:04584E0001FF000056
:00000001FF
