:100000000C948C050C94C4050C94C4050C94C40584
:100010000C94C4050C94C4050C94C4050C94C4053C
:100020000C94C4050C94C4050C945E150C947F19B3
:100030000C94F1230C94C4050C94C4050C94C405D1
:100040000C94C4050C94C4050C94C4050C94C4050C
:100050000C94C4050C9437160C94C4050C94C40578
:100060000C94C4050C94C4050C94C4050C94C405EC
:100070000C94C4050C94C4050C94C4050C94C405DC
:100080000C94C4050C94C4050C94C4050C94C405CC
:100090000C94C4050C94C4050C94C4050C94C405BC
:1000A0000C94C4050C94C4050C94C4050000000015
:1000B0000000A800AE00AC00AB00AF007A00B200B8
:1000C000B100B3007C007B007D0003520000000003
:1000D00000002078267825782478237821782278E3
:1000E0002B782C782E782A7829780052000000008E
:1000F0000000000000000000000000000000000000
:10010000000000000000000000000052000000009D
:100110000000000001520252000000000000000038
:10012000000000000000000000000052A900AA002A
:10013000277828784F0050005200510000DA0281E1
:10014000FFD9F1DB20A4A62EAF00A0C0D30000A1F0
:10015000C8D30000AED580A81F408D1420001E0F0C
:100160000500047F3F1F643214643214783C1E1E65
:10017000140A05000101010101010101010202024D
:100180000202020202020303030303030303040443
:10019000040404040405050505050606060606070D
:1001A0000707070708080808090909090A0A0A0BC6
:1001B0000B0B0C0C0C0D0D0D0E0E0E0F0F0F101067
:1001C00011111112121313141415151616171718EE
:1001D0001819191A1A1B1B1C1D1D1E1E1F20202159
:1001E0002222232424252626272829292A2B2C2DA0
:1001F0002D2E2F30313232333435363738393A3BC1
:100200003C3D3E3F404142434445464748494A4CB5
:100210004D4E4F50515354555658595A5B5D5E5F81
:10022000616264656668696B6C6D6F707273757717
:10023000787A7B7D7E8082838587888A8C8E8F9179
:10024000939596989A9C9EA0A2A3A5A7A9ABADAFA3
:10025000B1B3B5B7BABCBEC0C2C4C6C9CBCDCFD18D
:10026000D4D6D8DBDDDFE2E4E7E9EBEEF0F3F5F836
:10027000FAFDFFFFAA7F55402223252628292A2C94
:100280002D2F3032333536383A3B3D3E40424345E0
:1002900047494A4C4E5051535557595A5C5E60621B
:1002A000646668696B6D6F71737577797B7D7F812B
:1002B000838587898A8C8E90929496989A9C9E9F2B
:1002C000A1A3A5A7A8AAACAEAFB1B3B4B6B8B9BB49
:1002D000BCBEBFC1C2C3C5C6C7C9CACBCCCDCED0B8
:1002E000D1D2D2D3D4D5D6D7D7D8D9D9DADADBDBA5
:1002F000DBDCDCDCDCDCDDDDDDDDDCDCDCDCDCDB3C
:10030000DBDBDADAD9D9D8D7D7D6D5D4D3D2D2D184
:10031000D0CECDCCCBCAC9C7C6C5C3C2C1BFBEBC77
:10032000BBB9B8B6B4B3B1AFAEACAAA8A7A5A3A1E8
:100330009F9E9C9A98969492908E8C8A89878583AA
:10034000817F7D7B79777573716F6D6B696866648A
:1003500062605E5C5A5957555351504E4C4A49475A
:10036000454342403E3D3B3A3836353332302F2DFF
:100370002C2A2928262523220023000023280000D8
:100380000103060C183123664444C4C48484848465
:10039000C4C44446662311180C06030000001F78ED
:1003A000C10F38E0C00000020E0E8EC6C04040C033
:1003B000C68E0E0E020080C060380FC07C0FF81E83
:1003C000C3F85C767B6D755555756D7B765E7E7773
:1003D0005B6D755555754D7B665CF0C33EF0000056
:1003E00080C06030180C040682C34361A1A1A1A1A2
:1003F0006143C38206040C183060C08000002020D6
:100400002000534352200020202000434150200070
:10041000202020004E554D20005374617475733AAE
:1004200020004E2F41202020005468726565200076
:1004300054776F202020004F6E65202020005A65E1
:10044000726F2020004C617965723A200054686513
:10045000204D6164204E6F6F646C650005010902D8
:10046000A10185020901A10005091901290815004A
:1004700025019508750181020501093009311581B1
:10048000257F95027508810609381581257F95011C
:1004900075088106050C0A38021581257F950175BE
:1004A000088106C0C005010980A101850319012A40
:1004B000B700150126B700950175108100C0050C25
:1004C0000901A101850419012AA002150126A00233
:1004D000950175108100C005010906A10185060579
:1004E0000719E029E7150025019508750181020526
:1004F00007190029EF1500250195F0750181020506
:100500000819012905950575019102950175039159
:1005100001C005010906A101050719E029E7150039
:10052000250195087501810295017508810105076E
:10053000190029FF150026FF0095067508810005A2
:1005400008190129051500250195057501910295E8
:100550000175039101C009023B00020100A0FA09E4
:1005600004000001030101000921110100012244DE
:1005700000070581030800010904010001030000D0
:100580000009211101000122B600070582032000A5
:100590000112010002000000086C6A120000010153
:1005A0000200010E03550064006F006E003100333D
:1005B0000000001E0354006800650020004D00612B
:1005C00000640020004E006F006F0064006C006546
:1005D0000000000403090407087F0807003E5B4F82
:1005E0005B3E003E6B4F6B3E001C3E7C3E1C001889
:1005F0003C7E3C18001C577D571C001C5E7F5E1C17
:100600000000183C180000FFE7C3E7FF00001824B3
:10061000180000FFE7DBE7FF0030483A060E00262F
:100620002979292600407F05050700407F05253FE1
:10063000005A3CE73C5A007F3E1C1C0800081C1C6A
:100640003E7F0014227F2214005F5F005F5F000680
:10065000097F017F00006689956A006060606060C4
:100660000094A2FFA2940008047E04080010207EDB
:1006700020100008082A1C0800081C2A0808001E70
:1006800010101010000C1E0C1E0C0030383E3830BC
:1006900000060E3E0E060000000000000000005F95
:1006A000000000000700070000147F147F140024DE
:1006B0002A7F2A120023130864620036495620500C
:1006C00000000807030000001C2241000000412236
:1006D0001C00002A1C7F1C2A0008083E0808000095
:1006E0008070300000080808080800000060600002
:1006F000002010080402003E5149453E0000427FA0
:100700004000007249494946002141494D330018D3
:1007100014127F10002745454539003C4A494931AC
:100720000041211109070036494949360046494927
:10073000291E0000001400000000403400000000EA
:100740000814224100141414141400004122140847
:10075000000201590906003E415D594E007C12110C
:10076000127C007F49494936003E41414122007FC9
:100770004141413E007F49494941007F0909090142
:10078000003E41415173007F0808087F0000417F0F
:100790004100002040413F01007F08142241007FBA
:1007A00040404040007F021C027F007F0408107F11
:1007B000003E4141413E007F09090906003E41518A
:1007C000215E007F09192946002649494932000364
:1007D000017F0103003F4040403F001F2040201F99
:1007E000003F4038403F006314081463000304785E
:1007F0000403006159494D4300007F41414100021B
:100800000408102000004141417F0004020102045D
:1008100000404040404000000307080000205454BE
:100820007840007F28444438003844444428003845
:100830004444287F0038545454180000087E0902AC
:100840000018A4A49C78007F080404780000447D6C
:100850004000002040403D00007F10284400000080
:10086000417F4000007C04780478007C0804047810
:1008700000384444443800FC182424180018242468
:1008800018FC007C08040408004854545424000454
:10089000043F4424003C4040207C001C2040201C9D
:1008A000003C4030403C004428102844004C9090CC
:1008B000907C004464544C44000008364100000021
:1008C0000077000000004136080000020102040227
:1008D000003C2623263C0000000000000040404071
:1008E000F0F8F8FF38FFF8F83FF8F8FF38FFF8F8AD
:1008F000F040404000000000000080C0C0C0800008
:1009000000C0C08000000080C0C000C0C0000080E7
:10091000C0C00000000000C0C0C0C0C000C0C00017
:1009200000000000000000000000000000000000C7
:1009300000000000000000000000000000000000B7
:1009400000000000000000000000000000000000A7
:10095000000000000000C0F0F8FC3E1E0601000090
:10096000007F4141417F007F4141417F000080C0C5
:10097000E07E5B4F5BFEC00000C000DCD7DEDEDE49
:10098000D7DC00C0000000000000000000000000F4
:10099000000000000000000000000000004949497C
:1009A000FFFFFFFFE0DFBFBF00BFBFDFE0FFFFFFD4
:1009B000FF49494900000000001F3F6060E0BF1F81
:1009C000007F7F071E381E077F7F007F7F0E1F3B43
:1009D000716000000000007F7F0C0C0C007E7E0028
:1009E0007F7E0303007F7E03037E7E03037F7E0002
:1009F0000F3E703C063C703E0F00327B49493F7E03
:100A0000007F7E0303001E3F69696F26000000001F
:100A1000000000000000030F1F3F3C7870600000E2
:100A2000007F4141417F007F4141417F00307B7F1A
:100A30007830202030787F3B0003000F7F0F0F0FAE
:100A40007F0F000300000000000000000000000015
:100A50000000000000000000000000000001010193
:100A6000070F0F7F0F7F0F0F7E0F0F7F0F7F0F0F6F
:100A7000070101010000000000000000000001016A
:100A80000000000000000000000000000000000066
:100A90000000000000000000000000000000000056
:100AA0000000000000000000000000000000000046
:100AB0000000000000000000000000000000000036
:100AC0000000000000000000000000000000000026
:100AD0000000000000000000000000000000000016
:100AE0000000000000000000000000000000000006
:100AF00000000000000000000000000000000000F6
:100B000000000000000000000000000000000000E5
:100B1000000000000000000011241FBECFEFDAE04B
:100B2000DEBFCDBF04B603FE18C080911D059091B5
:100B30001E05A0911F05B09120058730904BA7405E
:100B4000B04B59F410921D0510921E0510921F050E
:100B500010922005E0E0F8E3099525E0A8EAB1E06D
:100B600001C01D92AD31B207E1F711E0A0E0B1E0A4
:100B7000E6E3FAE502C005900D92A83AB107D9F76D
:100B80000E9418240C94C52C0C940000CF93DF9382
:100B900040911B0550911C054B5153409A01205E1A
:100BA0003F4F21303240C0F020E032E0241B350BB3
:100BB0006091190370911A03FC01CA01240F351FBB
:100BC000C1E0D0E08217930750F070931A0360934E
:100BD0001903DF91CF91089520E230E0E9CF4491ED
:100BE000DC01A55EBC4F5C91451781F04C93AC01D4
:100BF000A5E056954795AA95E1F7DE0102C0AA0F38
:100C0000BB1F4A95E2F7AD016A2B752B0196319611
:100C1000D9CF482F20910E039091D50257E0291388
:100C200002C080E0089530E0529FF001539FF00D24
:100C30001124EA52FD4F8181681306C08081481358
:100C400003C085818111EECF2F5F3F4F2770E7CF23
:100C5000E8EDF0E080818E7F80831092E2001092B8
:100C6000DA001092E100A0EEB0E08C9181608C93EC
:100C700080818F77808319BCA7EDB0E08C918E7F47
:100C80008C9380818F7E80831092BE020895209184
:100C9000E4003091E50095E6A9012091EC00822F57
:100CA000817020FF06C08091E80080FF06C080E0D0
:100CB00008952091E80022FD1AC08091CB0288237C
:100CC00089F0853089F08091EB0085FD0FC020917F
:100CD000E4003091E50042175307F9F29150E1F634
:100CE00084E0089582E0089583E0089581E0089506
:100CF0008091CD0287FF13C08091E80082FF06C07B
:100D00008091E8008B778093E80004C08091CB024B
:100D10008111F2CF08958091CB028823D9F380917D
:100D2000E80080FFF8CF8091E8008E77ECCF982F15
:100D30009093E900242F762F50E0891731F07091BD
:100D4000EC002091ED005091F00021FD07C09F5F65
:100D5000973071F78093E90081E008953091EB00BE
:100D60003E7F3093EB003091ED003D7F3093ED00FE
:100D70003091EB0031603093EB007093EC002093E6
:100D8000ED005093F0002091EE0027FDE0CF80E0D1
:100D90000895B0E0A0E0EFECF6E00C94E52AC8ED91
:100DA000D0E088818F7E8883E7EDF0E080818160EC
:100DB000808384E082BF81E08093BE0288818E7F41
:100DC000888302EE10E0F80110821092DA0081EEC2
:100DD000C82ED12CF601108288818F778883888174
:100DE0008068888388818F7D888319BC1092CB02AC
:100DF0001092CC021092CA021092C90290EEE92E13
:100E0000F12CF70180818B7F8083888181608883CA
:100E100042E060E080E00E949706F60180818E7FCC
:100E20008083F801808181608083808188608083F5
:100E3000F70180818E7F8083888180618883CDB730
:100E4000DEB7E8E00C94012BFC018091D302909175
:100E5000D40286179707A0F06115710529F49091C7
:100E6000E8009E779093E80090E06115710551F4D9
:100E7000911108C08091E80082FF34C080E008959D
:100E8000BC01F2CF8091CB028823C1F18530C1F142
:100E90008091E80083FD30C08091E80082FDEACFB8
:100EA0008091E80080FFE1CF8091F3002091F20073
:100EB000382F6115710519F02830310558F091E08F
:100EC0002830310509F090E02091E8002E7720933A
:100ED000E800CBCF81918093F100615071092F5FC1
:100EE0003F4FE7CF8091CB02882341F0853041F01E
:100EF0008091E80083FFBECF81E0089582E00895ED
:100F000083E008958091C00208952FB7F89460910E
:100F1000BA027091BB028091BC029091BD022FBFBA
:100F20000895909123019923D1F09091B70297FFF2
:100F300016C0E82FE695E695E695EE31E0F4F0E090
:100F4000EE54FE4F282F277081E090E001C0880FFB
:100F50002A95EAF780959281892382830895ECEAA5
:100F6000F1E09191891303C0DF0111971C9291E088
:100F7000E23BF907B1F70895909123019923C1F05D
:100F80009091B70297FF14C0E82FE695E695E69595
:100F9000EE31F8F4F0E0EE54FE4F877021E030E0DF
:100FA00001C0220F8A95EAF78281822B82830895FD
:100FB000ACEAB1E0EFEF90E02D91821751F0EF3FF6
:100FC00019F4211101C0E92F9F5F9630A9F7EF3F77
:100FD00009F408950E2E000CFF0BE655FE4FE6CFE8
:100FE000A3E0B0E0E6EFF7E00C94EB2A2091B50225
:100FF0003091B60228173907A1F09093B60280937A
:10100000B502E091B302F091B402309751F024E0C0
:1010100029839B838A830084F185E02DCE0101968C
:1010200009952396E2E00C94072BA3E0B0E0EBE1F6
:10103000F8E00C94EB2A2091B1023091B20228170B
:101040003907A1F09093B2028093B102E091B3020C
:10105000F091B402309751F023E029839B838A8377
:101060000084F185E02DCE01019609952396E2E0FA
:101070000C94072BE091B302F091B402309729F061
:101080000190F081E02D0995089580E00895809108
:10109000A60280FD16C081FD16C082FD16C080919B
:1010A000A5028823A1F0883280F428E0829FC00145
:1010B000112468E270E00E942C2B862F672B39F0F8
:1010C000089582E0089584E0089588E0089581E01D
:1010D00008958091A60280FD14C081FD14C082FD98
:1010E00016C08091A402882381F08E3180F420E51F
:1010F000829FC00111246EE170E00E942C2B862F8C
:10110000089584E1089588E2089588E0089580E5CF
:101110000895282F35EB2303C001112497FF04C045
:1011200080589109892F089580589F4FFBCF26E35F
:10113000611125E383B190E02F7002C095958795EA
:101140002A95E2F78170089526E3611125E334B111
:101150002F7081E090E001C0880F2A95EAF7982F60
:101160009095932394B995B1892B85B90895909161
:101170009E02E92FF0E040919F029F012F5F3F4FB9
:101180002370332742171306A9F0E056FD4F282F8E
:101190002F7780818078822B60FB87F980839F5F27
:1011A000937090939E0280919C028F5F80939C022B
:1011B00081E0089580E008952091120336E0839F36
:1011C000C0011124629F800D911D1124811522E020
:1011D000920714F090E080E0855E9C4F90931C0590
:1011E00080931B050895FA01811101C0FB01099547
:1011F0000895089580916A0280FD0AC0EAE3F2E052
:10120000118210821282339682E0EC34F807C1F723
:1012100066E070E08AE392E00E945A11089590918E
:101220006A0290FF0CC0EAE3F2E0818360834283AC
:10123000339692E0EC34F907C1F70E94FA0808955A
:1012400080916A02982F9C7F29F483708460809338
:101250006A0208958C3AE8F38370886AF8CFAF92F7
:10126000BF92DF92EF92FF920F931F93CF93DF9382
:10127000082F162FE901E42FF0E0ED58FE4F611121
:1012800010C0E4915E2F4E2F4983E8835A83DF918B
:10129000CF911F910F91FF90EF90DF90BF90AF9093
:1012A0000895E62EF12C4491D42EE42FF0E026E0B0
:1012B000829FC00111242FEF30E0B9010E94C72A9C
:1012C000802F90E0880F991F55E5569FD001579FBA
:1012D000B00D11248A1B9B0B982F990F890F590170
:1012E000AE18BF08AE9ED001AF9EB00DBE9EB00D31
:1012F00011245B2F189F80011124012F1127590100
:10130000A01AB10AAE9E8001AF9E100DBE9E100DB8
:1013100011245901A81AB108AE9CC001AF9C900DD0
:10132000BE9C900D1124892F9927281B390B2E9FC5
:10133000C0012F9F900D3E9F900D1124E92F623028
:101340007105A1F050F46115710509F49DCF61306C
:10135000710581F0EB2F512F97CF6430710569F043
:1013600080F06630710509F48FCFF4CFE42F4B2F56
:10137000592F8ACFE42F412F87CFEB2F542F492F9E
:1013800083CF4B2F5D2DE12F7FCFA3E0B0E0EBECBF
:10139000F9E00C94EB2A90916A0290FF0AC09E013A
:1013A0002F5F3F4F0E942F094B8169818A810E94E4
:1013B0000F092396E2E00C94072BCF93DF93EC0107
:1013C000EAE6F2E0438162818C810E94C5098C814A
:1013D0008F5F8C83DF91CF910895CF93DF93EC01E2
:1013E000EC81F0E0E858FD4F4491EAE6F2E06281DA
:1013F00081810E94C5098C818F5F8C83DF91CF91A1
:101400000895EF92FF920F931F93CF93DF938C0178
:10141000CAE3D2E0F12CE12CF801948160916C02D6
:1014200080916B02F3E0EF16F104ECF49923E9F0FC
:101430009E0140916D020E942F092FEFE21AF20ADD
:10144000239686E0E816F10439F70E94FA08F801BD
:10145000848190E00196817099278483CDB7DEB7AF
:10146000E6E00C94032B992319F39E0140E0E3CFAF
:10147000A3E0B0E0EEE3FAE00C94E92A8C0180915D
:10148000390281110AC09E012F5F3F4F4FEF6FEF6E
:101490000E942F098A8180933902F80164816130AA
:1014A00069F08091390240E0662361F040E06230EB
:1014B00011F44091390280E060E004C0609139028B
:1014C00040E080E00E940F09F801848190E00196DD
:1014D00063E070E00E942C2B84832396E4E00C945C
:1014E000052BB0E0A0E0E7E7FAE00C94E12AEC017C
:1014F0004C81042F10E09801D8010E94B62C9B016A
:10150000AC010E94812C4B015C01E0E2F0E0E01BA9
:10151000F10BA5E5B0E0AC019B010E94812C6B01B1
:101520007C019F01DF010E94462B9B01AC010E94C0
:101530008C2C9B01AC01280D391D4A1D5B1DC70178
:10154000B6010E94942CF22E822F90E039E23F15D2
:1015500098F143E0249F9001112435952795122F8F
:1015600010959AE3C92E92E0D92E00E085E5E82E89
:10157000EF188E2D01FD8F2D9601412F60916C0289
:101580000E942F090F5F53E0C50ED11C063089F76A
:101590000E94FA089C8181E0992319F0903219F495
:1015A0008FEF80931B0180911B01890F8C83CDB736
:1015B000DEB7ECE00C94FD2A25E530E0A901481BDC
:1015C000590BCA019A01220F331F280F391F37FF09
:1015D000C4CF2F5F3F4FC1CF0F931F93CF93DF93A4
:1015E000CAE3D2E0FE01118210821282339682E0B9
:1015F000EC34F807C1F710E000E080913802082EC3
:10160000000C990B081719078CF180911A01082E0C
:10161000000C990B801791074CF19E0140916D02CF
:1016200060916C0280916B020E942F090F5F1F4F27
:1016300023960630110509F70E94FA0880911901D6
:1016400090913802980F9093380220911A01280F38
:1016500020931A01121614F495301CF08195809392
:101660001901DF91CF911F910F910895198218826E
:101670001A82DCCFB0E0A0E0E0E4FBE00C94E42AC6
:10168000FC018281DD24DA9480FD02C0DD24D39444
:101690000AE312E0D0E0C0E026E0B22EF8011182A9
:1016A0001082128294E0E92EF12CC12C8091370235
:1016B0008C0D8730C4F16B2D0E941E2B892F082EB4
:1016C000000C990B8C179D0791F480916D028E9DF3
:1016D000A0018F9D500D112455954795559547951F
:1016E000980160916C0280916B020E942F09CD0CD1
:1016F000F1E0EF1AF108D1F621960D5F1F4FC630C9
:10170000D10561F60E94FA088091370291E0D91262
:1017100010C081110CC085E080933702CDB7DEB7D1
:10172000E9E00C94002B87FFCACF8A5FC8CF8150B5
:10173000F3CF90E00196BE010E942C2BEDCFEF92EB
:10174000FF921F93CF93DF93EC018AE3E82E82E0B0
:10175000F82E10E08C81970140916D0260916C022F
:10176000810F0E942F09165D83E0E80EF11C1C3FDB
:1017700089F70E94FA089A818C8190FF08C08F5FD8
:101780008C83DF91CF911F91FF90EF90089581504E
:10179000F7CF80E00895F894E82FE295EF70F0E03D
:1017A00031A1282F2F7081E090E001C0880F2A9589
:1017B000EAF7982F9095932391A392A1892B82A366
:1017C000789408959091B70292FF10C041E0282FBD
:1017D0002471243009F040E031E0282F28712830AE
:1017E00009F030E0431711F02CE0822793FF10C07E
:1017F00041E0282F2471243109F040E031E0282F06
:101800002871283109F030E0431711F02CE08227CD
:101810003091B80230FF10C051E0282F21712130E3
:1018200009F050E041E0282F2871283009F040E00D
:10183000541711F029E0822731FF10C041E0282F12
:101840002171213109F040E031E0282F2871283141
:1018500009F030E0431711F029E0822794FD877EDC
:10186000089582389105B9F1B0F48133910509F4F6
:101870007DC048F48932910509F46DC08A32910522
:1018800009F47BC008958533910509F45FC089335D
:10189000910509F10895833E9105D9F138F4803E10
:1018A000910529F1823E910579F10895863E9105D1
:1018B000D9F1873E910509F43EC0843E910541F57A
:1018C0002091B80221FF24C08091B70284FD19C085
:1018D00087EE90E008952091B702237009F05AC076
:1018E0002091B80223FF14C089E290E0089520916E
:1018F000B70220FD38C03091B80230FF09C024FF84
:1019000043C090E080E008952091B70222FDF7CF18
:1019100008952091B70222FD3AC03091B80230FDFF
:1019200039C024FFF5CFEDCF2091B70223FFF0CFD0
:1019300024FDE7CFCDCF2091B70223FD2EC03091FB
:10194000B80231FFEECF84EE90E008952091B70207
:1019500025FFDECFC9CF2091B70225FD21C0209100
:10196000B80223FFD5CF89E390E0D2CF2091B70210
:1019700026FFCECF8AE290E008952091B70226FF9D
:10198000C7CF81E390E0089583EE90E0089582EE62
:1019900090E0089580EE90E0089586EE90E008953E
:1019A00085E390E008957430B8F4643078F58430BD
:1019B00080F594E0899FF0011124E70FF11DEE0FEF
:1019C000FF1FEE0FFF1FE60FF11DEE0FFF1FE45587
:1019D000FF4F8591949108957D3F59F4611116C090
:1019E0008430B8F494E0899FF0011124E45DFE4F47
:1019F000F0CF7C3F59F4611109C0843050F494E079
:101A0000899FF0011124E25DFE4FE3CF80E090E07A
:101A1000089581E0FCCF1F93CF93DF930E94310C98
:101A2000EC01C11580E5D807F0F5C11580E4D807B1
:101A300008F09CC0C03ED10520F5CD3CD10508F092
:101A400082C0C83AD10578F4C53AD10508F073C010
:101A5000C130D10519F1209709F1C430D105F0F456
:101A6000D0E0C0E01BC0C33CD105D0F7C85AD0E0DD
:101A7000CC0FDD1FC95DDE4F0990D881C02DD46425
:101A80000DC0C11580E2D80708F0D1C0C11581E0B2
:101A9000D80708F05AC0C83ED10510F7CE01DF9133
:101AA000CF911F910895C03682E5D80718F5C0344C
:101AB00082E5D80708F06BC0C03282E5D80708F08D
:101AC0005FC0C11582E5D80708F497C02C2F269572
:101AD000269580E2289F900111248C2F8370C1E00D
:101AE000D0E002C0CC0FDD1F8A95E2F7C22BD32BCA
:101AF000DD68D4CFC03A82E5D80760F4C03882E50B
:101B0000D80708F459C0CF71D0E0DC2FCC27C46FC0
:101B1000D06AC4CFC03C82E5D80708F462C0C03E9A
:101B200082E5D80708F09CCFDC2FCC27CC27DF71CB
:101B3000C06FD06AB3CFC55AD0E0CC5DDE4FC8814C
:101B4000D0E0D064ABCFD065A9CF8D2F0E94E20B3F
:101B5000182FCE0199270E94310CC12FD0E0DC2F25
:101B6000CC27CC27DF71C82BD92B98CFCE01992752
:101B70000E94310CCC27DF70C82BD92BD06A8ECFB6
:101B8000CF71D0E0DC2FCC27C16FD06A87CF2C2F4C
:101B900026952695277080E2289F900111248C2F8E
:101BA0008370C1E0D0E002C0CC0FDD1F8A95E2F760
:101BB000C22BD32BDC6872CF2C2F2695269527704D
:101BC00080E2289F900111248C2F8370C1E0D0E027
:101BD00002C0CC0FDD1F8A95E2F7C22BD32BDA6847
:101BE0005DCF8C2F8F710E94E20BC82FD0E0DC2FCD
:101BF000CC27CC27DF71D06251CF8C2F8F710E9400
:101C0000E20B55E0D695C7955A95E1F7CF70D0E035
:101C1000DC2FCC27282F30E084FF05C044E0220FC2
:101C2000331F4A95E1F7C22BD32BD06937CF8D2FC5
:101C30008F710E94E20B182FCE0199270E94310C60
:101C4000C12FD0E0DC2FCC27CC27DF71C82BD92BBC
:101C5000D2CF80959091120298239093120208950A
:101C6000809112029091E901892B9091E8019923CA
:101C700091F0892B90912301992371F09091B702F3
:101C800097FF0AC09EE124EB31E040E0915040F420
:101C900041111092E801089596E02CEA31E0F5CF69
:101CA000F90151919F01552389F34F5FEFCF809147
:101CB0000E039091D502981301C008958F5F87702D
:101CC000FACFB0E0A0E0E7E6FEE00C94E42A7C0165
:101CD000009172021091730280911C0290911D027A
:101CE000082B192BCFE0D0E0CC24C394D12CBC2EF0
:101CF000C6010C2E02C0880F991F0A94E2F78023B8
:101D00009123892B49F4219790F7B12C8B2DCDB7D6
:101D1000DEB7E9E00C94002BB7018C2F0E94D30CA6
:101D20000E940B0D019779F3F1CFCF93DF93EC0174
:101D30000E94610EBE010E94D30C0E940B0DDF9128
:101D4000CF910895A82FA77023E0969587952A959F
:101D5000E1F7880F991F880F991FFB01E80FF91F02
:101D600050E040E080E0219130E00A2E02C036953C
:101D700027950A94E2F721703327042E01C0220F21
:101D80000A94EAF7822B4F5F5F4F4430510559F7B1
:101D90000895943070F4843098F444E0949F900156
:101DA000112468ED71E0820F932F911D0E94A20E05
:101DB00008959C5F923020F464ED71E090E0F6CFDE
:101DC00080E00895262F277091E001C0990F2A9591
:101DD000EAF723E0769567952A95E1F7660F771F76
:101DE000660F771FFA01E60FF71F50E040E0682FFB
:101DF00070E08191DF0111979B01042E02C036959E
:101E000027950A94E2F7217021952827292328276E
:101E10002C934F5F5F4F4430510559F70895282F99
:101E2000862F943068F4243050F434E0939FB0014E
:101E30001124620F711D48ED51E00E94E20E0895D9
:101E40009C5F9230E0F7622F70E044ED51E0F5CFF7
:101E50009093730280937202089521E030E002C0F3
:101E6000220F331F8A95E2F72095309580917202F8
:101E700090917302822393230E94280F08959091DA
:101E8000E701809589238093E701282F277069F463
:101E9000891759F09091B80292FF07C086958695F0
:101EA00086950E942D0F1092E701089521E030E001
:101EB00002C0220F331F8A95E2F78091720290913F
:101EC0007302822B932B0E94280F089590931D027A
:101ED00080931C020895FC0124812223C1F080819B
:101EE00091810E94950E92959F70963091F058F4D2
:101EF000925F9F70923058F4803F19F030F4883E22
:101F000030F481E008959A5FF4CF843FD1F380E00C
:101F10000895883EB0F3813FD1F7F3CFA6E0B0E05B
:101F2000E4E9FFE00C94EA2A49835A8349815A8103
:101F30009923A1F0222391F0CA010E94610E182F6B
:101F4000682F89819A810E940F0F69817A81812F80
:101F50000E94D30C2696E3E00C94062BCA010E9443
:101F6000C90E182FF2CFCF93DF93C0911B05D091EC
:101F70001C058A30C1F420911203CE018B5193408D
:101F8000622F70E00E94C72A281B822F66E00E9401
:101F9000122BC82FC15018F4DF91CF91089580E221
:101FA0000E94B30FF7CF8D30E9F4CB51D34020918D
:101FB0001203622F70E0CE010E94C72A281B822FD5
:101FC0009E01280F311D2115324018F080E0D0E02D
:101FD000C0E0C80FD11DC55EDC4FD0931C05C09377
:101FE0001B05DACF96E0FE01A3E1B3E001900D926C
:101FF0009A95E1F7803E08F458C086E0FE01119200
:102000008A95E9F7C0911B05D0911C0546E050E088
:10201000BE0183E193E00E94FD2B9E012B513340D2
:10202000892B41F1C90145E0969587954A95E1F7DD
:1020300041E050E0BA0102C0660F771F8A95E2F7CF
:10204000CB016091190370911A03862B972BB9016C
:102050006B5F7F4FE5E076956795EA95E1F702C003
:10206000440F551F6A95E2F7842B952B90931A0322
:10207000809319032A5F3F4F40911203642F70E051
:10208000C9010E94C72A481B463010F4240F311D95
:10209000211572E0370710F030E020E0255E3C4F5C
:1020A00030931C0520931B0577CFF6E08F9FB0017E
:1020B000112469527A4F46E050E0CE010E94E72B8E
:1020C000A1CFCF93DF93EC01FE018491811103C076
:1020D000DF91CF9108950E94B30F2196F5CF8091A3
:1020E0002301882359F18091B70287FF27C00E94FE
:1020F000300E8093B30140E250E06AEE71E082EB73
:1021000091E00E94FD2B892BC1F080E2E2EBF1E02F
:10211000AAEEB1E001900D928A95E1F7E091B30249
:10212000F091B402309749F086E08093B2010480C8
:10213000F581E02D82EB91E0099508950E94300E23
:102140008093AA0148E050E06AE072E08AEA91E0F8
:102150000E94FD2B892B89F388E0EAEAF1E0AAE0EE
:10216000B2E001900D928A95E1F7E091B302F0910F
:10217000B402309711F30280F381E02D8AEA91E0F6
:10218000DBCF882321F00E94290E0E946F10089552
:10219000882339F090911202982B909312020E949A
:1021A0006F1008950F931F93CF93DF938B01EA0174
:1021B0009091CB02943061F58093E9008FEF90917C
:1021C000E800815095FD06C095ED9A95F1F7000065
:1021D0008111F5CF8091E80085FF1AC00E94470663
:1021E000811111C08091E80085FD06C08091E80052
:1021F0008E778093E800F2CFF80181918F01809370
:10220000F100219779F78091E8008E778093E800BC
:10221000DF91CF911F910F91089543E050E0BC01F1
:1022200082E00E94D210089546E050E0BC0182E0B6
:102230000E94D210089540E250E0BC0182E00E946A
:10224000D2100895CF93DF93EC0148E050E0BC0139
:1022500081E00E94D21088E0FE01A1ECB2E0019082
:102260000D928A95E1F7DF91CF91089581E08093F7
:10227000E00080E28093D8001092C9008FE19EE4D4
:102280000197F1F700C0000087E090EBDC0180933C
:102290001D0590931E05A0931F05B093200588E1AE
:1022A0009CE00FB6F894A895809360000FBE9093C1
:1022B0006000FFCF279A45B14F7755B15068EFB70F
:1022C000F8949B01220F331F260F371F280F391F49
:1022D0002817390741F4EFBF8FE594E00197F1F734
:1022E00000C000000895DC016D91CD0178E055B982
:1022F000000000C067FF45B9660F000000C000C0C5
:1023000000C045B900C07A9591F7E2CFAB0124E651
:1023100030E0BC0188E70E94372A21E0892B09F0D0
:1023200020E0822F089580919A0290919B02911152
:1023300003C091E089270895882369F063E070E085
:102340008BE793E00E948611811103C080919A026D
:10235000089510929A0280919A02EBCFCF93C09188
:102360009A0280919B028823D1F00E948507605CCD
:102370007848844E9F4F60939602709397028093A3
:10238000980290939902C11108C063E070E088E759
:1023900093E00E948611811105C0C0919A028C2F92
:1023A000CF91089581E080939A02F7CF2F923F92C8
:1023B0005F926F927F928F929F92AF92BF92CF92D5
:1023C000DF92EF92FF920F931F93CF93DF93809151
:1023D0009B02882309F4B2C060E080E00E94DC0820
:1023E00060E080E00E94DC088EED93E00E94C6056C
:1023F00061E080E00E94DC088EEB93E00E94C6055D
:1024000062E080E00E94DC088EE993E00E94C6054D
:1024100063E080E00E94DC088EE793E00E94C6053E
:1024200060E087E00E94DC088DE494E00E94611087
:1024300061E087E00E94DC0885E494E00E9461107E
:102440002091720230917302832F9927009751F1E6
:102450009C0188E0A90174E0569547957A95E1F7CB
:102460004115510511F08C5F9A01A90156954795C8
:10247000569547954115510511F08E5F9A01369595
:102480002795232B09F08F5F813009F469C08823D9
:1024900059F0823009F467C0833009F467C082E2E2
:1024A00094E004C080E0D6CF8EE394E00E946110F7
:1024B00062E087E00E94DC0889E194E00E946110FC
:1024C00063E087E00E94DC080E943A08C82F80E1A0
:1024D00094E0C0FF02C084E194E00E94611087E0B4
:1024E00094E0C1FF02C08BE094E00E9461108EEF87
:1024F00093E0C2FF02C082E094E00E9461108091EC
:10250000190390911A03892BA1F580919A028823CF
:10251000A9F00E94850700919602109197022091E0
:10252000980230919902601B710B820B930B6F3FE5
:102530007F4F8F4F9F4710F40E949311DF91CF91EF
:102540001F910F91FF90EF90DF90CF90BF90AF90D1
:102550009F908F907F906F905F903F902F90089505
:1025600087E394E0A3CF80E394E0A0CF89E294E0F6
:102570009DCF80919B02882341F280919502811129
:10258000C4CF0E94AE112091190330911A03211576
:10259000310509F4BACF80E041E050E0082F10E0A7
:1025A0001A01082E02C0220C331C0A94E2F7B10172
:1025B00062237323672B11F48F5FF0CF9091940205
:1025C00090FF95C0880F880F880F80931E0110928E
:1025D0002101895F80931F0183E08093220124E61B
:1025E00030E047E050E06CE171E088E70E94F329B9
:1025F000892B09F08ACFA80125E0440F551F2A95A1
:10260000E1F78091940280FF84C0E4E7F2E080E289
:10261000DF011D928A95E9F7A4EAB1E000EA11E032
:1026200088EAC82E81E0D82E97E0592E772473943B
:102630008D91E80129918E01240F352F311D255EE2
:102640003C4FE82FF0E0EC58FD4F90E080E0652C27
:10265000681A872C082E01C0880C0A94EAF77901C1
:10266000A12CE701B9907E01B820662D6A19677028
:10267000962E062E000C770BDB2D01C0DD0F9A94F1
:10268000EAF77195619571096770772701C0B69473
:102690006A95EAF7BD2A6081962E9B289082A394C2
:1026A00068E0A612DECF019631968830910579F662
:1026B000CA16DB0609F0BCCF04E610E020E230E0E9
:1026C00044E752E060E488E70E947D2A892B09F004
:1026D0001CCFE101C095D0958091190390911A0308
:1026E000C823D923D0931A03C09319030ECF829520
:1026F000880F807680931E01980136952795369530
:10270000279520932101815E80931F012093220150
:1027100066CF455E5C4F04E610E020E230E0D2CFA9
:10272000B0E0A0E0E6E9F3E10C94DD2AFC01628070
:10273000448081E08483E8E7F2E07490E7EFF2E020
:10274000E49100916D020695015810E0000F111FF1
:10275000012F1127CCE4D2E02AE3C22E22E0D22EB0
:102760003AE6832E32E0932EAA24AA94B12C552463
:102770005A94E719EE2EF12C82E0861530F0809104
:102780006B02888380916C028983411016C01B8282
:102790001A8296014A81698188810E942F092596B3
:1027A00083E0C80ED11C8C169D0631F70E94FA08F2
:1027B000CDB7DEB7E0E10C94F92A8B818823E9F0EC
:1027C00081508B83859DC00111246C8170E00E9433
:1027D000C72AFB01FF27E858FD4F8491E82FE7192E
:1027E000E59DC0011124B7010E94C72A80916D02A6
:1027F000689FB00111247A83CCCF0E94D72BB501FA
:102800000E942C2B8017910724F682E0861588F40D
:102810000E94D72BB5010E942C2B88830E94D72BB6
:1028200020916C022695622F70E00E942C2B280FBD
:1028300029831A8280916D02893C20F088EC8C8378
:102840008B83A7CF8431D8F784E1F9CFB0E0A0E043
:10285000ECE2F4E10C94E12A49015A016B017C019C
:102860000E9420098401A4016A2D7B2D88E090E05C
:102870000E94402C94014A2D5B2DB601C70100E255
:102880000E94702B622F84E290E00E942E2CCDB724
:10289000DEB7ECE00C94FD2AA3E0B0E0E2E5F4E161
:1028A0000C94DE2AF82E762EE42E622E90916A0287
:1028B00090FF2FC0E92FE695E695AE2FB0E0AB581C
:1028C000BE4F8C91809335029C7F943031F59E01F0
:1028D0002F5F3F4F8F2D0E942F094B8169818A8185
:1028E0000E940F09F0926B0270926C02E0926D02EE
:1028F000662079F020916A0260916E0270916F02F9
:102900003F2D472D5E2D80917002909171020E94A3
:1029100026142396EFE00C94FA2A823019F4E09002
:102920006D02E0CF863019F4F0906B02DBCF893076
:10293000D9F38931B9F6E9518E2F8170582EE69579
:10294000F0E0ED58FD4FE4910E2F10E08AE3C82E21
:1029500082E0D82EB12CA12C96E0892E912CC501B5
:10296000B4010E94C72A8F2D511013C0860F960103
:102970004E2D672D0E942F09A00EB11E83E0C80EB8
:10298000D11C8CE4C81682E0D80649F70E94FA08E8
:10299000A9CF861BECCFEAE6F2E0438121E1421B9E
:1029A00008F440E021E0628181810E944C14089586
:1029B000EAE6F2E0438121E1420F08F44FEF21E023
:1029C000628181810E944C140895EAE6F2E06281FE
:1029D00021E1621B08F460E021E0438181810E94D3
:1029E0004C140895EAE6F2E0628121E1620F08F4F6
:1029F0006FEF21E0438181810E944C140895EAE643
:102A0000F2E0818121E0438162818A500E944C146E
:102A10000895EAE6F2E0818121E043816281865FE8
:102A20000E944C14089580916E02882319F0815001
:102A300080936E0220916A0230916B0240916C0289
:102A400050916D0260916E0270916F0280917002E0
:102A5000909171020E942614089580916E02833035
:102A600018F48F5F80936E0220916A0230916B029E
:102A700040916C0250916D0260916E0270916F02F4
:102A800080917002909171020E9426140895909195
:102A9000B80292FB222720F9281779F080FB92F9DF
:102AA0009093B8026091B7027091B80284E090E010
:102AB0000E944C2C82E00E943F0F08951F920F92BB
:102AC0000FB60F9211242F933F934F935F936F9301
:102AD0007F938F939F93AF93BF93EF93FF938091D7
:102AE000E10082FF09C08091E20082FF05C0809171
:102AF000E1008B7F8093E1008091DA0080FF24C0A9
:102B00008091D80080FF20C08091DA008E7F809372
:102B1000DA008091D90080FF9DC080E189BD82E10B
:102B200089BD09B400FEFDCF81E08093CB02809186
:102B3000BE02811109C00E9428060E94C906809128
:102B4000E20084608093E2008091E10080FF17C082
:102B50008091E20080FF13C08091E2008E7F80931D
:102B6000E2008091E20080618093E2008091D800D1
:102B700080628093D80019BC85E08093CB0280915D
:102B8000E10084FF2BC08091E20084FF27C080E138
:102B900089BD82E189BD89B5982F917080FFFBCFF7
:102BA0008091D8008F7D8093D8008091E1008F7E46
:102BB0008093E1008091E2008F7E8093E20080911B
:102BC000E20081608093E2008091CC02882309F4C6
:102BD00047C084E08093CB028091CB028091E100DA
:102BE00083FF27C08091E20083FF23C08091E10032
:102BF000877F8093E10082E08093CB021092CC0229
:102C00008091E1008E7F8093E1008091E2008E7FD1
:102C10008093E2008091E20080618093E20042E0D4
:102C200060E080E00E9497068091F00088608093C9
:102C3000F000FF91EF91BF91AF919F918F917F91A4
:102C40006F915F914F913F912F910F900FBE0F9019
:102C50001F90189519BC1092CB021092BE0274CF2F
:102C60008091E30087FD93E09093CB02B5CF7894F9
:102C70001F921FB61F9211248F939F93AF93BF9300
:102C80008091BA029091BB02A091BC02B091BD02AA
:102C90000196A11DB11D8093BA029093BB02A0932F
:102CA000BC02B093BD02BF91AF919F918F911F90D5
:102CB0001FBE1F9018959C014FB7F8948091BA02DF
:102CC0009091BB02A091BC02B091BD024FBF821B8C
:102CD000930B08952FB7F8948091BA029091BB029C
:102CE000A091BC02B091BD022FBF08950E946A1648
:102CF0009C019091AD028091AE02982B21F030930F
:102D0000AA022093A9029091AF028091B002982B61
:102D100021F03093A8022093A702E091B302F09132
:102D2000B402309749F082E08093AB020680F781CD
:102D3000E02D8BEA92E0099508951092120280919D
:102D40002301882339F18091B70287FF23C0E4EB88
:102D5000F1E08EE1DF011D928A95E9F790E080E0D5
:102D60000E94150890E080E00E94F0071092E901AF
:102D70000E946F1086E0EBEAF2E0DF011D928A9577
:102D8000E9F71092A4021092A5021092A6020E94E6
:102D900076160895ECEAF1E086E0DCCFAAE2B0E036
:102DA000E4EDF6E10C94EA2A8DEC92E02091F1003A
:102DB000FC012193CF01F2E0853D9F07B9F7809197
:102DC000CE02833009F470C0B8F4813009F447C0F2
:102DD000823009F4B1C08091E80083FF7EC2809107
:102DE000CD029091CE029A3008F077C2E92FF0E040
:102DF000E953F34D0C94402B8A3009F48CC08B308E
:102E000009F46FC0893039F78091CD02813219F70A
:102E10008091D1029091D2020297E8F68091E80069
:102E2000877F8093E8008091E80082FF38C090910E
:102E3000F3008091F200029731F48091F10081302B
:102E400011F0863021F48091F1008093C0028091CE
:102E5000E8008B778093E8000E947806BCCF8091D1
:102E6000CD02813A09F0B7CF8091E800877F809347
:102E7000E8008091D1029091D202892B61F468E040
:102E800081EC92E070E00E9424078091E8008B774B
:102E90008093E800A0CF60E090E080E0F3CF8091E5
:102EA000CB028111C0CF97CF8091CD02813A09F03A
:102EB00092CF8091D1029091D202892B09F08BCFD1
:102EC0008091E800877F8093E8008091E80080FF90
:102ED000FCCF809123018093F1008091E8008E77F0
:102EE000B9CF8091CD02813209F075CF8091D102A6
:102EF0009091D202892B09F06ECF8091E800877FF4
:102F00008093E8000E9478068091CF02809323018D
:102F10000E949D1660CF8091CD02813209F05BCF77
:102F20008091E800877F8093E8000E947806809176
:102F3000D0028093BF024FCF8091CD02813A09F039
:102F40004ACF8091E800877F8093E8008091E80075
:102F500080FFFCCF8091BF02BECF803899F08238CD
:102F600009F0BBC18091D1028F70873008F0B5C1E4
:102F70008093E9008091EB0085FB882780F910920F
:102F8000E90006C08091C9029091CA029111826045
:102F90009091E800977F9093E8008093F100109261
:102FA000F1008091E8008E7794C1882309F482C1F2
:102FB000823009F092C18091CF02811185C1809148
:102FC000D1028F702FEF280F263008F086C1809332
:102FD000E9002091EB0020FF77C1933031F480911C
:102FE000EB0080628093EB006FC19091EB009061E9
:102FF0009093EB0021E030E001C0220F8A95EAF7C0
:103000002093EA001092EA008091EB008860EACFFA
:10301000811163C11091CF021F778091E300807806
:10302000812B8093E3008091E800877F8093E80004
:103030000E9478068091E80080FFFCCF8091E30039
:1030400080688093E30082E0111183E08093CB02DB
:1030500044C18058823008F040C18091CF029091E5
:10306000D0028C3D23E09207A1F583E08A838AE2B7
:1030700089834FB7F894DE01139620E03EE051E2D9
:10308000E32FF0E050935700E49120FF03C0E29556
:10309000EF703F5FEF708E2F90E0EA30C0F0C79680
:1030A0008D939D932F5F243159F74FBF8091E80096
:1030B000877F8093E8006AE270E0CE0101960E946B
:1030C00024078091E8008B778093E80006C1C096C2
:1030D000E7CF4091D1025091D202292F33272330DC
:1030E000310509F444C078F52130310509F46FC089
:1030F0008BE390E0E6E5F5E02230310509F0EDC024
:103100002091E800277F2093E8002091D30230919E
:10311000D4028217930708F49C0140E02115310581
:1031200009F064C0411162C08091E80082FDC9CFFE
:103130008091CB02882329F2853019F28091E80032
:1031400083FFF2CFBECF21323105A9F12232310502
:1031500009F0C3C04115510509F443C04130510580
:1031600009F0BBC086EB90E0ECE5F4E0C9CF99270D
:1031700081309105C1F0009759F0029709F0ADC078
:10318000E3EAF5E0E4918E2F90E0E3EAF5E007C092
:10319000E3EDF5E0E4918E2F90E0E3EDF5E00097AC
:1031A00009F49BC0ADCFE3EBF5E0E4918E2F90E006
:1031B000E3EBF5E0F4CF4115510571F041305105D5
:1031C00009F08BC089E090E0E1E8F5E099CF82E179
:1031D00090E0E1E9F5E094CF89E090E0E8E6F5E001
:1031E0008FCF84E490E0E2E1F5E08ACF8091CB02DA
:1031F000882309F466CF853009F463CF8091E80015
:1032000083FD5FCF8091E80082FD8ECF8091E80042
:1032100080FF84CF9091F3008091F2002115310559
:1032200019F08830910550F041E0089709F040E02E
:103230008091E8008E778093E80070CF44914093AE
:10324000F1003196215031090196E8CF803809F01C
:1032500044C08091E800877F8093E8008091CC0291
:103260008093F1009ECE811138C01091CF021230B0
:10327000A0F58091E800877F8093E8001093CC024E
:103280000E947806112311F084E005C08091E300CC
:1032900087FDFACF81E08093CB0242E061EC81E0D0
:1032A0000E94970642E261EC82E00E9497068091BC
:1032B000CB0213C08091CF02813079F481E093304A
:1032C00009F080E08093CA021092E9008091E80042
:1032D000877F8093E8000E9478068091E80083FF52
:1032E0000AC08091E800877F8093E8008091EB001E
:1032F00080628093EB00AA96E3E00C94062B1F9269
:103300000F920FB60F9211242F933F934F935F9319
:103310006F937F938F939F93AF93BF93CF93DF93DD
:10332000EF93FF93D091E900DF708091EC00C82FFC
:10333000C17080FDC0E81092E9008091F000877FA5
:103340008093F00078940E94CE161092E90080914C
:10335000F00088608093F000CD2BCF70C093E9001F
:10336000FF91EF91DF91CF91BF91AF919F918F919D
:103370007F916F915F914F913F912F910F900FBE71
:103380000F901F9018950E949D162FEF84E39CE0EC
:10339000215080409040E1F700C0000088E19CE0AF
:1033A0000FB6F894A895809360000FBE90936000CC
:1033B000FFCF4091AD029091AF022091B002662301
:1033C00009F469C0942B922B2091AE02922B31F01C
:1033D00098E09093A40291E09093A5028D3C41F473
:1033E0000E94690881958093AE020E947616089526
:1033F0008E3C19F40E946908F6CF8F3C31F40E948C
:10340000690881958093AD02F0CF803D19F40E9448
:103410006908F8CF893D29F40E9447088093AF02DC
:10342000E4CF8A3D21F40E9447088195F7CF8B3D78
:1034300031F40E94470881958093B002D6CF8C3D2D
:1034400019F40E944708F8CF9FE2980F983070F463
:10345000815D990B21E030E001C0220F8A95EAF7E7
:103460008091AC02822B8093AC02BFCF8D3D31F4B2
:103470008091A60281608093A602B7CF8E3D21F491
:103480008091A6028260F7CF8F3D09F0AECF809188
:10349000A6028460F0CF8D3C59F48091AE0287FF84
:1034A0000DC01092AE0241110BC01092A40208C0D0
:1034B0008E3C81F48091AE0218169CF3442381F077
:1034C0008091AF029091B002892B09F08ECF1092BB
:1034D000A5028BCF8F3C49F447FFF0CF1092AD028D
:1034E0008091AE028111ECCFE0CF803D19F414162B
:1034F000ACF3E4CF893D29F4191604F71092AF021A
:10350000DDCF8A3D19F497FFD9CFF8CF8B3D29F451
:1035100027FFD4CF1092B002D1CF8C3D19F41216F0
:10352000CCF3CCCF9FE2980F983090F4815D990B4B
:1035300021E030E0B90102C0660F771F8A95E2F7FB
:10354000CB0180959091AC0289238093AC02B6CFD9
:103550008D3D31F48091A6028E7F8093A602AECF7E
:103560008E3D21F48091A6028D7FF7CF8F3D09F02B
:10357000A5CF8091A6028B7FF0CF882381F19CEFAD
:10358000980F913A28F40E9491070E946F100895B5
:1035900090E2980F983050F4877091E001C0990F35
:1035A0008A95EAF7892F0E94290EEFCF9BE5980FA5
:1035B000933028F490E080E00E941508089598E583
:1035C000980F9B3128F490E080E00E94F007089566
:1035D00093E3980F933118F460E00E94D91908958D
:1035E000CF93C82F8823B1F18CEF8C0F813AA0F5CF
:1035F00080912301882301F18091B70287FF1CC0CD
:10360000EC2FE695E695E695F0E0EE54FE4F8281CC
:1036100090E04C2F477021E030E002C0220F331FB2
:103620004A95E2F782239323892B79F08C2F0E940D
:1036300091070E946F1009C0ECEAF1E08191C81770
:10364000A9F381E0E23BF807C9F78C2F0E94BC0781
:103650000E946F10CF91089580E28C0F883068F43B
:10366000C77021E030E001C0220FCA95EAF78091CF
:103670001202822B80931202EBCFEBE5EC0FE330CA
:1036800040F4F0E0EC5DFE4F808190E00E94150870
:10369000E1CFE8E5EC0FEB3150F4F0E0EE0FFF1F67
:1036A000E95DFE4F808191810E94F007D3CF83E3D3
:1036B0008C0F833178F661E08C2F0E94D919CACF24
:1036C0000F931F93CF93DF93C62FD42F022FFC01AC
:1036D00085818823A9F0609311030E946A16909354
:1036E000100380930F03C77081E001C0880FCA9553
:1036F000EAF70E94C810DF91CF911F910F910895B2
:1037000080911103681335C080910F0390911003CD
:103710000E945B16883C910560F510E21D0FCD17E5
:10372000B9F080E28C0F883040F4C77081E001C0AE
:10373000880FCA95EAF70E94C110183048F481E05A
:103740009D2F977001C0880F9A95EAF70E94C810C4
:10375000802F0E94F01A802F0E94BD1A183058F650
:10376000D77081E001C0880FDA95EAF70E94C11096
:10377000C2CFC77081E001C0880FCA95EAF7F6CFC3
:1037800060916A026695669570E04BE050E08EE0CD
:1037900091E00E94F02B892B19F481E0809336028E
:1037A0000E946A169093300280932F0208959091A0
:1037B0006A0290FF35C09370811133C0946090937A
:1037C0006A02662391F020916A0230916B02409167
:1037D0006C0250916D0260916E0270916F02809147
:1037E0007002909171020E94261460916A0266959F
:1037F000669570E04BE050E08EE091E00E94F02B87
:10380000892BB9F01092360281E08093320220E0D9
:1038100040916D0260916C0280916B020E944C1489
:1038200008958B3210F0986ACACF880F880F982BB2
:10383000C6CF0E94C01BE8CF80916A02869586950C
:10384000815009F48AE261E00E94D71B08958091BB
:103850006A02869586958F5F8B3208F081E061E081
:103860000E94D71B089590916A0290FF09C0969517
:103870009695981728F0961718F40E94271C08951B
:1038800061E00E94D71B0895B0E0A0E0EAE4FCE10B
:103890000C94E32A8C01FC018481882341F121E00E
:1038A000408151816281738195810E948E0FEC016C
:1038B000FC01E851FC47E730F105A8F5EF52F34D64
:1038C0000C94402B26E241EE61EEC8010E94601B81
:1038D0008091E701877059F0F8018581882339F0DC
:1038E0008091B80282FF03C082E00E943F0FCDB7F3
:1038F000DEB7EAE00C94FF2A27E245EE65EEE5CF5D
:1039000026E241EE60EEE1CF27E245EE64EEDDCF48
:1039100026E241EE62EED9CF27E245EE66EED5CF44
:1039200028E241E0EBCFF8018581882309F4F2C356
:1039300010921103CE019057839708F0D7C384E00B
:1039400090E00E94182C9093B8028093B702FE0179
:10395000E150F047E232F10520F4E852F34D0C94C7
:10396000402B8091B70281608093B70295C080910F
:10397000B80288608093B8028FC08091B7028260DD
:10398000F3CF8091B7028460EFCF8091B702886057
:10399000EBCF8091B8028160EDCF8091B802826058
:1039A000E9CF8091B7028061DFCF8091B70280625A
:1039B000DBCF8091B7028064D7CF0E949D168091A3
:1039C000B7028068D1CF8091B7028C60CDCF809153
:1039D000B8028360CFCF8091B7028E7FC5CF809130
:1039E000B802877FC7CF8091B7028D7FBDCF80910E
:1039F000B7028B7FB9CF8091B702877FB5CF809117
:103A0000B8028E7FB7CF8091B8028D7FB3CF8091FF
:103A1000B7028F7EA9CF8091B7028F7DA5CF80910D
:103A2000B7028F7BA1CF0E949D168091B7028F773E
:103A30009BCF8091B702837F97CF8091B8028C7F14
:103A400099CF8091B70282FB992790F921E09227C4
:103A500090FB82F990FB83F987CF8091B802982F71
:103A6000909591708E7F892B90FB81F983CF9091F7
:103A7000B702892F8F7B96FF806476CF0E949D16B8
:103A80009091B702892F97FB87F980586DCF61E03D
:103A90008EE090E00E942E2C6091B7027091B802E7
:103AA00084E090E00E944C2C0E949D1611CF60E0B3
:103AB000EFCF9091B702892F8F7E94FF806154CF12
:103AC0009091B702892F8E7F90FF81604DCF9091AA
:103AD000B802892F877F93FF88604CCF85E315C399
:103AE00085E321C380916A0280FF19C0282F2E7FB1
:103AF00020936A0230916B0240916C0250916D02EA
:103B000060916E0270916F028091700290917102CB
:103B10000E942614109236020E94FA08D9CE8160C3
:103B200080936A0261E0869586950E94D71BD0CE6D
:103B30004CE15CE167E27CE10E94F308C9CE47E218
:103B40005CE16CE17CE1F8CF4FEF54E169E075E1B5
:103B5000F3CF49E055E16FEF74E1EECF45EE54E16C
:103B600062EF74E1E9CF42EF54E165EE74E1E4CF36
:103B70004BEC54E168ED74E1DFCF48ED54E16BECC0
:103B800074E1DACF43E155E16DE275E1D5CF4DE265
:103B900055E163E175E1D0CF61E081E0C6CF65E03A
:103BA00082E00E94331C94CE68E086E0FACF6EE09B
:103BB00089E0F7CF64E18FE0F4CF67E185E1F1CFF1
:103BC00061E088E1B2CF62E289E1EBCF61E083E2BC
:103BD000ACCF6AE285E2E5CF0E949D16FFEF24E3B9
:103BE0003CE0F15020403040E1F700C000000E946E
:103BF00036116FEF7FEF90E080E00E944C2C0E9426
:103C0000C3198091B80282FB882780F991E0892747
:103C10000E944715F8018581C081D181882309F46C
:103C20004DC0CE010E94610EF82E682FCE010E9479
:103C30000F0FBE018F2D0E94D30C0E940B0DD82FA9
:103C4000C92FA82EF801C580B680B2943FE0B322F8
:103C50008091E701877009F1EC2CCC20F9F0892FD5
:103C6000807F803469F080E28D0F8830B0F0892F3A
:103C7000807E803229F4F1E0FD1778F4BB2069F0F2
:103C80008091B80282FF09C082E00E943F0F8091BC
:103C9000E7018770EE24E3948111E12CDC2ED294AD
:103CA0002FE0D2222BE02D1508F46DC0ED2DF0E0B1
:103CB000E650F34D0C94402B80E0AACFCE010E9439
:103CC000C90EF82EB6CF3C2F3F70F32EC07F19F0EF
:103CD000F29490EFF922CC20B9F0FF2069F080E255
:103CE0008D0F883010F0A11009C080911202F82ABF
:103CF000F09212020E946F108D2F43C08091E90153
:103D0000F82AF092E901F6CF8D2F0E94BD1AFF200C
:103D1000D1F1D05ED83010F0A11004C08F2D0E94D8
:103D2000290E06C0F0948091E901F822F092E90191
:103D30000E946F1028C08C2F8F70F82EC07FC03269
:103D400019F0F29480EFF822AA2059F091E0A91618
:103D500009F479C0CC2009F485C0BB2009F447C020
:103D6000CBCF8091B80282FD3EC0CC20B1F1FF20C4
:103D700039F080911202F82AF09212020E946F101C
:103D800080E00E94F01A2D2D2850330B243031058D
:103D900010F40E943A08EE20A9F08091E70180FD1E
:103DA00011C0F80115828695869586950E94560F5A
:103DB000C8010E94441C8091E701869586958695EE
:103DC0000E942D0F20E0F8014081518162817381B2
:103DD000848195810E948E0F8ACD80E00E94BD1A59
:103DE000FF2089F29BCFCC20A1F0B11004C08F2D11
:103DF0000E94C810C8CFE1E0BE12C5CF8091E80193
:103E00009F2D9823F91609F4BECFF82AF092E80105
:103E1000BACFB110B8CF8F2D0E94C1109091E80198
:103E20008F2D892329F08F2D809589238093E80198
:103E30008091D3019F2D982309F4A5CFF094F82207
:103E4000F092D301A0CFCC2029F0F5E0FB1508F4C7
:103E50009ACFCDCF24E02B1508F495CF8F2D0E945B
:103E6000C11091CFBB20D1F339E3A31209C08FEF6A
:103E700097EEE3E081509040E040E1F700C00000A1
:103E80008D2F0E94BD1A7FCF8C2F869586958370CB
:103E900069F0813009F077CF8D2F9C2F9370C1107E
:103EA00002C080E090E00E94F0076DCF8D2F9C2F24
:103EB0009370C11002C080E090E00E94150863CFAB
:103EC0006C2D8D2F0E94D9195ECF8C2F837009F035
:103ED0003FC0C11058CF4D2F429546954770440FB3
:103EE000440F2D2F2F7030E0042E02C0220F331FFD
:103EF0000A94E2F790E080E0D4FF09C08FE090E000
:103F000002C0880F991F4A95E2F780959095C69553
:103F1000C695C370C23099F078F440911C0250915C
:103F20001D02C13039F0822B932B842395230E94EC
:103F3000660F29CF242B352B822B932BF8CF822B86
:103F4000932B20911C0230911D0282279327EFCFE3
:103F50008695CC2011F08C2F8170882309F413CF23
:103F60004D2F429546954770440F440F2D2F2F70CB
:103F700030E0042E02C0220F331F0A94E2F790E0D3
:103F800080E0D4FF09C08FE090E002C0880F991F45
:103F90004A95E2F780959095C695C695C370C23054
:103FA00099F078F44091720250917302C13039F067
:103FB000822B932B842395230E94280FE4CE242B5D
:103FC000352B822B932BF8CF822B932B20917202CF
:103FD0003091730282279327EFCFCF70CC2029F046
:103FE0008C2F0E94560F8D2F03CF8D2F0E94C11052
:103FF0008C2F0E942D0FC7CE8D2FF2EFAF1699F1A7
:10400000FA1570F020EFA216D1F031EFA31691F05F
:10401000CC2009F45BC0B1106FCE8C2F8F7127C0FC
:1040200093EFA91639F1E4EFAE12F2CF8091B80206
:1040300082FD2EC08C2F8F71CC20D9F218C0CC20DD
:1040400069F0F4E0FB1508F49ECECF7181E090E0BA
:1040500002C0880F991FCA95E2F7B8CF25E02B154B
:1040600008F491CEF2CF8C2F8F71C110C2CF0E9475
:10407000560F89CE90E080E0CC2009F49DCFCF711F
:1040800081E090E002C0880F991FCA95E2F794CFB3
:10409000CC2089F0CF718C2F0E94560F8091B802EE
:1040A00082FF07C038E0C39FC00111248360809362
:1040B000E7018C2FDCCF81E00E943F0F81E08B1560
:1040C00008F061CE82E00E943F0F5DCEBB2059F028
:1040D000893309F0D5CE9FEFE7EEF3E09150E04051
:1040E000F040E1F7CBCE8C2F8F7183CFC631FCE748
:1040F000DF07E1F4809112028A7A91E009F490E0FE
:104100009093D2018111EACC89E20E94BC070E94FF
:104110006F10DECBC6312CE7D20741F58091D2017A
:104120008111DECC89E20E949107F1CFC3303CE7D8
:10413000D30709F45ECD50F4C1159CE7D90709F403
:104140004BCDC130DC4709F45ACD64CDCB35FCE70B
:10415000DF0709F4B1CDCC352CE7D20709F451CDF6
:10416000CA35DC4709F056CD81E052CD809112026C
:104170008272FE01E052F847E531F10508F04ACDC0
:10418000EA5FF24D0C94402BCF93DF938091E601D0
:10419000807F09F04DC08091E501882309F448C073
:1041A000E0910E035091D502C091E101D091E00160
:1041B0006091E2017091E30147E05E17C9F18E2F33
:1041C00090E0E49FF0011124EA52FD4F2481222364
:1041D00091F1489FF001499FF00D1124DF01AA528F
:1041E000BD4F11962C9111972C1325C02C912D1396
:1041F00022C015962C91159721111DC012962D9154
:104200003C91261B370B283C3105A8F48091E60130
:104210008F7080618093E601E452FD4F80818F7042
:104220008061808380EE91E00E94441C0E94570EC2
:10423000DF91CF910895FC013196E770BECFA4E1E4
:10424000B0E0E5E2F1E20C94E12A8C0186E0F801AD
:10425000DE011F9601900D928A95E1F7F8018481A5
:10426000E58090EEA92E91E0B92E9091E401911194
:1042700028C0882319F1EE20F1F0C8010E946B0FCD
:10428000F82E8823C1F087E0F801D50101900D9246
:104290008A95E1F78091E401813031F48091E00169
:1042A0009091E1010E94950E0E94C4208F2D64968A
:1042B000ECE00C94FD2AC8010E94441CFF24F394F6
:1042C000F5CFD080C18082809380F090E50120916D
:1042D000E2013091E301A401421B530BFF2009F4DA
:1042E000D9C0483C510508F092C08823F9F290915A
:1042F000E1018091E601282F207F09F056C0C91204
:1043000014C09091E001D91210C0E11048C08F7024
:1043100080618093E60180EE91E00E94441C8091D0
:10432000E601F8018683F12CC1CFE11038C06C2D75
:104330008D2D0E9409066C2D8D2D0E940906E82EF8
:104340008111F1CFDF86C88A8F8598890E94950EEA
:10435000292F22952F70243058F49F70223088F036
:10436000992399F0F8019681907F79F4FE2C9ECFE5
:104370002A5F2F70223068F0C8010E94441CEF2C85
:10438000F5CF992311F0882389F3805E883070F38C
:10439000F3CF803F58F3815F833070F7E7CF809190
:1043A000E60181608093E601BECFC91207C09091FB
:1043B000E001D91203C0EE2009F48DC0C8010E94AB
:1043C0006B0F882309F477CFEE2009F474CF809126
:1043D000E601803288F02091E0013091E1013987D7
:1043E00028879B868A869091E4019C871D868E870C
:1043F000CE0108960E94441C87E0F801A0EEB1E0CF
:1044000001900D928A95E1F70E94C42057CF9091B8
:10441000E601292F207F51F480EE91E00E94441C98
:1044200087E0F50111928A95E9F77DCF882309F499
:104430003DCF8091E1018C1110C08091E001D81234
:104440000CC0E1100AC09683C8010E94441C87E09A
:10445000F50111928A95E9F729CFC8010E946B0FE7
:10446000882309F428CFEE2009F425CF8091E601B6
:10447000803210F22091E0013091E1013A832983EA
:104480009C828B829091E4019D831E828F83CE015A
:104490000196B0CF483C5105D0F6882309F40ECFE1
:1044A000FE2CEE2009F407CF8091E1018C1120C091
:1044B0008091E001D8121CC08091E60180FD0FC000
:1044C000982F907F61F08683903F31F0982F907FF6
:1044D000905F8F70892B8683C8010E94441C87E0FF
:1044E000F801A0EEB1E001900D928A95E1F7DECEE1
:1044F000C8010E946B0F81117FCF8091E60181601E
:104500008093E601C8010E94441CD0CEABE1B0E02C
:10451000ECE8F2E20C94E92A4E8B5F8B688F798F7E
:104520008A8F9B8F192F91111092E9011D8A86E0C5
:10453000FE017696DE011F9601900D928A95E1F7B5
:104540000A8D002341F021E04F85588969897A89D5
:10455000C8010E948E0F0B8B1C8B87E0FE013F96DB
:10456000DE01189601900D928A95E1F7CE0108962A
:104570000E941F2181110CC087E0FE013896DE01E8
:10458000119601900D928A95E1F78C8581110BC0EF
:1045900017E080910E039091D502891331C06B967C
:1045A000E4E00C94052B2091D50230E0C90101967E
:1045B0008770992740910E034817190699F097E0E4
:1045C000929FD001939FB00D1124AA52BD4FFE01BE
:1045D000319601900D929A95E1F78093D5020E9451
:1045E000570ED6CF0E949D161092D50210920E0340
:1045F00087E0E0EEF1E0DF011D928A95E9F7C8CF90
:10460000819FC00111248A529D4F0E941F2188233F
:1046100031F280910E0390E0019687709927809384
:104620000E03B7CFA4E0B0E0E8E1F3E20C94E22A95
:1046300019821A821B821C820DE511E081E6E82EA8
:1046400081E0F82E99249394CC24C394D12C25E6B0
:10465000A22E21E0B22ED8018D918D018F3F09F459
:1046600044C0F894E82FE295EF70F0E021A18F703C
:10467000A60102C0440F551F8A95E2F7CA01922F86
:10468000982B91A392A18095892382A3789400C04E
:1046900061E671E0FE013196492D4095DB019D9167
:1046A000BD0180819F3F09F44BC0292F22952F70B7
:1046B00030E0D90190962C9130E09F7002C0359582
:1046C00027959A95E2F720FD3BC089298083319692
:1046D000A616B70619F7F801319780818F3F11F0C0
:1046E0000E94CB0BB0EABA95F1F7990CE016F106EF
:1046F00009F0B1CF44E050E0BE016F5F7F4F88E129
:1047000092E00E94FD2B892BF9F089819A81AB817F
:10471000BC818093180290931902A0931A02B0935F
:104720001B0281E0809317020E946A169093160282
:104730008093150210E0812F2496EBE00C94FE2A62
:104740008423C4CF10E026C010911702112391F3E7
:1047500080911502909116020E945B16059750F306
:1047600044E050E068E172E081E292E00E94FD2BBB
:10477000892B41F38091180290911902A0911A029D
:10478000B0911B028093210290932202A0932302F6
:10479000B093240210921702CECFA6E0B0E0E3ED72
:1047A000F3E20C94E92A0E946A168C0180911302AC
:1047B000909114028017910781F019821A820E9449
:1047C0006A16682F49815A81792F80E090E00E9413
:1047D000862210931402009313022696E4E00C94B0
:1047E000052B1F921FB61F9211248F939F93AF9397
:1047F000BF938091B902811113C08091BA02909148
:10480000BB02A091BC02B091BD024196A11DB11D99
:104810008093BA029093BB02A093BC02B093BD02F6
:10482000BF91AF919F918F911F901FBE1F901895C0
:10483000CDB7DEB76A970FB6F894DEBF0FBECDBF17
:1048400085B7806885BF85B7806885BF84B7877F57
:1048500084BF0FB6F894A89580916000886180931A
:104860006000109260000FBE80E890E00FB6F894F0
:1048700080936100909361000FBE89EC9BE0909360
:10488000A9018093A8010E9428060E94C906809170
:10489000E20084608093E20078948091CB028823C8
:1048A000A1F01091E9001F709091EC00892F8170A8
:1048B00090FD80E8182B1092E9008091E80083FDBC
:1048C0000E94CE161F701093E90082E084BD93E031
:1048D00095BD9AEF97BD80936E00ECE9F2E088E019
:1048E000DF011D928A95E9F781E080932C0260E058
:1048F00080E00E94A40861E080E00E94A408EFE844
:10490000F1E03197F1F700C0000010E080912C0237
:10491000181708F4BBC080EF0E94CB0B85EF0E94F4
:10492000CB0B84EF0E94CB0B86EF0E94CB0B87EF63
:104930000E94CB0B81EF0E94CB0B86E90E94CB0B30
:1049400087E90E94CB0B84E0E1E2F2E0DF01282F4F
:104950001D922A95E9F7E8E1F2E0DF011D928A95C0
:10496000E9F790E080E00E94182C863E9E4F09F403
:1049700066C066EE7EEF90E080E00E944C2C60E026
:1049800082E090E00E942E2C81E090E090931D0246
:1049900080931C0261E083E090E00E942E2C60E096
:1049A00074E184E090E00E944C2C60E086E090E0AE
:1049B0000E942E2C60E087E090E00E942E2C40E0C8
:1049C00050E0BA0188E090E00E94402C60E084E270
:1049D00090E00E942E2C60E087E190E00E942E2C57
:1049E00060E08CE090E00E942E2C60E08DE090E092
:1049F0000E942E2C19821A821B821C821D821E820A
:104A00001F82188648E050E068E170E0CE01019610
:104A10000E941E2C40E050E0BA0180E290E00E942B
:104A2000402C40E050E0BA018FE090E00E94402C22
:104A300040E050E0BA0183E190E00E94402C82E027
:104A400090E00E940A2C8093250284E090E00E946E
:104A5000182C9093B8028093B7020E941223EFEFB4
:104A6000F6E721E0E150F0402040E1F700C000000F
:104A70000E9412238091210280FF1AC06FEF7FEF06
:104A800090E080E00E944C2C0E94361160E0812F63
:104A90000E949708082F61E0812F0E949708E12F5C
:104AA000F0E0E55DFD4F880F802B80831F5F2ECFE8
:104AB00083E090E00E940A2C90E00E94660F109222
:104AC000940280E8809312030E94BF296BE070E09B
:104AD00083E591E00E9486118823E9F18091940298
:104AE00065E070E081FD3BC18EE491E00E9486119B
:104AF000882389F16DE070E08CE391E00E948611DB
:104B0000882349F10E948507605C7848844E9F4F56
:104B10006093960270939702809398029093990203
:104B2000EBE1F3E080E092E0DF019C011D92215077
:104B30003040E1F7F0931C05E0931B058FEF9FEFEA
:104B400090931A038093190381E080939B028093D2
:104B50009A021092950280911E0281117EC088E017
:104B600090E00E94122C4B015C0184E290E00E94D4
:104B70000A2C282F30E040E050E060E070E080E058
:104B800090E000E20E94552B282939294A295B2907
:104B900020936A0230936B0240936C0250936D0233
:104BA00060936E0270936F02809370029093710213
:104BB0002C7F09F042C029E320936A0210926B0215
:104BC0002FEF20936C0220936D0210926E0229E366
:104BD00030E04FEF5FEF60E00E94261488E090E045
:104BE0000E94122C6B017C0184E290E00E940A2C4E
:104BF000282F30E040E050E060E070E080E090E09E
:104C00000E94552BB22FA32FF42FE52F5B019701A4
:104C10008601BC29A12BFE29E32BB0936A02A09345
:104C20006B02F0936C02E0936D0260936E02B0929F
:104C30006F0280937002909371020E94200910927B
:104C4000360280916A0280FF05C060E086958695F5
:104C50000E94D71B81E080931E0284E091E0909334
:104C6000B4028093B30268E1E62EF12C81E292E077
:104C700074E0B72EB80EE4E0CE2ED12C8091CB029A
:104C8000853009F550E4A52E9924939400E112E1B2
:104C90008091CB02853009F465C00E949D160E9468
:104CA0003A081092200280911F02882351F08091CF
:104CB0006A02816080936A0260E0869586950E9410
:104CC000D71B0E94C01B0E94122336E2832E32E0C3
:104CD000932E41E2642E42E0742E2AE232E0D301A8
:104CE000F40191918D912E173F0709F485C0981713
:104CF000C1F310E033243394D3010D913D01F4014D
:104D000041904F01401619F14026A12C552453948F
:104D1000842D8521A1F0AD8A1E8B0E946A16988F82
:104D20008F8B398E91E0802F852109F490E09A8F46
:104D30004D895E896F89788D898D0E948622A39422
:104D4000550CF4E0AF12E4CFF401319700831F5FFC
:104D5000143091F60E948507AA24A39452C089E4D6
:104D600091E0C4CE8091CB02843009F436C0109219
:104D700036028091200281110DC090922002809114
:104D80006A02982F917090931F028E7F80936A021F
:104D90000E94FA080E9493111092B9020FB6F8947B
:104DA000A895E09260000FBEA092600083B7817F5B
:104DB000846083BF83B7816083BF7894889583B70D
:104DC0008E7F83BF0FB6F894A895809160008861AC
:104DD00080936000109260000FBE8091CA02882309
:104DE00009F456CF0E941223E1E2F2E08191811191
:104DF0006AC1BE12FBCF4CCF98137BCF0E94CD234C
:104E0000A12C809136028823D9F180913502E0915E
:104E10006A02E695E695E81BE0933102823009F0DC
:104E200071C0F0E0E159FE4FE4910E2F10E02DEE3D
:104E3000822E29E0922E80913202882361F0109216
:104E400032020E946A169093300280932F021092D1
:104E50003402109233020E946A16E0912F02F09100
:104E600030028E1B9F0B8F3F9F4750F4E00FF11FC6
:104E7000F0933002E0932F028FE292E0F401099563
:104E800080912D02882351F010922D0280919E0274
:104E900080939F0280919C0280939D02912C80912F
:104EA0002C02981608F49AC090E08CEF982E23E01C
:104EB000822E772473943DEF632E42E0542E80912E
:104EC0009F0220919E02281709F418C1E82FF0E0F4
:104ED000E056FD4F108117FB002700F91F778F5F09
:104EE000837080939F0280919D028F5F80939D02CB
:104EF0000111AEC00E946A1619879A869C878B871B
:104F00008D86ADC0863059F4F0E0E459FE4FE4914F
:104F10000E2F10E09DED892E99E0992E8CCF8930CF
:104F200061F4E695F0E0E759FE4FE4910E2F10E0B2
:104F30008FE9882E8BE0982E7ECF8F3061F4E69536
:104F4000F0E0EA59FE4FE4910E2F10E0BAE38B2E09
:104F5000BBE09B2E70CF853159F4F0E0ED59FE4F48
:104F6000E4910E2F10E0ACEE8A2EAAE09A2E63CFC9
:104F700008E210E071E7872E7AE0972E883109F475
:104F80005ACF833249F4E1E6F1E005911491F8E358
:104F90008F2EFAE09F2E4FCF04EF11E061E0862EB6
:104FA0006AE0962E843209F446CF00ED17E059EFFF
:104FB000852E58E0952E853209F03DCF8E2F63E087
:104FC0000E94122BE92FF0E0E25AFE4FE4910E2FDF
:104FD00010E0E0E98E2EE3E19E2E2DCF61E0892DD9
:104FE0000E949708182F60E0892D0E949708E12FF2
:104FF000EE0FE82B092D10E0D801A55DBD4F9C9167
:10500000892F8370E81711F1990F990FE92BEC9311
:10501000EF70F0E0EB59FE4F065D1D4F8081D80127
:105020008C90880E8C92B3E060E0B81524F0EDEF20
:105030008E1624F461E0892D0E94B708882D880C13
:10504000990BB6010E942C2BD8018C93939427CFF7
:105050000E946A1619876A869C878B875D867E8682
:1050600049855A856B857C858D859E850E94862223
:10507000002391F00E946A161F87688A9A8B898B99
:105080005B8A1C8A4F85588969897A898B899C89B2
:105090000E94862291E013CF0E946A161F87988A89
:1050A0009A8B898B8B8AEDCF0E9485070E94D6113F
:1050B0000E94AE1129C081E081C081E087C081E0FB
:1050C000C6C081E0CCC009BD19BD09B400FEFDCF4A
:1050D0008091D8008F7D8093D8008091E00082601D
:1050E0008093E0008091E00081FDFCCF0E949D163E
:1050F000CFCD822B892B09F4D1C0CEC09111D4CF52
:105100000E94D611A110D4CF86E0EBEAF2E0DE01D6
:10511000119601900D928A95E1F78090AC02A090D3
:10512000AD021091AE029090AF020091B0021092C9
:10513000AD021092AE021092AF021092B002812F17
:105140008A2909F445C08091A9029091AA020E947F
:105150005B169C019091A402992309F4B9C02531F2
:105160003105B0F19F3F19F09F5F9093A402AA20F0
:1051700059F00E9469089FEF1A140CF491E0899F7E
:10518000802D11248093AD02112359F00E946908EB
:1051900091E011160CF09FEF899F802D11248093D0
:1051A000AE028091AD02882399F07090AE02772014
:1051B00079F00E948908882309F47DCF8093AD029D
:1051C000872D0E948908882309F477CF8093AE0247
:1051D000892D802B09F445C08091A7029091A802E7
:1051E0000E945B169C019091A502992309F46BC063
:1051F00021353105B0F19F3F19F09F5F9093A502D3
:10520000992059F00E9447089FEF19140CF491E07F
:10521000899F802D11248093AF02002359F00E94B2
:10522000470891E010160CF09FEF899F802D112404
:105230008093B0028091AF02882399F09090B002E1
:10524000992079F00E948908882309F438CF809347
:10525000AF02892D0E948908882309F432CF8093F8
:10526000B0028091AC02881117C08091AD028823F2
:1052700011F08A1111C02091AE02222311F01213F5
:105280000BC09091B002992311F0091305C0309121
:10529000AF02332309F42DCF0E94761686E0FE017B
:1052A0003196ABEAB2E001900D928A95E1F70E9447
:1052B0003A0890912E02891709F4E0CC80932E02CF
:1052C0000E948507DBCC2B30310508F096CFC9CF83
:1052D0002B30310508F048CF7BCFEF92FF920F9330
:1052E0001F93CF93DF93182FEB011092BC0084EA39
:1052F0008093BC000E946A167C018091BC0087FFED
:1053000027C08091B900887F883029F08091B9004A
:10531000887F803189F51093BB0084E88093BC00BE
:105320000E946A168C018091BC0087FF1EC02091EC
:10533000B900287F90E080E0283191F081E090E092
:10534000203411F490E080E091958195910908C096
:10535000C7010E945B16C817D90778F68EEF9FEF3A
:10536000CDB7DEB7E6E00C94032BC8010E945B16B4
:10537000C817D907C0F6F2CF8FEF9FEFF1CF109289
:10538000B9008CE08093B80008950F931F93CF93DA
:10539000DF93EB018093BB0084E88093BC000E9404
:1053A0006A168C018091BC0087FF11C02091B90062
:1053B000287F81E090E0283211F490E080E0919520
:1053C00081959109DF91CF911F910F910895CF3F62
:1053D000DC0741F3C8010E945B16C817D90710F714
:1053E0008EEF9FEFEFCFB0E0A0E0E9EFF9E20C9491
:1053F000E02A782E5B016A0189010E946A164C013D
:10540000C1E0D0E00431110558F0C5E0D0E00F3F15
:10541000100731F0C80164E170E00E94C72AEB0177
:10542000BE01872D0E946D297C0197FF09C00F3FA7
:105430001007B1F3C4010E945B160817190780F723
:10544000E501CA0CDB1CCC15DD0511F0F7FE09C027
:1054500084E98093BC00C701CDB7DEB7EDE00C94C2
:10546000FC2AB80189910E94C5297C01ECCFB0E0EB
:10547000A0E0EDE3FAE20C94E02A782E5B016A01E9
:1054800089010E946A164C01C1E0D0E00431110587
:1054900058F0C5E0D0E00F3F100731F0C80164E1DB
:1054A00070E00E94C72AEB01BE01872D0E946D2982
:1054B0007C0197FF09C00F3F1007B1F3C4010E94A0
:1054C0005B160817190780F7E501CA0CDB1CCC1521
:1054D000DD0511F0F7FE09C084E98093BC00C70127
:1054E000CDB7DEB7EDE00C94FC2AFE018491B80143
:1054F0000E94C5297C012196EACFB0E0A0E0E3E854
:10550000FAE20C94DF2A682E762E5A0169010E9475
:105510006A164C01C1E0D0E00431110558F0C5E035
:10552000D0E00F3F100731F0C80164E170E00E9445
:10553000C72AEB01BE01862D0E946D297C0197FFD1
:105540001DC00F3F1007B1F3C4010E945B1608177E
:10555000190780F784E98093BC00C701CDB7DEB797
:10556000EEE00C94FB2AB80189910E94C5297C01C8
:10557000CC16DD0679F3F7FEF6CFECCFB801872D18
:105580000E94C5297C01E501CA0CDB1CF1CFAA1BD6
:10559000BB1B51E107C0AA1FBB1FA617B70710F01E
:1055A000A61BB70B881F991F5A95A9F78095909550
:1055B000BC01CD0108952F923F924F925F926F925E
:1055C0007F928F929F92AF92BF92CF92DF92EF9293
:1055D000FF920F931F93CF93DF93CDB7DEB7CA1B14
:1055E000DB0B0FB6F894DEBF0FBECDBF09942A883F
:1055F000398848885F846E847D848C849B84AA84E7
:10560000B984C884DF80EE80FD800C811B81AA8173
:10561000B981CE0FD11D0FB6F894DEBF0FBECDBF3E
:10562000ED010895991B79E004C0991F961708F0C1
:10563000961B881F7A95C9F78095089587FB082ED9
:10564000062687FD819567FD61950E94122B0EF459
:10565000919507FC8195089597FB072E16F4009409
:1056600007D077FD09D00E94C72A07FC05D03EF479
:10567000909581959F4F0895709561957F4F0895FE
:10568000EE0FFF1F0590F491E02D09940E94B62CB7
:10569000332312F48A1B9B0B0C94502B0E94B62CC4
:1056A000B7FF0895821B930B0895002E083090F0E9
:1056B000982F872F762F652F542F432F322F222795
:1056C0000850F4CF220F331F441F551F661F771F4A
:1056D000881F991F0A95B2F7002D089597FD109421
:1056E000002E083098F00850232F342F452F562FC6
:1056F000672F782F892F912DF4CF15949795879543
:105700007795679557954795379527950A95AAF701
:105710001124002D08958F929F92AF92BF92CF9245
:10572000DF92EF92FF92CF93DF93EC016881798152
:105730008A819B81611571058105910521F464E2DF
:1057400079ED8BE597E02DE133EF41E050E00E94E9
:10575000622C49015A019B01AC01A7EAB1E40E9405
:10576000812C6B017C01ACEEB4EFA50194010E9489
:105770008F2CDC01CB018C0D9D1DAE1DBF1DB7FF15
:1057800003C00197A109B04888839983AA83BB838A
:105790009F77DF91CF91FF90EF90DF90CF90BF90F8
:1057A000AF909F908F9008950E948B2B089580E07A
:1057B00091E00E948B2B0895B0E0A0E0809300015F
:1057C00090930101A0930201B09303010895FB019E
:1057D000DC0102C005900D9241505040D8F7089569
:1057E000FC014150504030F001900616D1F731973E
:1057F000CF010895882799270895FB01DC0104C093
:105800008D910190801921F441505040C8F7881BB8
:10581000990B0895F999FECF92BD81BDF89A992709
:1058200080B50895A6E1B0E044E050E00C94542C1B
:10583000A8E1B0E042E050E00C94542CDC01A40F4D
:10584000B51F4150504048F0CB01840F951F2E9159
:105850000E942F2C41505040D0F70895262FF999DF
:10586000FECF92BD81BDF89A019700B4021639F0BF
:105870001FBA20BD0FB6F894FA9AF99A0FBE089590
:105880000396272F0E942F2C0E942E2C252F0E943A
:105890002F2C242F0C942F2C0196272F0E942F2C75
:1058A0000C942E2CDC01CB01FC01F999FECF06C033
:1058B000F2BDE1BDF89A319600B40D9241505040CE
:1058C000B8F70895052E97FB1EF400940E94792CDA
:1058D00057FD07D00E94942C07FC03D04EF40C9483
:1058E000792C50954095309521953F4F4F4F5F4F04
:1058F000089590958095709561957F4F8F4F9F4F3C
:1059000008950E94B62CA59F900DB49F900DA49F62
:10591000800D911D11240895B7FF0C94812C0E94D5
:10592000812C821B930B0895A1E21A2EAA1BBB1B8C
:10593000FD010DC0AA1FBB1FEE1FFF1FA217B3075B
:10594000E407F50720F0A21BB30BE40BF50B661F71
:10595000771F881F991F1A9469F760957095809535
:1059600090959B01AC01BD01CF010895A29FB001AC
:10597000B39FC001A39F700D811D1124911DB29F83
:10598000700D811D1124911D0895F894FFCFAD175E
:10599000D5176D19D5176D19081829186D192619FD
:1059A0003319801C841C621C7C1C881C8C1C901C61
:1059B000EB1C601DF31CBD1CC11CF71CC51CFB1C93
:1059C000071DD11C591DD51C0B1DD91C0F1D371DC2
:1059D000DD1C131D3E1DE31C191D211DC91CFF1CD0
:1059E000CD1C031DE71C1D1D2D1D471D571DB71C7C
:1059F000EF1C671D631E631E9B1E9B1E441F601FC2
:105A0000C31EC31E651FED1FFC1FFC1F721D981DCA
:105A10009F1DA41DA91DAE1DB31DB81DBD1DC21D1A
:105A2000C71DCC1DCF1DD41DD71DDA1DDD1DE01DEA
:065A3000E31DE61DE91D67
:105A360001000000820722111B1114110D1101191A
:105A46001A1B1C1D1E1F2021220102010021007F9E
:105A560022000301818283E200E900EA00B500B674
:105A660000B700CD008301CC008A01920194012188
:105A760002230224022502260227022A02B300B4C8
:105A8600006F0070009F01CB019F02A002F0F5F4A9
:105A9600F6F7F1969700FF0100010000FFFF0000F6
:105AA600010001FF000001020202020606060909C2
:105AB600090909090F0F0F0F0F0F151515181919D9
:105AC60019191919191919192324252525252525E3
:085AD600000810181810080068
:00000001FF
