:100000000C9486020C94BE020C94BE020C94BE02A8
:100010000C94BE020C94BE020C94BE020C94BE0260
:100020000C94BE020C94BE020C94A4280C94782963
:100030000C94BA230C94BE020C94BE020C94BE0223
:100040000C94BE020C94BE020C94BE020C94BE0230
:100050000C94BE020C9441240C94BE020C94BE027B
:100060000C94BE020C94BE020C94BE020C94BE0210
:100070000C94BE020C94BE020C94BE020C94BE0200
:100080000C94BE020C94BE020C94BE020C94BE02F0
:100090000C94BE020C94BE020C94BE020C94BE02E0
:1000A0000C94BE020C94BE020C94BE020401FA0031
:1000B000F000E600DC00D200C800BE000000030132
:1000C0000000FFFF0000000002010000FFFF000031
:1000D000000001010000FFFF00000000000100001F
:1000E000FFFF000000000004AAFFFFFF0000000067
:1000F000000455FFFFFF00000000000400FFFFFFA9
:100100000000000000040000FFFF00000000A90044
:10011000AA00237824784F00500025782678AC0078
:10012000A842AB00AD00AE00AF00B200B100B341D9
:100130002178207822782878407E27782E432C78E2
:1001400001000100010001000100010001000100A7
:100150000100010001000100010001000100010097
:100160000100010001001E0F0500047F3F1F6432E3
:1001700014643214783C1E1E140A052223252628F6
:10018000292A2C2D2F3032333536383A3B3D3E402C
:1001900042434547494A4C4E5051535557595A5C72
:1001A0005E6062646668696B6D6F71737577797B89
:1001B0007D7F81838587898A8C8E90929496989A88
:1001C0009C9E9FA1A3A5A7A8AAACAEAFB1B3B4B69D
:1001D000B8B9BBBCBEBFC1C2C3C5C6C7C9CACBCCF8
:1001E000CDCED0D1D2D2D3D4D5D6D7D7D8D9D9DACB
:1001F000DADBDBDBDCDCDCDCDCDDDDDDDDDCDCDC40
:10020000DCDCDBDBDBDADAD9D9D8D7D7D6D5D4D367
:10021000D2D2D1D0CECDCCCBCAC9C7C6C5C3C2C13C
:10022000BFBEBCBBB9B8B6B4B3B1AFAEACAAA8A799
:10023000A5A3A19F9E9C9A98969492908E8C8A8951
:10024000878583817F7D7B79777573716F6D6B692E
:1002500068666462605E5C5A5957555351504E4C03
:100260004A4947454342403E3D3B3A3836353332B2
:10027000302F2D2C2A292826252322FFAA7F5540FE
:100280000001010101010101010102020202020259
:10029000020202030303030303030304040404042C
:1002A00004040505050505060606060607070707F3
:1002B0000708080808090909090A0A0A0B0B0B0CA8
:1002C0000C0C0D0D0D0E0E0E0F0F0F101011111145
:1002D00012121313141415151616171718181919C6
:1002E0001A1A1B1B1C1D1D1E1E1F2020212222232B
:1002F0002424252626272829292A2B2C2D2D2E2F6C
:1003000030313232333435363738393A3B3C3D3E82
:100310003F404142434445464748494A4C4D4E4F71
:1003200050515354555658595A5B5D5E5F61626433
:10033000656668696B6C6D6F7072737577787A7BC0
:100340007D7E8082838587888A8C8E8F9193959617
:10035000989A9C9EA0A2A3A5A7A9ABADAFB1B3B537
:10036000B7BABCBEC0C2C4C6C9CBCDCFD1D4D6D813
:10037000DBDDDFE2E4E7E9EBEEF0F3F5F8FAFDFFB1
:100380001E034E00430043002D00310037003000B3
:1003900031002D004B0042002000760032000000AA
:1003A0001E0354006800650020004D0061006400D9
:1003B00020004E006F006F0064006C0065000000BC
:1003C0000403090409023B00020100A0FA09040029
:1003D000000103010100092111010001224400076D
:1003E0000581030800010904010001030000000960
:1003F000211101000122B60007058203200001122D
:10040000010002000000086C6A21000002010200E5
:100410000105010902A10185020901A100050919CF
:1004200001290815002501950875018102050109BA
:100430003009311581257F95027508810609381527
:1004400081257F950175088106050C0A3802158102
:10045000257F950175088106C0C005010980A101AD
:10046000850319012AB700150126B70095017510FB
:100470008100C0050C0901A101850419012AA0020F
:10048000150126A002950175108100C0050109061D
:10049000A1018506050719E029E715002501950842
:1004A000750181020507190029EF1500250195F056
:1004B000750181020508190129059505750191024B
:1004C000950175039101C005010906A101050719F0
:1004D000E029E71500250195087501810295017550
:1004E0000881010507190029FF150026FF00950660
:1004F00075088100050819012905150025019505D4
:1005000075019102950175039101C00011241FBE70
:10051000CFEFDAE0DEBFCDBF04B603FE18C0809196
:10052000260390912703A0912803B09129038730D7
:10053000904BA740B04B59F410922603109227031A
:100540001092280310922903E0E0F8E3099511E0E6
:10055000A0E0B1E0ECEDFAE502C005900D92A23EFC
:10056000B107D9F723E0A2EEB1E001C01D92A63297
:10057000B207E1F70E946B130C94182D0C94000045
:100580008CEA90E09093C4028093C3020895CF93C5
:1005900080342EE79207C1F0C1E081349E4709F014
:1005A0007FC0FB018581882399F08091F6019091AD
:1005B000F7010E94C504843058F48F5F843009F439
:1005C00080E00E94F40804C0FB018581811102C013
:1005D000C0E066C0C091F80281E0C827C093F8026D
:1005E000CC2329F180E00E94EC08882321F061E00F
:1005F00084E00E94EA1481E00E94EC08882321F044
:1006000061E085E00E94EA1482E00E94EC08882301
:1006100021F061E086E00E94EA1483E00E94EC0889
:100620008823B1F261E087E00E94EA14D1CF60E054
:1006300084E00E94EA1460E085E00E94EA1460E031
:1006400086E00E94EA1460E087E00E94EA1480E0FD
:100650000E94EC08882329F068EE73E080E00E9495
:100660003B1581E00E94EC08882329F068EE73E0D6
:1006700081E00E943B1582E00E94EC08882329F06B
:1006800068EE73E082E00E943B1583E00E94EC0874
:10069000882309F49DCF68EE73E083E00E943B1548
:1006A0008C2FCF910895CF93DF93EC018091F802C6
:1006B000882321F160E0CE010E94D808682F84E0F1
:1006C0000E94EA1461E0CE010E94D808682F85E0FC
:1006D0000E94EA1462E0CE010E94D808682F86E0EA
:1006E0000E94EA1463E0CE010E94D808682F87E0D8
:1006F0000E94EA14CE01DF91CF910895CE010E94AD
:10070000C504813061F0882321F0823061F08330AC
:1007100071F064EF71E080E00E943B15EBCF64EF75
:1007200071E081E0F9CF64EF71E082E0F5CF64EF32
:1007300071E083E0F1CF8430B8F46330A8F4433043
:1007400098F450E093E0699F400D511D1124FA0187
:1007500099E0899FE00DF11D1124EE0FFF1FE25E6D
:10076000FE4F85919491089581E090E008950E9454
:100770009B030895843088F461110FC090E0880FC6
:10078000991FE1E0E427E80FF92FF11DEE0FFF1F9D
:10079000E25FFE4F85919491089581E090E0089585
:1007A0000E94BA03089581E008950E94D30308953A
:1007B00081E008950E94C702089508950E94DD0314
:1007C0000895A6E0B0E0E7EEF3E00C94BB2B49837C
:1007D0005A839E833091E90189819A8131111AC02F
:1007E0003E81332399F0222389F00E94D509182FE6
:1007F000682F89819A810E94A20969817A81812F5B
:100800000E94E3102696E3E00C94D72B0E94BC09CB
:10081000182FF3CF0E94D50969817A81F1CFFC01AD
:10082000262F4081518162817381848195810E944C
:10083000E1030895CF93DF93EC0161E00E940F0480
:10084000BE010E94D503DF91CF910895CF93DF932E
:10085000EC0160E00E940F04BE010E94DE03DF9104
:10086000CF91089581E008950E9432040895CF93B6
:10087000C82F0E945E088C2F0E9434042FEF84E35F
:100880009CE0215080409040E1F700C00000CF91F3
:10089000089581E00E9437040E946524089580E055
:1008A0000E9437040E94892408950F931F93CF93C9
:1008B000DF938C0161E00E940F04EC01F801858157
:1008C00081110E940A1CB801CE010E94DA03811135
:1008D00006C080E0DF91CF911F910F910895B8017C
:1008E000CE010E948E218823A1F3B801CE010E947F
:1008F000B81D882371F3B801CE010E948E1D882394
:1009000041F3B801CE010E94291C882311F3F8019C
:100910008581882361F0C330FCE7DF07E9F058F4F4
:10092000C115ECE7DE07A9F0C130DC47B9F0C8011A
:100930000E94D803CFCFCB358CE7D807A9F0CC35B0
:10094000ECE7DE0771F0CA35DC4789F70E941C0E20
:10095000EECF0E944904BDCF0E94240E0E944F0496
:10096000B8CF0E94120EE3CF0E94200EE0CF0E946B
:1009700097230E9406050E94401A08950E940A05C6
:100980000E94411B0E949C230895292F332740E099
:100990002115310511F0C90148E09C0164E036954C
:1009A00027956A95E1F72115310511F04C5FC901D2
:1009B0009C0136952795369527952115310511F01F
:1009C0004E5FC90196958795892B09F04F5F842F5B
:1009D0000895089581E008950895CF93DF93D82F67
:1009E0000E94EA04C82F882319F08D2F0E94EC047E
:1009F0008C2FDF91CF9108950895CF93C82F0E9437
:100A0000E9048C2F0E94ED04CF91089580E00E94AC
:100A1000FD0408950E94D7210E94FD040895CF93FC
:100A20000E94D721C82F8091E4018C1779F0C093E0
:100A3000E4010E9426246093E5017093E60180930F
:100A4000E7019093E8018C2F0E94FD04CF91089557
:100A5000ADE0B0E0EEE2F5E00C94BC2B488759879E
:100A60006A877B878C879D8791110E94220D1F8248
:100A700086E0FE013896DE01119601900D928A956E
:100A8000E1F78D8181110DC029813A814B815C8113
:100A90006D817E818F810E946C0C2D96E2E00C941A
:100AA000D82BCE0101960E941A048111EDCFF5CF0B
:100AB000FC012481213021F4808191810E94070A68
:100AC0000895662329F00E94191F0E94FE1F0895B1
:100AD0000E94851FFACFCF93C82F882399F08CEFFF
:100AE0008C0F813A88F48C2F0E947722882329F07A
:100AF0008C2F0E9417230E94B60D8C2F0E9400237A
:100B00000E94B60DCF91089580E28C0F883048F492
:100B1000C77081E001C0880FCA95EAF70E94050DF1
:100B2000EFCFEBE5EC0FE33040F4F0E0EC59FE4F93
:100B3000808190E00E940B22E5CFE8E5EC0FEB31DD
:100B400050F4F0E0EE0FFF1FE25DFE4F80819181D7
:100B50000E943022D7CF83E38C0F833198F661E077
:100B60008C2F0E946105CECF882381F19CEF980FD6
:100B7000913A28F40E9417230E94B60D089590E23E
:100B8000980F983050F4877091E001C0990F8A95C2
:100B9000EAF7892F0E940B0DEFCF9BE5980F93305A
:100BA00028F490E080E00E940B22089598E5980FC9
:100BB0009B3128F490E080E00E943022089593E376
:100BC000980F933118F460E00E94610508951F9317
:100BD000CF93DF93182FEB010E946B05209739F418
:100BE000812F0E94B405DF91CF911F9108958FE965
:100BF0009FE00197F1F700C000002197EFCF70E070
:100C000060E0893311F460E570E00E94E705089523
:100C1000882321F00E94050D0E94B60D08958823B7
:100C200021F00E940B0D0E94B60D0895B0E0A0E0E7
:100C3000ECE1F6E00C94B52B6C01D62FC72FFC012C
:100C40001581068102950F700E94FB0CE82E882307
:100C5000F9F0E12E1123E1F08C2F807F803461F0D8
:100C600080E28D0F883008F18C2F807E803221F455
:100C7000D230D8F00023C9F08091FA0282FF15C06B
:100C800082E00E94E60D0E94FB0C91E0E82EE9262E
:100C9000BC2EB2949FE0B922FBE0FB15B8F1EB2D1E
:100CA000F0E0E65EF24D0C94752BE12CF1CF0C2FA9
:100CB0000F70C07F11F00295007F112399F000237F
:100CC00059F080E28D0F883010F0D11107C0802FCD
:100CD0000E94050D0E94B60D8D2F5AC0802F0E94D4
:100CE000150DF8CF8D2F0E94B405002379F080E216
:100CF0008D0F883010F0D11104C0802F0E940B0D91
:100D000003C0802F0E941B0D0E94B60DEB2DE850F2
:100D1000FF0B349720F40E94D7210E94FD04EE209F
:100D200089F00E94F70C80FD0DC0F60115820E942B
:100D3000F10C0E940009C6010E9425080E94F10CD6
:100D40000E941009CDB7DEB7E9E00C94D12B2C2F0F
:100D50002F70F22EC07FC03219F0F29480EFF8228B
:100D6000DD2341F0D130D1F1112309F444C0002337
:100D7000F1F0B2CF8091FA0282FD15C0112359F033
:100D8000FF2029F08F2D0E94050D0E94B60D80E0F6
:100D90000E946B05BBCF80E00E94B405FF2009F4E0
:100DA000B5CF8F2DABCF112369F0011104C08F2D6A
:100DB0000E940806ABCF013009F0A8CF8F2D0E940A
:100DC000390DA4CF0111A2CF8F2D0E940F068F2DB8
:100DD0000E94450D8F2D0E94290D98CF112321F0DF
:100DE000063008F093CFE3CF053008F08FCF8F2D7A
:100DF0000E940F068BCF0023D1F3D93349F43FEF84
:100E000087EE93E0315080409040E1F700C0000051
:100E10008D2F0E94B4057ACF8C2F8695869583708E
:100E200069F0813009F072CF8D2F9C2F93701111D2
:100E300002C080E090E00E94302268CF8D2F9C2F6E
:100E40009370111102C080E090E00E940B225ECFEF
:100E5000612F8D2F0E94610559CF8C2F8370A1F5D2
:100E6000111154CF4D2F429546954770440F440FB2
:100E70002D2F2F7030E0042E02C0220F331F0A9452
:100E8000E2F790E080E0D4FF09C08FE090E002C07C
:100E9000880F991F4A95E2F780959095C695C6955B
:100EA000C370822B932BC23049F058F4C13019F033
:100EB0000E94B7082BCF0E94AE0828CF0E94C0081E
:100EC00025CF0E94AB0822CF8695112311F08C2FDD
:100ED0008170882309F41ACF4D2F429546954770AB
:100EE000440F440F2D2F2F7030E0042E02C0220F2C
:100EF000331F0A94E2F790E080E0D4FF09C08FE04E
:100F000090E002C0880F991F4A95E2F7809590956E
:100F1000C695C695C370822B932BC23049F058F406
:100F2000C13019F00E943B09F1CE0E943209EECE89
:100F30000E944409EBCE0E94CC08E8CECF7011236A
:100F400029F08C2F0E9400098D2F32CF8D2F0E9407
:100F50000F068C2F0E941009D9CED23F41F160F4C8
:100F6000D03FB9F0D13F81F0112309F446C00111FF
:100F7000B3CE8C2F8F711FC0D33F01F1D43FA1F7A7
:100F80008091FA0282FD24C08C2F8F71112311F3FE
:100F900012C0112341F0053008F0B8CE8C2F8F71AC
:100FA0000E942209B3CE063008F0B0CEF7CF8C2FC6
:100FB0008F711111CFCF0E940009A8CE112329F003
:100FC0008C2F8F710E94F408A1CE0E94D3089ECE70
:100FD000112349F0CF718C2F0E94000963E08C2F00
:100FE0000E94C80D93CE81E00E94E60D023008F405
:100FF0008DCE82E00E94E60D89CE002359F0D933D0
:1010000009F006CFEFEFF7EE23E0E150F04020408B
:10101000E1F7FCCE8C2F8F719DCF0F931F93CF9351
:10102000DF93EC01688179818D810E94120A8C0125
:101030000E944D090E94AA08B801CE010E9416061E
:10104000DF91CF911F910F910895CF93DF93EC0122
:101050008C81882399F0CE010E945504811111C022
:101060000E94FB0C882351F08D81882339F08091F8
:10107000FA0282FF03C082E00E94E60DDF91CF9169
:101080000895CE010E940D08CE010E942604F6CFDD
:1010900090E080E00E940B2290E080E00E943022ED
:1010A0000E94220D0E94B60D0E941A200E94FE1F6F
:1010B00008950E942E230E94480808950E94120D50
:1010C0000E945908089592959F70963091F058F4B7
:1010D000925F9F70923058F4803F19F030F4883E50
:1010E00030F481E008959A5FF4CF843FD1F380E03B
:1010F0000895883EB0F3813FD1F7F3CFFC012481FE
:10110000222339F0808191810E94070A0E9463089E
:10111000089580E00895A6E0B0E0E1E9F8E00C94DD
:10112000BC2B2696E2E00C94D82BA7E0B0E0EBE9CC
:10113000F8E00C94BC2B2796E2E00C94D82B089591
:101140000E949F0808950E94A0089093F90180933F
:10115000F801089508950E94A30808952091F801C8
:101160003091F901822B932B0E94A30808952091BE
:10117000F8013091F901822393230E94A308089576
:101180002091F8013091F901822793270E94A3084A
:1011900008950E94530308950E94C9089093F7018F
:1011A0008093F601089590E080E00E94CC080895B5
:1011B000009729F481E0662371F080E00CC021E003
:1011C00030E002C0220F331F6A95E2F7282339234B
:1011D00081E0232B91F30895682F8091F60190917F
:1011E000F7010E94D808089521E030E0A90102C06B
:1011F000440F551F8A95E2F7CA010E94CC08089552
:1012000021E030E002C0220F331F8A95E2F780917F
:10121000F6019091F701822B932B0E94CC08089540
:1012200021E030E002C0220F331F8A95E2F72095BB
:1012300030958091F6019091F701822393230E94CB
:10124000CC08089521E030E002C0220F331F8A95B8
:10125000E2F78091F6019091F701822793270E948F
:10126000CC0808952091F6013091F701822B932B41
:101270000E94CC0808952091F6013091F701822355
:1012800093230E94CC0808952091F6013091F70134
:10129000822793270E94CC0808950895262F27704F
:1012A00091E001C0990F2A95EAF723E076956795BA
:1012B0002A95E1F7660F771F660F771FFA01E60F91
:1012C000F71F50E040E0682F70E08191DF01119737
:1012D0009B01042E02C0369527950A94E2F72170EF
:1012E00021952827292328272C934F5F5F4F4430CF
:1012F000510559F70895A82FA77023E09695879573
:101300002A95E1F7880F991F880F991FFB01E80FB5
:10131000F91F50E040E080E0219130E00A2E02C049
:10132000369527950A94E2F721703327042E01C0E1
:10133000220F0A94EAF7822B4F5F5F4F443051052A
:1013400059F70895282F862F933070F4233058F4DE
:10135000622F70E023E0929F600D711D11244EEE0C
:1013600051E00E944E0908959C5F9230E0F7622F91
:1013700070E04AEE51E0F5CF292F933068F48330C6
:1013800090F490E06EEE71E033E0239F800D911DAC
:1013900011240E947B0908952C5F223020F46AEE0C
:1013A00071E090E0F6CF80E00895B0E0A0E0EBEDD2
:1013B000F9E00C94B52B7C010091F6011091F70136
:1013C0008091F8019091F901082B192BCFE0D0E022
:1013D000CC24C394D12CBC2EC6010C2E02C0880F85
:1013E000991F0A94E2F780239123892B49F42197CE
:1013F00090F7B12C8B2DCDB7DEB7E9E00C94D12B53
:10140000B7018C2F0E94FC10019789F3F3CFCF9383
:10141000DF93EC010E94D509BE010E94FC10DF9110
:10142000CF9108951F93CF93DF93EB019091E90142
:10143000992339F0CB010E94070ADF91CF911F91C8
:101440000895882369F0CB010E94D509182F682FD1
:10145000CE010E94A209BE01812F0E94FC10EDCF97
:10146000CB010E94BC09182FF6CF1F93CF93DF93B7
:10147000C091FA0117E08091FB018C1304C0DF9149
:10148000CF911F910895D0E01C9FF0011D9FF00D9A
:101490001124E450FE4F20813181428153816481C7
:1014A000758186810E9495082196C770E4CF2091AE
:1014B00034023091350240913602509137026091EA
:1014C00038027091390280913A020E94950808957D
:1014D000CF93DF9380913A02807F09F04DC08091D5
:1014E0003902882309F448C0E091FA015091FB01C8
:1014F000C0913502D091340260913602709137026A
:1015000047E05E17C9F18E2F90E0E49FF0011124AF
:10151000E450FE4F2481222391F1489FF001499F1E
:10152000F00D1124DF01A450BE4F11962C9111979C
:101530002C1325C02C912D1322C015962C91159794
:1015400021111DC012962D913C91261B370B283C72
:101550003105A8F480913A028F70806180933A023D
:10156000EE5FFD4F80818F708061808384E392E025
:101570000E9425080E94350ADF91CF910895FC0151
:101580003196E770BECF482F2091FA019091FB0170
:1015900057E0291302C080E0089530E0529FF00127
:1015A000539FF00D1124E450FE4F8181681306C053
:1015B0008081481303C085818111EECF2F5F3F4F9B
:1015C0002770E7CFA4E1B0E0E8EEFAE00C94B22B8C
:1015D0008C0186E0F801DE011F9601900D928A953C
:1015E000E1F7F8018481E58094E3A92E92E0B92E19
:1015F0009091380291111FC08823D1F0EE20A9F0FC
:10160000C8010E947E08F82E882379F087E0F8014F
:10161000D50101900D928A95E1F7C5010E94580508
:101620000E94680A0E94570A5FC0C8010E942508EC
:10163000FF24F39459C0C080D18082809380F090C1
:1016400039022091360230913702A401421B530B1C
:10165000FF2009F4F9C0483C510508F0A7C08823D1
:1016600009F442C09091350280913A02282F207FE0
:1016700009F05CC09D1116C090913402C91212C0CD
:10168000E1104EC08F70806180933A020E94570A29
:1016900084E392E00E94250880913A02F801868353
:1016A000F12C22C0E1103CC06D2D8C2D0E94C30A8C
:1016B0006D2D8C2D0E94C30AE82E8111F1CFCF86AB
:1016C000D88A8F8598890E94070A292F22952F7022
:1016D000243078F49F702230A8F09923B9F0F801F3
:1016E0009681907F99F4FE2C8F2D6496ECE00C94FB
:1016F000CE2B2A5F2F70223068F0C8010E94250887
:10170000EF2CF1CF992311F0882369F3805E8830A4
:1017100050F3F3CF803F38F3815F833070F7E3CF2E
:1017200080913A02816080933A02BACF9D1113C032
:1017300090913402C9120FC0E1100DC08683C80118
:101740000E94250887E0F801A4E3B2E001900D9221
:101750008A95E1F767CFC8010E947E08882309F4C3
:1017600064CFEE2009F461CF80913A02803288F094
:101770002091340230913502398728879B868A86EA
:10178000909138029C871D868E87CE0108960E9414
:10179000250887E0F801A4E3B2E001900D928A9554
:1017A000E1F70E94680A0E94570A42CF90913A02DC
:1017B000292F207FA1F4682D9A8A898AA6017A8927
:1017C0009E2D0E948B0884E392E00E94250887E00A
:1017D000F50111928A95E9F70E94570A61CF882393
:1017E00009F482CF809135028D1110C080913402AE
:1017F000C8120CC0E1100AC09683C8010E942508D7
:1018000087E0F50111928A95E9F76ECFC8010E9431
:101810007E08882309F409CFEE2009F406CF8091D1
:101820003A02803208F4B5CF20913402309135026B
:101830003A8329839C828B82909138029D831E82F9
:101840008F83CE010196A3CF483C5105B8F588237C
:1018500009F4EECEFE2CEE2009F4E7CE809135029D
:101860008D111EC080913402C8121AC080913A02B4
:1018700080FD0DC0982F907F51F08683903F09F432
:101880005ECF982F907F905F8F70892B57CF87E026
:10189000F801A4E3B2E001900D928A95E1F724CF1C
:1018A000C8010E947E08811174CF80913A02816044
:1018B00080933A02C8010E94250816CF682D9A8AA3
:1018C000898AA6017A899E2D0E948B0887E0F501FE
:1018D00011928A95E9F7A6CEAEE0B0E0E2E7FCE02F
:1018E0000C94BB2B288739874A875B876C877D8759
:1018F0008E87CE0108960E94E20A8823B1F06C859B
:10190000662341F0288539854A855B857D858E85EE
:101910000E94950817E08091FA019091FB018913CC
:101920003DC02E96E3E00C94D72B87E0FE0138965D
:10193000DE01119601900D928A95E1F78C8588233E
:1019400049F32091FB0130E0C90101968770992786
:101950004091FA014817190699F097E0929FD0013B
:10196000939FB00D1124A450BE4FFE0131960190FB
:101970000D929A95E1F78093FB010E94350ACACF38
:101980000E945E081092FB011092FA0187E0E4E3E6
:10199000F2E0DF011D928A95E9F7BCCF819FC0017B
:1019A000112484509E4F0E94E20A882309F4B9CF83
:1019B000E091FA011E9FF0011124E450FE4F2081B6
:1019C0003181428153816481758186810E949508AD
:1019D0008091FA0190E00196877099278093FA012F
:1019E0009ACF809163028695869586950895809119
:1019F00063028770089590916302977081E009F403
:101A000080E0089580918F02089590918F02892B34
:101A100080938F020895809590918F0298239093E0
:101A20008F02089510928F02089590918E02892B53
:101A300080938E020895809590918E0298239093C2
:101A40008E02089510928E02089508950E94250D29
:101A5000089590916402292F282331F080958923DD
:101A6000809364020E94260D089508950E94350D0A
:101A7000089590916502292F2823281729F0982B83
:101A8000909365020E94360D089590916502292F6A
:101A9000282331F080958923809365020E94360DBA
:101AA000089580916502882329F01092650280E0F4
:101AB0000E94360D0895CF93C0918F0280918E02BF
:101AC000C82B80916502882331F0C82B0E945522D3
:101AD00081110E94510D8C2FCF910895CF93DF93E8
:101AE000C0910601D09107010E945B0D8883C091CF
:101AF0000601D091070148E050E06BE572E0CE01AD
:101B00000E948B2C892B59F088E0FE01ABE5B2E0F6
:101B100001900D928A95E1F7CE010E94E421DF91B8
:101B2000CF910895CF93DF93C0910401D091050127
:101B30000E945B0D8983C0910401D091050140E2B0
:101B400050E06BE372E0CE010E948B2C892B59F0A0
:101B500080E2FE01ABE3B2E001900D928A95E1F7DD
:101B6000CE010E94EF21DF91CF91089580912D0148
:101B7000882339F08091F90287FF03C00E94920DFB
:101B800008950E946E0D089508950E94C40D089551
:101B90009091FA0292FF11C098E0899F9001112460
:101BA000622B609363020E94000980916302869514
:101BB000869586950E94C50D08950E940009089596
:101BC0001092630280E00E94C50D08959091630217
:101BD0008095892380936302282F277069F48917E1
:101BE00059F09091FA0292FF07C0869586958695E6
:101BF0000E9410090E94E00D08959091FA0292FB54
:101C0000222720F9281769F080FB92F99093FA02B5
:101C10008091F9029091FA020E94450E82E00E94A2
:101C2000E60D08958091FA0282FB882780F991E001
:101C300089270E94FD0D089581E00E94FD0D089501
:101C400080E00E94FD0D08956FEF7FEF90E080E04F
:101C50000E94E32C089590E080E00E94AF2C21E0E8
:101C6000863E9E4F09F020E0822F089582E090E0AA
:101C70000E94A12C089583E090E00E94A12C089579
:101C800084E090E00E94AF2C0895BC0184E090E0D5
:101C90000E94E32C0895AB01BC018FE090E00E940C
:101CA000D72C0895AB01BC0183E190E00E94D72CB2
:101CB000089560E070E0CB010E94520E089560E04C
:101CC00070E0CB010E944B0E0E94590E0895A8E0CF
:101CD000B0E0EDE6FEE00C94BC2B66EE7EEF90E00B
:101CE00080E00E94E32C60E082E090E00E94C52C3E
:101CF00081E090E09093F9018093F80161E083E046
:101D000090E00E94C52C60E074E184E090E00E94C5
:101D1000E32C60E086E090E00E94C52C6FEF87E046
:101D200090E00E94C52C40E050E0BA0188E090E0CD
:101D30000E94D72C60E084E290E00E94C52C60E015
:101D400087E190E00E94C52C60E08CE090E00E946A
:101D5000C52C60E08DE090E00E94C52C19821A82AB
:101D60001B821C821D821E821F82188648E050E062
:101D700068E170E0CE0101960E94B52C40E050E091
:101D8000BA0180E290E00E94D72C0E945F0E289654
:101D9000E2E00C94D82B0E94670E0895682F8EE025
:101DA00090E00E94C52C0895A6E0B0E0EAEDFEE0C8
:101DB0000C94BA2B0E941A248C018091900290916D
:101DC00091028017910781F019821A820E941A24C9
:101DD000682F49815A81792F80E090E00E94280580
:101DE00010939102009390022696E4E00C94D62B77
:101DF0000E94262460939D0270939E0280939F020E
:101E00009093A0026093990270939A0280939B0230
:101E100090939C0208950E94262460939D027093E3
:101E20009E0280939F029093A0026093950270930C
:101E300096028093970290939802089508950895CA
:101E40000E941E0F08950E94C002089582EF91E142
:101E50000E9478130E941F0F0E94200F089581E0B6
:101E600008950E942F0F08950E942F0F089508953E
:101E700008950E94370F0E94380F08950E94111292
:101E80000E94FC0408950E9411240E94A21C0E943A
:101E9000D1120E943E0F0E94F31A0E94230F089550
:101EA000A6E0B0E0E6E5FFE00C94B32B0E94310F12
:101EB000811111C00E94D40E0E940B1C0E94BF1CF5
:101EC00081110E940B0F0E943C200E940F05269654
:101ED000EBE00C94CF2B0E94E7121091920280E06D
:101EE0000E94371218130EC01091930281E00E94D5
:101EF0003712811307C01091940282E00E943712BA
:101F00001817C1F28091A10281FD0E943D120E942A
:101F1000340FC82E82E9A82E82E0B82E10E0992452
:101F20009394812F0E943712082FF50181915F0150
:101F3000081729F1D02ED826F12CEE24E3948D2D0C
:101F40008E21A9F0CC2099F0F9821A830E941A24DC
:101F50009C838B839D8291E0802F8E2109F490E0F9
:101F600049815A816B817C818D810E942805F3947F
:101F7000EE0CF3E0FF12E3CFF501319700831F5F12
:101F8000133079F60E94F80E97CF1F93CF93DF930B
:101F90000E940111EC01C11580E5D807F0F5C115CB
:101FA00080E4D80708F09CC0C03ED10520F5CD3CA8
:101FB000D10508F082C0C83AD10578F4C53AD105F8
:101FC00008F073C0C130D10519F1209709F1C43070
:101FD000D105F0F4D0E0C0E01BC0C33CD105D0F780
:101FE000C85AD0E0CC0FDD1FC959DE4F0990D88107
:101FF000C02DD4640DC0C11580E2D80708F0D1C04F
:10200000C11581E0D80708F05AC0C83ED10510F7C5
:10201000CE01DF91CF911F910895C03682E5D80798
:1020200018F5C03482E5D80708F06BC0C03282E5ED
:10203000D80708F05FC0C11582E5D80708F497C03B
:102040002C2F2695269580E2289F900111248C2F15
:102050008370C1E0D0E002C0CC0FDD1F8A95E2F7AB
:10206000C22BD32BDD68D4CFC03A82E5D80760F409
:10207000C03882E5D80708F459C0CF71D0E0DC2F12
:10208000CC27C46FD06AC4CFC03C82E5D80708F41F
:1020900062C0C03E82E5D80708F09CCFDC2FCC2779
:1020A000CC27DF71C06FD06AB3CFC55AD0E0C3561A
:1020B000DE4FC881D0E0D064ABCFD065A9CF8D2FE3
:1020C0000E94A311182FCE0199270E940111C12F40
:1020D000D0E0DC2FCC27CC27DF71C82BD92B98CFB1
:1020E000CE0199270E940111CC27DF70C82BD92B74
:1020F000D06A8ECFCF71D0E0DC2FCC27C16FD06AF1
:1021000087CF2C2F26952695277080E2289F900157
:1021100011248C2F8370C1E0D0E002C0CC0FDD1FF2
:102120008A95E2F7C22BD32BDC6872CF2C2F269531
:102130002695277080E2289F900111248C2F8370B0
:10214000C1E0D0E002C0CC0FDD1F8A95E2F7C22BC0
:10215000D32BDA685DCF8C2F8F710E94A311C82F0B
:10216000D0E0DC2FCC27CC27DF71D06251CF8C2F71
:102170008F710E94A31155E0D695C7955A95E1F746
:10218000CF70D0E0DC2FCC27282F30E084FF05C0B3
:1021900044E0220F331F4A95E1F7C22BD32BD069BD
:1021A00037CF8D2F8F710E94A311182FCE01992741
:1021B0000E940111C12FD0E0DC2FCC27CC27DF718A
:1021C000C82BD92BD2CF462F672F733028F443303A
:1021D00080F40E94B70308957D3F39F4411109C08E
:1021E00041E060E00E94D00308957C3F11F4442355
:1021F000C1F390E080E008950E94E3100E94C50FB3
:10220000089582389105B9F1B0F48133910509F44C
:102210007DC048F48932910509F46DC08A32910578
:1022200009F47BC008958533910509F45FC08933B3
:10223000910509F10895833E9105D9F138F4803E66
:10224000910529F1823E910579F10895863E910527
:10225000D9F1873E910509F43EC0843E910541F5D0
:102260002091FA0221FF24C08091F90284FD19C057
:1022700087EE90E008952091F902237009F05AC08A
:102280002091FA0223FF14C089E290E00895209182
:10229000F90220FD38C03091FA0230FF09C024FF56
:1022A00043C090E080E008952091F90222FDF7CF2D
:1022B00008952091F90222FD3AC03091FA0230FDD2
:1022C00039C024FFF5CFEDCF2091F90223FFF0CFE5
:1022D00024FDE7CFCDCF2091F90223FD2EC0309110
:1022E000FA0231FFEECF84EE90E008952091F902DA
:1022F00025FFDECFC9CF2091F90225FD21C0209115
:10230000FA0223FFD5CF89E390E0D2CF2091F902E2
:1023100026FFCECF8AE290E008952091F90226FFB1
:10232000C7CF81E390E0089583EE90E0089582EEB8
:1023300090E0089580EE90E0089586EE90E0089594
:1023400085E390E008959091F90292FF10C041E07A
:10235000282F2471243009F040E031E0282F287123
:10236000283009F030E0431711F02CE0822793FF6A
:1023700010C041E0282F2471243109F040E031E001
:10238000282F2871283109F030E0431711F02CE094
:1023900082273091FA0230FF10C051E0282F2171BE
:1023A000213009F050E041E0282F2871283009F051
:1023B00040E0541711F029E0822731FF10C041E0BE
:1023C000282F2171213109F040E031E0282F2871B8
:1023D000283109F030E0431711F029E0822794FDFD
:1023E000877E089580E008950E94240E08950E943B
:1023F000E7122FEF86E791E0215080409040E1F70F
:1024000000C000000E94E71280E00E94371280FFA7
:1024100004C00E94F4110E94652408950E94F711DF
:1024200008950E942B0E811102C00E94CB0E0E94C3
:10243000360E8093A1020E94400E9093FA02809380
:10244000F9020E940E120E943B0E90E00E94AB081F
:102450008091F6019091F7010E94C90808950895AE
:102460000E942F12089508950E9433120895E82FB4
:10247000F0E0E250FD4F80810895089580EA8A954A
:10248000F1F7089500C008950E943E120895F8944F
:10249000E82FE295EF70F0E031A1282F2F7081E056
:1024A00090E001C0880F2A95EAF7982F9095932322
:1024B00091A392A1892B82A37894089584E30E942A
:1024C000471285E30E94471286E30E94471284E97F
:1024D0000E94471286E90E94471287E90E9447122C
:1024E0000895B0E0A0E0E7E7F2E10C94B62B7C01A0
:1024F000162F042FC62FD0E0CE0180569E4F6C01C0
:10250000EC0128812F3F09F444C0F894E22FE295B2
:10251000EF70F0E031A12F7081E090E001C0880FF2
:102520002A95EAF7932F982B91A392A1809589235E
:1025300082A378940E944212A3EAB1E0F70146EA2E
:1025400051E0F12C602F60959D9180819F3F31F18A
:10255000292F22952F7030E0E90128A130E09F70EB
:1025600002C0359527959A95E2F720FD17C0802B7C
:102570008083FF24F39431964A175B0729F7F6010D
:1025800080818F3F11F00E9447126F2D812F0E9492
:102590004412CDB7DEB7E8E00C94D22B86238083BB
:1025A000EACF0E945E1283E0EEEFF2E0DF01982FA7
:1025B0001D929A95E9F7EBEFF2E0DF011D928A9503
:1025C000E9F783E00E9423130E9430120895A3E0EC
:1025D000B0E0EDEEF2E10C94BA2B19821A821B8264
:1025E00010E001E0402F612FCE0101960E94711290
:1025F0001F5F000F1330B1F743E050E0BE016F5F83
:102600007F4F8BEF92E00E948B2C21E0009709F422
:1026100020E0892B49F089819A81AB818093FB026C
:102620009093FC02A093FD0243E06EEF72E08BEF0B
:1026300092E00E942413182F0E943412812F2396B7
:10264000E4E00C94D62B0895B0E0A0E0EAE2F3E1D8
:102650000C94B62B6C017B01042FC22F222379F03E
:1026600081E08093A4020E941A249093A302809395
:10267000A20280E0CDB7DEB7E8E00C94D22BD09177
:10268000A402DD23B1F38091A2029091A3020E94E3
:102690003224059770F310E0A801B601C7010E942B
:1026A0008B2C892B31F0A801B601C7010E94982C10
:1026B000CD2F1092A4028C2FDDCF0E94F5250E9411
:1026C000430F0E94022608950E9407260E94500F81
:1026D0000E94212608950E94B3230E94DB250E94B8
:1026E000260F0E945D130E9464130E94390FFBCFD6
:1026F0009093E3018093E2010895EF92FF920F938C
:102700001F93CF93DF93EB01E82FD1110EC0442329
:1027100021F0F0E0E058FD4FE4916E2F7E2F8E2FD8
:10272000CDB7DEB7E6E00C94D42B0D2F10E0282FA8
:1027300030E0442329F020583D4FF901249130E046
:10274000F6E0CF9FC0011124EFEFF0E0BF010E943F
:102750002B2BAB018C2F90E0880F991FA5E5A49F30
:10276000B001A59F700D1124861B970B982F990F10
:10277000980FBF01601B710B629FD001639FB00D6A
:10278000729FB00D11248B2F9D9FB0011124672FD4
:102790007727EF01C61BD70BBE01629FE001639F45
:1027A000D00D729FD00D11247F01E91AF108E09E2F
:1027B000B001E19E700DF09E700D1124672F7727F8
:1027C000E61BF70BE29F8001E39F100DF29F100DB7
:1027D0001124E12F722F4230510599F048F4411530
:1027E000510569F04130510581F0EB2F8D2F07C065
:1027F0004430510569F080F046305105B1F76E2F35
:102800008FCFE22F7B2F812FFACFE22F7D2FF7CFB3
:10281000EB2F822F712FF3CF7B2F822FED2FEFCF56
:1028200041E00E947D13089508950E9410140895B8
:10283000CF93DF93762FE901682F842F0E94151420
:10284000798368838A83DF91CF9108958091010312
:10285000982F9C7F29F483708460809301030895EE
:102860008C3AE8F38370886AF8CFB0E0A0E0EBE33D
:10287000F4E10C94B62B88E090E00E94A92C6B0147
:102880007C0184E290E00E94A12C282F30E040E0FF
:1028900050E060E070E080E090E000E20E94E32B16
:1028A000B22FA32FF42FE52FD62FC72F9701860124
:1028B000BC29A12BFE295E2F532B2B2F3A2F4F2FF4
:1028C0006D2F7C2FCDB7DEB7E8E00C94D22BB0E0B3
:1028D000A0E0EDE6F4E10C94B22B49015A016B0142
:1028E0007C010E9426148401A4016A2D7B2D88E0BE
:1028F00090E00E94D72C94014A2D5B2DB601C701B0
:1029000000E20E94FE2B622F84E290E00E94C52C20
:10291000CDB7DEB7ECE00C94CE2BE1E0F3E089E339
:10292000808311828FEF828383831482758129E3F0
:1029300030E04FEF5FEF60E0868197810E9467147F
:1029400008958091010380FF03C0869586950895C0
:1029500080E0089590910503933018F49F5F909361
:102960000503882391F020910103309102034091E7
:102970000303509104036091050370910603809155
:102980000703909108030E946714089581E00E9454
:10299000AA14089590910503992319F091509093EA
:1029A0000503882391F020910103309102034091A7
:1029B0000303509104036091050370910603809115
:1029C0000703909108030E946714089581E00E9414
:1029D000CA14089521E030E0A90102C0440F551F38
:1029E0008A95E2F7CA012091D002662339F0822B42
:1029F0008093D00281E08093C20208958095822363
:102A0000F7CF21E030E001C0220F8A95EAF79091DC
:102A1000D002922381E009F480E008950F931F9380
:102A2000CF93DF93D82F8B01C42F47FDCFE71093AF
:102A3000BD020093BC0261E08D2F0E94EA14CC0F0E
:102A4000C150C093BE0221E030E001C0220FDA95F0
:102A5000EAF78091C102822B8093C1020E941A245E
:102A6000800F911F9093C0028093BF02DF91CF919E
:102A70001F910F91089541E00E940E1508951F9334
:102A8000CF93DF938091C102882359F10E941A24C9
:102A90002091BF023091C002821B930B8F3F9F4752
:102AA00000F5D0E0C0E01091BE028091C10290E03C
:102AB0000C2E02C0959587950A94E2F780FF06C018
:102AC00060E08C2F10FF61E00E94EA142196C8306C
:102AD000D10549F711501093BE02111106C0109292
:102AE000C102DF91CF911F9108950E941A24209175
:102AF000BC023091BD02820F931F9093C00280935D
:102B0000BF02EFCF70E00E94621D0895A5E0B0E023
:102B1000ECE8F5E10C94B02B70900C01809101036E
:102B200080FF16C0C090C302D090C402C114D1046B
:102B300009F580910B0133E0839FC0011124672DBB
:102B4000875F9C4F0E9482152596EEE00C94CC2B5B
:102B500080910D0190910E0123E0829FF0011124DC
:102B6000E75FFC4F8917F0F61182108212828F5FA7
:102B70003396F8CF8091CC028111DBCFF12CE12C80
:102B800043E0642E8E2D0E940115882309F43BC07A
:102B9000F701EE0FFF1FEC0DFD1DA590B490A114E1
:102BA000B10439F245E050E0B501CE0101960E9432
:102BB000752C09810F3F39F18A81800F9927991F60
:102BC0008530910514F084E090E04C01880C991C4C
:102BD000880D991D9C01275F3C4F4901069D80018E
:102BE0001124075F1C4F0815190520F035E0A30ECE
:102BF000B11CD8CF98014D816C818B810E94181433
:102C00000D5F1F4FF0CF8FEFE81AF80A28E0E216A9
:102C1000F10409F0B7CF8DCF9091010390FF0EC062
:102C200090910D0120910E0133E0939FF00111244A
:102C3000E75FFC4F921718F00E9486150895818374
:102C4000608342839F5F3396F5CFA3E0B0E0EBE271
:102C5000F6E10C94BC2B9091010390FF0AC09E01F9
:102C60002F5F3F4F0E9418144B8169818A810E9417
:102C70000C162396E2E00C94D82BCF93DF93EC0153
:102C8000EC81F0E0E558FE4F4491E1E0F3E0628131
:102C900081810E9425168C818F5F8C83DF91CF917B
:102CA0000895CF93DF93EC01E1E0F3E0438162818B
:102CB0008C810E9425168C818F5F8C83DF91CF9150
:102CC0000895A3E0B0E0E7E6F6E10C94BA2B8C019E
:102CD0008091A50281110AC09E012F5F3F4F4FEFE7
:102CE0006FEF0E9418148A818093A502F801648115
:102CF000613069F08091A50240E0662361F040E018
:102D0000623011F44091A50280E060E004C060915F
:102D1000A50240E080E00E940C16F801848190E05A
:102D2000019663E070E00E943F2B84832396E4E0E9
:102D30000C94D62BA3E0B0E0E0EAF6E10C94B52BBE
:102D4000082FD62EF42EC22E9091010390FF2FC093
:102D5000E92FE695E695AE2FB0E0AA55BE4F8C91CF
:102D60008093CE029C7F943031F59E012F5F3F4FC0
:102D7000802F0E9418144B8169818A810E940C1651
:102D800000930203D0920303F0920403CC2079F065
:102D9000209101036091050370910603302F4D2DA2
:102DA0005F2D80910703909108030E94671423967A
:102DB000E9E00C94D12B823019F4F0900403E0CFB9
:102DC000863019F400910203DBCF8930D9F38931C1
:102DD000B9F6E9516E2F6170B62EE695F0E0E55830
:102DE000FD4F1491E12C60910F01E61618F00E943E
:102DF0008615C6CFE19EC001112470E00E942B2BE6
:102E0000802FB11014C0860F20910D01622F6E0D1E
:102E10007727771F9B01220F331F260F371F275F4E
:102E20003C4F4F2D6D2D0E941814E394DCCF861B70
:102E3000EBCFE1E0F3E09181282F438162818AE0CA
:102E4000890F0E949A16089581E00E94191708952B
:102E5000E1E0F3E09181282F4381628186EF890FC1
:102E60000E949A16089581E00E9428170895E1E0D3
:102E7000F3E0628121E1620F08F46FEF282F4381B4
:102E800081810E949A16089581E00E943717089563
:102E9000E1E0F3E0628121E1621B08F460E0282FA9
:102EA000438181810E949A16089581E00E9448170B
:102EB0000895E1E0F3E0438121E1420F08F44FEF90
:102EC000282F628181810E949A16089581E00E94D4
:102ED00059170895E1E0F3E0438121E1421B08F432
:102EE00040E0282F628181810E949A16089581E036
:102EF0000E946A17089520E00E949A160895EF92A2
:102F0000FF921F93CF93DF93EC0110E0EE24EA943D
:102F1000F12C60910F01161770F00E9486159A81AE
:102F20008C8190FF27C08F5F8C83DF91CF911F91A1
:102F3000FF90EF90089520910D01422F410F5527EA
:102F4000551FCA019A01220F331F280F391F275F0F
:102F50003C4F70E0C7010E943F2B962F8C8140911F
:102F6000040360910303199F800D11240E9418141B
:102F70001F5FCFCF8150D8CFB0E0A0E0E2ECF7E107
:102F80000C94B52BFC0182810FEF80FF01E010E073
:102F900080910F01181798F00E9486158091A70262
:102FA000013009F04CC0811102C080910F018150A5
:102FB0008093A702CDB7DEB7E9E00C94D12BC09186
:102FC0000D01C12ED12CCC0DDD2DD11DCE01880FD0
:102FD000991FC80FD91FC75FDC4F198218821A8248
:102FE00034E0E32EF12CB12C8091A7028B0D8530BB
:102FF00004F18370082E000C990BC816D90691F4C1
:10300000809104038E9DA0018F9D500D1124559534
:103010004795559547959E01609103038091020362
:103020000E941814B00EF1E0EF1AF108E9F61F5FE4
:10303000AFCF87FFDFCF90910F01890FDBCF90E0FB
:10304000019660910F0170E00E943F2BB1CF0F936A
:103050001F93CF93DF9380910D0190910E0123E098
:10306000829FF0011124E75FFC4F891740F1C0E017
:10307000D3E060910F01C61740F10E9486152091A0
:1030800009018091A602820F8093A60290910A0105
:10309000920F90930A01191654F4082E000C990B04
:1030A00040910F014150550B841795071CF0219555
:1030B00020930901DF91CF911F910F910895118203
:1030C000108212828F5F3396D0CF0C2F10E070E009
:1030D000C8010E943F2B20910D01820F482F50E024
:1030E0002091A602022E000C330B02171307BCF02E
:1030F00020910A01022E000C330B201731077CF0BF
:103100008D9F90011124275F3C4F409104036091F3
:103110000303809102030E941814CF5FAACFFA0123
:10312000EE0FFF1FE40FF51FE75FFC4F11821082C7
:103130001282F3CFB0E0A0E0E0EAF8E10C94B22B09
:10314000EC014C81042F10E09801D8010E94832BE0
:103150009B01AC010E94992B4B015C01E0E2F0E085
:10316000E01BF10BA5E5B0E0AC019B010E94992B9F
:103170006B017C019F01DF010E947B2B9B01AC0155
:103180000E94A42B9B01AC01280D391D4A1D5B1D1B
:10319000C701B6010E94532BF22E822F90E039E234
:1031A0003F1520F143E0249F900111243595279588
:1031B000122F109500E085E5E82EEF1880910F01A1
:1031C000081718F10E9486159C8181E0992319F057
:1031D000903219F48FEF8093080180910801890FD4
:1031E0008C83CDB7DEB7ECE00C94CE2B25E530E038
:1031F000B901681B790B9B01220F331F260F371F64
:1032000037FFD4CF2F5F3F4FD1CF8E2D01FD8F2DB4
:1032100020910D01622F600F7727771F9B01220FEE
:10322000331F260F371F275F3C4F412F6091030349
:103230000E9418140F5FC2CF0F931F93CF93DF9399
:10324000EC0110E000E090910F019017110609F0D9
:103250006CF40E9486158C8190E00196817099270C
:103260008C83DF91CF911F910F91089520910D01D3
:10327000A801420F511D9A01220F331F240F351F41
:10328000275F3C4F4C816091030380910203969528
:103290009017110651F04CF0442349F0409104037B
:1032A0000E9418140F5F1F4FCECF4423B9F340E0A4
:1032B000F7CFB0E0A0E0EFE5F9E10C94AE2BFC0114
:1032C0006280448081E08483EBE7F1E07490EAEF70
:1032D000F1E0E491C0910403C695C158D0E0CC0F51
:1032E000DD1FCD2FDD27812C75E0972EAA24AA940F
:1032F000B12C55245A94E719EE2EF12C80910F0130
:10330000881638F00E948615CDB7DEB7E0E10C9440
:10331000CA2BC82CD12C82E0861568F09C9CF00149
:103320009D9CF00D1124E855FD4F80910203808390
:10333000809103038183411023C09C9CF0019D9CDC
:10334000F00D1124E855FD4F1382128220910D01DA
:10335000C601820F911D9C01220F331F280F391FB8
:10336000275F3C4F9C9CF0019D9CF00D1124E8557B
:10337000FD4F4281618180810E9418148394BECFE9
:103380009C9C80019D9C100D112408551D4FF80137
:1033900083818823F1F081508383859DC0011124AE
:1033A000648170E00E942B2BFB01FF27E558FE4F44
:1033B0008491E82FE719E59DC0011124B7010E940F
:1033C0002B2B80910403689FB0011124F8017283B4
:1033D000BDCF0E94652CB5010E943F2B8C179D0725
:1033E0000CF0B4CFF2E0F61598F40E94652CB5010C
:1033F0000E943F2BF80180830E94652C20910303DB
:103400002695622F70E00E943F2B280FF801218340
:103410009C9CF0019D9CF00D1124E855FD4F1282FB
:1034200080910403893C58F088EC9C9CF0019D9CA1
:10343000F00D1124E855FD4F8483838387CF8431B9
:10344000A0F784E1F2CFE1E0F3E020812E7F20833A
:1034500031814281538164817581868197810E9487
:1034600067141092CF020E9486150895E1E0F3E000
:1034700080818E7F80831092CF020E9486150895EE
:103480001092CF028091CC02811114C081E0809310
:10349000CC028091010381708093CB028091C102A4
:1034A00080959091D00289238093D0021092C1021E
:1034B0000E94361A0895609101036695669570E042
:1034C0004BE050E080E191E00E947E2C892B19F4C2
:1034D00081E08093CF020E941A249093C6028093C9
:1034E000C50208959091010390FF34C0937081113B
:1034F00032C0946090930103662391F02091010300
:10350000309102034091030350910403609105033D
:103510007091060380910703909108030E9467143D
:10352000609101036695669570E04BE050E080E1A4
:1035300091E00E947E2C892BB1F01092CF0281E0A5
:103540008093C802409104036091030380910203B9
:103550000E947B1708958B3210F0986ACBCF880FAA
:10356000880F982BC7CF0E945B1AE9CF682F9091E4
:1035700001039695969581E0890F8B3208F081E0E2
:103580000E94721A089581E00E94B61A0895682F69
:1035900090910103969596958FEF890F09F48AE231
:1035A0000E94721A089581E00E94C71A089561E08E
:1035B0000E94721A0895E1E0F3E0808181608083C7
:1035C000869586950E94D71A08958091010380FF01
:1035D00003C00E94231A08950E94DB1A089560E038
:1035E0000E94721A08958091CD0281113FC00E94FD
:1035F0002B0E811104C00E94CB0E0E948D140E94DC
:103600003514209301033093020340930303509336
:10361000040360930503709306038093070390935C
:1036200008032C7FA1F40E948D140E94351420936E
:103630000103309302034093030350930403609308
:1036400005037093060380930703909308030E9479
:1036500026141092CF028091010380FF04C086954A
:1036600086950E94EF1A81E08093CD020895E1E0F3
:10367000F3E0808181608083869586950E94EF1AB1
:1036800008951092CC028091CB02882329F00E94E9
:10369000371B0E945B1A08958091D0028823C9F3DA
:1036A0000E948615F6CF0F931F93CF93DF938091DF
:1036B000CF028823C9F18091CE02E0910103E69503
:1036C000E695E81BE093C702823009F049C0F0E0BC
:1036D000E958FE4FE491CE2FD0E00DE316E1809142
:1036E000C802882361F01092C8020E941A249093A5
:1036F000C6028093C5021092CA021092C9020E94AB
:103700001A24E091C502F091C6028E1B9F0B8F3FD9
:103710009F4750F4EC0FFD1FF093C602E093C502E3
:1037200085EC92E0F80109950E943F158091C20254
:10373000882389F01092C2028091CF02811106C0C5
:1037400080910103869586950E94EF1A809101036E
:1037500080FF0E948615DF91CF911F910F910895F0
:10376000863049F4F0E0EC58FE4FE491CE2FD0E0E3
:1037700001E516E1B4CF893051F4E695F0E0EF5859
:10378000FE4FE491CE2FD0E00FE717E1A8CF8F30A6
:1037900051F4E695F0E0E259FE4FE491CE2FD0E0EF
:1037A0000CEB17E19CCF853149F4F0E0E559FE4F71
:1037B000E491CE2FD0E007E218E191CFC8E2D0E04B
:1037C0000AE918E1883109F48ACF833239F4E9E64D
:1037D000F1E0C591D49101E616E181CFC4EFD1E0CB
:1037E0000CE119E1843209F47ACFC0EDD7E004E1AD
:1037F00014E1853209F073CF8E2F63E00E941F2BF6
:10380000E92FF0E0EA59FE4FE491CE2FD0E009E530
:1038100019E165CF08950E94531B0895FA018111A3
:1038200001C0FB0109950895CF93DF93C82FD62FD0
:103830000E94A1148C1748F00E94A1148D1728F43F
:103840000E94C31ADF91CF9108958C2F0E94D71A3E
:10385000F9CF1F93CF93DF93EC01FB011581111179
:1038600010C00E94020D8272FE01E052F847E5315D
:10387000F10508F05EC0EA5DF24D0C94752B0E94D4
:10388000E51A812FDF91CF911F91089543ED5AE101
:1038900063EC7AE10E940E1CF4CF43EC5AE163ED35
:1038A0007AE1F8CF43E357E164E277E1F3CF44E212
:1038B00057E163E377E1EECF45E557E164E477E173
:1038C000E9CF44E457E165E577E1E4CF47E757E125
:1038D00066E677E1DFCF46E657E167E777E1DACFE3
:1038E00046EE54E166EC74E1D5CF46EC54E166EE69
:1038F00074E1D0CF81E00E94D71AC3CF65E082E0A7
:103900000E94141CBECF68E086E0FACF6EE089E02A
:10391000F7CF64E18FE0F4CF67E185E1F1CF88E193
:10392000EACF62E289E1ECCF83E2E5CF6AE285E2A9
:10393000E7CF11E0A6CF8FE891E00197F1F700C043
:103940000000089581E08093D2025098589A5198CF
:10395000599A0E949B1C2091D20244ED52E0FA0138
:103960008E2F841B821708F0089589B181704999C0
:1039700004C090E0892B8193F3CF92E0FBCFA8E1C4
:10398000B0E0E5ECFCE10C94AF2B10E000E082E04D
:10399000982E94E0A92EB12C2DEF822E77247394CB
:1039A0003CEF632E43E0542E8091D202181728F08A
:1039B000802F6896EFE00C94CB2BE12EF12CE9B12F
:1039C000E17049997DC080E08E2BD701AC52BD4F8C
:1039D000EC919E2F9370981709F470C0EE0FEE0FC4
:1039E000E82BEC93EF70F0E0EF52FE4FC7018D52E1
:1039F0009D4F6C018081F6019081890F808320E0CA
:103A000084303CF1F701EF52FD4F80818F5F80835E
:103A10000E941A241D876E86682F8F87988B598A7B
:103A20007A8A412F5CEF792F83E091E00E9428058C
:103A30000E941A241B8B6C8A682F8D8B9E8B5F8A49
:103A4000188E412F5CEF792F83E090E00E942805CB
:103A500021E0F60180818D3F3CF5F701EF52FD4FEB
:103A60008081815080830E941A2419838A82682F62
:103A70008B839C839D827E82412F5DEF792F82E034
:103A800091E00E9428050E941A241F838886682FCF
:103A900089879A879B861C86412F5DEF792F82E06C
:103AA00090E00E94280521E0F6018081082E000C9C
:103AB000990BB5010E943F2B8083022B1F5F74CFAF
:103AC00082E082CF279A45B14F7755B15068EFB762
:103AD000F8949B01220F331F260F371F280F391F21
:103AE0002817390741F4EFBF8FE594E00197F1F70C
:103AF00000C000000895DC016D91CD0178E055B95A
:103B0000000000C067FF45B9660F000000C000C09C
:103B100000C045B900C07A9591F7E2CFCF93DF930B
:103B2000EB0186319C4711F50E94020D9D8199237E
:103B300099F08A7A91E009F490E09093D50281118E
:103B400009C089E20E9400230E94B60D80E0DF9147
:103B5000CF91089585E3F6CF8091D502811104C0FD
:103B600089E20E941723F0CF85E3FBCF81E0EFCFFE
:103B7000CF93DF93EC01FB018581882309F4D2C048
:103B80009E0130572332310508F0B2C00E94400E2A
:103B90009093FA028093F902FE01E150F047E2327D
:103BA000F10520F4E55CF24D0C94752B8091F9023F
:103BB00081608093F90293C08091FA0288608093BB
:103BC000FA028DC08091F9028260F3CF8091F902F0
:103BD0008460EFCF8091F9028860EBCF8091FA0288
:103BE0008160EDCF8091FA028260E9CF8091F90285
:103BF0008061DFCF8091F9028062DBCF8091F90292
:103C00008064D7CF0E945E088091F9028068D1CF8E
:103C10008091F9028C60CDCF8091FA028360CFCF82
:103C20008091F9028E7FC5CF8091FA02877FC7CF3E
:103C30008091F9028D7FBDCF8091F9028B7FB9CF42
:103C40008091F902877FB5CF8091FA028E7FB7CF3E
:103C50008091FA028D7FB3CF8091F9028F7EA9CF38
:103C60008091F9028F7DA5CF8091F9028F7BA1CF42
:103C70000E945E088091F9028F779BCF8091F902B4
:103C8000837F97CF8091FA028C7F99CF8091F90240
:103C900082FB992790F921E0922790FB82F990FB13
:103CA00083F987CF8091FA02982F909591708E7F3B
:103CB000892B90FB81F983CF9091F902892F8F7B1B
:103CC00096FF806476CF0E945E089091F902892F5A
:103CD00097FB87F980586DCF81E00E94CE0E8091CE
:103CE000F9029091FA020E94450E0E945E0880E05F
:103CF000DF91CF91089580E0F0CF9091F902892F64
:103D00008F7E94FF806155CF9091F902892F8E7F2D
:103D100090FF81604ECF9091FA02892F877F93FFA9
:103D200088604DCF81E0E4CF282F35EB2303C0011D
:103D3000112497FF04C080589109892F0895805855
:103D40009F4FFBCF8091DC0280FF0DC0609120016E
:103D500070E0660F771F6038710570F561157105A9
:103D600069F1862F089581FF07C06091200184E0EA
:103D7000689FB0011124EFCF6091200182FD0AC03D
:103D80008091DB028823A9F020911F01609120011E
:103D9000821710F088E0ECCF869FC001112433E039
:103DA000880F991F3A95E1F7622F70E00E943F2B30
:103DB000D2CF68E070E0D5CF8FE7089581E0089515
:103DC0008091DC0280FF0CC060911C0170E0759551
:103DD0006795759567956115710549F1862F089569
:103DE00081FF06C060911C0170E075956795F3CF67
:103DF00060911C0182FD0BC09091DA029923A1F021
:103E000060911B0180911C01961738F0682F70E0BB
:103E10006038710500F38FE70895899FC001112470
:103E200070E00E943F2BF4CF61E070E0D7CF81E0DB
:103E300008959091DF022091E002922B2091E202FE
:103E4000922B2091E102922B31F098E09093DB02CB
:103E500091E09093DA028D3C31F40E94A21E81958C
:103E60008093E00208958E3C19F40E94A21EF8CFC0
:103E70008F3C31F40E94A21E81958093DF02089549
:103E8000803D19F40E94A21EF8CF893D29F40E94BA
:103E9000E01E8093E10208958A3D21F40E94E01E15
:103EA0008195F7CF8B3D31F40E94E01E8195809380
:103EB000E20208958C3D19F40E94E01EF8CF9FE2C3
:103EC000980F983070F4815D990B21E030E001C0CB
:103ED000220F8A95EAF78091DE02822B8093DE0220
:103EE00008958D3D31F48091DC0281608093DC0285
:103EF00008958E3D21F48091DC028260F7CF8F3DE2
:103F0000B9F78091DC028460F1CF4091DF028D3CF3
:103F100059F48091E00287FF0DC01092E002411138
:103F20000BC01092DB0208C08E3C81F48091E0024D
:103F300018169CF3442381F08091E1029091E202F3
:103F4000892B09F05AC01092DA0208958F3C49F487
:103F500047FFF0CF1092DF028091E0028111ECCF99
:103F6000E0CF803D19F41416ACF3E4CF9091E10258
:103F7000893D29F41916F4F61092E102DBCF8A3D4F
:103F800019F497FFD7CFF8CF9091E2028B3D29F437
:103F900097FFD0CF1092E202CDCF8C3D19F41916C5
:103FA000CCF3C8CF9FE2980F983090F4815D990BC5
:103FB00021E030E0B90102C0660F771F8A95E2F771
:103FC000CB0180959091DE0289238093DE02B2CFEF
:103FD0008D3D31F48091DC028E7F8093DC02AACF8C
:103FE0008E3D21F48091DC028D7FF7CF8F3D09F06B
:103FF000A1CF8091DC028B7FF0CF08950E941A241C
:104000009C019091DF028091E002982B21F0309387
:10401000D9022093D8029091E1028091E202982B7C
:1040200021F03093D7022093D6028DED92E00E94CA
:10403000FD21089586E0EDEDF2E0DF011D928A9505
:10404000E9F71092DB021092DA021092DC02089576
:10405000FC01828181110EC0838181110BC084819A
:10406000811108C091E08581811101C090E0892F04
:104070008170089581E0FCCFA6E0B0E0E2E4F0E2D8
:104080000C94BB2B86E0EDEDF2E0DE011196019081
:104090000D928A95E1F71092DF021092E0021092E1
:1040A000E1021092E2028B819C81892B89F0809140
:1040B000D8029091D9020E943224AC019091DB0287
:1040C0009923C9F1809121018417150608F440C095
:1040D0008D819E81892B91F08091D6029091D7029B
:1040E0000E943224AC019091DA02992309F46AC04B
:1040F00080911D018417150608F472C0BE016F5F20
:104100007F4F8DED92E00E944823811105C08DED17
:1041100092E00E94282081110E94FE1F86E0FE018D
:104120003196ADEDB2E001900D928A95E1F72696B9
:10413000E3E00C94D72B209122018AE0289F900184
:1041400011242417350720F69F5F9093DB0202C0ED
:104150009F3FD1F71B81112359F00E94A21E9FEFB0
:1041600011160CF491E0899F802D11248093DF02B9
:104170001C81112359F00E94A21E9FEF11160CF40E
:1041800091E0899F802D11248093E0028091DF02CD
:10419000882309F49DCF1091E002112309F498CFF0
:1041A0000E94941E882351F08093DF02812F0E9489
:1041B000941E882329F08093E0028ACF81E0F4CF17
:1041C00081E0F9CF20911E018AE0289F90011124FF
:1041D0002417350708F092CF9F5F9093DA0202C050
:1041E0009F3FD1F71D81112359F00E94E01E9FEFE0
:1041F00011160CF491E0899F802D11248093E10227
:104200001E81112359F00E94E01E9FEF11160CF43D
:1042100091E0899F802D11248093E2028091E10238
:10422000882309F46BCF1091E202112309F466CFC1
:104230000E94941E882351F08093E102812F0E94F6
:10424000941E882329F08093E20258CF81E0F4CFB6
:1042500081E0F9CF0F931F93CF93DF93C42FD22F19
:10426000FC0185818823C9F04093E5020E941A244D
:104270009093E4028093E30280E28C0F883040F454
:10428000C77081E001C0880FCA95EAF70E9408064E
:10429000DF91CF911F910F9108951091E5021413B2
:1042A00032C08091E3029091E4020E943224883C63
:1042B000910548F5C0E2CD0F1D17B9F080E2810FDE
:1042C000883040F4177081E001C0880F1A95EAF732
:1042D0000E940F06C83048F481E09D2F977001C0FE
:1042E000880F9A95EAF70E940806802F0E94FF0522
:1042F000C83070F6D77081E001C0880FDA95EAF710
:104300000E940F06C5CF80E28C0F883008F6C77078
:1043100081E001C0880FCA95EAF7F2CF0F93DB0165
:1043200088519C4787309105A0F5FC01E35AF24D76
:104330000C94752B06E221EE41EE6AE17CE7CD019B
:104340000E942A2180E00F91089507E225EE45EEB4
:104350006BE17CE7F4CF06E221EE40EE68E17CE71A
:10436000EECF07E225EE44EE69E17CE7E8CF06E216
:1043700021EE42EE6CE17CE7E2CF07E225EE46EE6D
:104380006DE17CE7DCCF08E221E045EE6EE17CE701
:10439000D6CF15968C91882319F01092E502D3CFD1
:1043A00081E0D1CF9093EB028093EA020895E091EF
:1043B000EA02F091EB02309729F00190F081E02DB4
:1043C0000995089580E00895E091EA02F091EB02EA
:1043D000309721F00280F381E02D09950895E09156
:1043E000EA02F091EB02309739F026E0DC012C93E1
:1043F0000480F581E02D09950895E091EA02F0919D
:10440000EB02309739F022E0DC012C930680F78133
:10441000E02D09950895A3E0B0E0E1E1F2E20C940B
:10442000BC2B2091E8023091E90228173907A1F04E
:104430009093E9028093E802E091EA02F091EB02A6
:10444000309751F023E029839B838A830084F18590
:10445000E02DCE01019609952396E2E00C94D82B2D
:10446000A3E0B0E0E6E3F2E20C94BC2B2091E6027C
:104470003091E70228173907A1F09093E702809363
:10448000E602E091EA02F091EB02309751F024E06D
:1044900029839B838A830084F185E02DCE010196D8
:1044A00009952396E2E00C94D82B209106013091D7
:1044B00007012E5F3F4F80912D01882379F0809175
:1044C000F90287FF0BC020910401309105012E5F96
:1044D0003F4F9EE180E0915018F4089596E0FACFA6
:1044E000F90141919F014423B1F38F5FF4CF8823F9
:1044F00021F190912D01992311F19091F90297FFEB
:104500001EC0E82FE695E695E695EE31B0F42091D1
:10451000040130910501E20FF32FF11D228130E0FB
:10452000877041E050E002C0440F551F8A95E2F7C2
:104530002423352381E0232B91F480E008952091FA
:10454000060130910701F9013296285F3F4F9191A2
:10455000981721F0E217F307D1F7EFCF81E0089524
:104560009C01FC0132969FEF80E04191461751F08B
:104570009F3F19F4411101C0982F8F5F8630A9F732
:104580009F3F09F40895290F311D97FD3A95F901D0
:1045900062830895FC01329608962191261303C088
:1045A000DF0111971C92E817F907B9F70895E62F74
:1045B000E695E695E695EE3168F4E80FF92FF11DE2
:1045C000677021E030E001C0220F6A95EAF782812E
:1045D000822B82830895E62FE695E695E695EE31E7
:1045E00070F4E80FF92FF11D677021E030E001C091
:1045F000220F6A95EAF72095828128232283089565
:10460000682F80912D01882359F08091F90287FF4E
:1046100007C080910401909105010E94D72208955E
:1046200080910601909107010E94B0220895682FA1
:1046300080912D01882359F08091F90287FF07C0EE
:1046400080910401909105010E94EB2208958091D0
:104650000601909107010E94CA22089580912D01C0
:10466000882379F08091F90287FF0BC0E091040163
:10467000F091050132968EE1DF011D928A95E9F7EE
:104680000895E0910601F0910701329686E0F4CF9B
:10469000DC01FB0111969C9111978181981322C036
:1046A00012968C911297882319F0928189131AC05F
:1046B00013968C911397882319F09381891312C054
:1046C00015968C911597882319F0958189130AC046
:1046D00014969C91992321F081E02481291303C031
:1046E00080E001C081E08170089508950E947523E3
:1046F0000895811106C081E08093EC020E94762328
:10470000089582E0F9CF83E08093EC020E94762343
:1047100008950E947923089581E08093EC020E941D
:10472000762308950E948C230895089508950E9489
:1047300096230895089508950E9495230895CF9390
:104740000E949A230E94E7120E949B23C0E08C2FB4
:104750000E943712811105C0CF5FC330C1F7CF91DE
:10476000089581E0FCCF85B7806885BF85B78068F4
:1047700085BF08951F921FB61F9211248F939F9398
:10478000AF93BF938091ED02811113C08091150307
:1047900090911603A0911703B09118034196A11DA3
:1047A000B11D8093150390931603A0931703B09344
:1047B0001803BF91AF919F918F911F901FBE1F90C3
:1047C000189580911D03843031F10E94B704109236
:1047D000ED0288E190E020E40FB6F894A89580936C
:1047E00060000FBE2093600083B7817F846083BF29
:1047F00083B7816083BF7894889583B78E7F83BFAA
:104800000FB6F894A895809160008861809360004D
:10481000109260000FBE08950E945E080E94BE04C0
:10482000089582E084BD93E095BD9AEF97BD809393
:104830006E0008952FB7F894809115039091160398
:10484000A0911703B09118032FBF08952FB7F894C4
:1048500060911503709116038091170390911803CE
:104860002FBF08959C014FB7F89480911503909144
:104870001603A0911703B09118034FBF821B930B2F
:10488000089578941F921FB61F9211248F939F93BF
:10489000AF93BF938091150390911603A0911703D6
:1048A000B09118030196A11DB11D8093150390933B
:1048B0001603A0931703B0931803BF91AF919F9174
:1048C0008F911F901FBE1F90189581E08093E0008C
:1048D00080E28093D8001092C9008FE19EE4019796
:1048E000F1F700C0000087E090EBDC018093260325
:1048F00090932703A0932803B093290388E19CE0B9
:104900000FB6F894A895809360000FBE9093600056
:10491000FFCF88E19CE00FB6F894A89580936000E3
:104920000FBE90936000FFCF8091F60208959B0127
:10493000BA0190911D039430E9F48F708093E900DF
:104940009FEF8091E800915085FD06C085ED8A9526
:10495000F1F700009111F5CF8091E80085FF0AC0C2
:1049600050E040E0C9010E9498268091E8008E77CF
:104970008093E800089543E050E0BC0182E00E948B
:104980009724089546E050E0BC0182E00E949724FD
:10499000089540E250E0BC0182E00E94972408950F
:1049A000CF93DF93EC0148E050E0BC0181E00E942E
:1049B000972488E0FE01AEEEB2E001900D928A9558
:1049C000E1F7DF91CF91089580911C03811109C017
:1049D0000E9428280E9485288091E20084608093AC
:1049E000E200089510921C0308950E948C230895FC
:1049F0006091190381E0611101C080E00E9483236E
:104A0000089590911D0381E0943009F080E0609159
:104A100019030E948923089542E061EC81E00E941D
:104A2000A42742E261EC82E00E94A42790911D033A
:104A300081E0943009F080E0609119030E947923AD
:104A4000089580911F03833009F461C030F48130F0
:104A5000D1F1823009F49EC008958A3009F48AC0E9
:104A60008B3009F46FC0893009F050C080911E036B
:104A7000813209F04BC08091220390912303029769
:104A800008F044C08091E800877F8093E80080911F
:104A9000E80082FF37C09091F3008091F200029706
:104AA00031F48091F100813011F0863021F4809151
:104AB000F1008093F6028091E8008B778093E80004
:104AC0000E94D82723C080911E03813AF9F4809177
:104AD000E800877F8093E800809122039091230370
:104AE000892B61F468E08EEE92E070E00E94E72688
:104AF0008091E8008B778093E800089560E090E073
:104B000080E0F3CF80911D038111C1CF0895809182
:104B10001E03813AD9F78091220390912303892BB8
:104B2000A9F78091E800877F8093E8008091E800F2
:104B300080FFFCCF80912D018093F1008091E800EF
:104B40008E77BCCF80911E03813201F780912203C2
:104B500090912303892BD1F68091E800877F809381
:104B6000E8000E94D8278091200380932D010E94A5
:104B70005E08089580911E03813241F68091E8001D
:104B8000877F8093E8000E94D8278091210380933B
:104B9000F702089580911E03813A09F0B7CF809102
:104BA000E800877F8093E8008091E80080FFFCCFD9
:104BB0008091F702C1CF84B7877F84BF0FB6F89486
:104BC000A8958091600088618093600010926000D9
:104BD0000FBE80E890E00FB6F89480936100909348
:104BE00061000FBE0E94922308950E9428280E940F
:104BF0008528E2EEF0E080818460808378940E94D2
:104C0000042B089583E291E00E94D22108958091BF
:104C10001D03853031F480911D03853019F00E9409
:104C20000C2408950E94E12380911B03882399F3AB
:104C30000E949F23882379F30E9482260E945E08A7
:104C4000EACF08959A0140912403509125030E94D0
:104C50002A260895492F55274330510519F168F444
:104C60004130510509F444C04230510509F445C0B2
:104C700090E080E050E040E025C04132510549F12C
:104C800042325105A9F784E490E047EC54E0611505
:104C90007105C1F086EB90E041E154E061307105AF
:104CA00089F0E6CF99278130910581F0009729F0AE
:104CB0000297F1F6E0E8F3E002C0E0ECF3E0849163
:104CC00090E0AF01F901518340830895E0EAF3E0F9
:104CD000F6CF89E090E046ED53E06115710591F360
:104CE00089E090E04FEE53E06130710559F3C0CF99
:104CF00082E190E04FEF53E0E5CF8BE390E044ECAE
:104D000053E0E0CF80E189BD82E189BD09B400FEB6
:104D1000FDCF8091D8008F7D8093D8008091E000F6
:104D200082608093E0008091E00081FDFCCF0895D7
:104D3000AF92BF92CF92DF92FF920F931F93CF93C8
:104D4000DF936C01EB018A010E94F727F82E811195
:104D500023C00115110539F0F80180819181C81B2C
:104D6000D90BC80ED91EB12CA12C2097A9F0809187
:104D7000E80085FD22C08091E8008E778093E800EE
:104D800001151105A1F0F80180819181A80EB91ECD
:104D9000B182A08285E0F82E8F2DDF91CF911F91F7
:104DA0000F91FF90DF90CF90BF90AF9008950E9439
:104DB000F7278823D1F2F82EEFCFF60181916F010A
:104DC0008093F1002197FFEFAF1ABF0ACECFFC010D
:104DD000809124039091250386179707A0F0611511
:104DE000710529F49091E8009E779093E80090E097
:104DF0006115710551F4911108C08091E80082FF9E
:104E000034C080E00895BC01F2CF80911D03882357
:104E1000C1F18530C1F18091E80083FD30C08091FF
:104E2000E80082FDEACF8091E80080FFE1CF809129
:104E3000F3002091F200382F6115710519F0283028
:104E4000310558F091E02830310509F090E02091CB
:104E5000E8002E772093E800CBCF81918093F1007A
:104E6000615071092F5F3F4FE7CF80911D03882369
:104E700041F0853041F08091E80083FFBECF81E0B2
:104E8000089582E0089583E00895FC018091240351
:104E90009091250386179707A0F06115710529F4F5
:104EA0008091E8008E778093E80090E061157105AD
:104EB00051F4911108C08091E80082FF35C080E074
:104EC0000895BC01F2CF80911D038823C9F185307C
:104ED000C9F18091E80083FD31C08091E80082FD36
:104EE000EACF8091E80080FFE1CF8091F30020912C
:104EF000F200382F6115710519F02830310558F08E
:104F000091E02830310509F090E08091E8008E773B
:104F10008093E800CBCF84918093F100319661506B
:104F200071092F5F3F4FE6CF80911D03882341F029
:104F3000853041F08091E80083FFBDCF81E0089586
:104F400082E0089583E00895982F973028F08F70BD
:104F50008093E90081E008959093E900242F762F53
:104F600050E0981731F07091EC002091ED005091D5
:104F7000F00021FD02C09F5FE8CF3091EB003E7F43
:104F80003093EB003091ED003D7F3093ED00309198
:104F9000EB0031603093EB007093EC002093ED0058
:104FA0005093F0002091EE0027FDE5CF80E00895BA
:104FB00080911E0387FF13C08091E80082FF06C026
:104FC0008091E8008B778093E80004C080911D03F6
:104FD0008111F2CF089580911D038823D9F3809128
:104FE000E80080FFF8CF8091E8008E77ECCF209129
:104FF000E4003091E50095E6A9012091EC00822FB4
:10500000817020FF06C08091E80080FF06C080E02C
:1050100008952091E80022FD1AC080911D03882385
:1050200089F0853089F08091EB0085FD0FC02091DB
:10503000E4003091E50042175307F9F29150E1F690
:1050400084E0089582E0089583E0089581E0089562
:105050000E9497280E949F28E0EEF0E08081816006
:105060008083E8EDF0E080818F77808319BCA7ED25
:10507000B0E08C918E7F8C9380818F7E80831092A4
:105080001C0308950F931F93CF93DF930E949728DB
:105090000E949F28C8EDD0E088818F77888388811F
:1050A0008068888388818F7D888319BC10921D0356
:1050B0001092190310921B0310921A0300EE10E0D5
:1050C000F80180818B7F808388818160888342E0C2
:1050D00060E080E00E94A427E1EEF0E080818E7F16
:1050E0008083E2EEF0E0808181608083808188604F
:1050F0008083F80180818E7F8083888180618883AE
:10510000DF91CF911F910F910895E8EDF0E080813C
:105110008F7E8083E7EDF0E080818160808384E092
:1051200082BF81E080931C030E9442280895E8ED2D
:10513000F0E080818E7F80831092E20008951092CB
:10514000DA001092E10008951F920F920FB60F92AD
:1051500011242F933F934F935F936F937F938F937C
:105160009F93AF93BF93EF93FF938091E10082FFF2
:105170000BC08091E20082FF07C08091E1008B7F2D
:105180008093E1000E94032B8091DA0080FF19C018
:105190008091D80080FF15C08091DA008E7F8093C7
:1051A000DA008091D90080FF96C080E189BD82E15C
:1051B00089BD09B400FEFDCF81E080931D030E94EC
:1051C000E4248091E10080FF19C08091E20080FF1B
:1051D00015C08091E2008E7F8093E2008091E20012
:1051E00080618093E2008091D80080628093D80033
:1051F00019BC85E080931D030E94F8248091E10092
:1052000084FF2BC08091E20084FF27C080E189BD2C
:1052100082E189BD89B5982F917080FFFBCF809185
:10522000D8008F7D8093D8008091E1008F7E80939D
:10523000E1008091E2008F7E8093E2008091E200A5
:1052400081608093E20080911903882309F449C0AA
:1052500084E080931D030E9401258091E10083FF7B
:1052600029C08091E20083FF25C08091E100877F03
:105270008093E10082E080931D03109219038091D6
:10528000E1008E7F8093E1008091E2008E7F809329
:10529000E2008091E20080618093E20042E060E001
:1052A00080E00E94A4278091F00088608093F00045
:1052B0000E94F524FF91EF91BF91AF919F918F9143
:1052C0007F916F915F914F913F912F910F900FBE02
:1052D0000F901F90189519BC10921D030E94F22484
:1052E00070CF8091E30087FD93E090931D03B3CFCF
:1052F0001F920F920FB60F9211242F933F934F934B
:105300005F936F937F938F939F93AF93BF93CF934D
:10531000DF93EF93FF93D091E900DF708091EC0071
:10532000C82FC17080FDC0E81092E9008091F000A4
:10533000877F8093F00078940E94BC291092E90046
:105340008091F00088608093F000CD2BCF70C093E7
:10535000E900FF91EF91DF91CF91BF91AF919F91C4
:105360008F917F916F915F914F913F912F910F900E
:105370000FBE0F901F901895AAE2B0E0E2ECF9E2A0
:105380000C94BB2B8EE193E02091F100FC01219362
:10539000CF01F3E086329F07B9F70E942125809163
:1053A000E80083FF1EC180911E0390911F039A3075
:1053B00008F017C1E92FF0E0EC59F24D0C94752B71
:1053C000803899F0823809F00CC1809122038F70E7
:1053D000873008F006C18093E9008091EB0085FBDF
:1053E000882780F91092E90006C080911A039091F5
:1053F0001B03911182609091E800977F9093E800E1
:105400008093F1001092F1008091E8008E77E5C062
:10541000882309F4D3C0823009F0E3C080912003CF
:105420008111D6C0809122038F702FEF280F263074
:1054300008F0D7C08093E9002091EB0020FFC8C09E
:10544000933031F48091EB0080628093EB00C0C018
:105450009091EB0090619093EB0021E030E001C06F
:10546000220F8A95EAF72093EA001092EA008091D1
:10547000EB008860EACF8111B4C0109120031F7740
:105480008091E3008078812B8093E3008091E80095
:10549000877F8093E8000E94D8278091E80080FFF2
:1054A000FCCF8091E30080688093E30082E01111DB
:1054B00083E080931D0395C08058823008F091C02E
:1054C00080912003909121038C3D23E09207A1F568
:1054D00083E08A838AE289834FB7F894DE011396CA
:1054E00020E03EE051E2E32FF0E050935700E491DA
:1054F00020FF03C0E295EF703F5FEF708E2F90E0CA
:10550000EA30C0F0C7968D939D932F5F243159F7F1
:105510004FBF8091E800877F8093E8006AE270E0E7
:10552000CE0101960E94E7268091E8008B77809358
:10553000E80057C0C096E7CF609122037091230323
:10554000AE014F5F5F4F0E942226BC01892B09F4F8
:1055500048C09091E800977F9093E80089819A81F4
:105560000E944527E1CF8038E1F58091E800877FF0
:105570008093E800809119038093F10045CF811159
:1055800030C090912003923060F58091E800877FD1
:105590008093E800909319030E94D8278091190303
:1055A000882311F084E005C08091E30087FDFACFE5
:1055B00081E080931D030E940C2513C0809120037D
:1055C000813079F481E0933009F080E080931B030F
:1055D0001092E9008091E800877F8093E8000E94A4
:1055E000D8278091E80083FF0AC08091E800877F78
:1055F0008093E8008091EB0080628093EB00AA9694
:10560000E3E00C94D72B0895CF9380911D0388235A
:10561000A1F0C091E900CF709091EC00892F8170CA
:1056200090FD80E8C82B1092E9008091E80083FD8E
:105630000E94BC29CF70C093E900CF910895991BB7
:1056400079E004C0991F961708F0961B881F7A9579
:10565000C9F780950895AA1BBB1B51E107C0AA1F7B
:10566000BB1FA617B70710F0A61BB70B881F991F03
:105670005A95A9F780959095BC01CD01089597FBA7
:10568000072E16F4009407D077FD09D00E942B2B2B
:1056900007FC05D03EF4909581959F4F0895709535
:1056A00061957F4F0895A1E21A2EAA1BBB1BFD0135
:1056B0000DC0AA1FBB1FEE1FFF1FA217B307E407F1
:1056C000F50720F0A21BB30BE40BF50B661F771F49
:1056D000881F991F1A9469F7609570958095909529
:1056E0009B01AC01BD01CF010895EE0FFF1F059096
:1056F000F491E02D09940E94832B332312F48A1B2A
:105700009B0B0C94942BA29FB001B39FC001A39F4D
:10571000700D811D1124911DB29F700D811D1124EA
:10572000911D08950E94832BB7FF0895821B930B50
:1057300008950E94832BA59F900DB49F900DA49F68
:10574000800D911D11240895B7FF0C94992B0E9490
:10575000992B821B930B08952F923F924F925F9249
:105760006F927F928F929F92AF92BF92CF92DF9271
:10577000EF92FF920F931F93CF93DF93CDB7DEB7D6
:10578000CA1BDB0B0FB6F894DEBF0FBECDBF09946A
:105790002A88398848885F846E847D848C849B84C1
:1057A000AA84B984C884DF80EE80FD800C811B81CF
:1057B000AA81B981CE0FD11D0FB6F894DEBF0FBEFE
:1057C000CDBFED010895002E083090F0982F872F5F
:1057D000762F652F542F432F322F22270850F4CFD6
:1057E000220F331F441F551F661F771F881F991FE5
:1057F0000A95B2F7002D089597FD1094002E0830F9
:1058000098F00850232F342F452F562F672F782FCD
:10581000892F912DF4CF1594979587957795679556
:1058200057954795379527950A95AAF71124002D86
:1058300008958F929F92AF92BF92CF92DF92EF9294
:10584000FF92CF93DF93EC01688179818A819B81FC
:10585000611571058105910521F464E279ED8BE50F
:1058600097E02DE133EF41E050E00E94F92C49012F
:105870005A019B01AC01A7EAB1E40E94992B6B018C
:105880007C01ACEEB4EFA50194010E94A72BDC01D2
:10589000CB018C0D9D1DAE1DBF1DB7FF03C0019731
:1058A000A109B04888839983AA83BB839F77DF913E
:1058B000CF91FF90EF90DF90CF90BF90AF909F90EF
:1058C0008F9008950E94192C089580E091E00E9425
:1058D000192C0895B0E0A0E080930001909301019D
:1058E000A0930201B09303010895FB01DC0102C003
:1058F00005900D9241505040D8F70895FC01415059
:10590000504030F001900616D1F73197CF0108953D
:10591000882799270895FB01DC0104C08D9101902F
:10592000801921F441505040C8F7881B990B089505
:10593000FB01DC0102C001900D9241505040D8F7AC
:105940000895F999FECF92BD81BDF89A992780B547
:105950000895A6E1B0E044E050E00C94EB2CA8E1FF
:10596000B0E042E050E00C94EB2CDC01A40FB51F3A
:105970004150504048F0CB01840F951F2E910E945A
:10598000C62C41505040D0F70895262FF999FECFEC
:1059900092BD81BDF89A019700B4021639F01FBA82
:1059A00020BD0FB6F894FA9AF99A0FBE089503969F
:1059B000272F0E94C62C0E94C52C252F0E94C62C82
:1059C000242F0C94C62C0196272F0E94C62C0C94D1
:1059D000C52CDC01CB01FC01F999FECF06C0F2BD5C
:1059E000E1BDF89A319600B40D9241505040B8F79D
:1059F0000895052E97FB1EF400940E94102D57FD6C
:105A000007D00E94532B07FC03D04EF40C94102DAA
:105A100050954095309521953F4F4F4F5F4F0895DA
:105A200090958095709561957F4F8F4F9F4F08950A
:105A3000F894FFCF57065706A706A7060C072807B6
:105A4000860686062D079E07AD07AD073F1C461C40
:105A50004D1C521C571C5C1C611C661C6B1C701C72
:105A6000751C7A1C7E1C831C861C891C8C1C8F1C3C
:105A7000911C941C961C101E841E181EE21DE61D0F
:105A80001C1EEA1D201E2C1EF61D7D1EFA1D301E3A
:105A9000FE1D341E5C1E021E381E631E081E3E1EA6
:105AA000461EEE1D241EF21D281E0C1E421E521EF6
:105AB0006C1E7B1EDC1D141E8B1EAB21B1219A2196
:105AC000A521B721BD21C321E029082AF12A082AEE
:0C5AD000F12A3B2A5C2AF12AB32ABF2AE3
